:020000040800F2
:10000000B8060020050100081D2E00081F2E00085C
:10001000232E0008272E00082B2E000800000000C9
:100020000000000000000000000000002F2E00086B
:10003000312E000800000000332E0008352E000885
:100040001F0100081F0100081F0100081F01000810
:100050001F0100081F0100081F0100081F01000800
:100060001F0100081F0100081F0100081F010008F0
:100070001F0100081F0100081F0100081F010008E0
:100080001F0100081F0100081F0100081F010008D0
:100090001F0100081F0100081F0100081F010008C0
:1000A0001F0100081F0100081F0100081F010008B0
:1000B0001F010008693700081F0100081F01000820
:1000C0001F0100081F0100081F0100081F01000890
:1000D0001F0100083D2E00085D2E00081F010008CA
:1000E0001F0100081F0100081F010008DFF810D0E1
:1000F00003F0CCFE00480047192A0008AFF3008047
:10010000B80600200648804706480047FEE7FEE79D
:10011000FEE7FEE7FEE7FEE7FEE7FEE7FEE7FEE7B7
:1001200007020008ED0000080CB5002001900090C7
:100130006C48006840F480306A49086000BF694834
:10014000006800F4003000900198401C0190009875
:1001500018B90198B0F5A06FF1D16248006800F4B9
:10016000003010B10120009001E0002000900098C4
:10017000012843D15C48006840F010005A490860EB
:100180000846006820F0030008600846006840F058
:100190000200086053484068524948600846406879
:1001A00048600846406840F48060486008464068FF
:1001B00020F47C1048600846406840F4E81048602D
:1001C0000846006840F08070086000BF454800683D
:1001D00000F000700028F9D04248406820F0030089
:1001E000404948600846406840F00200486000BF4F
:1001F0003C48406800F00C000828F9D10CBD10B54F
:10020000FFF792FF10BD10B53648006840F00100BE
:10021000344908600846406834490840314948601C
:1002200008460068324908402E49086008460068C0
:1002300020F4802008600846406820F4FE004860F2
:100240004FF41F008860FFF7DAFF4FF00060294984
:10025000086010BD10B5002100200022214B5B6812
:1002600003F00C0121B1042906D0082928D107E0A8
:10027000214B224C236027E01F4B204C236023E0BE
:10028000184B5B6803F47010164B5B6803F4803204
:10029000022303EB904022B9194B4343174C2360D0
:1002A0000DE0104B5B6803F4003323B1144B434360
:1002B000124C236003E0104B4343104C236003E0D7
:1002C0000D4B0E4C236000BF00BF064B5B68C3F3B1
:1002D00003130C4CE15C094B1B68CB40074C2360BB
:1002E00010BD000000100240002002400000FFF896
:1002F000FFFFF6FE08ED00E000127A00000000208B
:1003000000093D000400002031490143314A1160D9
:10031000704770B5002100230F22C47804B32D4C20
:10032000246804F4E064C4F5E064210AC1F1040324
:10033000CA40447804FA03F1847814402143090147
:10034000254C0678A155047804F01F050124AC4023
:1003500005786D11AD0005F1E025C5F8004109E013
:10036000047804F01F050124AC401C4D067876117A
:1003700045F8264070BD1A4A0A400243154B1B1F20
:100380001A60704739B1134A121D12680243114BAB
:100390001B1D1A6006E00F4A121D126882430D4BA6
:1003A0001B1D1A607047042808D14FF0E02109692D
:1003B00041F004014FF0E022116107E04FF0E0212D
:1003C000096921F004014FF0E0221161704700003B
:1003D0000000FA050CED00E000E400E080E100E040
:1003E00080FFFF1F10B50446FA48844208D101215E
:1003F000401501F081F80021601501F07DF817E04B
:10040000F548844208D10121001501F075F800215A
:10041000201501F071F80BE0F048844208D1012169
:10042000C80301F069F800214FF4004001F064F8BE
:1004300010BD30B50246002000235068E84C204033
:100440000D790C6844EA0524204350609068E54C1F
:100450002040D1E902542C434D7944EA450420431D
:100460009060D06A20F470000C7C641EE4B22343D8
:1004700040EA0350D06230BD00210160017141713A
:100480008160C16001210174704721B1826842F02E
:100490000102826003E0826822F0010282607047FC
:1004A00021B1826842F48072826003E0826822F4A3
:1004B00080728260704710B50023CBB21AB14468D5
:1004C0001C43446002E044689C43446010BD816862
:1004D00041F0080181607047014600208A6802F0FF
:1004E00008020AB1012000E000207047816841F055
:1004F000040181607047014600208A6802F004020E
:100500000AB1012000E00020704721B1826842F466
:10051000A002826003E0826822F4A0028260704739
:10052000014600208A6802F480020AB1012000E03E
:100530000020704710B50A4600210023416821F4CD
:100540006041531E41EA4331416010BD21B1426810
:1005500042F40062426003E0426822F400624260BA
:100560007047F0B504460D4600200021092D11DD2D
:10057000E068A5F10A0606EB4607072606FA07F12A
:100580008843A5F10A0606EB460603FA06F108437E
:10059000E0600CE0206905EB4507072606FA07F145
:1005A000884305EB450603FA06F108432061072A54
:1005B0000FDA606B561E06EB86071F2606FA07F158
:1005C0008843561E06EB860605FA06F1084360636B
:1005D00022E00D2A0FDA206BD61F06EB86071F26B6
:1005E00006FA07F18843D61F06EB860605FA06F1E0
:1005F0000843206310E0E06AA2F10D0606EB8607CF
:100600001F2606FA07F18843A2F10D0606EB8606BF
:1006100005FA06F10843E062F0BD21B1826842F4B8
:100620008012826003E0826822F480128260704748
:100630000146C86C80B2704766484C30006870470D
:1006400021B1426842F48062426003E0426822F4D1
:1006500080624260704721B1426842F48052426039
:1006600003E0426822F48052426070470A4600214B
:10067000816821F4E04111438160704721B18268B3
:1006800042F40042826003E0826822F40042826009
:10069000704721B1826842F40212826003E08268EE
:1006A00022F4021282607047014600208A6802F438
:1006B00000120AB1012000E000207047F0B50446A6
:1006C0001546002000220026092911DDE068A1F16D
:1006D0000A0707EB470C072707FA0CF29043A1F132
:1006E0000A0707EB470703FA07F21043E0600CE044
:1006F000206901EB410C072707FA0CF2904301EB4C
:10070000410703FA07F210432061A06BC0F30156C2
:10071000EF1C06F1010CA7EB0C0707EB870C1F275A
:1007200007FA0CF29043EF1C06F1010CA7EB0C0743
:1007300007EB870701FA07F21043A063F0BD10B57D
:100740000A4600210023816B21F44011531E41EA27
:100750000351816310BD08B5002300930090009BF6
:100760000B440093009B1A6008BD08B502460020A8
:100770000090009201F12800009B1844009000981E
:10078000006880B208BD0A4600214168164B194036
:100790001143416070474162826270470A460021FE
:1007A000416821F01F0111434160704740B1094980
:1007B0000831096841F40001064A0832116007E077
:1007C00004490831096821F40001024A0832116025
:1007D000704700000024014000280140003C014017
:1007E000FFFEF0FFFDF7F1FFFFFD3FFF0246002097
:1007F00013680B400BB1012000E000207047CA4392
:100800000260704770B502460020002300240B12DE
:100810005568CEB205EA060415681D4015B10CB145
:10082000012000E0002070BD00220A12D3430360C3
:100830007047000001684FF6FE7211400160002110
:10084000016041608160C1608D49884208D18C4956
:100850000839496841F00F01894A083A51608AE035
:1008600087491431884208D185490839496841F0DF
:10087000F001834A083A51607DE08149283188427D
:1008800008D17F490839496841F470617C4A083AC7
:10089000516070E07A493C31884208D17849083982
:1008A000496841F47041764A083A516063E07449FE
:1008B0005031884208D172490839496841F47021A1
:1008C0006F4A083A516056E06D496431884208D158
:1008D0006B490839496841F47001694A083A516026
:1008E00049E067497831884208D165490839496843
:1008F00041F07061624A083A51603CE061498842C7
:1009000006D1011F096841F00F01021F116032E09A
:100910005C491431884208D15A49091F096841F0DD
:10092000F001584A121F116025E0564928318842CB
:1009300008D15449091F096841F47061514A121FD6
:10094000116018E04F493C31884208D14D49091FD8
:10095000096841F470414B4A121F11600BE049498C
:100960005031884207D14749091F096841F4702175
:10097000444A121F1160704710B50022026847F602
:10098000F0739A430C6A8B6823430C6923434C69C8
:1009900023438C692343CC6923434C6A23438C6AE9
:1009A00023431A430260CB6843600B6883604B6843
:1009B000C36010BD0021016041608160C1600161C0
:1009C00041618161C161016241628162704721B10F
:1009D000026842F00102026004E002684FF6FE7312
:1009E0001A40026070471AB103680B43036002E0CB
:1009F00003688B4303607047416070470146486855
:100A000080B2704701460020002201F080531BB1E4
:100A10001C4B083B1A6802E0194B083B1A6802EAB3
:100A200001030BB1012000E00020704700F080516D
:100A300019B11449091F086002E0114908394860DA
:100A4000704701460020002201F080531BB10D4B7E
:100A5000083B1A6802E00A4B083B1A6802EA0103E5
:100A60000BB1012000E00020704700F0805119B167
:100A70000449091F086002E00149083948607047CD
:100A8000080002400804024010B50446CC488442E5
:100A900008D10121042000F02FFD0021042000F0E6
:100AA0002BFD46E0C748844208D10121082000F010
:100AB00023FD0021082000F01FFD3AE0C2488442D7
:100AC00008D10121102000F017FD0021102000F0B6
:100AD00013FD2EE0BD48844208D10121202000F002
:100AE0000BFD0021202000F007FD22E0B8488442E1
:100AF00008D10121402000F0FFFC0021402000F03F
:100B0000FBFC16E0B348844208D10121802000F0AC
:100B1000F3FC0021802000F0EFFC0AE0AE488442A4
:100B200007D10121801500F0E7FC0021A01500F09D
:100B3000E3FC10BD10B50121084600F0DDFC0021EA
:100B4000012000F0D9FC10BD2DE9F041024600253E
:100B50000026002000230024002791F803C00CF099
:100B60000F0591F803C00CF0100CBCF1000F03D07E
:100B700091F802C04CEA050591F800C0BCF1000FE5
:100B800031D0146800202BE04FF0010C0CFA00F378
:100B9000B1F800C00CEA03069E4220D183004FF05A
:100BA0000F0C0CFA03F7BC4305FA03FC4CEA0404EF
:100BB00091F803C0BCF1280F06D14FF0010C0CFADC
:100BC00000FCC2F814C00AE091F803C0BCF1480F61
:100BD00005D14FF0010C0CFA00FCC2F810C0401C0B
:100BE0000828D1D31460B1F800C0BCF1FF0F34DD88
:100BF000546800202EE000F1080C4FF0010808FABC
:100C00000CF3B1F800C00CEA03069E4221D1830028
:100C10004FF00F0C0CFA03F7BC4305FA03FC4CEA47
:100C2000040491F803C0BCF1280F05D100F1080CB1
:100C300008FA0CF8C2F8148091F803C0BCF1480F10
:100C400007D100F1080C4FF0010808FA0CF8C2F8BF
:100C50001080401C0828CED35460BDE8F0814FF6C8
:100C6000FF710180022181700421C170704702462A
:100C7000002093680B400BB1012000E0002070477A
:100C80000146886880B2704702460020D3680B4056
:100C90000BB1012000E0002070470146C86880B217
:100CA000704701617047416170470AB1016100E01E
:100CB00041617047C16070474FF480320A438261DE
:100CC0008161826182698269704702460020434BDC
:100CD00018684FF68073184040EA021008433F4BF3
:100CE000186070473E49C8617047F0B50A46002356
:100CF00000240021002500F00046B6F1004F02D18B
:100D0000364EF16901E0354E7168C0F3034583B298
:100D100000F44016B6F5401F08D121F070612F4E47
:100D2000766826F070662D4F7E6012E000F4801623
:100D3000B6F5801F06D1032606FA05F4A14341F05B
:100D4000706106E0460D360103FA06F6B14341F044
:100D5000706122B1460D360103FA06F6314300F008
:100D60000046B6F1004F02D11C4EF16101E01B4E6E
:100D70007160F0BD30B500228B071C0F0F2303FA02
:100D800004F2164B08338C1053F824309343134C61
:100D900008348D1044F8253023468C1053F8243045
:100DA0008C07240F00FA04F423430C4C08348D10F4
:100DB00044F8253030BD0A49DC3108607047000036
:100DC00000080140000C01400010014000140140E7
:100DD00000180140001C01400020014000000140BB
:100DE0000000204210B50446F748844209D1012191
:100DF000480500F08EFB00214FF4001000F089FB45
:100E000008E00121880500F084FB00214FF48000F8
:100E100000F07FFB10BD2DE9F04385B004460D4680
:100E20000026B1460427DFF8A483A6884FF6C070D9
:100E30000640684600F0D9FADDF80880E448B8FBBF
:100E4000F0F01FFA80F946EA0906A68020884FF6DE
:100E5000FE71084020800026DE49286888420CD8B0
:100E600028684000B8FBF0F087B2042F00DA0427AE
:100E70003E4309F10100208427E0E8884BF6FF712A
:100E8000884206D1286800EB4000B8FBF0F087B23A
:100E900009E0286800EBC00101EB0010B8FBF0F09E
:100EA00087B247F48047C7F30B0008B947F0010742
:100EB00047F4004006434FF4967009FB00F04FF4EE
:100EC0007A7190FBF1F0401C2084A683208840F0CA
:100ED0000100208026884FF6F5300640A8886989F1
:100EE000084306432680A88929890843208105B044
:100EF000BDE8F08341F288310160002181804BF62A
:100F0000FF71C1800021018141814FF480418181C5
:100F1000704721B1028842F00102028004E0028899
:100F20004FF6FE731A400280704721B1828842F466
:100F30000062828004E082884FF2FF731A40828050
:100F4000704721B1828842F48052828004E0828816
:100F50004EF6FF731A408280704721B1028842F436
:100F60008072028004E002884FF6FF631A4002801C
:100F7000704721B1028842F40072028004E00288C6
:100F80004FF6FF531A400280704721B1028842F4A5
:100F90008062028004E002884FF6FF331A4002802C
:100FA00070470A46002181894FF60173194002F00B
:100FB000FE0319438181704721B1828942F0010209
:100FC000828104E082894FF6FE731A408281704765
:100FD00021B1028842F04002028004E002884FF60C
:100FE000BF731A40028070471AB183880B43838015
:100FF00002E083888B4383807047018270470146FB
:10100000088AC0B2704712B141F0010102E04FF608
:10101000FE7319400182704708B502460020009017
:1010200000920098084400900098008808BD21B103
:10103000028842F40042028003E00288C2F30E02FA
:1010400002807047B1F5006F04D1028842F400625B
:10105000028004E002884FF2FF731A40028070475A
:10106000B1F5005F04D1028842F40052028004E02E
:1010700002884DF6FF731A400280704721B1028842
:1010800042F48052028004E002884EF6FF731A4058
:1010900002807047B1F5006F04D1028842F400620B
:1010A000028004E002884FF2FF731A40028070470A
:1010B00021B1028842F02002028004E002884FF64B
:1010C000DF731A40028070470146088B0012704798
:1010D00021B1028842F01002028004E002884FF63B
:1010E000EF731A400280704721B9028842F08002F3
:1010F000028004E002884FF67F731A400280704736
:10110000B1F5804F05D0828B4BF6FF731A40828376
:1011100003E0828B42F480428283704770B50246BE
:101120000024002500230020958A138B1B0445EA28
:10113000030626F07F4404EA01068E4201D1012015
:1011400000E0002070BD10B5014600200023002201
:101150008B8A0A8B120443EA020424F07F4010BDFC
:101160000CB50246002000230193009300920B0F60
:10117000019321F07F41019B1BB1009B143300932D
:1011800003E0090C009B18330093009B1B680B4085
:101190000BB1012000E000200CBD002221F07F42B5
:1011A000D3438382704730B50246002000239488E1
:1011B00001F0E06504EA154321F07F41948A0C4078
:1011C00054B14BB1012008E00054004000127A00F5
:1011D00040420F00A0860100002030BD002221F017
:1011E0007F42D34383827047DF48006840F00100AC
:1011F000DD49086008464068DC490840DA49486033
:1012000008460068DA490840D7490860084600687F
:1012100020F4802008600846406820F4FE00486002
:101220004FF41F0088607047CF49096821F480316E
:10123000CD4A11601146096821F480211160B0F592
:10124000803F03D0B0F5802F0ED106E0C649096873
:1012500041F48031C44A116007E0C349096841F490
:10126000A021C14A116000E000BF00BF704710B567
:1012700001460022002300204A11012A02D1BA4C63
:10128000236806E0022A02D1B74C236A01E0B64C7B
:10129000636A01F01F02012494401C400CB101203C
:1012A00000E0002010BD38B500200090002400258B
:1012B00000BF3120FFF7DBFF05460098401C00907F
:1012C0000098B0F5A06F01D0002DF2D03120FFF7CB
:1012D000CEFF08B1012400E00024204638BD0146BD
:1012E0000020A14A106820F0F80040EAC100106018
:1012F0007047A04908607047024600209A4B586822
:1013000020F47C1042EA01031843974B5860704761
:1013100098490866704701460020934A506820F0BB
:1013200003000843506070478F48406800F00C008D
:101330007047014600208C4A506820F0F0000843B6
:101340005060704701460020874A506820F4E060F2
:1013500008435060704701460020834A506820F4DB
:10136000605040EAC1005060704729B17E4A527A0D
:1013700002437D4B5A7204E07B4A527A82437A4B95
:101380005A7270477B49D831086070470146002087
:10139000754A506820F4404008435060704700216F
:1013A000714A20321170704A82F82010012802D050
:1013B00004280AD104E001216B4A2032117005E0B3
:1013C0000521694A2032117000E000BF00BF70475C
:1013D0006949086070476449096A0143624A1162B9
:1013E0007047654944390860704730B500210022D4
:1013F000002400235C4D6D6805F00C0121B1042927
:1014000005D0082923D105E05C4D056022E05B4D45
:1014100005601FE0544D6D6805F47012524D6D6803
:1014200005F48034022505EB92421CB9544D554316
:1014300005600BE04C4D6D6805F400351DB1504D55
:101440005543056002E04D4D5543056002E04B4DAC
:10145000056000BF00BF444D6D6805F0F00109094B
:10146000484D6B5C0568DD4045603F4D6D6805F497
:10147000E061090A434D6B5C4568DD4085603A4D8B
:101480006D6805F46051C90A3E4D6B5C4568DD40EE
:10149000C560354D6D6805F44041890B3A4D6B5C74
:1014A000C568B5FBF3F5056130BD29B12E4A526917
:1014B00002432D4B5A6104E02B4A526982432A4B66
:1014C0005A61704729B1284A92690243264B9A61B2
:1014D00004E0254A92698243234B9A61704729B1FF
:1014E000214AD2690243204BDA6104E01E4AD269E4
:1014F00082431D4BDA61704729B11B4AD26802430F
:10150000194BDA6004E0184AD2688243164BDA605D
:10151000704729B1144A12690243134B1A6104E05F
:10152000114A12698243104B1A61704712494039BF
:10153000086070470F49C86470470B49C87170470D
:101540000948406A40F08070074948627047014688
:101550000020054A92680A400AB1012000E00020FC
:101560007047014988727047001002400000FFF880
:10157000FFFFF6FE000042428004424200127A0061
:1015800000093D00140000202400002010B504468E
:10159000FE48844208D10121C014FFF7ADFF0021AD
:1015A000E014FFF7A9FFC4E0B4F1804F08D1012196
:1015B0000846FFF7AEFF00210120FFF7AAFFB8E0C1
:1015C000F348844208D101210220FFF7A2FF002145
:1015D0000220FFF79EFFACE0EE48844208D10121D3
:1015E0000420FFF796FF00210420FFF792FFA0E000
:1015F000E948844208D101210820FFF78AFF002131
:101600000820FFF786FF94E0E448844208D10121D6
:101610001020FFF77EFF00211020FFF77AFF88E0FF
:10162000DF48844208D101212020FFF772FF00210A
:101630002020FFF76EFF7CE0DA48844208D10121C8
:101640004014FFF759FF00216014FFF755FF70E0C9
:10165000D548844209D10121C804FFF74DFF00217C
:101660004FF40020FFF748FF63E0D048844209D1DF
:1016700001210805FFF740FF00214FF48010FFF71C
:101680003BFF56E0CA48844209D101214805FFF7D3
:1016900033FF00214FF40010FFF72EFF49E0C5484B
:1016A000844208D101214020FFF733FF0021402070
:1016B000FFF72FFF3DE0C048844208D10121802080
:1016C000FFF727FF00218020FFF723FF31E0BB4811
:1016D000844208D101218015FFF71BFF0021A015CE
:1016E000FFF717FF25E0B648844209D1012108041D
:1016F000FFF702FF00214FF48030FFF7FDFE18E0F6
:10170000B048844209D101214804FFF7F5FE0021C9
:101710004FF40030FFF7F0FE0BE0AB48844208D1F5
:1017200001218804FFF7E8FE00214FF48020FFF735
:10173000E3FE10BD00220288944B98420ED0994BD4
:1017400098420BD0B0F1804F08D0914B984205D011
:10175000904B984202D0904B984204D14FF68F7331
:101760001A404B881A438D4B984207D08C4B9842B5
:1017700004D04FF6FF431A40CB881A4302808B886F
:1017800083850B880385814B98420BD0854B98420B
:1017900008D08B4B984205D08A4B984202D08A4B96
:1017A000984201D10B7A038601238382704770B57A
:1017B000002400220023058C4FF6FE763540058478
:1017C000028C8388048B4FF68F752C40B51E2C40FD
:1017D0000D882C43751E2A400D892A434D882A43C3
:1017E0006A4DA8420BD06F4DA84208D0744DA84254
:1017F00005D0744DA84202D0734DA84213D14FF6C4
:10180000F7752A404D892A434FF6FB752A408D888B
:101810002A434FF6FF652B404FF6FF552B408D892D
:101820002B43CD892B4383800483CD888586028416
:1018300070BD70B5002400220023058C4FF6EF76B2
:1018400035400584028C8388048B48F6FF752C4054
:101850004FF6FF452C400D884FF6FF7606EA05252A
:101860002C434FF6DF752A400D8906EA05152A43F9
:101870004D8806EA05152A43444DA84202D0494D39
:10188000A8421DD14FF67F752A404D894FF6FF764D
:1018900006EA05152A434FF6BF752A408D8806EAE9
:1018A00005152A434FF6FF352B404FF2FF752B40AD
:1018B0008D8906EA85052B43CD8906EA85052B43EC
:1018C00083800483CD880587028470BD70B50024B1
:1018D00000220023058C4FF6FF6635400584028CFC
:1018E0008388848B4FF68F752C404FF6FC752C4007
:1018F0000D882C434FF6FF552A400D894FF6FF7691
:1019000006EA05252A434D8806EA05252A431F4D88
:10191000A84202D0234DA8421DD14FF2FF752A40A4
:101920004D894FF6FF7606EA05252A434FF6FF3527
:101930002A408D8806EA05252A434EF6FF752B407E
:101940004DF6FF752B408D8906EA05152B43CD8991
:1019500006EA05152B4383808483CD88858702841E
:1019600070BD70B5002200230024058C4EF6FF7672
:1019700035400584038C8488828B48F6FF752A40A5
:101980004FF6FF452A400D8820E00000002C014062
:101990000004004000080040000C0040001000401F
:1019A0000014004000340140004C01400050014050
:1019B0000054014000180040001C0040002000407E
:1019C0000040014000440140004801404FF6FF76CE
:1019D00006EA05252A434DF6FF752B400D8906EAD8
:1019E00005352B434D8806EA05352B43FA4DA842B1
:1019F00002D0FA4DA84208D14BF6FF752C408D89D4
:101A00004FF6FF7606EA85152C4384808283CD88C5
:101A1000A0F84050038470BD828B4FF2FF331A4010
:101A20008283828B4FF6FF7303EA01231A4382837A
:101A30007047F0B50C461546002200210026078CA1
:101A40004EF6FF7C07EA0C070784828B018C4FF669
:101A5000FF7707EA043640F6FF473A404FF6FF7734
:101A600007EA05273A434FF6FF7707EA03373A4379
:101A7000D94FB8420ED0D94FB8420BD0B0F1804FF9
:101A800008D0D74FB84205D0D64FB84202D0D64F73
:101A9000B84206D14DF6FF77394046F480573943B6
:101AA00005E047F6FF57394044F4805739438283B5
:101AB0000184F0BD828B4FF6F3731A408283828BD0
:101AC0000A4382837047F0B50C4615460022002178
:101AD0000026078C4FF6FF6C07EA0C070784828B01
:101AE000018C4FF6FF7707EA04264FF60C773A4051
:101AF0004FF6FF7707EA03172F433A43B64FB84232
:101B00000ED0B64FB8420BD0B0F1804F08D0B44FD2
:101B1000B84205D0B34FB84202D0B34FB84206D155
:101B20004FF6FF57394046F48077394305E04FF2CE
:101B3000FF57394044F48077394382830184F0BDF4
:101B4000028B4FF2FF331A400283028B4FF6FF7372
:101B500003EA01231A4302837047F0B50C46154689
:101B6000002200210026078C4FF6EF7C07EA0C07C5
:101B70000784028B018C4FF6FF7707EA041640F6C4
:101B8000FF473A404FF6FF7707EA03373A434FF6ED
:101B9000FF7707EA05273A438F4FB8420ED08F4FA1
:101BA000B8420BD0B0F1804F08D08D4FB84205D06D
:101BB0008C4FB84202D08C4FB84206D14FF6DF7737
:101BC000394046F01007394305E04FF65F7739405A
:101BD00044F01007394302830184F0BD028B4FF6B5
:101BE000F3731A400283028B0A4302837047F0B5F5
:101BF0000C46154600220021068C4FF6FE773E402B
:101C00000684028B018C4FF60C7632407E1C06EA6D
:101C100003162E433243704EB0420ED06F4EB04288
:101C20000BD0B0F1804F08D06D4EB04205D06D4E54
:101C3000B04202D06C4EB04206D14FF6FD76314034
:101C400044F00106314305E04FF6F576314044F0AB
:101C50000106314302830184F0BD70B505460C4690
:101C60005D4885420ED05D4885420BD0B5F1804F6E
:101C700008D05B48854205D05A48854202D05A4870
:101C8000854200D100E000BF208850B92389A28896
:101C900061882846FFF7ABFFE1882846FFF79EFFE3
:101CA00025E0208804280AD12389A2886188284653
:101CB000FFF753FFE1882846FFF742FF17E020882F
:101CC00008280AD12389A28861882846FFF7FBFEED
:101CD000E1882846FFF7EEFE09E02389A2886188A3
:101CE0002846FFF7A6FEE1882846FFF795FE70BD5F
:101CF0002DE9F04105460C4600260127608808B909
:101D0000022600E00026A088012801D1022700E079
:101D100001272088A0B92389A28861882846FFF777
:101D200066FFE1882846FFF759FF23893A46314686
:101D30002846FFF712FFE1882846FFF701FF13E06E
:101D40002389A28861882846FFF707FFE188284693
:101D5000FFF7F6FE23893A4631462846FFF747FF4C
:101D6000E1882846FFF73AFFBDE8F0810A884B88F2
:101D70001A438B881A43CB881A430B891A434B8921
:101D80001A438B891A43A0F8442070474FF6FF711D
:101D9000818000210180C180418001727047002153
:101DA000018041808180C180018141818181C18127
:101DB0007047002101804180012181800021C18084
:101DC000018170470021018041808180C1800181B3
:101DD0004181818170470000002C014000340140A6
:101DE0000004004000080040000C004021B10288BF
:101DF00042F00102028004E002884FF6FE731A40AE
:101E00000280704731B1B0F8442042F40042A0F89B
:101E1000442005E0B0F84420C2F30E02A0F84420AC
:101E200070471AB183890B43838102E083898B4316
:101E3000838170478182704741EA0203A0F84830ED
:101E400070471AB183890B43838102E083898B43F6
:101E50008381704701894FF6F87211400181704704
:101E60000A46002101894FF68F7319401143018101
:101E7000704730B504460D4629462046FFF7F0FF6F
:101E8000208940F00700208130BD2DE9F041044653
:101E90000D4616461F46602D06D13B4601223146AF
:101EA0002046FFF75AFE05E03B4601223146204618
:101EB000FFF79DFE29462046FFF7D2FF208940F01C
:101EC00007002081BDE8F08130B50C460021018972
:101ED000C9B24FF6FF7505EA03251543254329438B
:101EE000018130BD2DE9F04105460E461746984662
:101EF000002443463A4631462846FFF7E5FF2C8941
:101F00004FF6F870044044F007044FF68F70044019
:101F100044F070042C81BDE8F081F0B504460D4614
:101F200016461F463B46324629462046FFF7CCFF61
:101F3000208940F480402081F0BD01858282704775
:101F40000A46002101884FF68F7319401143018022
:101F50007047F0B50C4615461E46002100220023AE
:101F60000189028B038C4FF6F877394021434FF6F5
:101F7000FC473A4040F201173A434FF6DD773B40C9
:101F80004FF6FF7707EA06172F433B430181028391
:101F90000384F0BD0A460021018B4FF68F73194070
:101FA0001143018370470A460021018B48F6FF73F5
:101FB00019404FF6FF7303EA022319430183704768
:101FC0000A460021818B4FF68F731940114381839C
:101FD00070470A460021818B48F6FF7319404FF67F
:101FE000FF7303EA022319438183704721B10288FA
:101FF00042F08002028004E002884FF67F731A40AC
:102000000280704721B1828842F00402828004E09D
:1020100082884FF6FB731A408280704721B1828814
:1020200042F00802828004E082884FF6F7731A407B
:102030008280704721B1828842F00102828004E0F0
:1020400082884FF6FE731A40828070470A4600214C
:10205000018B4FF6F77319401143018370470A460D
:102060000021018B4FF2FF7319404FF6FF7303EA13
:1020700002231943018370470A460021818B4FF6E2
:10208000F77319401143818370470A460021818B01
:102090004FF2FF7319404FF6FF7303EA022319430F
:1020A000818370470A460021018B4FF6FB7319406C
:1020B0001143018370470A460021018B4FF6FF331D
:1020C00019404FF6FF7303EA022319430183704757
:1020D0000A460021818B4FF6FB731940114381831F
:1020E00070470A460021818B4FF6FF3319404FF6A7
:1020F000FF7303EA02231943818370470A460021D4
:10210000018B4FF67F7319401143018370470A46D4
:102110000021018BC1F30E014FF6FF7303EA022386
:102120001943018370470A460021818B4FF67F7364
:1021300019401143818370470A460021818BC1F306
:102140000E014FF6FF7303EA0223194381837047A0
:102150000A460021018C4FF6FD731940114301849A
:1021600070470A460021018C4FF6F773194011435E
:10217000018470470A460021018C4FF6DF73194035
:102180004FF6FF7303EA02131943018470470A46AE
:102190000021018C4FF67F7319404FF6FF7303EA5D
:1021A00002131943018470470A460021018C4FF63F
:1021B000FF5319404FF6FF7303EA022319430184CA
:1021C00070470A460021018C4FF2FF7319404FF609
:1021D000FF7303EA02231943018470470A46002172
:1021E000018C4DF6FF7319404FF6FF7303EA02337B
:1021F00019430184704730B5002301248C40A3B2F9
:10220000048C9C430484048C02FA01F5ADB22C4387
:10221000048430BD30B5002304248C40A3B2048C68
:102220009C430484048C02FA01F5ADB22C4304846F
:1022300030BD70B503460020002418461830012533
:102240008D40ACB21D8CA5431D8409B1082909D16C
:1022500000EB6100056825F0700505600568154311
:1022600005600EE00D1FC5F34E052844056825F4F2
:10227000E045056005684FF6FF7606EA022635431D
:10228000056070BD21B1028842F00202028004E0C4
:1022900002884FF6FD731A400280704721B1028810
:1022A00042F00402028004E002884FF6FB731A40F9
:1022B0000280704721B1828842F08002828004E06F
:1022C00082884FF67F731A408280704702884FF6EB
:1022D000F7731A40028002880A430280704782889E
:1022E0004FF68F731A40828082880A43828070473B
:1022F00002894FF6F8731A40028102890A4302816B
:10230000704702894FF67F731A40028102890A439F
:10231000028170478184704781857047818670474C
:102320000187704781877047A0F840107047028886
:102330004FF6FF431A40028002880A43028070472A
:102340000146888E70470146088F70470146888F86
:1023500070470146B1F8400070470146888C7047CD
:102360000146088D704702460020138A0B400BB1CE
:10237000012000E000207047CA430282704730B558
:102380000246002000230024158A05EA01039589EE
:1023900005EA010413B10CB1012000E0002030BDBA
:1023A000CA4302827047000010B50446FB488442CD
:1023B00009D101218803FFF79FF800214FF48040E5
:1023C000FFF79AF832E0F648844209D10121480427
:1023D000FFF79FF800214FF40030FFF79AF825E04F
:1023E000F048844209D101218804FFF792F80021C6
:1023F0004FF48020FFF78DF818E0EB48844209D1B4
:102400000121C804FFF785F800214FF40020FFF7F1
:1024100080F80BE0E548844208D101210805FFF768
:1024200078F800214FF48010FFF773F810BD2DE904
:10243000F04786B005460E460024A24600BFA146DE
:102440000027B08900B100BF2F462C8A4CF6FF70E0
:102450000440F08804432C82AC894EF6F31004400B
:10246000B08831890843718908430443AC81AC8A40
:102470004FF6FF400440B0890443AC8201A8FEF748
:10248000B4FFC648874202D1DDF810A001E0DDF8B4
:102490000CA0A88900F4004040B10AEBCA0000EB90
:1024A0000A1031684900B0FBF1F807E00AEBCA00F6
:1024B00000EB0A1031688900B0FBF1F86420B8FB2A
:1024C000F0F004012009642101FB1089A88900F4BF
:1024D000004040B1322000EBC900B0FBF1F000F049
:1024E0000700044308E0322000EB09106421B0FB30
:1024F000F1F000F00F0004432C8106B0BDE8F08736
:102500004FF41651016000218180C18001810C21AE
:10251000418100218181704710B502460020108A58
:102520004FF2FF0318400B884C8823438C882343C9
:10253000CC8823431843108210BD002101804180C4
:102540008180C180704721B1828942F4005282812A
:1025500004E082894DF6FF731A4082817047F0B51E
:102560000346002400260025002040F66A17B942E1
:1025700000D100BF1846C1F3421401F01F06012725
:1025800007FA06F5012C01D10C3004E0022C01D130
:10259000103000E014301AB107682F43076002E0E2
:1025A0000768AF430760F0BD1AB1838A0B4383828B
:1025B00002E0838A8B4383827047028A4FF6F0736E
:1025C0001A400282028A0A430282704782894FF2CD
:1025D000FF731A40828182890A438281704721B148
:1025E000828942F00202828104E082894FF6FD7303
:1025F0001A4082817047028A4FF6DF731A400282C6
:10260000028A0A430282704721B1028A42F4804260
:10261000028204E0028A4BF6FF731A40028270477E
:10262000C1F308028280704701468888C0F3080021
:102630007047818941F0010181817047028BD2B2DC
:102640000283028B42EA012202837047028B02F46A
:102650007F420283028B0A430283704721B1828A40
:1026600042F02002828204E0828A4FF6DF731A4031
:102670008282704721B1828A42F01002828204E095
:10268000828A4FF6EF731A408282704721B1828AA4
:1026900042F00802828204E0828A4FF6F7731A4001
:1026A0008282704721B1828942F40042828103E034
:1026B0008289C2F30E028281704721B1828A42F47C
:1026C0000062828204E0828A4FF2FF731A408282A3
:1026D0007047828A4FF6FB731A408282828A0A43CD
:1026E0008282704721B1828A42F00202828204E033
:1026F000828A4FF6FD731A4082827047024600209C
:10270000B1F5007F00D100BF13880B400BB1012051
:1027100000E00020704701F40072B2F5007F00D1A4
:1027200000BFCA430280704770B5024600240023F0
:102730000025002040F66A16B14200D100BFC1F367
:10274000421501F01F03012606FA03F3012D02D101
:102750009689334006E0022D02D1168A334001E00B
:10276000968A33400C12012606FA04F41688344087
:1027700013B10CB1012000E0002070BD10B50022A3
:10278000002340F66A14A14200D100BF0A120124BE
:102790009440A3B2DC43048010BD00000038014027
:1027A0000044004000480040004C00400050004001
:1027B00010B501211D20FEF785FE0121A648FEF778
:1027C00094FA10BD10B500F03AFCA4490860084620
:1027D000006801F078F94FF47A7190FBF1F201FB97
:1027E0001200642190FBF1F030309D4908709B4845
:1027F000006801F068F9642190FBF1F201FB12001E
:102800000A2190FBF1F03030954948702E208870F5
:102810009248006801F057F90A2190FBF1F201FBA0
:10282000120030308E49C87010BD2DE9F04F95B0C0
:1028300000248C48129000BF002510E001218A4836
:10284000FDF763FE00BF02218748FDF7CFFF002898
:10285000F9D08548FDF7ECFE0444681CC5B2322D62
:10286000ECDB3220B4FBF0F4204601F016F94FF017
:102870008B41119000F0BAFF834601F03DF981468B
:102880004FF06632794B01F096F8064601F047F9B1
:1028900077490860129801F02FF906460022754B1F
:1028A00001F083F8744A754BCDE90E0101F083F80D
:1028B0000022734BCDE9100100F0D6FF814601F0F4
:1028C0002EF9804641466A48006800F08FFF139059
:1028D000139801F011F90646674A5242694B01F01C
:1028E0006AF8CDE90C01139801F006F906460F4687
:1028F000139801F001F9644A644BCDE9040101F039
:102900005AF8814632463B4601F055F8CDE90801B8
:10291000139801F0F1F8CDE90401139801F0ECF8F7
:10292000CDE90001139801F0E7F80646584A594BE3
:1029300001F041F88146DDE9002301F03CF8CDE9E2
:102940000201DDE9042301F036F8CDE90601DDE9F5
:10295000082301F02AF8CDE90A01DDE90C2300F093
:1029600083FF00224C4BCDE90E0101F024F8CDE9A4
:10297000100101F0D4F8494908600846006801F0E8
:10298000A2F84FF47A7190FBF1F0303044490870AE
:102990004248006801F097F84FF47A7190FBF1F229
:1029A00001FB1200642190FBF1F030303C4948708B
:1029B0003C493A48006800F0E7FE064601F083F81B
:1029C000642190FBF1F201FB12000A2190FBF1F06F
:1029D00030303349887033493048006800F0D4FE05
:1029E000064601F070F80A2190FBF1F201FB12009B
:1029F00030302B49C87015B0BDE8F08F10B50223F8
:102A0000174A1946182000F08AFC0223244A0421A0
:102A1000242000F084FC10BDFFF7CAFE00F070F81F
:102A200000F0DCF800F000FE00F064FE00F04EFB69
:102A300000F020FD0EE0FFF7F8FE1848006801F0F6
:102A40005BF8044622460B4617A001F06DFA64209D
:102A500000F042F8EFE700000002300050000020D4
:102A6000580000200000C8410024014066660A406A
:102A700054000020000039407B14AE47E17A943FB7
:102A80000000F03F1ECB8A40EC51B81E85FB6F4022
:102A90003D0AD7A370AD60400000E03F3C0000203D
:102AA0005D0000200000C8425444535F76616C759D
:102AB000653D252E33660D0A0000000000BF06218B
:102AC00000E000BF0A1EA1F1010399B2F9D1421E34
:102AD00092B2101EF3D1704710B5044600BFFA2021
:102AE000FFF7ECFFFA20FFF7E9FFFA20FFF7E6FF18
:102AF000FA20FFF7E3FF601E80B2041EEFD110BD85
:102B000000B585B0012144F20400FEF7DBFC4FF470
:102B10000070ADF8100018208DF8130003208DF818
:102B2000120004A92148FEF70FF84FF48060ADF8B9
:102B3000100004208DF8130004A91C48FEF704F8C7
:102B40004FF4E13000900020ADF80400ADF806002D
:102B5000ADF80800ADF80C000C20ADF80A0069468D
:102B60001348FFF764FC01211148FFF7ECFC05B0A6
:102B700000BD70B504460D46E1B20D48FFF750FDAB
:102B800000BF40210A48FFF7B9FD0028F9D02046D0
:102B900070BD10B5044600BF20210548FFF7AEFD0B
:102BA0000028F9D00248FFF73FFD10BD00080140A2
:102BB0000038014008B54FF4C060FDF7A5FB2620A2
:102BC0008DF8000000208DF8010001208DF8020032
:102BD0008DF803006846FDF79CFB08BD00B585B085
:102BE00001210420FEF76EFC01214804FEF777FC6A
:102BF0000420ADF8100018208DF8130003208DF884
:102C0000120004A98148FDF79FFF0820ADF81000CD
:102C100004208DF8130004A97C48FDF795FF4FF4BC
:102C2000E13000900020ADF80400ADF80600ADF8EA
:102C30000800ADF80C000C20ADF80A006946744895
:102C4000FFF7F5FBFFF7B6FF012240F22551704870
:102C5000FFF785FC01216E48FFF775FC05B000BD4C
:102C6000F0B503460D461646002729460A2E03D026
:102C7000002008702846F0BD33B9302001F8010B60
:102C8000002008702846F6E7002B03DA2D2001F813
:102C9000010B5B4242F210720DE093FBF2F404B9B7
:102CA00037B104F1300001F8010B04FB12330127A6
:102CB0000A2092FBF0F2002AEFDC00200870284680
:102CC000D9E710B553480078FF2811DA40F22551B2
:102CD0004F48FFF729FD58B14D48FFF7A5FC4E4975
:102CE0004C4A127888544B480078401C4949087077
:102CF00010BD0146474800780870474870470020DB
:102D00004449087070470FB470B586B006460CA8E9
:102D1000019073E00B9800785C281CD10B98401C44
:102D20000B9000786E2809D072280FD10D21304603
:102D3000FFF776FC0B98401C0B900BE00A21304605
:102D4000FFF76EFC0B98401C0B9003E00B98401CA7
:102D50000B9000BF4BE00B980078252840D10B98D2
:102D6000401C0B900078642818D0732833D1019848
:102D700010C801900BE021783046FFF751FC00BFEE
:102D800080213046FFF7BAFC0028F9D0641C207877
:102D90000028F0D10B98401C0B9020E0019820C82F
:102DA00001900A2202A92846FFF75AFF02AC0BE065
:102DB00021783046FFF734FC00BF80213046FFF712
:102DC0009DFC0028F9D0641C20780028F0D10B98D5
:102DD000401C0B9003E00B98401C0B9000BF06E0DA
:102DE0000B9810F8011B0B903046FFF719FC00BF41
:102DF00080213046FFF782FC0028F9D00B9800783C
:102E0000002887D106B070BC5DF814FB00080140B3
:102E10000044004064000020B4010020704700BF5F
:102E2000FEE700BFFEE700BFFEE700BFFEE770471A
:102E30007047704710B500F04AFC10BD10B540F265
:102E400025510948FFF770FC38B10748FFF7ECFB44
:102E5000C4B2214605A001F067F810BD10B5FFF718
:102E600030FF10BD704700000038014025630000AE
:102E700008B501210420FEF725FB4FF48050ADF882
:102E8000000010208DF8030003208DF80200694631
:102E90008B48FDF759FE4FF480518948FDF701FF3B
:102EA00008BD08B54FF48050ADF8000048208DF8FB
:102EB000030069468248FDF747FE08BD08B54FF498
:102EC0008050ADF8000010208DF8030003208DF82D
:102ED000020069467A48FDF737FE08BD10B5FFF7D6
:102EE000EDFF4FF480517648FDF7DDFE40F2EE2015
:102EF00000F0CFFB4FF480517148FDF7D2FE0F2058
:102F000000F0C7FB10BD10B50024FFF7CAFF04E0B6
:102F1000601CC4B2012000F0BCFB4FF48051684833
:102F2000FDF7A5FE08B1642CF2DB642C01DB012067
:102F300010BD002404E0601CC4B2012000F0A9FB15
:102F40004FF480515E48FDF792FE08B9F02CF2DB99
:102F5000F02C01DB0120EBE70020E9E710B5FFF7DB
:102F6000ADFF4FF480515648FDF79DFE0A2000F05A
:102F700090FBFFF796FF4FF480515148FDF777FE25
:102F8000012801D1012400E000242D2000F081FB64
:102F9000204610BD70B50026002408E0FFF7DEFFD4
:102FA000054605FA04F03043C6B2601CC4B2082CD2
:102FB000F4DB304670BD70B50446FFF77FFF002597
:102FC00026E004F00106641086B14FF480513C48BD
:102FD000FDF769FE082000F05CFB4FF48051384893
:102FE000FDF75FFE3A2000F054FB0FE04FF48051F4
:102FF0003348FDF758FE462000F04BFB4FF480515C
:103000002F48FDF74EFE022000F043FB681CC5B2BE
:10301000082DD6DB70BD10B5FFF760FFFFF773FF1B
:10302000CC20FFF7C8FF4420FFF7C5FF10BD10B547
:10303000FFF71EFFFFF752FFFFF765FF10BD2DE9F9
:10304000F05FFFF74BFFFFF75EFFCC20FFF7B3FF0A
:103050004420FFF7B0FFFFF741FFFFF754FFCC20FC
:10306000FFF7A9FFBE20FFF7A6FFFFF793FF8346F8
:10307000FFF790FF82464FEA0A2004B244EA0B04AD
:10308000002C0DDAE043401C00F00CFD0746002246
:103090000C4B00F090FC054600F041FD81460BE032
:1030A000204600F0FFFC07460022074B00F083FC9F
:1030B000054600F034FD81464846BDE8F09F00001B
:1030C000000801400000B03F0000E43F00B585B0BB
:1030D00001214805FEF703FA01210820FEF7F2F965
:1030E000C020ADF8000003208DF802001C208DF8F0
:1030F00003006946D748FDF727FDD748FDF772FE64
:103100000020ADF808004BF6FF70ADF80A00302043
:10311000ADF80C004FF48060ADF80E000001ADF882
:103120001000CE4801900121CB48FDF7F2FE01A925
:10313000C948FDF770FE05B000BD70B504460D46E8
:1031400000BF4FF40031C448FEF70AF80028F8D158
:103150000121C148FDF701FF00BFC149BE48FDF78D
:10316000DDFF0028F9D000227821BB48FDF74BFF96
:1031700000BFBC49B848FDF7D1FF0028F9D021466F
:10318000B548FDF73AFF00BFB649891CB248FDF7C4
:10319000C5FF0028F8D02946AF48FDF72EFF00BF35
:1031A000B049891CAC48FDF7B9FF0028F8D00121CF
:1031B000A948FDF7DEFE70BD10B50446214600208B
:1031C000FFF7BBFF10BD10B5044621464020FFF7B6
:1031D000B4FF10BD10B56420FFF77EFCAE20FFF7F2
:1031E000EBFF2020FFF7E8FF1020FFF7E5FFB020FE
:1031F000FFF7E2FFC820FFF7DFFF0020FFF7DCFF4B
:103200001020FFF7D9FF4020FFF7D6FF8120FFF7FE
:10321000D3FFFF20FFF7D0FFA120FFF7CDFFA620AF
:10322000FFF7CAFFA820FFF7C7FF3F20FFF7C4FF43
:10323000A420FFF7C1FFD320FFF7BEFF0020FFF758
:10324000BBFFD520FFF7B8FFF020FFF7B5FFD9206F
:10325000FFF7B2FF2220FFF7AFFFDA20FFF7ACFF46
:103260001220FFF7A9FFDB20FFF7A6FF2020FFF7C2
:10327000A3FF8D20FFF7A0FF1420FFF79DFFAF20D5
:10328000FFF79AFF10BD70B504460D4605F1B00179
:10329000C8B2FFF791FF102141EA1410FFF78CFF2D
:1032A00004F00F0141F00100FFF786FF70BD70B51B
:1032B0000646002415E004F1B001C8B2FFF77CFF18
:1032C0000020FFF779FF1020FFF776FF002504E0CC
:1032D0003046FFF778FF681CC5B2802DF8DB601C14
:1032E000C4B2082CE7DB70BD10B50020FFF7DFFF8C
:1032F00010BD10B58D20FFF75FFF1420FFF75CFFB6
:10330000AF20FFF759FF10BD10B58D20FFF754FF18
:103310001020FFF751FFAE20FFF74EFF10BD2DE943
:10332000F0470646894617469A464FF000080024A3
:103330000025BAF1010F03D0BAF1020F5ED125E0EA
:1033400020E0785D203800F0FF087E2E04DD0026A6
:1033500009F1010000F0FF0949463046FFF793FFED
:10336000002409E008EB48013F4A02EB4101085DF7
:10337000FFF729FF601CC4B2062CF3DBB01DC6B2F8
:10338000681CC5B2785D0028DBD137E032E0785D9B
:10339000203800F0FF08782E04DD002609F1010036
:1033A00000F0FF0949463046FFF76DFF002407E0B3
:1033B00004EB08112D4A505CFFF705FF601CC4B2F6
:1033C000082CF5DB09F10100C1B23046FFF75BFFC5
:1033D000002408E004EB08110831244A505CFFF790
:1033E000F2FE601CC4B2082CF4DB06F10800C6B281
:1033F000681CC5B2785D0028C9D100BF00BFBDE818
:10340000F0872DE9F04180460E46174600247D01E5
:1034100031464046FFF737FF00BF06E01449485DDC
:10342000FFF7D1FE6D1C601CC4B2102CF6DB701CC3
:10343000C1B24046FFF727FF002406E00C49485D73
:10344000FFF7C1FE6D1C601CC4B2102CF6DBBDE89A
:10345000F0810000000C014000540040801A06007A
:103460000100030082000700F24700081A4A000822
:103470006500002000B587B0012140F20520FEF76D
:1034800021F84FF40040FDF781FF0220ADF818004D
:1034900000208DF81B0003208DF81A0006A95E4855
:1034A000FDF752FB002001908DF808008DF809000F
:1034B0004FF4602003900020049001208DF8140048
:1034C00001A95648FCF7B5FF0723012211465348CE
:1034D000FDF747F801215148FCF7D7FF4F48FCF7AB
:1034E000F6FF00BF4D48FCF7F7FF0028FAD14B4824
:1034F000FCF7FCFF00BF4948FCF7FDFF0028FAD1AC
:1035000001214648FDF701F807B000BD08B50121CB
:103510000420FDF7D7FF0320ADF8000000208DF850
:10352000030069463C48FDF70FFB08BD00B591B0AC
:1035300001210846FDF7B9FF01214802FDF7C2FF4E
:103540003748FDF777F935484C30069035480790F5
:10355000002008900220099000200A9080200B9003
:1035600040000C9080000D9020200E9000020F90E3
:103570000020109006A92A48FDF7FEF901212848ED
:10358000FDF725FA0020019001208DF808008DF844
:1035900009004FF4602003900020049002208DF871
:1035A000140001A91D48FCF744FF4FF44040FDF70B
:1035B000EDFE0723012200211848FCF7D2FF072364
:1035C000022201211548FCF7CCFF01211348FCF72A
:1035D00067FF01211148FCF758FF1048FCF777FFFF
:1035E00000BF0E48FCF778FF0028FAD10B48FCF723
:1035F0007DFF00BF0948FCF77EFF0028FAD10121BA
:103600000648FCF782FF11B000BD10B5FFF77EFF42
:10361000FFF78CFF10BD00000008014000240140AE
:1036200008000240A601002030B52D4800682D4A50
:10363000B0FBF2F1B1F1807F01D301201DE021F058
:103640007F40401E4FF0E022506150170F220028AB
:1036500007DA13071D0E244B00F00F04241F1D551D
:1036600003E013071C0E214B1C5400BF00204FF039
:10367000E022906107201061002008B100BFFEE742
:103680004FF0E020006920F001004FF0E0210861D8
:1036900030BD01B51649009808604FF0E020006980
:1036A00040F001004FF0E021086100BF10480068C1
:1036B0000028FBD108BD01B503E04FF47A70FFF795
:1036C000E8FF0098411E00910028F6D108BD084887
:1036D000006820B106480068401E05490860704730
:1036E0000000002040420F0018ED00E000E400E080
:1036F000AC0100201FB501210220FDF7F0FE20489B
:10370000FDF744FF0020ADF80A00ADF8060042F2D4
:103710000F70ADF8080041F61F40ADF8040001A994
:103720001748FEF707F801211548FEF725FE01228C
:1037300011461348FEF775FB01211148FEF756FBB1
:103740004FF4A060FCF7E0FD1D208DF80000012083
:103750008DF8010002208DF8020001208DF8030091
:103760006846FCF7D6FD1FBD10B506480068401C32
:103770000449086001210248FEF7FEFD10BD00006B
:10378000000400402800002080EA010210B502F089
:103790000043400022D04A001FD0010E01EB12610D
:1037A000C0F35600C2F3560240F4000042F4000297
:1037B000A0FB022000047F39140400D0401C50EA12
:1037C000124001D44000491EC2B20C0604EBD010D6
:1037D000401C4008802A02D003E0002010BD20F0E9
:1037E0000100002900DA0020184310BD30B480EA3F
:1037F000010202F0004530F0004221F0004013D0F9
:1038000090B1C30DD40DC2F31601C0F31600E41A33
:1038100041F4000140F400027D34914201D3641C64
:1038200000E04900002C02DA30BC002070474FF461
:1038300000000023914201D3891A034340084FEA54
:103840004101F7D151B1914202D14FF0004105E061
:1038500002D24FF0010101E06FF0010103EBC4500F
:10386000284430BC00F0DFB92DE9FE4F804681EAE4
:103870000300C00F0C46009021F0004123F00045EA
:10388000B8EB0200A94105D24046214690461C46AD
:103890000B46024623F00040104347D0270DC7F3E4
:1038A0000A00C3F30A510290401A019040286BDAD3
:1038B000C3F3130040F4801B0098924620B100230C
:1038C000D2EB030A63EB0B0B01985946C0F140029F
:1038D000504600F087F906460D4650465946019A73
:1038E00000F08FF910EB08006141002487EA1152C3
:1038F00084EAE7731A4340D0009A62B3019A012A1E
:103900004FEA075215DC001B61EB02014FF0004249
:1039100002EA0752CDE90042001C41F5801132460F
:103920002B4600F0C6F903B0BDE8F08F40462146B3
:10393000F9E7001B61EB0201001C41F58013001840
:103940005B412018A2F5001747EB030140EAD57050
:10395000B6196D4111E06D084FEA360645EAC075AB
:103960004FEA0752001B61EB0201001C41F5801178
:1039700049084FEA30000019514132462B4603B046
:10398000BDE8F04F00F086B9009801224000002306
:10399000D0EB020263EBE073009821464FEAE0743B
:1039A000B8EB000061EB0401E9E783F000435BE75B
:1039B00081F0004158E72DE9FE4F81EA030404F04D
:1039C000004421F0004100944FF0000B23F000432D
:1039D00050EA01045ED052EA03045BD0C3F30A54F8
:1039E000C1F30A552C44A4F2F3340194A0FB025411
:1039F000C1F3130141F48011C3F3130343F48013A3
:103A000001FB024400FB034E840A970A44EA8154F6
:103A100047EA8357A4FB076802958D0A05FB0785D3
:103A20004FEA932C04FB0C542705029D4FEA0658DD
:103A300047EA1637B5EB08056EEB070C870E920EBA
:103A400047EA811742EA8312A7FB0201B6EB0B019A
:103A500064EB00042B0D43EA0C335E1844EB1C505E
:103A6000DA465146E7FB0201C5F313044FEA0B3374
:103A700043EA14534FEA0432019C43EA0603A4F1DB
:103A80000C040294009CCDE900B400F012F903B0DC
:103A9000BDE8F08F00200146F9E796230022114689
:103AA00000F0CAB80EB5C10F80EAE0700844CA073A
:103AB000002140F233438DE80E000A460B4600F029
:103AC000F8F803B000BD00F0004220F00040C10D46
:103AD000C0F3160040F400007F2901DA002070478F
:103AE000962903DCC1F19601C84001E0963988406F
:103AF000002AF4D04042704700F0004230F000400D
:103B00000AD0C10D01F56071C0F3160042EA0151FF
:103B1000C20840071143704700200146704701F07A
:103B2000004330B421F0004150EA010206D00A0DF2
:103B3000A2F56072C1F31301002A02DC30BC002040
:103B40007047440F44EAC104C100E01830BC00EBE8
:103B5000C25000F068B830B50B4601460020202264
:103B6000012409E021FA02F59D4205D303FA02F58A
:103B7000491B04FA02F52844151EA2F10102F1DCEA
:103B800030BD2DE9F05F0546002092469B468846F1
:103B90000646814640241BE02846414647462246C9
:103BA00000F086F953465A46C01A914110D3114687
:103BB0001846224600F016F82D1A67EB01084F460A
:103BC00022460120002100F00DF817EB00094E41BC
:103BD000201EA4F10104DFDC484631462A46434654
:103BE000BDE8F09F202A04DB203A00FA02F1002011
:103BF00070479140C2F1200320FA03F3194390402B
:103C00007047202A06DBCB17203A41FA02F043EA3C
:103C1000E07306E041FA02F3D040C2F12002914085
:103C20000843194670470029A8BF7047401C490047
:103C300008BF20F00100704710B4B0FA80FC00FA11
:103C40000CF050EA010404BF10BC704749B1CCF13C
:103C5000200421FA04F411FA0CF118BF01212143C8
:103C60000843A3EB0C01CB1D4FEA00614FEA102083
:103C700042BF002010BC704700EBC3501044002925
:103C8000A4BF10BC7047401C490008BF20F00100D1
:103C900010BC704710B5141E73F1000408DA401C04
:103CA00041F1000192185B411A4301D120F001005B
:103CB00010BD2DE9F04D92469B4611B1B1FA81F24B
:103CC00002E0B0FA80F220329046FFF78BFF044604
:103CD0000F4640EA0A0041EA0B0153465A460843A0
:103CE00013D0114653EA010019D0C8F140025046E2
:103CF00000F0DEF805460E46504659464246FFF7AC
:103D000071FF084305D0012004E020463946BDE894
:103D1000F08D0020054346EAE0762C4337430A98AD
:103D20006305E40AA0EB08000022FD0A44EA4754B8
:103D30000A3002D500200146E9E701051019694162
:103D4000DDE9084500196941BDE8F04DA2E72DE91C
:103D5000F04D81EA030404F0004B21F000451446C5
:103D60004FF0000A23F0004150EA050220D054EA47
:103D700001021DD0C5F30A570246C5F31303C1F370
:103D80001300C1F30A5640F4801543F48013A7EBE7
:103D90000608101BD64608F2FD3873EB050002D367
:103DA00008F1010801E092185B41B8F1000F03DA55
:103DB00000200146BDE8F08D00204FF4801106463A
:103DC00084460EE0171B73EB050705D3121B63EB4C
:103DD000050306434CEA010C49084FEA30009218EB
:103DE0005B4150EA0107EDD152EA030012D082EAAA
:103DF000040083EA0501084305D0101BAB4106D23D
:103E00000122002306E000224FF0004302E06FF0A1
:103E1000010253101AEB06004CEB085110EB0A009C
:103E200041EB0B01BDE8F04DFFF734BFC1F30A527F
:103E3000C1F3130140F2FF3341F480119A4202DAD8
:103E400000200146704740F233439A42A2F23342C7
:103E500002DC524200F02CB8FFF7C4BE30B5041E9D
:103E600071F1000404DB4FF00044404264EB0101B7
:103E7000141E73F1000405DB1C464FF00043524250
:103E800063EB0403994208BF904230BD064C074DD6
:103E900006E0E06840F0010394E80700984710341A
:103EA000AC42F6D3FCF726F90C5000082C50000861
:103EB000202A04DB203A21FA02F00021704721FA7F
:103EC00002F3D040C2F120029140084319467047E6
:103ED00070B58C1810F8015B15F0070301D110F8CC
:103EE000013B2A1106D110F8012B03E010F8016BF9
:103EF00001F8016B5B1EF9D12B0705D40023521E7C
:103F00000DD401F8013BFAE710F8013BCB1A921CE3
:103F100003E013F8015B01F8015B521EF9D5A142E1
:103F2000D8D3002070BD00000FB4054B10B503A915
:103F3000044A029800F0DAF810BC5DF814FB0000A7
:103F4000732B0008B001002002E008C8121F08C14E
:103F5000002AFAD170477047002001E001C1121F0A
:103F6000002AFBD1704700002DE9FF5F82B00021DD
:103F7000DDE90430020DDDF840B0034318D044F60B
:103F80001050A2F2FF3242431514119801281FD09D
:103F9000A5EB0B00401C5FEA000A4FF000064E4FF5
:103FA000DFF83891B046504615D5CAF1000413E049
:103FB000119801244AA3012801D16FEA0B0102984C
:103FC000119AC0E90031C0E9024206B0BDE8F09F95
:103FD000CBF10000DFE704460021404A491842EBDC
:103FE0000450CDE9001012E0E00707D032463B460E
:103FF00040464946FFF7DFFC8046894632463B464D
:1040000010461946FFF7D7FC06460F466410002CF1
:10401000EAD1DDE90401DDE90023BAF1000F06DA97
:10402000FFF7C9FC42464B46FFF7C5FC05E0FFF72A
:104030008EFE42464B46FFF78AFE04460E4600229D
:10404000284BFFF70BFF03D84FF0FF30014607E086
:104050000022254B20463146FFF706FCFFF7E6FE1F
:10406000102409E0002C0ADB0A220023FFF789FD57
:10407000039B30321A55641E50EA0102F2D1641CCF
:10408000039AC4F111031444119A012A03D00122A6
:1040900008430DD10AE0084304D000204FF0110B73
:1040A000119072E7A3EB0B056D1E0DE05B4504DD7F
:1040B0004FF0000205F1010504E003DA4FF00002C1
:1040C000A5F10105002AECD002981199C0E902314E
:1040D000C0E9004579E70000000014400000F03F0F
:1040E000300000000000F0430000E03F2DE9FF4FEA
:1040F00095B09A46884606460025EEE1252877D1F8
:1041000000242746F94A0121039400E0044316F8ED
:10411000013F203B01FA03F01042F7D130782A2802
:1041200011D06FF02F033078A0F13002092A16D891
:10413000039A44F0020402EB820203EB42021044B1
:10414000761C0390EFE758F8042B0392002A03DA59
:10415000504244F40054039044F00204761C30783A
:104160002E2816D116F8010F44F004042A280DD089
:104170006FF02F023078A0F13003092B09D807EB3C
:10418000870302EB4303C718761CF3E758F8047B58
:10419000761C30786C280FD006DC4C2817D06828A5
:1041A0000DD06A2814D104E0742810D07A280FD1D9
:1041B0000DE044F400140AE044F4801401E044F4F7
:1041C00040147278824202D104F58014761C761C69
:1041D000307866280BD013DC582877D009DC00280B
:1041E00075D04528F6D04628F4D047281AD193E157
:1041F00018E0632835D0642879D0652812D18BE186
:10420000702873D008DC6728F1D069286FD06E2839
:104210000DD06F2806D1ACE073282CD0752874D04F
:10422000782853D05246179990476D1C54E1C4F337
:104230000250022809D003280DD0D8F80010042815
:104240000DD00D6008F1040846E1D8F80010EA1717
:10425000C1E90052F6E7D8F800100D80F2E70D70C2
:10426000F0E718F8041B8DF8001000208DF801000D
:10427000EB46012003E058F804BB4FF0FF30610724
:104280004FF0000102D40DE009F101018946B94265
:104290000FDA8145F8DB1BF809100029F4D108E09A
:1042A00009F1010189468142FADB1BF80910002956
:1042B000F6D103985346A0EB090721463846179AD2
:1042C00000F080FA284400EB090507E044E008E12B
:1042D0000DE01BF8010B524617999047B9F10109FF
:1042E000F7D2534621463846179AF2E039E00A21C0
:1042F000C4F302524FF0000B0091022A06D058F886
:10430000040BC117032A09D00AE023E008F10700D3
:1043100020F00702F2E80201904605E000B2C11762
:10432000042A01D140B2C117002906DA0A46002149
:10433000404261EB02012D2202E0220504D52B222E
:104340008DF80420012203E0E20701D02022F7E7E4
:10435000914657E00A2100E010214FF0000B009138
:104360000BE010214FF0000B44F0040408270091EB
:1043700003E008204FF0000B0090C4F30252022A21
:1043800005D058F8040B0021032A08D008E008F1F2
:10439000070020F00702F2E80201904603E080B235
:1043A000042A00D1C0B24FF0000922072AD5327882
:1043B000702A07D0DDF800C08CF0100C5CEA0B0C02
:1043C00005D00EE040228DF80420012208E050EADA
:1043D000010306D030238DF804308DF80520022229
:1043E0009146009B83F0080353EA0B030AD150EA7D
:1043F000010201D1620705D530228DF804204FF06B
:1044000001097F1E3278582A04D039A20C920CAAD6
:1044100002920BE03BA2F9E75B46009AFFF7B1FB83
:104420000C9B9B5C029A521E0292137050EA01028E
:10443000F2D1029804A9081A00F1200B600702D5F6
:1044400024F4803400E001275F4502DDA7EB0B0078
:1044500000E0002000EB0B01009003984944401A53
:104460000390E00306D453462146179A039800F0C0
:10447000A9F90544002706E001A85246C05D179936
:1044800090476D1C7F1C4F45F6DBE0030CD553466F
:104490002146179A039800F095F9054404E030206E
:1044A0005246179990476D1C0099481E00900029AC
:1044B000F5DC08E00298029952460078491C029106
:1044C000179990476D1CBBF10001ABF1010BF1DCBA
:1044D0005BE100F065F90544761C307800287FF434
:1044E0000DAE19B02846BDE8F08F00000928010084
:1044F000303132333435363738396162636465665A
:10450000000000003031323334353637383941421B
:104510004344454600000000600700D4062708F128
:10452000070020F00700F0E80223804603F0004C6B
:104530005FEA0C0001D097A009E0200501D596A004
:1045400005E0E00701D095A001E0AFF24C00139028
:10455000307823F0004365280CD006DC452809D0CC
:1045600046281DD047287FD13BE0662818D0672811
:104570007AD136E00021112F01DB112000E0781CF8
:10458000CDE9000104A90CA8FFF7EEFCDDE90D015F
:104590000C9A4FF0000B07F10109109200914EE0C8
:1045A0004FF000400097CDE9011004A90CA8FFF7D7
:1045B000DBFCDDE90D020C9B0F994FF0000B9146DF
:1045C0001093009211B9791C00EB0109B7EB0900B7
:1045D00003D4C0F1FF3B07F10109A9EB07000190EB
:1045E00042E0012F00DA01270021112F01DD112007
:1045F00000E03846CDE9000104A90CA8FFF7B4FC9F
:10460000DDE90D010C9A00914FF0000BB9461092B4
:1046100021070FD4009A4A4503DA914601E0A9F137
:104620000109B9F1010F05DD109AA9F10101515CF1
:104630003029F4D0B84202DA10F1040F03DA012174
:10464000CDE9011010E0002803DC8344A9EB000150
:1046500002E0411C494500DD8946A0EB0B00401CEF
:1046600001904FF000400290200705D40198484582
:1046700002DB4FF0FF30019000208DF84B000298D4
:104680000DF14B07B0F1004F25D002200C902B20EC
:104690000D90029800280CDA404202902D200D90D7
:1046A00007E00A210298FFF756FA3031029007F826
:1046B000011D0C99481E0C900029F2DC029800287C
:1046C000EFD1791E0D980870307800F0200040F08E
:1046D000450007F8020D11A8C01BC01D02901398D9
:1046E000007800B1012000EB0901019801EBE071B5
:1046F000029801440398401A401E0390E00306D438
:1047000053462146179A039800F05CF80544139825
:10471000007818B15246179990476D1CE00323D5D5
:1047200053462146179A039800F04CF805441BE0C5
:10473000BBF1000F07DB0098584504DD109817996E
:1047400010F80B0001E0179930205246904701986D
:104750000BF1010B401E05F10105019004D12E2043
:104760005246179990476D1CB9F10001A9F1010952
:10477000DEDC05E017F8010B5246179990476D1CD7
:104780000299481E02900029F4DC53462146179AEC
:1047900003989EE62D0000002B0000002000000082
:1047A0002DE9F041044600251E461746880404D42E
:1047B00005E039462020B0476D1C641EF9D5284617
:1047C000BDE8F0812DE9F041044600251E469046E3
:1047D000C80301D5302700E02027880404D505E070
:1047E00041463846B0476D1C641EF9D52846BDE8E1
:1047F000F0810000000000000000002F0000000019
:104800000700070000147F147F1400242A7F2A1257
:104810000062640813230036495522500000050346
:10482000000000001C224100000041221C00001476
:10483000083E08140008083E0808000000A06000B8
:104840000008080808080000606000000020100848
:104850000402003E5149453E0000427F40000042B4
:1048600061514946002141454B31001814127F1017
:10487000002745454539003C4A4949300001710946
:10488000050300364949493600064949291E0000FA
:1048900036360000000056360000000814224100A1
:1048A00000141414141400004122140800020151D1
:1048B000090600324959513E007C1211127C007FDA
:1048C00049494936003E41414122007F4141221C75
:1048D000007F49494941007F09090901003E4149DA
:1048E000497A007F0808087F0000417F41000020CE
:1048F00040413F01007F08142241007F404040407A
:10490000007F020C027F007F0408107F003E4141BF
:10491000413E007F09090906003E4151215E007FAA
:10492000091929460046494949310001017F010121
:10493000003F4040403F001F2040201F003F4038C4
:10494000403F006314081463000708700807006103
:104950005149454300007F41410000552A552A55E1
:10496000000041417F000004020102040040404079
:104970004040000001020400002054545478007F9D
:104980004844443800384444442000384444487F74
:1049900000385454541800087E0901020018A4A4D9
:1049A000A47C007F080404780000447D400000409F
:1049B00080847D00007F102844000000417F40007B
:1049C000007C04180478007C08040478003844440F
:1049D000443800FC242424180018242418FC007CEB
:1049E0000804040800485454542000043F44402064
:1049F000003C4040207C001C2040201C003C4030FB
:104A0000403C004428102844001CA0A0A07C004486
:104A100064544C44141414141414000000000000D6
:104A200000000000000000000000000000F800008E
:104A30000000000000333000000000100C06100CD5
:104A40000600000000000000000040C07840C07870
:104A50004000043F04043F040400007088FC083058
:104A60000000001820FF211E0000F008F000E018F0
:104A7000000000211C031E211E0000F008887000A9
:104A800000001E2123241927211010160E000000FB
:104A900000000000000000000000000000E018041A
:104AA0000200000000071820400000020418E00087
:104AB00000000040201807000000404080F08040C7
:104AC00040000202010F01020200000000F000009D
:104AD00000000101011F01010100000000000000B1
:104AE000000080B070000000000000000000000026
:104AF00000000001010101010101000000000000AF
:104B00000000003030000000000000000000806065
:104B10001804006018060100000000E010080810EA
:104B2000E000000F102020100F00001010F800000F
:104B300000000020203F20200000007008080888A6
:104B40007000003028242221300000300888884876
:104B500030000018202020110E000000C02010F8A6
:104B6000000000070424243F240000F80888880877
:104B700008000019212020110E0000E0108888187C
:104B80000000000F112020110E0000380808C8385E
:104B900008000000003F000000000070880808883E
:104BA0007000001C222121221C0000E010080810C7
:104BB000E0000000312222110F00000000C0C00000
:104BC0000000000000303000000000000080000005
:104BD0000000000080600000000000008040201005
:104BE00008000001020408102000404040404040FE
:104BF0004000040404040404040000081020408061
:104C00000000002010080402010000704808080895
:104C1000F0000000003036010000C030C828E81065
:104C2000E0000718272423140B000000C038E00020
:104C30000000203C23020227382008F8888888706A
:104C40000000203F202020110E00C0300808080876
:104C50003800071820202010080008F8080808105D
:104C6000E000203F202020100F0008F88888E80886
:104C70001000203F20202320180008F88888E8082A
:104C80001000203F200003000000C0300808083852
:104C9000000007182020221E020008F80800000863
:104CA000F808203F210101213F20000808F80808EA
:104CB00000000020203F2020000000000808F80825
:104CC0000800C08080807F00000008F888C0281895
:104CD0000800203F20012638200008F808000000C6
:104CE0000000203F20202020300008F8F800F8F8CD
:104CF0000800203F003F003F200008F830C00008B7
:104D0000F808203F200007183F00E01008080810AE
:104D1000E0000F10202020100F0008F808080808F5
:104D2000F000203F210101010000E01008080810F8
:104D3000E0000F18242438504F0008F8888888882D
:104D40007000203F2000030C302000708808080805
:104D500038000038202121221C00180808F8080813
:104D600018000000203F2000000008F8080000089C
:104D7000F808001F202020201F000878880000C8A5
:104D80003808000007380E010000F80800F8000895
:104D9000F800033C0700073C03000818688080689F
:104DA000180820302C03032C30200838C800C838DD
:104DB00008000000203F2000000010080808C83844
:104DC00008002038262120201800000000FE0202E2
:104DD00002000000007F40404000000C30C0000096
:104DE0000000000000010638C00000020202FE00C0
:104DF0000000004040407F0000000000040202026A
:104E0000040000000000000000000000000000009E
:104E1000000080808080808080800002020400008A
:104E20000000000000000000000000008080808082
:104E300000000019242222223F2008F80080800070
:104E40000000003F112020110E0000000080808033
:104E50000000000E1120202011000000008080883A
:104E6000F800000E112020103F200000808080807C
:104E70000000001F222222221300008080F0888878
:104E800088180020203F20200000000080808080C3
:104E90008000006B94949493600008F800808080F8
:104EA0000000203F210000203F2000809898000053
:104EB00000000020203F2020000000000080989883
:104EC000000000C08080807F000008F80000808023
:104ED0008000203F24022D302000000808F8000048
:104EE00000000020203F2020000080808080808003
:104EF0008000203F20003F20003F80800080808095
:104F00000000203F210000203F20000080808080A2
:104F10000000001F202020201F00808000808000D3
:104F2000000080FFA12020110E0000000080808082
:104F30008000000E112020A0FF80808080008080F3
:104F4000800020203F212000010000008080808020
:104F500080000033242424241900008080E0808015
:104F600000000000001F2020000080800000008062
:104F70008000001F202020103F20808080000080C3
:104F8000808000010E3008060100808000800080D3
:104F900080800F300C030C300F0000808000808078
:104FA00080000020312E0E312000808080000080A3
:104FB000808080818E701806010000808080808053
:104FC00080000021302C2221300000000000807C75
:104FD000020200000000003F404000000000FF000F
:104FE000000000000000FF0000000002027C8000C2
:104FF00000000040403F00000000000601010202E6
:105000000404000000000000000000002C50000814
:1050100000000020B4010000D03E000874510008D8
:10502000B401002004050000583F00081184A24A82
:1050300004680901020304060708090C6910051E2B
:105040000204060843803F3C8FC2D5080111200F9F
:1050500004244484649C40300FC8080828181010A9
:1050600010080601824C20180601061820408025F1
:10507000404042CC1CFC0402043304FC100F4020CE
:105080001F20404F4442407F42444340180B806001
:10509000F80704E4242424FF042AE4B012FF300CAF
:1050A00080814529112F41418181801BFE220149C8
:1050B00005298F1C601F0201477F020242827F1672
:1050C000202020A0601EFF608040207F112A2081C8
:1050D0001C40807FE62D04081010401C1212920123
:1050E0001BFF91012A1040100D80805F4020100EA0
:1050F0001010205F8010101010D0FF905020504CE6
:10510000434C502040401B0403811809414458413E
:105110004E60584710151060028C16FE02F202FE17
:105120001AF81A11100B04047E018047300F102763
:105130001A476631400C22322AA6A2622111098147
:1051400001180E4222130B42827E02020A122346EB
:10515000901530AC6330100A88C8A8998E88A8C80A
:1051600088200A22672212128040300F05103F402B
:04517000407100008A
:04000005080000ED02
:00000001FF
