:020000040800F2
:10000000C007002089010008491F0008A31C000840
:10001000051F00085D060008D92700080000000041
:10002000000000000000000000000000AB230008FA
:100030006D06000800000000A923000849240008FC
:10004000A3010008A3010008A3010008A301000800
:10005000A3010008A3010008A3010008A3010008F0
:10006000A3010008A3010008A3010008A3010008E0
:10007000A3010008A3010008A3010008A3010008D0
:10008000A3010008A3010008A3010008A3010008C0
:10009000A3010008A3010008A3010008A3010008B0
:1000A000A3010008A3010008A3010008A3010008A0
:1000B000A3010008A3010008A3010008A301000890
:1000C000A3010008A3010008A3010008A301000880
:1000D000A3010008A3010008CD270008A301000820
:1000E000A3010008A3010008A301000800F002F822
:1000F00000F03AF80AA090E8000C82448344AAF188
:100100000107DA4501D100F02FF8AFF2090EBAE885
:100110000F0013F0010F18BFFB1A43F0010318473B
:100120002037000040370000103A24BF78C878C15B
:10013000FAD8520724BF30C830C144BF04680C60ED
:10014000704700000023002400250026103A28BF35
:1001500078C1FBD8520728BF30C148BF0B60704739
:100160001FB51FBD10B510BD00F0B1F81146FFF767
:10017000F7FF02F00BFC00F0CFF803B4FFF7F2FF3B
:1001800003BC00F0D3F80000094880470948004745
:10019000FEE7FEE7FEE7FEE7FEE7FEE7FEE7FEE737
:1001A000FEE7FEE704480549054A064B7047000094
:1001B000C5240008ED000008C0010020C007002091
:1001C000C0030020C003002010B5203AC0F00B800F
:1001D000B1E81850203AA0E81850B1E81850A0E84B
:1001E0001850BFF4F5AF5FEA027C24BFB1E81850A5
:1001F000A0E8185044BF18C918C0BDE810405FEA15
:10020000827C24BF51F8043B40F8043B08BF704790
:10021000D20728BF31F8023B48BF11F8012B28BF95
:1002200020F8023B48BF00F8012B70474FF0000256
:100230000429C0F0128010F0030C00F01B80CCF1F8
:10024000040CBCF1020F18BF00F8012BA8BF20F866
:10025000022BA1EB0C0100F00DB85FEAC17C24BFBA
:1002600000F8012B00F8012B48BF00F8012B704764
:100270004FF0000200B5134694469646203922BF3F
:10028000A0E80C50A0E80C50B1F12001BFF4F7AF8A
:10029000090728BFA0E80C5048BF0CC05DF804EB6C
:1002A000890028BF40F8042B08BF704748BF20F8DA
:1002B000022B11F0804F18BF00F8012B70477047D8
:1002C00070477047004870476001002070477546CE
:1002D000FFF7F8FFAE4605006946534620F00700D9
:1002E000854618B020B5FFF75DFFBDE820404FF010
:1002F00000064FF000074FF000084FF0000B21F010
:100300000701AC46ACE8C009ACE8C009ACE8C009DC
:10031000ACE8C0098D46704710B50446AFF30080C5
:100320002046BDE81040FFF728BF00000149182013
:10033000ABBEFEE72600020070B504460068816887
:10034000C943C90717D1816821F00101816000F01C
:1003500003FE05460AE000BF00F0FEFD401B022838
:1003600004D920688068C043C00706D02068806830
:10037000C043C007F0D0002070BDA06A40F010005C
:10038000A062E06A40F00100E062012070BD000060
:10039000F8B500260446009600688168C943C9077D
:1003A0002DD0816841F0010181601648164900682E
:1003B000B0FBF1F000E0401E00900028FBD100F0FF
:1003C000CBFD054616E000BF00F0C6FD401B02282D
:1003D00010D920688068C043C0070BD0A06A40F0E5
:1003E0001000A062E06A40F00100E06284F824603E
:1003F0000120F8BD20688068C043C007E4D1002018
:10040000F8BD00005400002040420F0010B509481C
:1004100000F0C6FB6421074800F024FB054800F00B
:1004200061FA800504D5034800F05EFA80B210BD81
:10043000002010BD6000002010B500F0D3F8462069
:1004400000F0A6F8012000F0A3F8BDE8104000F08D
:10045000E9B800002DE9FF4102200390002680202A
:10046000CDE90006144D6946284600F07BFC0122C8
:100470004021284600F06BFD052002F039FA80216A
:10048000284600F05FFD01270C4C012811D0267092
:1004900000224021284600F05AFD052002F028FAEB
:1004A00069462846019700F05DFC207804B0BDE85D
:1004B000F0812770ECE70000000C01401C000020D8
:1004C0007FB500248020CDE900040220194E03905E
:1004D0006946304600F046FC01228021304600F09B
:1004E00036FD00256006040E01224021304600F052
:1004F0002EFD052002F0FCF98021304600F022FD9F
:10050000012800D00020044300224021304600F0A2
:100510001EFD052002F0ECF96D1CEDB2082DE1D3B3
:10052000012001906946304600F01CFC04B02046D2
:1005300070BD0000000C01407FB50446C020009053
:10054000012001900220114D03906946284600F0D9
:1005500009FC012C17D0002C14D100228021284640
:1005600000F0F5FC01224021284600F0F0FC0520B7
:1005700002F0BEF900224021284600F0E8FC0520E8
:1005800002F0B6F97FBD0122E8E70000000C01404F
:1005900070B5134E05460024280601D5012200E05F
:1005A00000228021304600F0D2FC6806050E0122B0
:1005B0004021304600F0CBFC052002F099F90022E2
:1005C0004021304600F0C3FC052002F091F9641C84
:1005D000E4B2082CE0D3BDE87040FFF73BBF000059
:1005E000000C014010B50E4C01228021204600F085
:1005F000AEFC01224021204600F0A9FC052002F0BB
:1006000077F900228021204600F0A1FC052002F0AD
:100610006FF920460022BDE81040402100F097BC51
:10062000000C014010B50C4C00228021204600F047
:100630008EFC01224021204600F089FC052002F0BA
:1006400057F901228021204600F081FCBDE81040CE
:10065000052002F04DB90000000C0140FEE710B586
:1006600001F032FFBDE8104002F0B8B8704742F622
:10067000DF6303E01946491E89B2FCD2401E80B2F6
:10068000F8D2704772B6FEE770B51C481C4C0125C5
:100690000068A1680026884201D9257000E0267014
:1006A0001848E1680078884201D9657000E06670FA
:1006B000206902F00DFC1449096802F01DFC01D20A
:1006C000A57000E0A670114861690068884201D9F0
:1006D000E57000E0E670207900280DD001F024FCE0
:1006E00041F28834204600F02BFB01F00DFC20463F
:1006F000BDE8704000F024BB70BD00002000002069
:1007000000000020340000201800002024000020F9
:10071000F8B500250446009590F8240001280BD078
:10072000012084F824002046FFF706FE2046FFF74C
:100730002FFE060002D050E00220F8BDA06A20F48F
:10074000885040F00200A062022000F0A3FC25497E
:100750000968B1FBF0F0400000E0401E0090002866
:10076000FBD12068816841F00801816000F0F4FB52
:10077000074608E000F0F0FBC01B0A2803D92068F8
:100780008068000715D4206880680007F2D42068CC
:10079000816841F00401816000F0DEFB074612E051
:1007A00000F0DAFBC01B0A280DD9206880684007DA
:1007B00009D5A06A20F0020040F01000A06284F881
:1007C00024500120F8BD206880684007E8D4A06A62
:1007D00020F0020040F00100A06284F8245030466E
:1007E000F8BD000054000020F8B50024009490F8F3
:1007F00024202546012A12D0012280F824204A68AC
:100800001F23072A0DD20668776B521E02EB820265
:1008100093409F430B6893401F43776319E0022086
:10082000F8BD06680D2A0AD2376BD21F02EB82028E
:1008300093409F430B6893401F43376309E0F76A77
:100840000D3A02EB820293409F430B6893401F4393
:10085000F7620A68072306680A2A0AD3F7680A3A81
:1008600002EB420293409F438B6893401F43F76023
:1008700008E0376902EB420293409F438B68934044
:100880001F4337610A68102A01D0112A20D1124B68
:1008900002689A4217D193681B0219D4936843F4F3
:1008A000000393600968102912D10C490C4A0968A9
:1008B000B1FBF2F101EB8101490000E0491E00911A
:1008C0000029FBD104E0816A41F02001816201240A
:1008D00080F824502046F8BD002401405400002038
:1008E00040420F00806A70470068C06C704700008B
:1008F0002DE9F0414FF0000704003D467ED0A06A8C
:10090000002628B9E66284F82460204600F07EF8CC
:100910002046FFF711FDA16AC90600D420B1A06AE4
:1009200040F01000A06269E0A16A21F4885141F012
:100930000201A1626268E169237B0A4347EA43013D
:100940000A43A1684FF48077B94209D0012907D042
:100950005FF0000194F814C0BCF1010F02D00AE06E
:100960003946F7E7F3B1A36A43F02003A362E36AD1
:1009700043F00103E3622368D3F804C02CF4694C0C
:100980004CEA010CC3F804C021688B68DFF870C022
:1009900003EA0C0313438B60A168B9420BD0012911
:1009A00009D00CE0DFF85CC0A3690CEB43330B43C8
:1009B00043F40061DFE7218A0D05A5F58015216864
:1009C000CB6A23F470032B43CB62216889680E4BFA
:1009D0001940914208D1E662A16A21F0020141F07A
:1009E0000101A162BDE8F081A06A20F0020040F0A0
:1009F0001000A062E06A40F00100E0620120F1E72F
:100A0000FDF7E1FF00E0FFFFFE0E1FFF00B585B020
:100A10000021009101910291039100680E498842E2
:100A200018D10E48816941F400718161816901F436
:100A300000710491816941F0040181618069694616
:100A400000F004000490022000900320019004486C
:100A500000F088F905B000BD0024014000100240FC
:100A6000000801402DE9F84300270D460446009791
:100A700000F072FA804620688168C90508D5A06A2E
:100A800040F02000A06284F824700120BDE8F883C3
:100A90004168C90503D4C06A10F4700F2AD002203F
:100AA00000F0F8FA3B490968B1FBF0F620680369E9
:100AB00039490B424FEA61014FEAA1121FD1C368C5
:100AC0004FEA611C13EA0C0F19D103690B4225D1BF
:100AD000C068104222D1142023E0681C0AD02DB136
:100AE00000F03AFAA0EB0800A84203D92068006899
:100AF000800725D5206800688007EED52DE00369C2
:100B00000B4202D1C168114206D0026923490A4250
:100B100006D1C068084203D1542002E0292000E039
:100B2000FC204643009816E0681C11D02DB100F05F
:100B300013FAA0EB0800A8420AD90098B04207D2E5
:100B4000A06A40F00400A06284F8247003209DE7AE
:100B50000098401C0090B042E6D321686FF012006C
:100B60000860A06A40F40070A06220688068C0F34A
:100B7000424007280CD1207B50B9A06A20F4807035
:100B8000A062A06AC00403D4A06A40F00100A06281
:100B900000207BE75400002024499224499224003D
:100BA00070B5044690F8240001280DD0012084F887
:100BB00024002046FFF7ECFB02004FF0000005D0B8
:100BC00084F82400104670BD022070BDA16A40F276
:100BD0000123994341F48071A1621F4D23681F498D
:100BE000AB4218D10E6816F4702F14D0A66A46F4E2
:100BF0008016A6620E68760505D5A66A26F400560C
:100C000046F48056A662A66AF6040AD5E66A26F07D
:100C10000606E66206E0A66A26F48016A6625E680C
:100C2000E9E7E06284F824006FF0020018602068B1
:100C30008368C3F34243072B05D1A84208D1096852
:100C400011F4702F04D0816841F480118160B9E7FC
:100C5000816841F4A001F9E7002801400424014023
:100C600010B590F821100022022905D004218163DB
:100C700080F82020012010BD01680B6823F00E03CE
:100C80000B6001680B6823F001030B6090F84030A3
:100C9000C46B012101FA03F3636080F8211080F82E
:100CA0002020104610BD000010B590F8211000243F
:100CB000022903D00421816301243DE001680A6810
:100CC00022F00E020A6001680A6822F001020A603E
:100CD0001A4A0168914201D1012121E0174A1432D8
:100CE000914201D110211BE0144A2832914201D1D6
:100CF000891515E0114A3C32914201D189140FE067
:100D00000E4A5032914202D14FF4803108E00B4A32
:100D10006432914202D14FF4801101E04FF08071B2
:100D2000064A083A5160012180F82110002180F81C
:100D30002010416B01B18847204610BD08000240D9
:100D400070B5044600F008F90546601C02D004485E
:100D50000078044400F000F9401BA042FAD370BDB3
:100D6000480000202DE9F84FDFF8B8910024A9F1E0
:100D7000040B23460F2709F1040AABF1040EC9E066
:100D80000125A5402A40AA427DD1674ED1F804C072
:100D9000ACEB0608B44532D014DCBCF1030F3AD0FA
:100DA00009DCBCF1000F2AD0BCF1010F1CD0BCF152
:100DB000020F31D11DE0BCF1110F17D0BCF1120FA1
:100DC0002AD119E0B8F5881F19D006DCB8F5803FA4
:100DD00015D0B8F5801F1FD111E0B8F5001F0ED057
:100DE000B8F5041F18D10AE0CB6815E0CB681B1DCD
:100DF00012E0CB6808330FE0CB680C330CE08B6853
:100E00002BB1012B4FF0080303D0456104E004230C
:100E100002E0056100E00023FF2A01D8064601E058
:100E200000F104064FEA840501D9A5F12005D6F8A2
:100E3000008007FA05FC28EA0C0803FA05F548EAE1
:100E40000508C6F800804D68ED0062D5374DAE69E3
:100E500046F00106AE61AD6924F0030605F0010518
:100E60000095334D06EB050CDCF80850A607360F4D
:100E700007FA06F825EA0805DFF8B880404503D1EF
:100E80004FF0000817E044E0DFF8AC80404502D1A5
:100E90004FF001080FE0DFF8A480404502D14FF089
:100EA000020808E0DFF89880404502D14FF00308BF
:100EB00001E04FF0040808FA06F848EA0508CCF803
:100EC00008804D68D9F80060ED024D4601D5164303
:100ED00000E096432E604D68DAF80060AD0255469A
:100EE00001D5164300E096432E604D68DBF80060A4
:100EF000AD035D4601D5164300E096432E604D6874
:100F0000DEF80060ED03754601D5164300E0964318
:100F10002E60641C0D682A46E5407FF431AFBDE8C1
:100F2000F88F00000804014000001110001002407A
:100F30000000014000080140000C01400010014089
:100F4000001401408068084000D0012070470AB1B9
:100F5000016170470904FBE70148806870470000A1
:100F6000480000200248816802781144816070477F
:100F700048000020074810B5016841F010010160E9
:100F8000032000F075F80F2000F006F800F024F8B8
:100F9000002010BD0020024070B50D4D04464FF4F6
:100FA0007A712878B1FBF0F00A490968B1FBF0F0DA
:100FB00000F0A4FB48B9102C07D200222146501E95
:100FC00000F036F800206C6070BD012070BD00009C
:100FD00048000020540000200C4808B5816941F009
:100FE00001018161816901F001010091C16941F054
:100FF0008051C161C06900F0805000900448416890
:1010000021F0E06141F00071416008BD0010024034
:1010100000000140002809DB00F01F02012191407F
:101020004009800000F1E020C0F800117047000086
:10103000F0B40E4B1B680C46C3F30223C3F1070543
:10104000042D00D90425191D072901D2002300E031
:10105000DB1E012606FA05F1491E214099409E40FB
:10106000761E16403143F0BC01F032BC0CED00E0BE
:10107000064900F0070208684FF6FF03184040EAEF
:101080000220034A10430860704700000CED00E0A6
:101090000000FA0510B501460020234C012922D09A
:1010A000022939D010291DD161682268D20119D5D1
:1010B0001E48C1F38342C903805C0AD561681B4A9C
:1010C000C1F34041921E515C194AB2FBF1F1484311
:1010D00001E0184948436168490203D440000321F4
:1010E000B0FBF1F010BD226AC2F30121012903D146
:1010F000920701D5C80310BD022905D1626A920783
:1011000002D549F6404010BD0329FCD1216889036E
:10111000F9D54FF2244010BD00F02AF96168C1F3FF
:101120008131491C4900DBE70010024018380008F3
:1011300000127A0000093D002DE9F84305460078C9
:10114000354CC00754D0E0690026C00008D4E069DF
:1011500040F08050E061E069012600F0805000908E
:101160002E480168C90512D40168804641F4807197
:101170000160FFF7F1FE074605E000BFFFF7ECFE58
:10118000C01B642823D8D8F80000C005F6D5206A13
:1011900010F4407021D0A98801F4407181421CD024
:1011A000206A1F49012220F440700A6000220A6070
:1011B0002062C00711D0FFF7CFFE074641F2883802
:1011C00008E000BFFFF7C8FEC11B414502D903205C
:1011D000BDE8F883206A8007F4D5206A696820F4A6
:1011E0004070084320621EB1E06920F08050E06149
:1011F0002878800705D56068A96820F44040084336
:1012000060602878C00605D56068E96820F4800031
:10121000084360600020DBE70010024000700040DF
:10122000400442422DE9F0470F46050061D0434E8D
:10123000306800F00700B84209D2306820F007009B
:1012400038433060306800F00700B84251D1286858
:101250003B4C810712D5400703D5606840F4E0603D
:1012600060602878000703D5606840F460506060D3
:101270006068A96820F0F000084360602878C00723
:1012800028D06868012810D02168022810D089076A
:1012900000292EDA616821F0030101436160FFF744
:1012A0005BFE804641F288390DE021688903EFE753
:1012B0008901EDE7FFF750FEA0EB0801494502D98F
:1012C0000320BDE8F0876068696800F00C00B0EBAF
:1012D000810FEFD1306800F00700B8420BD93068B9
:1012E00020F0070038433060306800F00700B84253
:1012F00001D00120E5E72878400705D56068E96856
:1013000020F4E060084360602878000706D5606834
:10131000296920F4605040EAC100606000F038F8AC
:101320006168084AC1F30311515CC840064908606E
:1013300006480068FFF730FE0020C2E700200240A8
:101340000010024028380008540000204C00002003
:101350000448054900684968044AC1F30221515C08
:10136000C840704754000020001002403838000880
:101370000448054900684968044AC1F3C221515C28
:10138000C840704754000020001002403838000860
:101390000E4A51680E4801F00C03042B11D0082BA3
:1013A0000FD10C48C1F38343C903C05C0AD551680F
:1013B000084AC1F34041921E515C054A5043B0FBBC
:1013C000F1F07047044948437047000000100240A4
:1013D00000127A000638000800093D002DE9F84F98
:1013E000040070D02078C04DC00749D06868C0F3B1
:1013F0008100012807D06868C0F38100022809D164
:101400006868C00306D52868800339D5606800285D
:10141000E7D035E06068B0F5803F0BD010B1B0F593
:10142000A02F11D0286820F480302860286820F48C
:10143000802002E0286840F480302860606890B125
:10144000FFF78AFD06460AE0286840F480202860FD
:10145000F0E700BFFFF780FD801B642873D8286881
:101460008003F7D50CE0FFF777FD064605E000BFE7
:10147000FFF772FD801B6428F0D828688003F7D43A
:1014800020789A4E80074FF001094FF0000839D5B7
:10149000686810F00C0F07D06868C0F3810002285C
:1014A00009D16868C00306D42868800714D520696C
:1014B000012808D110E02069B0B1C6F80090FFF70C
:1014C0004BFD074605E00AE1FFF746FDC01B022879
:1014D000C4D828688007F7D52868616920F0F8002B
:1014E00040EAC10028600DE0C6F80080FFF734FD37
:1014F000074604E0FFF730FDC01B022823D8286808
:101500008007F7D4207800072CD57948A169D9B194
:10151000C0F80090FFF720FD074604E0FFF71CFD30
:10152000C01B02280FD8686A8007F7D571484FF4AE
:10153000FA510068B0FBF1F0009000BF0098411E26
:101540000091FAD20EE080E0C0F80080FFF704FDC1
:10155000074604E0FFF700FDC01B022875D8686A43
:101560008007F7D42078400760D5E8690027C000DD
:1015700008D4E86940F08050E861E869012700F08C
:10158000805000905C480168C90513D40168834607
:1015900041F480710160FFF7DFFC824606E000BF86
:1015A000FFF7DAFCA0EB0A0064284ED8DBF8000055
:1015B000C005F5D5E06801280AD008B1052813D088
:1015C000286A20F001002862286A20F0040002E066
:1015D000286A40F001002862E06841F2883B98B137
:1015E000FFF7BAFC82460BE0286A40F0040028624C
:1015F000EEE700BFFFF7B0FCA0EB0A0159455AD84F
:10160000286A8007F6D50CE0FFF7A6FC824605E0C5
:10161000FFF7A2FCA0EB0A0159454CD8286A8007C5
:10162000F6D41FB1E86920F08050E861E06988B322
:101630006968C1F38101022944D00228C6F860809C
:1016400004D0FFF789FC044638E034E0FFF784FC5F
:10165000074604E0FFF780FCC01B02282BD828684F
:101660008001F7D4206AB0F5803F05D16868A16891
:1016700020F4003008436860D4E908010843696831
:1016800021F4741108436860C6F86090FFF764FCA9
:10169000044606E025E000BFFFF75EFC001B0228C1
:1016A00009D828688001F7D51BE000BFFFF754FC7C
:1016B000001B022802D90320BDE8F88F28688001AA
:1016C000F4D40EE00128F7D06868226A00F4803173
:1016D000914204D1616A00F47010884201D0012067
:1016E000EAE70020E8E70000001002400000424264
:1016F00080044242540000200070004010B5401E9B
:10170000B0F1807F01D3012010BD4FF0E024606173
:101710000F21601701F0DCF80020A0610720206194
:10172000002010BD70B590F83C20012A26D001247D
:1017300080F83C40022280F83D2003685A689D688A
:1017400022F070060A6832435A600D4B02689A42D2
:1017500008D0B2F1804F05D00A4B9A4202D00A4B12
:101760009A4204D1496825F080031943916080F8BA
:101770003D40002180F83C10084670BD022070BD3D
:10178000002C0140000400400008004010B5040097
:1017900003D094F83D0010B107E0012010BD0020F7
:1017A00084F83C00204600F01FF8022084F83D0039
:1017B000211D206800F096FE012084F8460084F880
:1017C0003E0084F83F0084F8400084F8410084F82B
:1017D000420084F8430084F8440084F8450084F80B
:1017E0003D00002010BD000008B500680649884291
:1017F00008D10648816941F400618161806900F483
:101800000060009008BD0000002C01400010024064
:1018100070B5044690F83C000025012817D0012639
:1018200084F83C60022084F83D002068826822F041
:10183000770222F47F4282600868502838D00DDC9D
:1018400020284FD005DC90B3102811D14AE00220A7
:1018500070BD302846D040280AD13BE060282FD008
:1018600070280DD0B0F5805F03D0B0F5005F12D0C6
:10187000012584F83D60002084F83C00284670BDB6
:10188000CB68D1E90121206800F062FE2068816800
:1018900041F0770109E0CB68D1E90121206800F02F
:1018A00057FE2068816841F480418160E1E719E0DA
:1018B000CA684968206800F05DFE5021206806E093
:1018C000CA684968206800F066FE6021206800F060
:1018D00049FECEE7CA684968206800F04BFE402107
:1018E0002068F4E7226801461046F0E77047704729
:1018F000F8B5016804460868CA684B6910F00F0F14
:101900004FF0000559D003F0010602F490773743F9
:1019100065D0C10705D0D10503D5616C41F0010147
:101920006164410705D5D90703D0616C41F002011C
:101930006164810705D5D90703D0616C41F00401CA
:101940006164010707D502F02001314303D0616CC7
:1019500041F008016164616C00293AD0800604D529
:10196000900602D5204600F057FE20684069616C61
:10197000C0F38010090700D460B3204600F025FEB4
:1019800020684069400621D52068143050E8001FC7
:1019900021F0400140E80012002AF5D1E06BA8B127
:1019A0006D494163E06BFFF77FF9002811D0E06BD0
:1019B000416B01B0BDE8F040084783060FD59306A0
:1019C0000DD52046BDE8F84000F026BE2046FFF7C2
:1019D0008EFFF8BD2046FFF78AFF6564F8BD266BD1
:1019E0002023012E7CD1C6067AD5D60678D5086884
:1019F0004868009048694FF00206400640D5E16B08
:101A0000086840680004000CE8D0A28D8242E5D945
:101A1000E085886920282DD020680C3050E8001F10
:101A200021F4807140E80012002AF5D120681430BA
:101A300050E8001F21F0010140E80012002AF5D112
:101A40002068143050E8001F21F0400140E80012E7
:101A5000002AF5D184F84230256320680C3050E824
:101A6000001F21F0100140E80012002AF5D1E06BC0
:101A7000FFF7F6F86663A08DE18D401A81B22AE087
:101A8000A08DE18D401A81B2E08D0028A6D00029FA
:101A9000A4D022680C3252E8000F20F4907042E883
:101AA0000007002FF5D12068143050E8002F22F0F5
:101AB000010240E80027002FF5D184F84230256369
:101AC00020680C3050E8002F22F0100240E800237C
:101AD000002BF5D166632046FFF708FFF8BDFFE74E
:101AE00005062BD5150629D594F841002128F5D1F6
:101AF000A068B0F5805F01D12069B0B1206A411CB7
:101B00002162216800784860E08C401E0004000CCF
:101B1000E084E3D12068C16821F08001C1602068C1
:101B2000C16841F04001C160D8E7206A0088C0F375
:101B300008004860206A801C2062E5E74006CDD599
:101B40005006CBD5CA68204622F04002CA6084F80D
:101B5000413000F0A5F8C1E7BB25000870B50400CE
:101B600004D094F84100002510B106E0012070BDBA
:101B700084F84050204600F023F8242084F84100E7
:101B80002068C16821F40051C160204600F0A6FD24
:101B90002068016921F4904101612068416921F0C8
:101BA0002A0141612068C16841F40051C160656447
:101BB000202084F8410084F842006563002070BD55
:101BC00030B585B000240094019402940394006819
:101BD000184988422BD11848C16941F40031C161CC
:101BE000C16901F400310491816941F0040181610E
:101BF0008069124D00F0040004900420009002203F
:101C000001900320039069462846FFF7ABF80820AF
:101C1000CDE90004694628460294FFF7A3F80022A4
:101C200011462620FFF704FA2620FFF7F3F905B046
:101C300030BD000000440040001002400008014098
:101C400090F84230202B01D00220704721B11AB108
:101C50000023036300F09EBD012070470C4910B5BE
:101C60000888402806D30020088040210948FEF754
:101C7000DDFA05E0084A074B12781A54401C088028
:101C8000BDE81040012204490448FFF7D9BF000015
:101C900058000020200100205C000020D800002017
:101CA0007047FEE710B50B4C012208212046FFF7D4
:101CB0004EF9012210212046FFF749F90022102198
:101CC0002046FFF744F920460022BDE810400821D5
:101CD000FFF73DB9000C014010B5094C0122082165
:101CE0002046FFF734F9002210212046FFF72FF994
:101CF00020460122BDE810401021FFF728B900005E
:101D0000000C014010B5064C012208212046FFF7C7
:101D10001EF920460022BDE810400821FFF717B940
:101D2000000C01403EB50024104800940194029438
:101D30000D498460016004730475012505614FF449
:101D400060214460C161FEF7D3FD08B1FEF79AFC43
:101D50000095CDE9015469460448FEF745FD002889
:101D600001D0FEF78FFC3EBD002401406000002042
:101D70002DE9F04385B0002636480096019602967C
:101D80000396816941F020018161816901F02001A0
:101D90000491816941F004018161816901F00401CC
:101DA0000491816941F0080181618069DFF8A890A0
:101DB00000F008000490002248F201314846FFF785
:101DC000C6F801224FF442614846FFF7C0F8DFF839
:101DD0008C80002246F6DF414046FFF7B8F8022526
:101DE00048F22130012403958DE8510069464846A8
:101DF000FEF7B8FF0094CDE90145694640460395DA
:101E0000FEF7B0FF01AA0327009582E8D0006946DB
:101E10004046FEF7A7FF0420CDE90004CDE90247C4
:101E200069464046FEF79EFF46F6D84003958DE88A
:101E3000510069464046FEF795FFB802CDE900041F
:101E400069464846CDE90245FEF78CFF05B0BDE87E
:101E5000F08300000010024000080140000C014027
:101E600010B586B00024184800940194029403949D
:101E7000049414490594016041F61F41C0E901141E
:101E800042F21071C0E9031444618461FFF77EFCE3
:101E900008B1FEF7F7FB4FF48050009069460A48FE
:101EA000FFF7B6FC08B1FEF7EDFB049404A9064861
:101EB0000594FFF737FC002801D0FEF7E3FB06B0DE
:101EC00010BD0000002C0140900000200C4810B50F
:101ED0000A4901604FF4E1314160002181600C2228
:101EE000C160C0E904128161C161FFF737FE0028BB
:101EF00003D0BDE81040FEF7C5BB10BD0044004054
:101F0000D8000020FEE7000070B5064D002400BF99
:101F100035F8140000F058FA641CE4B2042CF7D32E
:101F200070BD00003E00002070B5064D002400BFCB
:101F300035F8140000F048FA641CE4B2042CF7D31E
:101F400070BD000036000020FEE770B500240021BF
:101F500004F1B00000F022FA0021022000F01EFA85
:101F60000021102000F01AFA00250121002000F0C5
:101F700015FA6D1CEDB2802DF7D3641CE4B2082C69
:101F8000E5D370BD38B50C234CA20721052000F025
:101F9000EAF90C234AA20721232000F0E4F90C23DC
:101FA00048A20721412000F0DEF90C2346A20721B8
:101FB0005F2000F0D8F94548006800F069FF02464C
:101FC0000C24022306210520009400F097F94048D4
:101FD0000094022302680621232000F08FF93D4877
:101FE0000094032302780621412000F087F93A4843
:101FF00000940323026806215F2000F07FF90C2380
:1020000036A200213C2000F0AEF90C2335A20221BB
:102010003C2000F0A8F90C2334A204213C2000F05D
:10202000A2F9344D00940223002164202A6900F0B3
:1020300065F90223009419466420AA6800F05EF94D
:102040000094022304216420EA6800F057F900217B
:102050000C2329A2084600F086F96879012826D0C9
:1020600027A20C2300211E2000F07DF90C2325A2BD
:102070000221002000F077F9A879012819D020A2C8
:102080000C2302211E2000F06EF90C231FA2042154
:10209000002000F068F9E87901280CD018A201B0FE
:1020A0000C23BDE8304004211E2000F05CB919A2C9
:1020B000D7E718A2E4E717A2F1E7000054656D0026
:1020C0004C756D005444530057657400180000208F
:1020D00020000020340000202400002054656D54AE
:1020E0003A0000004C756D543A00000054445354BB
:1020F0003A000000000000205556413A0000000060
:102100004F4646005556423A0000000050756D3A61
:10211000000000004F4E000010B586B00020009077
:102120000190029003904548816941F00801816166
:102130008069434C00F008000490002218212046DA
:10214000FEF705FF18200121CDE900010220CDE9AD
:10215000021069462046FEF705FE0A20FEF7F0FD54
:102160000021AE2000F01AF90021022000F016F93B
:102170000021102000F012F90021402000F00EF99B
:102180000021B02000F00AF90021812000F006F9BA
:102190000021FF2000F002F90021A12000F0FEF84C
:1021A0000021A62000F0FAF80021A82000F0F6F89F
:1021B00000213F2000F0F2F80021C82000F0EEF8E6
:1021C0000021D32000F0EAF80021084600F0E6F8EC
:1021D0000021D52000F0E2F80021802000F0DEF898
:1021E0000021D82000F0DAF80021052000F0D6F810
:1021F0000021D92000F0D2F80021F12000F0CEF823
:102200000021DA2000F0CAF80021122000F0C6F800
:102210000021DB2000F0C2F80021302000F0BEF8E1
:1022200000218D2000F0BAF80021142000F0B6F84B
:102230000021AF2000F0B2F806B010BD001002403F
:10224000000C014010B50A460446002102F1B0001E
:1022500000F0A4F8A41CC4F3031040F01000002107
:1022600000F09CF804F00F00BDE81040002100F0E1
:1022700095B800002DE9F041203A00240D46804633
:10228000D6B27F2803D900208D1C8046EDB2102BDA
:10229000294610D0FFF7D6FF164906EB460001EBA2
:1022A00040050121285D00F079F8641CE4B2062C99
:1022B000F7D3BDE8F081FFF7C5FF0F4F04EB061021
:1022C0000121385C00F06AF8641CE4B2082CF5D3F4
:1022D0006D1CE9B24046FFF7B5FF002404EB061081
:1022E00038440121007A00F059F8641CE4B2082C4B
:1022F000F4D3DEE7EC2F0008143200082DE9F05F7C
:102300000026DDF828901D4692468B4680463446CE
:102310004FEA590723E0281B401EC1B20A2000F0F3
:10232000B7FBBAFBF0F00A21B0FBF1F201FB12009F
:1023300026B9691E8C4201DA38B101263030C2B2AA
:1023400007FB0480C0B24B4604E007FB0480C0B228
:102350004B4620225946FFF78DFF641CE4B2AC4285
:10236000D9D3BDE8F09F2DE9F041984617460E46B7
:10237000044600250DE0434631462046FFF77AFF2C
:102380000834E4B2782C02D90024B61CF6B26D1CD5
:10239000EDB27A5D002AEED1BDE8F081C0B209B19C
:1023A00000F07FBA00F066BA7047704710B5044677
:1023B000FEF718F94620FEF7EBF82046FEF7E8F89E
:1023C000BDE81040FEF72EB92DE9F0471C4E04463B
:1023D0004FF48075002229463046FEF7B8FD194FAC
:1023E0004FF40058002241463846FEF7B0FD4FF446
:1023F0000079002249463046FEF7A9FD4FF4804A95
:10240000002251463846FEF7A2FDAC4202D101221D
:10241000294609E041468C4202D10122384604E0B7
:1024200049468C4208D101223046FEF790FDBDE8B6
:10243000F0470120FEF784BC51468C42EDD0F6E710
:1024400000080140000C0140FEF78CBD30B593B090
:1024500028216846FDF70CFF14210AA8FDF708FFA4
:10246000002501200F9510951195010412958DE816
:10247000230004904FF4E010CDE9081002240794E3
:102480006846FEF7ABFF08B172B6FEE70AA90F2057
:1024900081E831004FF48060CDE90D0502210AA8E2
:1024A000FEF7C0FE08B172B6FEE74FF4004011908F
:1024B0000F940FA8FEF740FE002801D072B6FEE789
:1024C00013B030BD7047000010B50448FEF720F986
:1024D000FDF79CFF0249087010BD0000600000205D
:1024E00034000020F0B50268164B174C174D4FF022
:1024F0008047984205D0B84203D0A04201D0A842FC
:1025000003D122F070064A683243984205D0B8429F
:1025100003D0A04201D0A84203D122F44074CA687B
:1025200022434C6922F08002224302608A68C26220
:102530000A688262984201D10969016301214161FF
:10254000F0BD0000002C01400004004000080040E5
:1025500010B5846842EA032224F47F440A432243EC
:10256000826010BD826822F070020A4342F00701C7
:102570008160704710B5036A046A24F001040462A4
:10258000846924F0F00444EA021423F00A020A43A6
:102590008461026210BD10B5036A046A24F010045D
:1025A0000462846923F0A00324F4704444EA0232F4
:1025B00043EA01118261016210BD10B5406A002139
:1025C000C185C184FFF793F910BD01680C3151E852
:1025D000002F22F4907241E80023002BF5D101680E
:1025E000143151E8002F22F0010241E80023002BB2
:1025F000F5D1016B012909D101680C3151E8002F97
:1026000022F0100241E80023002BF5D1202180F8B0
:10261000421000210163704708B590F8421022294A
:1026200001D0022008BD82684FF480539A4201D144
:10263000016921B1816A9A421BD04AB10AE002685D
:10264000816A5268C2F308020A80816A891C08E024
:10265000026972B10268526802F07F020A70816AF0
:10266000491C8162C18D491E0904090CC18503D032
:102670001BE002685268F1E70168CA6822F0200294
:10268000CA600168CA6822F48072CA6001684A6937
:1026900022F001024A61202180F8421000214163AA
:1026A000026B012A03D0FFF7D9FA002008BD0163AD
:1026B00001680C3151E8002F22F0100241E800239C
:1026C000002BF5D101680A68D20602D50A6849686C
:1026D0000091818DFFF70AF9E7E7000070B5044625
:1026E00000680169E26821F44051114301612169E8
:1026F000A0680843616908432168CA6841F20C6315
:102700009A430243CA6020684169A26921F440717A
:10271000114341611E492068884202D1FEF728FE1C
:1027200001E0FEF715FE00EBC00101EB001260684E
:1027300064218000B2FBF0F3B3FBF1F36FF01806F5
:102740007343B2FBF0F5B2FBF0F605EB83053223E1
:1027500003EB0515B5FBF1F5B6FBF1F605F0F00559
:1027600005EB0615B2FBF0F6B2FBF0F0B0FBF1F0B2
:102770006FF01802504306EB800003EB0010B0FB33
:10278000F1F0216800F00F002844886070BD00005F
:102790000038014081628285C28500214164222186
:1027A00080F84210016921B10168CA6842F4807260
:1027B000CA6001684A6942F001024A610068C16862
:1027C00041F02001C1600020704700000148FFF780
:1027D0008FB80000D8000020FEE7000010B50120EF
:1027E000FFF7E4FD1020FFF7E1FDB420FEF7A8FAA3
:1027F00000F02EF909480178407800EB012080B202
:1028000000F0D3FA4FF03332054B00F049F900F0F5
:102810009FFA024980B2491E486010BD1D00002089
:102820003333F33F70B5124E044600220821304680
:10283000FEF78DFB5FF0000504F08000802815D0C6
:10284000002210213046FEF782FB6006040E0122B2
:1028500008213046FEF77BFB002208213046FEF7B8
:1028600076FB6D1CEDB2082DE6D370BD0122E8E7C2
:10287000000C014010B50446FFF714FA7820FFF76A
:10288000D1FFFFF73FFA0020FFF7CCFFFFF73AFA3E
:102890002046FFF7C7FFFFF735FABDE81040FFF706
:1028A0001BBA10B50446FFF7FDF97820FFF7BAFF11
:1028B000FFF728FA4020FFF7B5FFFFF723FA20467D
:1028C000FFF7B0FFFFF71EFABDE81040FFF704BAAC
:1028D0000907090E002804DB00F1E02080F800144D
:1028E000704700F00F0000F1E02080F8141D7047E1
:1028F00047E000BF00BF00BF00BF00BF00BF00BF78
:1029000000BF00BF00BF00BF00BF00BF00BF00BFCF
:1029100000BF00BF00BF00BF00BF00BF00BF00BFBF
:1029200000BF00BF00BF00BF00BF00BF00BF00BFAF
:1029300000BF00BF00BF00BF00BF00BF00BF00BF9F
:1029400000BF00BF00BF00BF00BF00BF00BF00BF8F
:1029500000BF00BF00BF00BF00BF00BF00BF00BF7F
:1029600000BF00BF00BF00BF00BF00BF00BF00BF6F
:1029700000BF00BF00BF00BF00BF00BF00BF00BF5F
:1029800000BF401E80B2B4D27047000086B014224F
:1029900027A16846FDF718FCFEF7ECFAFFF756FD95
:1029A000FFF7E6F9FFF7BEF9FFF75AFAFFF78EFADD
:1029B000FFF7B2FBFFF7C9FAFDF73EFD214C4FF4DC
:1029C0008066002231462046FEF7C1FAE514002257
:1029D00029462046FEF7BBFA1B4FDFF8708000BF88
:1029E000FFF7D0FAFDF73BFEFDF74EFE38780128E1
:1029F00012D0002201214046FEF7A9FA00223146FA
:102A00002046FEF7A4FA002229462046FEF79FFA48
:102A10000A20FEF795F9E3E7012211464046FEF74A
:102A200096FA012231462046FEF791FA0122EBE7A1
:102A30002F6D79736D617274747572746C652F701B
:102A4000756200000008014001000020000C0140F8
:102A500070B5FDF7C7FD4720FDF79AFD00240B4D2B
:102A6000FDF72EFD2855032C0DD00020FDF764FD49
:102A7000641CE4B2032CF3D3FDF7D4FDBDE8704031
:102A80000520FDF7F4BD0120F0E700001D00002047
:102A90000246012000E05043491EC9B2FBD27047F4
:102AA0002DE9C04130B4DFF8A0C23CEA111418BFD0
:102AB0003CEA131400F0EC8081EA03051CEA1114CF
:102AC00044EAD57418BF1CEA131500F0C780A4EBC4
:102AD00005044FF0004545EAC12145EAC32341EA18
:102AE000505143EA525304F17F74994204F5003483
:102AF0004FEAC0204FEAC22208BF904200F09C80FB
:102B00004FEA13650FF24016765D4FEA134506FB58
:102B100005F7C7F1807706FB07F74FEAD737A7FB22
:102B200003687642C8F58038A7FB06CE38BFA8F107
:102B3000010807FB08E64FF0000EA6FB028CE6FB3F
:102B400003CEDCF1000CCEF1004E38BFAEF1010E29
:102B5000A6FB0C584FF000074FF00005E6FB0E8770
:102B6000A1FB08C6A0FB07CE16EB0E0645F100053B
:102B7000E1FB076515F1E04E7EBFA4F580345FEA06
:102B800046066D4116F1800745F100054FEA17270B
:102B90004FEA066647EA0567A6F1DE46B6F1805FB2
:102BA0004FEA15251FD9384624F0010C05EBC471F6
:102BB000BCF1FE6F01EB0C1102D8F0BCBDE8008146
:102BC00024425CBF01F5801E9EEAC47F02D4F0BCA3
:102BD000BDE80081244238D4F0BCA1F1C041BDE879
:102BE000004100F043B94FEAD22242EA43524FEA91
:102BF000D323A7FB02864FEAD02040EA415007FBCF
:102C000003661EEA0E0F4FEAD12105FB026658BF8C
:102C1000A6EB0056B6EB00564FEA520E4EEAC37EC4
:102C200018EB0E0E56EB530EBDD518EB02085E41A5
:102C30007F1C55F10005B6E74FF480154FF00007F3
:102C40004FF000064FF00008ADE7F0BC4FF0000079
:102C500001F1C04101F00041BDE8008111EA0C1F03
:102C60000CEA131500D00CE013EA0C1F00F02580CD
:102C70004FF00000F0BC81EA030101F00041BDE823
:102C80000081F0BCBDE8004181EA030100F0EEB82C
:102C9000F0BCBDE8004170B500F09AF8097EFC3E3A
:102CA00000F007B881EA03014FF0000001F0004195
:102CB000704781EA030100F0D9B8F0BCBDE80041DB
:102CC0004FF0000021497047FFFDFBF9F7F5F4F2E2
:102CD000F0EEEDEBE9E8E6E4E3E1E0DEDDDBDAD8B7
:102CE000D7D5D4D3D1D0CFCDCCCBCAC8C7C6C5C415
:102CF000C2C1C0BFBEBDBCBBBAB9B8B7B6B5B4B32C
:102D0000B2B1B0AFAEADACABAAA9A8A8A7A6A5A416
:102D1000A3A3A2A1A09F9F9E9D9C9C9B9A999998DA
:102D20009797969595949393929191908F8F8E8E7D
:102D30008D8C8C8B8B8A898988888787868585840A
:102D400084838382828181800000FF070000F87FF6
:102D50004FEA1153A3F58063D3F11E03A8BFD3F14B
:102D6000200C08DB4FF0004242EAC12252EA5052E6
:102D700032FA03F0704709420BD4102BC4BF002075
:102D8000704703F5787CBCF1FF3F05D04FF0FF3072
:102D900070474FF00000704770B500F019F800BFA1
:102DA0004992248000207047F0E7B0FA80F310FACF
:102DB00003F10AD0C3F11D0303F580634FEA4150CC
:102DC0004FEA035202EBD12170474FF000007047E9
:102DD0000EF1020E2EF0030E5EF8046B364205D49F
:102DE000012A43EB030515F5001F12D8012841EB1A
:102DF000010C1CF5001F0CD80ED14FEAD17C15F543
:102E0000001F0CEB4C0C0CF1020C08BF4CEBD37CFC
:102E100004E04FF0080C01E04FEAD37C0CEB4C05CA
:102E200026FA05F606F00706B6F1040C06D20EEBFC
:102E3000860CBDE870404CF0010C6047DFE80CF0F8
:102E4000090B02024FF000414FF00000A1F50021F4
:102E500070BD19461046012851EB010418BFD4F586
:102E6000001484BF002001F0004170BD0808A0F5E7
:102E700000114FEA31017047401058BFC0F1404087
:102E8000491058BFC1F140418142EFF300807047C3
:102E9000C10DD1F19E0206DB4FEA002343F000434F
:102EA00023FA02F07047004207D54FEA4001B1F122
:102EB000FE4F02D24FF00000704710B500F050F8FE
:102EC00049922480002070476FEA2000704700007C
:102ED000B0FA80F310FA03F2C3F19D030AD0D905CA
:102EE00001EB1220530638BF704700F1010008BF04
:102EF00020F001007047000050EA010C00F113803F
:102F00001CF5000F58BFBCF5000F01D48842704774
:102F100007D710F5000F58BF11F5000F15D48842E0
:102F20007047894270471CF5000F04D5BCF5000FAF
:102F3000F7D5814270474FF0807C1CEB400F38BFC3
:102F40001CEB410F01D28142704710B500F008F828
:102F5000922449004FF000504FF08051FFF78CBF92
:102F60000EF1020E2EF0030E5EF8044B244204D440
:102F70004FEA4102B2F17F4F11D84FEA4003B3F15B
:102F80007F4F0CD80ED14FEAD07CB2F17F4F0CEBC3
:102F90004C0C0CF1020C08BF4CEBD17C04E04FF060
:102FA000080C01E04FEAD17C0CEB4C0324FA03F44B
:102FB00004F00704B4F1040C06D20EEB840CBDE857
:102FC00010404CF0010C6047DFE80CF007080202EB
:102FD0004FF00040A0F5800010BD0846420018BF29
:102FE000D2F1807288BF00F0004010BD00000000E8
:102FF00000000000002F0000000007000700001480
:103000007F147F1400242A7F2A120062640813238D
:1030100000364955225000000503000000001C2224
:103020004100000041221C000014083E0814000862
:10303000083E0808000000A0600000080808080812
:10304000000060600000002010080402003E5149AA
:10305000453E0000427F4000004261514946002148
:1030600041454B31001814127F1000274545453962
:10307000003C4A49493000017109050300364949BD
:10308000493600064949291E000036360000000076
:1030900056360000000814224100001414141414C1
:1030A000000041221408000201510906003249596A
:1030B000513E007C1211127C007F49494936003E86
:1030C00041414122007F4141221C007F4949494141
:1030D000007F09090901003E4149497A007F08083B
:1030E000087F0000417F4100002040413F01007FF8
:1030F00008142241007F40404040007F020C027FC4
:10310000007F0408107F003E4141413E007F0909D5
:103110000906003E4151215E007F091929460046FB
:10312000494949310001017F0101003F4040403FD2
:10313000001F2040201F003F4038403F006314081C
:1031400014630007087008070061514945430000F7
:103150007F41410000552A552A55000041417F001A
:10316000000402010204004040404040000001020F
:103170000400002054545478007F484444380038F8
:103180004444442000384444487F00385454541880
:1031900000087E0901020018A4A4A47C007F080492
:1031A00004780000447D4000004080847D00007F62
:1031B000102844000000417F4000007C041804787F
:1031C000007C0804047800384444443800FC24247B
:1031D00024180018242418FC007C08040408004863
:1031E0005454542000043F444020003C4040207C84
:1031F000001C2040201C003C4030403C0044281073
:103200002844001CA0A0A07C004464544C44141426
:10321000141414140000000000000000000000005E
:1032200000000000000000F8000000000000003373
:103230003000000000100C06100C0600000000001A
:103240000000000040C07840C0784000043F040403
:103250003F040400007088FC08300000001820FFC4
:10326000211E0000F008F000E018000000211C03FF
:103270001E211E0000F00888700000001E2123247B
:103280001927211010160E00000000000000000099
:1032900000000000000000E0180402000000000729
:1032A0001820400000020418E00000000040201830
:1032B00007000000404080F0804040000202010F03
:1032C00001020200000000F0000000000101011FE7
:1032D00001010100000000000000000080B070004B
:1032E00000000000000000000000000000010101DB
:1032F000010101010000000000000000003030006A
:103300000000000000000000806018040060180643
:103310000100000000E010080810E000000F10207D
:1033200020100F00001010F8000000000020203FC7
:103330002020000000700808088870000030282451
:1033400022213000003008888848300000182020F2
:1033500020110E000000C02010F800000007042417
:10336000243F240000F8088888080800001921205C
:1033700020110E0000E0108888180000000F1120B6
:1033800020110E0000380808C83808000000003F6F
:10339000000000000070880808887000001C2221CE
:1033A00021221C0000E010080810E000000031227B
:1033B00022110F00000000C0C0000000000000301B
:1033C000300000000000008000000000000080606D
:1033D00000000000000080402010080000010204EE
:1033E00008102000404040404040400004040404D5
:1033F0000404040000081020408000000020100891
:1034000004020100007048080808F00000000030C5
:1034100036010000C030C828E810E0000718272453
:1034200023140B000000C038E0000000203C230201
:103430000227382008F8888888700000203F202064
:1034400020110E00C0300808080838000718202096
:103450002010080008F808080810E000203F20208D
:1034600020100F0008F88888E8081000203F20206E
:103470002320180008F88888E8081000203F200062
:1034800003000000C030080808380000071820209A
:10349000221E020008F808000008F808203F210159
:1034A00001213F20000808F8080800000020203F04
:1034B0002020000000000808F8080800C080808074
:1034C0007F00000008F888C028180800203F20016D
:1034D0002638200008F8080000000000203F2020C7
:1034E0002020300008F8F800F8F80800203F003FDE
:1034F000003F200008F830C00008F808203F2000F6
:1035000007183F00E01008080810E0000F10202006
:1035100020100F0008F808080808F000203F2101DB
:1035200001010000E01008080810E0000F18242432
:1035300038504F0008F8888888887000203F2000A5
:10354000030C30200070880808083800003820215B
:1035500021221C00180808F8080818000000203F65
:103560002000000008F808000008F808001F2020CC
:1035700020201F000878880000C83808000007389D
:103580000E010000F80800F80008F800033C0700EE
:10359000073C0300081868808068180820302C0356
:1035A000032C30200838C800C83808000000203F2D
:1035B0002000000010080808C8380800203826211C
:1035C00020201800000000FE020202000000007F20
:1035D00040404000000C30C000000000000000012E
:1035E0000638C00000020202FE0000000040404019
:1035F0007F0000000000040202020400000000003E
:1036000000000000000000000000000080808080BA
:1036100080808080000202040000000000000000A2
:10362000000000000000808080800000001924223B
:1036300022223F2008F8008080000000003F112077
:1036400020110E000000008080800000000E11207C
:1036500020201100000000808088F800000E11205A
:1036600020103F200000808080800000001F222268
:1036700022221300008080F0888888180020203FD4
:10368000202000000000808080808000006B9494E7
:103690009493600008F8008080800000203F2100A3
:1036A00000203F2000809898000000000020203F6C
:1036B00020200000000000809898000000C080805A
:1036C000807F000008F8000080808000203F2402F6
:1036D0002D302000000808F8000000000020203FE6
:1036E000202000008080808080808000203F20009B
:1036F0003F20003F8080008080800000203F21002C
:1037000000203F200000808080800000001F2020DB
:1037100020201F00808000808000000080FFA1200A
:1037200020110E000000008080808000000E11201B
:1037300020A0FF80808080008080800020203F21AA
:10374000200001000000808080808000003324245D
:1037500024241900008080E0808000000000001F09
:10376000202000008080000000808000001F2020BA
:1037700020103F20808080000080808000010E307B
:103780000806010080800080008080800F300C03DC
:103790000C300F0000808000808080000020312EDF
:1037A0000E312000808080000080808080818E70BB
:1037B0001806010000808080808080000021302C6D
:1037C0002221300000000000807C02020000000086
:1037D000003F404000000000FF000000000000002B
:1037E000FF0000000002027C800000000040403F1B
:1037F00000000000000601010202040400000000B5
:1038000000000000010202030405060708090A0B74
:103810000C0D0E0F10100102020304050607080923
:103820000A0B0C0D0E0F101000000000000000002D
:103830000102030406070809000000000102030456
:103840006038000800000020600000002801000827
:10385000C038000860000020600700004401000834
:1038600000000000000000003C0000000A00000012
:103870001000000020030000000000000000000015
:103880000000000000000000000000000000000038
:103890000000000000000001002000020040004085
:1038A00000020020000100000100000010000000E4
:1038B000000000000024F4000000000000000000F0
:04000005080000ED02
:00000001FF
