:020000040800F2
:1000000000500020091F0008E91C0008EB1C000834
:10001000ED1C0008EF1C0008F11C000800000000A7
:10002000000000000000000000000000F31C0008B9
:10003000F51C000800000000F71C0008F91C00086F
:10004000511F0008511F0008511F0008511F0008D0
:10005000511F0008511F0008511F0008511F0008C0
:10006000511F0008511F0008511F0008511F0008B0
:10007000511F0008511F0008511F0008511F0008A0
:10008000511F0008511F0008511F0008511F000890
:10009000511F0008511F0008511F0008511F000880
:1000A000511F0008511F0008511F0008511F000870
:1000B000511F0008511F0008511F0008511F000860
:1000C000511F0008511F0008511F0008511F000850
:1000D000511F0008511F0008011D0008511F000892
:1000E000511F0008511F0008511F000800000000A8
:1000F0000000000000000000000000000000000000
:0C01000000000000000000005FF808F1A3
:1001100010B5054C237833B9044B13B10448AFF341
:1001200000800123237010BDB809002000000000EA
:100130009CC4000808B5034B1BB103490348AFF347
:10014000008008BD00000000BC0900209CC400081D
:1001500081F0004102E000BF83F0004330B54FEA78
:1001600041044FEA430594EA050F08BF90EA020FE5
:100170001FBF54EA000C55EA020C7FEA645C7FEA78
:10018000655C00F0E2804FEA5454D4EB5555B8BF9B
:100190006D420CDD2C4480EA020281EA030382EA0C
:1001A000000083EA010180EA020281EA0303362D9E
:1001B00088BF30BD11F0004F4FEA01314FF4801C71
:1001C0004CEA113102D0404261EB410113F0004F83
:1001D0004FEA03334CEA133302D0524263EB43033A
:1001E00094EA050F00F0A780A4F10104D5F1200ED8
:1001F0000DDB02FA0EFC22FA05F2801841F1000133
:1002000003FA0EF2801843FA05F359410EE0A5F106
:1002100020050EF1200E012A03FA0EFC28BF4CF037
:10022000020C43FA05F3C01851EBE37101F00045ED
:1002300007D54FF0000EDCF1000C7EEB00006EEBFA
:100240000101B1F5801F1BD3B1F5001F0CD3490884
:100250005FEA30004FEA3C0C04F101044FEA4452DB
:1002600012F5800F80F09A80BCF1004F08BF5FEA62
:10027000500C50F1000041EB045141EA050130BD42
:100280005FEA4C0C404141EB0101013C28BFB1F554
:10029000801FE9D291F0000F04BF01460020B1FA9F
:1002A00081F308BF2033A3F10B03B3F120020CDA72
:1002B0000C3208DD02F1140CC2F10C0201FA0CF050
:1002C00021FA02F10CE002F11402D8BFC2F1200CB5
:1002D00001FA02F120FA0CFCDCBF41EA0C0190406B
:1002E000E41AA2BF01EB0451294330BD6FEA0404B4
:1002F0001F3C1CDA0C340EDC04F11404C4F120029F
:1003000020FA04F001FA02F340EA030021FA04F3B0
:1003100045EA030130BDC4F10C04C4F1200220FA07
:1003200002F001FA04F340EA0300294630BD21FA45
:1003300004F0294630BD94F0000F83F4801306BF0B
:1003400081F480110134013D4EE77FEA645C18BFFF
:100350007FEA655C29D094EA050F08BF90EA020F96
:1003600005D054EA000C04BF1946104630BD91EA8E
:10037000030F1EBF0021002030BD5FEA545C05D191
:100380004000494128BF41F0004130BD14F58004D0
:100390003CBF01F5801130BD01F0004545F0FE4144
:1003A00041F470014FF0000030BD7FEA645C1ABF79
:1003B000194610467FEA655C1CBF0B46024650EAB0
:1003C000013406BF52EA033591EA030F41F40021DC
:1003D00030BD00BF90F0000F04BF0021704730B562
:1003E0004FF4806404F132044FF000054FF0000137
:1003F00050E700BF90F0000F04BF0021704730B5F8
:100400004FF4806404F1320410F0004548BF4042CC
:100410004FF000013EE700BF42004FEAE2014FEA21
:1004200031014FEA02701FBF12F07F4393F07F4FFC
:1004300081F06051704732F07F4208BF704793F0FF
:100440007F4F04BF41F40021704730B54FF4607412
:1004500001F0004521F000411CE700BF50EA010215
:1004600008BF704730B54FF000050AE050EA0102BE
:1004700008BF704730B511F0004502D5404261EB2E
:1004800041014FF4806404F132045FEA915C3FF46F
:10049000D8AE4FF003025FEADC0C18BF03325FEA0C
:1004A000DC0C18BF033202EBDC02C2F1200300FABD
:1004B00003FC20FA02F001FA03FE40EA0E0021FAE2
:1004C00002F11444BDE600BF70B54FF0FF0C4CF4D0
:1004D000E06C1CEA11541DBF1CEA135594EA0C0F82
:1004E00095EA0C0F00F0DEF82C4481EA030621EABD
:1004F0004C5123EA4C5350EA013518BF52EA0335F8
:1005000041F4801143F4801338D0A0FB02CE4FF0A9
:100510000005E1FB02E506F00042E0FB03E54FF0D9
:100520000006E1FB03569CF0000F18BF4EF0010ED1
:10053000A4F1FF04B6F5007F64F5407404D25FEACD
:100540004E0E6D4146EB060642EAC62141EA555180
:100550004FEAC52040EA5E504FEACE2EB4F1FD0CC2
:1005600088BFBCF5E06F1ED8BEF1004F08BF5FEA40
:10057000500E50F1000041EB045170BD06F00046F2
:1005800046EA010140EA020081EA0301B4EB5C049F
:10059000C2BFD4EB0C0541EA045170BD41F4801197
:1005A0004FF0000E013C00F3AB8014F1360FDEBFBC
:1005B000002001F0004170BDC4F10004203C35DA98
:1005C0000C341BDC04F11404C4F1200500FA05F31B
:1005D00020FA04F001FA05F240EA020001F00042BC
:1005E00021F0004110EBD37021FA04F642EB060132
:1005F0005EEA430E08BF20EAD37070BDC4F10C045C
:10060000C4F1200500FA04F320FA05F001FA04F21F
:1006100040EA020001F0004110EBD37041F100010B
:100620005EEA430E08BF20EAD37070BDC4F1200516
:1006300000FA05F24EEA020E20FA04F301FA05F27E
:1006400043EA020321FA04F001F0004121FA04F226
:1006500020EA020000EBD3705EEA430E08BF20EAF6
:10066000D37070BD94F0000F0FD101F00046400030
:1006700041EB010111F4801F08BF013CF7D041EAB2
:10068000060195F0000F18BF704703F000465200B6
:1006900043EB030313F4801F08BF013DF7D043EA87
:1006A0000603704794EA0C0F0CEA135518BF95EA3D
:1006B0000C0F0CD050EA410618BF52EA4306D1D1C4
:1006C00081EA030101F000414FF0000070BD50EAE3
:1006D000410606BF1046194652EA430619D094EA6D
:1006E0000C0F02D150EA013613D195EA0C0F05D157
:1006F00052EA03361CBF104619460AD181EA0301AB
:1007000001F0004141F0FE4141F470014FF0000062
:1007100070BD41F0FE4141F4780170BD70B54FF0FD
:10072000FF0C4CF4E06C1CEA11541DBF1CEA13557D
:1007300094EA0C0F95EA0C0F00F0A7F8A4EB05045F
:1007400081EA030E52EA03354FEA013100F0888056
:100750004FEA03334FF0805545EA131343EA12631F
:100760004FEA022245EA111545EA10654FEA0026D4
:100770000EF000419D4208BF964244F1FD0404F58D
:10078000407402D25B084FEA3202B61A65EB0305E9
:100790005B084FEA32024FF480104FF4002CB6EBA6
:1007A000020E75EB030E22BFB61A754640EA0C0026
:1007B0005B084FEA3202B6EB020E75EB030E22BF66
:1007C000B61A754640EA5C005B084FEA3202B6EBA7
:1007D000020E75EB030E22BFB61A754640EA9C0066
:1007E0005B084FEA3202B6EB020E75EB030E22BF36
:1007F000B61A754640EADC0055EA060E18D04FEAF4
:10080000051545EA16754FEA06164FEAC30343EA93
:1008100052734FEAC2025FEA1C1CC0D111F4801F60
:100820000BD141EA00014FF000004FF0004CB6E759
:1008300011F4801F04BF01430020B4F1FD0C88BFF8
:10084000BCF5E06F3FF6AFAEB5EB030C04BFB6EB03
:10085000020C5FEA500C50F1000041EB045170BDF6
:100860000EF0004E4EEA113114EB5C04C2BFD4EB23
:100870000C0541EA045170BD41F480114FF0000EA7
:10088000013C90E645EA060E8DE60CEA135594EA23
:100890000C0F08BF95EA0C0F3FF43BAF94EA0C0F26
:1008A0000AD150EA01347FF434AF95EA0C0F7FF49B
:1008B00025AF104619462CE795EA0C0F06D152EAEF
:1008C00003353FF4FDAE1046194622E750EA4106D3
:1008D00018BF52EA43067FF4C5AE50EA41047FF4E4
:1008E0000DAF52EA43057FF4EBAE12E74FF0FF3C49
:1008F00006E000BF4FF0010C02E000BF4FF0010C1A
:100900004DF804CD4FEA410C7FEA6C5C4FEA430C92
:1009100018BF7FEA6C5C1BD001B050EA410C0CBFE1
:1009200052EA430C91EA030F02BF90EA020F002043
:10093000704710F1000F91EA030F58BF994208BFAA
:1009400090422CBFD8176FEAE37040F00100704767
:100950004FEA410C7FEA6C5C02D150EA013C07D1BE
:100960004FEA430C7FEA6C5CD6D152EA033CD3D009
:100970005DF8040B704700BF8446104662468C4603
:100980001946634600E000BF01B5FFF7B7FF002836
:1009900048BF10F1000F01BD4DF808EDFFF7F4FF5F
:1009A0000CBF012000205DF808FB00BF4DF808EDEA
:1009B000FFF7EAFF34BF012000205DF808FB00BF0D
:1009C0004DF808EDFFF7E0FF94BF012000205DF82F
:1009D00008FB00BF4DF808EDFFF7CEFF94BF0120E4
:1009E00000205DF808FB00BF4DF808EDFFF7C4FFDD
:1009F00034BF012000205DF808FB00BF4FEA410230
:100A000012F5001215D211D56FF47873B3EB625260
:100A100012D94FEAC12343F0004343EA505311F087
:100A2000004F23FA02F018BF404270474FF0000019
:100A3000704750EA013005D111F0004008BF6FF057
:100A4000004070474FF00000704700BF4A0011D2CD
:100A500012F5001211D20DD56FF47873B3EB625218
:100A60000ED44FEAC12343F0004343EA505323FA24
:100A700002F070474FF00000704750EA013002D199
:100A80004FF0FF3070474FF00000704780F000409B
:100A900002E000BF81F0004142001FBF5FEA410356
:100AA00092EA030F7FEA226C7FEA236C6AD04FEA56
:100AB0001262D2EB1363C1BFD2184140484041409B
:100AC000B8BF5B42192B88BF704710F0004F40F44D
:100AD000000020F07F4018BF404211F0004F41F469
:100AE000000121F07F4118BF494292EA030F3FD035
:100AF000A2F1010241FA03FC10EB0C00C3F1200348
:100B000001FA03F100F0004302D5494260EB4000D6
:100B1000B0F5000F13D3B0F1807F06D340084FEA41
:100B2000310102F10102FE2A51D2B1F1004F40EB36
:100B3000C25008BF20F0010040EA0300704749009E
:100B400040EB0000013A28BFB0F5000FEDD2B0FA3B
:100B500080FCACF1080CB2EB0C0200FA0CF0AABF5E
:100B600000EBC25052421843BCBFD04018437047FC
:100B700092F0000F81F4000106BF80F40000013202
:100B8000013BB5E74FEA41037FEA226C18BF7FEAD9
:100B9000236C21D092EA030F04D092F0000F08BF1B
:100BA0000846704790EA010F1CBF0020704712F002
:100BB0007F4F04D1400028BF40F00040704712F141
:100BC00000723CBF00F50000704700F0004343F0A6
:100BD000FE4040F4000070477FEA226216BF0846DC
:100BE0007FEA23630146420206BF5FEA412390EA9F
:100BF000010F40F4800070474FF0000304E000BF95
:100C000010F0004348BF40425FEA000C08BF704745
:100C100043F0964301464FF000001CE050EA010209
:100C200008BF70474FF000030AE000BF50EA01021E
:100C300008BF704711F0004302D5404261EB41010B
:100C40005FEA010C02BF84460146002043F0B64330
:100C500008BFA3F18053A3F50003BCFA8CF2083A55
:100C6000A3EBC25310DB01FA02FC634400FA02FC5E
:100C7000C2F12002BCF1004F20FA02F243EB020065
:100C800008BF20F00100704702F1200201FA02FCC7
:100C9000C2F1200250EA4C0021FA02F243EB0200BA
:100CA00008BF20EADC707047844641EA000313F075
:100CB000030349D1403A23D30B6803604B68436078
:100CC0008B688360CB68C3600B6903614B694361C8
:100CD0008B698361CB69C3610B6A03624B6A4362B0
:100CE0008B6A8362CB6AC3620B6B03634B6B436398
:100CF0008B6B8363CB6BC36340304031403ADBD2B4
:100D000030320BD30B6803604B6843608B688360A1
:100D1000CB68C36010301031103AF3D20C3205D3D7
:100D200051F8043B40F8043B043AF9D2043208D0AD
:100D3000D2071CBF11F8013B00F8013B01D30B881F
:100D400003806046704700BF082A13D38B07B1D0D9
:100D500010F00303AED0C3F10403D21ADB071CBFAB
:100D600011F8013B00F8013BA4D331F8023B20F815
:100D7000023B9FE7043AD9D3013A11F8013B00F84E
:100D8000013BF9D20B7803704B7843708B788370FA
:100D9000604670474FEA410C7FEA6C5C02D150EA32
:100DA000013C0AD14FEA430C7FEA6C5C02D152EA63
:100DB000033C02D14FF0000070474FF00100704734
:100DC00053B94AB9002908BF00281CBF4FF0FF31B2
:100DD0004FF0FF3000F076B9ADF1080C6DE904CEAC
:100DE00000F006F8DDF804E0DDE9022304B0704706
:100DF0002DE9F047089E0D4604468846002B4DD14C
:100E00008A42944668D9B2FA82F252B101FA02F3E8
:100E1000C2F1200120FA01F10CFA02FC41EA0308B8
:100E200094404FEA1C41B8FBF1F71FFA8CFE01FB1E
:100E3000178807FB0EF0230C43EA084398420AD9AF
:100E40001CEB030307F1FF3580F01E81984240F24E
:100E50001B81023F63441B1AB3FBF1F001FB10330B
:100E600000FB0EFEA4B244EA0344A6450AD91CEBDB
:100E7000040400F1FF3380F00981A64540F20681A9
:100E8000644402380021A4EB0E0440EA07401EB17E
:100E90000023D440C6E90043BDE8F0878B4208D95F
:100EA000002E00F0EE800021C6E900050846BDE8EE
:100EB000F087B3FA83F100294AD1AB4202D38242D0
:100EC00000F2FC80841A65EB030301209846002E93
:100ED000E2D0C6E90048DFE702B9FFDEB2FA82F2EB
:100EE000002A40F09180A1EB0C0001214FEA1C4741
:100EF0001FFA8CFEB0FBF7F307FB1300250C45EA45
:100F000000450EFB03F0A84208D91CEB050503F1D0
:100F1000FF3802D2A84200F2CE8043462D1AB5FB1C
:100F2000F7F007FB10550EFB00FEA4B244EA05449F
:100F3000A64508D91CEB040400F1FF3502D2A645F2
:100F400000F2B6802846A4EB0E0440EA03409EE778
:100F5000C1F120078B4022FA07FC4CEA030C25FA6A
:100F600007FA4FEA1C49BAFBF9F820FA07F309FB24
:100F700018AA8D401FFA8CFE1D4300FA01F308FBEE
:100F80000EF02C0C44EA0A44A04202FA01F20BD9FA
:100F90001CEB040408F1FF3A80F08880A04240F284
:100FA0008580A8F102086444241AB4FBF9F009FB17
:100FB000104400FB0EFEADB245EA0444A64508D934
:100FC0001CEB040400F1FF356CD2A6456AD9023847
:100FD000644440EA0840A0FB0295A4EB0E04AC4236
:100FE000C846AE4656D353D0002E69D0B3EB0802A4
:100FF00064EB0E0422FA01F304FA07F71F43CC4016
:10100000C6E90074002147E70CFA02FCC2F1200196
:1010100025FA01F34FEA1C4720FA01F195400D43F0
:10102000B3FBF7F107FB11331FFA8CFE280C40EAE3
:10103000034001FB0EF3834204FA02F408D91CEBCF
:10104000000001F1FF382FD283422DD902396044CC
:10105000C01AB0FBF7F307FB1300ADB245EA004539
:1010600003FB0EF0A84208D91CEB050503F1FF387D
:1010700016D2A84214D9023B6544281A43EA01411A
:1010800038E73146304607E72F46E4E61846F9E6EA
:101090004B45A9D2B9EB020865EB0C0E0138A3E76A
:1010A0004346EAE7284694E74146D1E7D0467BE746
:1010B0006444023847E7023B65442FE7084606E7E9
:1010C0003146E9E6704700BF48E000BF00BF00BFFF
:1010D00000BF00BF00BF00BF00BF00BF00BF00BF18
:1010E00000BF00BF00BF00BF00BF00BF00BF00BF08
:1010F00000BF00BF00BF00BF00BF00BF00BF00BFF8
:1011000000BF00BF00BF00BF00BF00BF00BF00BFE7
:1011100000BF00BF00BF00BF00BF00BF00BF00BFD7
:1011200000BF00BF00BF00BF00BF00BF00BF00BFC7
:1011300000BF00BF00BF00BF00BF00BF00BF00BFB7
:1011400000BF00BF00BF00BF00BF00BF00BF00BFA7
:1011500000BF00BF00BF00BF00BF1846431E9BB2C8
:101160000028B2D17047000010B50E4C012280213A
:10117000204601F094FA01224021204601F08FFA26
:101180000520FFF7A1FF00228021204601F087FA09
:101190000520FFF799FF00224021204601F07FFA49
:1011A00010BD00BF000C014010B50B4C0022802187
:1011B000204601F074FA01224021204601F06FFA26
:1011C0000520FFF781FF01228021204601F067FA08
:1011D0000520FFF779FF10BD000C014010B584B069
:1011E0000446C0230093012301930223039369461D
:1011F000114801F03BF9012C18D0ACB90022802134
:101200000D4801F04CFA0C4C01224021204601F01F
:1012100046FA0520FFF758FF00224021204601F042
:101220003EFA0520FFF750FF04B010BD01228021D7
:10123000014801F034FAE6E7000C014030B585B012
:10124000002301930223039380250095164C6946E1
:10125000204601F00BF901224021204601F01FFA3F
:101260000520FFF731FF2946204601F011FA012839
:1012700015D00E4B00221A700B4C00224021204644
:1012800001F00DFA0520FFF71FFF012301936946C6
:10129000204601F0EBF8054B187805B030BD034B44
:1012A00001221A70E8E700BF000C0140DC090020B1
:1012B00070B50446002519E000228021124801F093
:1012C000EEF96400E4B2104E01224021304601F0F4
:1012D000E6F90520FFF7F8FE00224021304601F034
:1012E000DEF90520FFF7F0FE0135EDB2072D08D835
:1012F00014F0800FE0D001228021034801F0CFF9E3
:10130000DFE7FFF79BFF70BD000C014008B5FFF75A
:101310002BFF4620FFF7CCFF0120FFF7C9FFFFF7A7
:1013200043FF08BD10B50446FFF71EFF4620FFF738
:10133000BFFF2046FFF7BCFFFFF736FF10BD0000E0
:1013400070B584B000250195802600960223039392
:101350001A4C6946204601F089F8012231462046A0
:1013600001F09DF92C460BE02043C4B2002240213D
:10137000124801F094F90520FFF7A6FE0135EDB201
:10138000072D12D86400E4B20C4E012240213046F1
:1013900001F085F90520FFF797FE8021304601F026
:1013A00077F90128E0D00020DEE7012301936946A8
:1013B000024801F05BF8204604B070BD000C01400B
:1013C00010B5FFF7D1FE4720FFF772FF002404E0BD
:1013D0000120FFF703FF0134E4B2022C09D8FFF724
:1013E000AFFF054B1855032CF2D00020FFF7F6FE97
:1013F000F1E7FFF7D9FE10BDD409002008B50120A0
:10140000FFF790FF1020FFF78DFFB42000F0ECFDF8
:10141000FFF7D6FF0A4B1A78587800EB022080B20B
:10142000FFF7EAFBFEF7F8FF4FF03332054BFFF70B
:1014300075F9FFF70BFB80B2034B186008BD00BFC6
:10144000D40900203333F33FD809002010B50B4CEA
:1014500001220821204601F022F901221021204614
:1014600001F01DF900221021204601F018F9002298
:101470000821204601F013F910BD00BF000C014007
:1014800010B5084C01220821204601F008F900227D
:101490001021204601F003F901221021204601F01D
:1014A000FEF810BD000C014010B5064C01220821C9
:1014B000204601F0F4F800220821204601F0EFF860
:1014C00010BD00BF000C014070B504460022082189
:1014D000124801F0E4F8002513E0002210210F4823
:1014E00001F0DDF86400E4B20C4E01220821304620
:1014F00001F0D5F800220821304601F0D0F801357E
:10150000EDB2072D08D814F0800FE6D0012210218B
:10151000024801F0C4F8E5E770BD00BF000C0140CF
:1015200010B50446FFF792FF7820FFF7CDFFFFF7D5
:10153000BBFF0020FFF7C8FFFFF7B6FF2046FFF70D
:10154000C3FFFFF7B1FFFFF79BFF10BD10B50446C7
:10155000FFF77CFF7820FFF7B7FFFFF7A5FF4020DC
:10156000FFF7B2FFFFF7A0FF2046FFF7ADFFFFF741
:101570009BFFFFF785FF10BD08B519B1C0B2FFF79B
:10158000E5FF08BDC0B2FFF7CBFFFAE710B5044690
:1015900008460021B030FFF7EFFF0234C4F3031018
:1015A000002140F01000FFF7E7FF002104F00F00DA
:1015B000FFF7E2FF10BD38B500250AE00121002049
:1015C000FFF7DAFF0134E4B214F0800FF6D00135F2
:1015D000EDB2072D0ED8002105F1B000FFF7CCFFCA
:1015E00000210220FFF7C8FF00211020FFF7C4FFF1
:1015F0000024E9E738BD0000F8B507460E46203A5A
:10160000D5B210F0800F07D1102B09D031463846E3
:10161000FFF7BCFF002433E00236F6B20027F3E701
:1016200031463846FFF7B2FF002408E004EB05130B
:101630000121154AD05CFFF79FFF0134E4B2072C6B
:10164000F4D9711CC9B23846FFF7A0FF002409E0A5
:1016500004EB0513083301210B4AD05CFFF78CFF24
:101660000134E4B2072CF3D90CE005EB4503074A3B
:1016700002EB43030121185DFFF77EFF0134E4B262
:10168000052CF2D9F8BD00BFE0C60008B8C40008B8
:101690000246012002E002FB00F019464B1EDBB2BD
:1016A0000029F8D1704700002DE9F04782468946AD
:1016B00090461D469DF8206000273C4619E07008C2
:1016C00004FB00F0C0B25044334620224946C0B269
:1016D000FFF792FF0BE0700804FB00F0C0B230325D
:1016E00050443346D2B24946C0B2FFF785FF0134B9
:1016F000E4B2AC421CD2291BC9B20139C9B20A20DA
:10170000FFF7C6FFB8FBF0F00A4AA2FB003C4FEA25
:10171000DC0C0CEB8C0CA0EB4C0C5FFA8CF2002F69
:10172000D9D16B1E9C42D6DA002AC8D00127D2E755
:10173000BDE8F087CDCCCCCC70B586B00024029447
:10174000039404940594464B9A6942F008029A6106
:101750009B6903F008030193019B424E2246182126
:10176000304600F09CFF1823029301230393049357
:101770000225059502A9304600F078FE0A2000F007
:1017800033FC2146AE20FFF7F7FE21462846FFF73F
:10179000F3FE21461020FFF7EFFE21464020FFF721
:1017A000EBFE2146B020FFF7E7FE21468120FFF740
:1017B000E3FE2146FF20FFF7DFFE2146A120FFF7D1
:1017C000DBFE2146A620FFF7D7FE2146A820FFF723
:1017D000D3FE21463F20FFF7CFFE2146C820FFF76A
:1017E000CBFE2146D320FFF7C7FE21462046FFF758
:1017F000C3FE2146D520FFF7BFFE21468020FFF71C
:10180000BBFE2146D820FFF7B7FE21460520FFF793
:10181000B3FE2146D920FFF7AFFE2146F120FFF7A6
:10182000ABFE2146DA20FFF7A7FE21461220FFF784
:10183000A3FE2146DB20FFF79FFE21463020FFF765
:101840009BFE21468D20FFF797FE21461420FFF7CF
:1018500093FE2146AF20FFF78FFE06B070BD00BF9C
:1018600000100240000C014000B585B00023019338
:10187000029303931048114A026083600373037557
:101880004FF46022C26143600123036100F08EFCCB
:1018900060B90123019302930023039301A9064831
:1018A00000F0B6FB28B905B05DF804FB00F004F9C0
:1018B000EFE700F001F9F6E7E0090020002401401D
:1018C00000B587B000230293039304930593026845
:1018D000114B9A4202D007B05DF804FB03F56C434C
:1018E0009A6942F400729A619A6902F40072009255
:1018F000009A9A6942F004029A619B6903F004031A
:101900000193019B022302930323039302A903483B
:1019100000F0ACFDDFE700BF0024014000080140FB
:101920002DE9F04389B000240494059406940794AB
:101930004B4B9A6942F010029A619A6902F01002C8
:101940000092009A9A6942F020029A619A6902F024
:1019500020020192019A9A6942F004029A619A69FE
:1019600002F004020292029A9A6942F008029A6115
:101970009B6903F008030393039BDFF8E88022468A
:101980004FF40051404600F08AFE374F224648F29D
:101990000171384600F083FE01224FF4026138469F
:1019A00000F07DFE314E224646F65A41304600F0A8
:1019B00076FE4FF4005304930125059506954FF0EC
:1019C0000309CDF81C9004A9404600F04FFD48F2F1
:1019D00021330493059506944FF00208CDF81C803E
:1019E00004A9384600F042FD0495214B0593069466
:1019F00004A9304600F03AFDCDF810800595069414
:101A0000CDF81C9004A9304600F030FD0423049367
:101A10000594069504A9304600F028FD46F6584383
:101A2000049305950694CDF81C8004A9304600F077
:101A30001DFD4FF4406304930595CDF81880CDF853
:101A40001C9004A9384600F011FD802304930594EE
:101A5000069404A9304600F009FD09B0BDE8F08302
:101A6000001002400010014000080140000C01403D
:101A70000000111008B50C4B1B883F2B0CD8591CCB
:101A8000094A1180094A1178094AD15401220749AB
:101A9000084801F0E4FE08BD0021034B19804022F4
:101AA000034802F07BFEF1E7EC0A0020F00A002078
:101AB000AC0A0020600A002072B6FEE700B595B0BF
:101AC000282200210DEB020002F068FE002305939E
:101AD0000693079308930993019302930393049346
:101AE00001220A924FF480330B930E92022211923C
:101AF00012934FF4E01313930AA800F0F5FDC8B950
:101B00000F23059302210691002307934FF480626F
:101B10000892099305A801F019F868B90223019306
:101B20004FF40043039301A801F0ECF830B915B06D
:101B30005DF804FBFFF7C0FFFFF7BEFFFFF7BCFF38
:101B400010B588B0214B07930DF1080C204C0FCC39
:101B5000ACE80F002368CCF8003000F021FAFFF762
:101B6000ADFFFFF7DDFE00F057F9FFF77DFE00F057
:101B700005F9FFF7E1FDFFF71EFDFFF7C7FB0122A7
:101B80001449154801F06BFE02F0B0F901E002F0D3
:101B9000FBF802F06FFA0028F9D1012107A802F042
:101BA000EDFA4FF480610D4800F07FFDFFF726FC51
:101BB0001023009304230A4A126800210846FFF705
:101BC00073FD642000F010FAEBE700BFD0CC0008F2
:101BD000E4CC0008F00A0020600A00200008014060
:101BE000D8090020022801D80120704708B502F06A
:101BF000EFFA09230360002008BD000010B501388A
:101C000001280AD814464FF0FF3392B20748006803
:101C100001F076FB40B9204610BD02F0D9FA092345
:101C200003604FF0FF30F7E70520F5E7100A0020CA
:101C3000022801D80020704708B502F0C9FA09232C
:101C400003604FF0FF3008BD08B502F0C1FA092368
:101C500003604FF0FF3008BD08B548B94FF0FF33BF
:101C600001220848006801F0AAFB40B9012008BD24
:101C700002F0AEFA092303604FF0FF30F7E70520CA
:101C8000F5E700BF100A002008B5022804D84FF479
:101C900000534B60002008BD02F09AFA092303604C
:101CA000F8E7000082B00E4B9A6942F001029A6197
:101CB0009A6902F001020092009ADA6942F08052B9
:101CC000DA61DB6903F080530193019B054A536895
:101CD00023F0E06343F00073536002B0704700BF2D
:101CE0000010024000000140FEE7FEE7FEE7FEE7CD
:101CF000FEE770477047704708B500F063F908BD0C
:101D000008B5024801F04CFC08BD00BF600A002085
:101D10000120704708B502F05BFA162303604FF00C
:101D2000FF3008BD08B54FF0FF31FFF7F3FFFEE7C6
:101D300010B503460C4A0D490D48006840B10C48E7
:101D400000680344521A934206D8094A136010BD32
:101D50000748084C0460F2E702F03AFA0C230360EB
:101D60004FF0FF30F3E700BF0050002000040000F8
:101D7000140A0020400B00207047000000B587B017
:101D80000023029303930493059300930193154852
:101D9000154A02604722426083604FF6FF72C260BC
:101DA00003614361836101F0A1F890B94FF480535E
:101DB000029302A90B4801F0D1F868B900230093FF
:101DC00001936946074801F049F940B907B05DF849
:101DD00004FBFFF771FEE9E7FFF76EFEEEE7FFF7A2
:101DE0006BFEF3E7180A0020002C01400268094B43
:101DF0009A4200D0704782B003F564439A6942F476
:101E000000629A619B6903F400630193019B02B035
:101E1000704700BF002C014008B50A480A4B036018
:101E20004FF4E133436000238360C36003610C22FD
:101E300042618361C36101F033FA00B908BDFFF765
:101E40003BFEFBE7600A00200044004030B587B04D
:101E50000023029303930493059302681B4B9A4259
:101E600001D007B030BD03F5E633DA6942F4003241
:101E7000DA61DA6902F400320092009A9A6942F05B
:101E800004029A619B6903F004030193019B0423FC
:101E9000029302230393032305930D4D02A92846C1
:101EA00000F0E4FA082302930024039404940DEB59
:101EB0000301284600F0DAFA22462146262000F0E7
:101EC0000BFA262000F040FACBE700BF00440040A8
:101ED0000008014084B070B504AC84E80F00169986
:101EE000BDF85C60002409E04D1C4FF0FF33012277
:101EF00004A801F005FA0134A4B22946B442F3D390
:101F0000BDE8704004B07047FFF736FF0B480C493E
:101F10000C4A002302E0D458C4500433C4188C4245
:101F2000F9D3094A094C002301E013600432A242AC
:101F3000FBD302F053F9FFF703FE704700000020C7
:101F4000B809002078D40008B80900203C0B002014
:101F5000FEE7000010B504460E4B18784FF47A7374
:101F6000B3FBF0F30C4A1068B0FBF3F000F0FAF9A1
:101F700068B90F2C01D901200AE0002221464FF058
:101F8000FF3000F0A9F9054B1C60002000E00120A3
:101F900010BD00BF04000020000000200800002049
:101FA00008B5074A136843F010031360032000F0DC
:101FB00081F90F20FFF7CEFFFFF774FE002008BD68
:101FC00000200240034A1168034B1B780B44136046
:101FD000704700BFA80A002004000020014B1868C9
:101FE000704700BFA80A002038B50446FFF7F6FF87
:101FF0000546B4F1FF3F02D0044B1B781C44FFF7A9
:10200000EDFF401BA042FAD338BD00BF0400002002
:1020100030B482B00022019290F82420012A00F00E
:1020200091800346012280F824204A68062A2DD890
:102030000468606B02EB8202053A4FF01F0C0CFA49
:1020400002FC20EA0C000D6805FA02F2024362630A
:102050000A68092A3AD91C68E06802EB42021E3A73
:102060004FF0070C0CFA02FC20EA0C008D6805FA10
:1020700002F20243E2600A68103A012A36D90020CF
:10208000002283F8242002B030BC70470C2A0ED8FE
:102090000568286B02EB8202233A1F24944020EA51
:1020A00004000C6804FA02F202432A63D0E70568D0
:1020B000E86A02EB8202413A1F24944020EA0400BD
:1020C0000C6804FA02F20243EA62C1E71C68206964
:1020D00002EB42024FF0070C0CFA02FC20EA0C0063
:1020E0008D6805FA02F202432261C4E71A681648B5
:1020F000824205D09A6A42F020029A620120BFE72C
:10210000906810F4000F1BD1906840F400009060BC
:102110000A68102A01D00020B2E70C4A12680C4964
:10212000A1FB0212920C02EB82025200019202E029
:10213000019A013A0192019A002AF9D100209FE701
:1021400000209DE702209EE70024014000000020BF
:1021500083DE1B4338B503689A6812F0010F01D182
:10216000002038BD04469A6822F001029A60FFF709
:1021700035FF054623689B6813F0010F13D0FFF766
:102180002DFF431B022BF5D923689B6813F0010F29
:10219000F0D0A36A43F01003A362E36A43F00103A3
:1021A000E3620120DDE70020DBE7000000287BD0B0
:1021B00070B50446836A002B4DD02046FFF7CAFF56
:1021C000A36A13F0100369D1002867D1A26A22F430
:1021D000885222F0020242F00202A2626268E169C1
:1021E0000A43217B42EA4102A568B5F5807F02D00F
:1021F000012D36D01D46267D012E35D0266871680A
:1022000021F46941294371602568AE68274931404E
:102210001143A960A168B1F5807F01D0012902D1E5
:102220002369013B1B052568E96A21F470010B4312
:10223000EB62236899681E4B0B409A4225D0A36A33
:1022400023F0120343F01003A362E36A43F0010397
:10225000E362012027E0C36280F82430FFF730FBFF
:10226000ABE74FF48075C6E731B9A169013945EA9A
:10227000413141F40065C1E7A16A41F02001A1624A
:10228000E16A41F00101E162B8E70023E362A36A79
:1022900023F0030343F00103A36204E0A36A43F0C5
:1022A0001003A362012070BD01207047FDF7E1FF1C
:1022B000FE0E1FFF074AD36823F4E0631B041B0CC8
:1022C000000200F4E060034343F0BF6343F40033D3
:1022D000D360704700ED00E000B5194BDB68C3F335
:1022E0000223C3F1070CBCF1040F28BF4FF0040C0C
:1022F00003F1040EBEF1060F18D9033B4FF0FF3E69
:102300000EFA0CFC21EA0C0199400EFA03F322EAC2
:102310000303194300280BDB0901C9B200F1604037
:1023200000F5614080F800135DF804FB0023E5E749
:1023300000F00F000901C9B2024B1954F4E700BFC5
:1023400000ED00E014ED00E0002807DB00F01F02C4
:10235000400901239340024A42F82030704700BFF1
:1023600000E100E00138B0F1807F0BD24FF0E023B4
:102370005861054AF02182F8231000209861072255
:102380001A6170470120704700ED00E090F821309D
:10239000DBB2022B06D004238363002380F82030B5
:1023A000012070470268136823F00E03136002686F
:1023B000136823F001031360036CC16B012202FA5E
:1023C00003F34B6080F82120002380F8203018466A
:1023D0007047000008B590F82130DBB2022B03D023
:1023E00004238363012008BD0268136823F00E03F1
:1023F00013600268136823F0010313600368194A2D
:10240000934214D0143293421FD0143293421ED000
:10241000143293421ED0143293421ED0143293428F
:1024200002D04FF0807203E04FF4801200E00122EE
:102430000D4B5A60012380F82130002380F82030B2
:10244000436B6BB198470020CDE71022F0E74FF4C3
:102450008072EDE74FF48052EAE74FF48032E7E70D
:102460000020C0E7080002400000024070B582B0C2
:102470000024A446A6E0804DAA4210D007D97F4D83
:10248000AA420CD005F58035AA4208D013E0A5F584
:102490008015AA4203D005F57025AA4207D18A68A3
:1024A000002A58D0012A51D04361082403E0A5F541
:1024B0008015AA42F3D0BEF1FF0F4ED80646BEF1FA
:1024C000FF0F4CD84FEA8C0233680F25954023EA62
:1024D000050304FA02F2134333604B6813F0805F84
:1024E0006ED0674B9A6942F001029A619B6903F0D2
:1024F00001030193019B4FEA9C02951C614B53F829
:1025000025600CF003039D000F23AB4026EA030671
:102510005D4B984229D003F58063984200F08E808D
:1025200003F58063984200F08B8003F58063984246
:1025300019D004231AE0CC68BDE7CC680434BAE7AC
:10254000CC680834B7E7CC680C34B4E703610824DE
:10255000B1E70024AFE70424ADE7061DAFE7ACF117
:1025600008029200B0E7032300E00023AB403343AE
:102570000232444D45F822304B6813F4801F61D07D
:10258000424A936843EA0E0393604B6813F4001FBA
:102590005ED03E4AD36843EA0E03D3604B6813F41F
:1025A000003F5BD0394A536843EA0E0353604B68DF
:1025B00013F4803F58D0354A136843EA0E03136082
:1025C0000CF1010C0A6832FA0CF353D0012303FA20
:1025D0000CF302EA030E33EA0202F1D14A68122A2E
:1025E0003FF649AF122A3FF666AF01A555F822F033
:1025F0009F240008372500084125000853250008BE
:10260000B7240008B7240008B7240008B72400083E
:10261000B7240008B7240008B7240008B72400082E
:10262000B7240008B7240008B7240008B72400081E
:10263000B72400083B25000847250008012395E73B
:10264000022393E7114A936823EA0E0393609CE701
:102650000E4AD36823EA0E03D3609FE70B4A536800
:1026600023EA0E035360A2E7084A136823EA0E0325
:102670001360A5E702B070BD000022100000311009
:102680000010024000000140000801400004014029
:102690008368194201D001207047002070470AB1B9
:1026A00001617047090401617047C36801EA0302D0
:1026B00021EA030141EA02410161704782B0084BFF
:1026C0001B68084AA2FB03235B0A00FB03F3019388
:1026D00000BF019B5A1E0192002BF9D102B0704736
:1026E00000000020D34D6210002800F0F18170B589
:1026F00082B00446036813F0010F2CD0994B5B683D
:1027000003F00C03042B1DD0964B5B6803F00C0305
:10271000082B12D06368B3F5803F41D0002B55D110
:1027200003F1804303F504331A6822F480321A60FF
:102730001A6822F480221A6037E08A4B5B6813F42F
:10274000803FE7D0874B1B6813F4003F03D06368DA
:10275000002B00F0BF81236813F0020F75D0814B6E
:102760005B6813F00C0F5FD07E4B5B6803F00C03CB
:10277000082B54D02369002B00F08A807A4B012269
:102780001A60FFF72BFC0546764B1B6813F0020F0F
:1027900075D1FFF723FC401B0228F5D903209EE1E9
:1027A000704A136843F480331360636843B3FFF7E0
:1027B00015FC05466B4B1B6813F4003FCBD1FFF7AC
:1027C0000DFC401B6428F5D9032088E1B3F5A02F48
:1027D00009D0644B1A6822F480321A601A6822F415
:1027E00080221A60E1E703F18043A3F53C331A68C5
:1027F00042F480221A601A6842F480321A60D4E7E8
:10280000FFF7ECFB0546574B1B6813F4003FA2D0C3
:10281000FFF7E4FB401B6428F5D903205FE1514B2F
:102820005B6813F4803FA5D14E4B1B6813F0020F79
:1028300003D02369012B40F04F814A4A136823F0EB
:10284000F803616943EAC1031360236813F0080FBA
:1028500033D0A369002B5CD0434B0122C3F8802402
:10286000FFF7BCFB05463F4B5B6A13F0020F21D11B
:10287000FFF7B4FB401B0228F5D903202FE1394AAA
:10288000136823F0F803616943EAC1031360DCE7CE
:10289000354B00221A60FFF7A1FB0546314B1B6840
:1028A00013F0020FD1D0FFF799FB401B0228F5D996
:1028B000032014E10120FFF701FF236813F0040F48
:1028C00000F09680274BDB6913F0805F34D1254BF5
:1028D000DA6942F08052DA61DB6903F080530193D8
:1028E000019B0125214B1B6813F4807F26D0E368F0
:1028F000012B3DD0002B53D103F1804303F504336A
:102900001A6A22F001021A621A6A22F004021A629A
:1029100033E0154B0022C3F88024FFF75FFB054628
:10292000104B5B6A13F0020FC7D0FFF757FB401B39
:102930000228F5D90320D2E00025D3E70B4A13681B
:1029400043F480731360FFF749FB0646074B1B688F
:1029500013F4807FCBD1FFF741FB801B6428F5D9AE
:102960000320BCE000100240000042420070004022
:102970005F4A136A43F001031362E36833B3FFF75E
:102980002DFB06465A4B1B6A13F0020F2FD1FFF79F
:1029900025FB801B41F288339842F3D903209EE047
:1029A000052B09D0524B1A6A22F001021A621A6AE8
:1029B00022F004021A62E0E74D4B1A6A42F0040268
:1029C0001A621A6A42F001021A62D6E7FFF706FBA2
:1029D0000646474B1B6A13F0020F08D0FFF7FEFABA
:1029E000801B41F288339842F3D9032077E0E5B9A0
:1029F000E369002B72D03E4A526802F00C02082AAA
:102A000056D0022B17D03B4B00221A66FFF7E6FA8E
:102A10000446374B1B6813F0007F47D0FFF7DEFA00
:102A2000001B0228F5D9032059E0314AD36923F06D
:102A30008053D361DCE72F4B00221A66FFF7CEFAF2
:102A400005462B4B1B6813F0007F06D0FFF7C6FA34
:102A5000401B0228F5D9032041E0236AB3F5803FEB
:102A60001AD023494B6823F47413226A606A024324
:102A700013434B601F4B01221A66FFF7AFFA04465F
:102A80001B4B1B6813F0007F0ED1FFF7A7FA001B4A
:102A90000228F5D9032022E0154A536823F40033B5
:102AA000A1680B435360DCE7002018E0002016E02B
:102AB000012B16D00E4B5B6803F48031226A9142E1
:102AC00011D103F47013626A93420ED1002006E024
:102AD00001207047012002E0012000E0002002B048
:102AE00070BD0120FBE70120F9E70120F7E700BFF7
:102AF00000100240000042420F4B5B6803F00C02E2
:102B0000082A01D00D487047C3F383420C49885C02
:102B100013F4803F0BD0084B5B68C3F34043094A72
:102B2000D35C064A02FB00F0B0FBF3F07047064BA3
:102B300003FB00F0704700BF0010024000127A0053
:102B400010CD000820CD000800093D00002800F04D
:102B5000A08070B50D460446524B1B6803F0070376
:102B60008B420BD24F4A136823F007030B431360C9
:102B7000136803F007038B4240F08D80236813F045
:102B8000020F17D013F0040F04D0474A536843F4E0
:102B9000E0635360236813F0080F04D0424A53687F
:102BA00043F460535360404A536823F0F003A16834
:102BB0000B435360236813F0010F31D06368012B7E
:102BC00020D0022B25D0384A126812F0020F64D0B0
:102BD00035494A6822F0030213434B60FFF7FEF9C0
:102BE0000646314B5B6803F00C036268B3EB820F5F
:102BF00016D0FFF7F3F9801B41F288339842F0D9E1
:102C0000032045E0284A126812F4003FE0D1012079
:102C10003EE0254A126812F0007FD9D1012037E04A
:102C2000204B1B6803F00703AB420AD91D4A136807
:102C300023F007032B431360136803F00703AB4231
:102C40002DD1236813F0040F06D0174A536823F4DC
:102C5000E063E1680B435360236813F0080F07D06B
:102C6000114A536823F46053216943EAC103536056
:102C7000FFF742FF0C4B5B68C3F303130B4AD35CB3
:102C8000D8400B4B18600B4B1868FFF763F9002016
:102C900070BD012070470120FAE70120F8E701200C
:102CA000F6E700BF0020024000100240F8CC000808
:102CB0000000002008000020014B1868704700BF8A
:102CC0000000002008B5FFF7F7FF044B5B68C3F373
:102CD0000223034AD35CD84008BD00BF0010024065
:102CE00008CD000808B5FFF7E7FF044B5B68C3F3A6
:102CF000C223034AD35CD84008BD00BF0010024085
:102D000008CD000870B582B00446036813F0010FC7
:102D100036D03F4BDB6913F0805F49D13C4BDA6919
:102D200042F08052DA61DB6903F080530193019B2A
:102D30000125384B1B6813F4807F3BD0344B1B6A52
:102D400013F4407313D0626802F440729A420ED0BA
:102D50002F4A136A23F440702F490126C1F84064BA
:102D60000026C1F84064106213F0010F36D1284AE2
:102D7000136A23F4407361680B431362002D3ED144
:102D8000236813F0020F06D0214A536823F440430E
:102D9000A1680B435360236813F0100F34D01C4A12
:102DA000536823F48003E1680B43536000202CE058
:102DB0000025BEE7174A136843F480731360FFF7DA
:102DC0000DF90646134B1B6813F4807FB6D1FFF74D
:102DD00005F9801B6428F5D9032016E0FFF7FEF8FB
:102DE00006460B4B1B6A13F0020FC0D1FFF7F6F833
:102DF000801B41F288339842F3D9032005E0D36960
:102E000023F08053D361BBE7002002B070BD00BF48
:102E100000100240007000400000424210B4036AFB
:102E2000046A24F001040462846924F0F00C4CEA82
:102E3000021223F00A030B438261036210BC704745
:102E400010B4036A046A24F010040462846924F450
:102E5000704C4CEA023223F0A00343EA0113826172
:102E6000036210BC7047836823F070030B4343F088
:102E7000070383607047000003681B4A90420AD032
:102E8000B0F1804F07D0A2F59432904203D002F502
:102E90008062904203D123F070034A681343124AC0
:102EA00090420AD0B0F1804F07D0A2F59432904200
:102EB00003D002F58062904203D123F44073CA68C4
:102EC000134323F080034A69134303608B68C36292
:102ED0000B688362044B984202D001234361704720
:102EE0000B690363F9E700BF002C014040B310B544
:102EF000044690F83D30F3B1022384F83D3021467A
:102F000051F8040BFFF7B8FF012384F8463084F82A
:102F10003E3084F83F3084F8403084F8413084F803
:102F2000423084F8433084F8443084F8453084F8E3
:102F30003D30002010BD80F83C30FEF757FFDBE746
:102F40000120704710B4846824F47F4C42EA0322C5
:102F50000A4342EA0C02826010BC704790F83C3091
:102F6000012B78D010B50446012380F83C300223B1
:102F700080F83D300268936823F47F4323F07703A1
:102F800093600B68602B4CD029D8402B54D00CD9BF
:102F9000502B22D1CA6849680068FFF73FFF5021D3
:102FA0002068FFF760FF002005E0202B0DD009D935
:102FB000302B0AD00120012384F83D30002384F80F
:102FC0003C3010BD0BB1102B05D119462068FFF71E
:102FD0004AFF0020EFE70120EDE70120EBE7B3F522
:102FE000805F34D0B3F5005F0CD1CB684A68896844
:102FF0000068FFF7A7FF2268936843F4804393605B
:103000000020D8E7702B24D1CB684A688968006813
:10301000FFF798FF2268936843F0770393600020DE
:10302000C9E7CA6849680068FFF70AFF602120689D
:10303000FFF719FF0020BEE7CA6849680068FFF77C
:10304000EDFE40212068FFF70EFF0020B3E70020CF
:10305000B1E70120AFE702207047000090F83C3054
:10306000012B2CD010B4012380F83C30022380F8CF
:103070003D3003685A689C6822F0700C0A6842EA86
:103080000C025A6003680F4A93420AD0B3F1804F92
:1030900007D0A2F59432934203D002F580629342A6
:1030A00004D124F080044A6814439C60012380F812
:1030B0003D30002380F83C30184610BC7047022099
:1030C000704700BF002C0140026802F10C0353E876
:1030D000003F23F490730C3242E800310029F3D111
:1030E000026802F1140353E8003F23F00103143295
:1030F00042E800310029F3D1036B012B05D02023D6
:1031000080F84230002303637047026802F10C0329
:1031100053E8003F23F010030C3242E8003100294D
:10312000F3D1ECE790F84130DBB2212B01D0022043
:1031300070478368B3F5805F17D0036A5A1C026238
:103140001A7803685A60C38C9BB2013B9BB2C3845C
:103150004BB90268D36823F08003D3600268D36858
:1031600043F04003D360002070470369002BE4D193
:10317000036A1B880268C3F308035360036A0233BF
:103180000362E0E710B504460268136923F4405374
:10319000C1680B43136183680269134342691A4390
:1031A0000168CB6823F4B05323F00C031343CB60C6
:1031B0000268536923F4407381690B4353610268C9
:1031C000134B9A4220D0FFF77DFD024602EB8202AC
:1031D00002EB820263689B00B2FBF3F20D48A0FB96
:1031E00002314909642303FB11231B013233A0FB85
:1031F00003235B0903F0F00202EB011203F00F035B
:10320000216813448B6010BDFFF76CFD0246DDE7BB
:10321000003801401F85EB512DE9F84305460F4664
:1032200016469946DDF820802C68246837EA0403A6
:103230000CBF4FF0010C4FF0000CB4452DD1B8F18C
:10324000FF3FF1D0B8F1000F05D0FEF7C7FEA0EBAD
:1032500009004045E8D92A6802F10C0353E8003F11
:1032600023F4D0730C3242E800310029F3D12A68EC
:1032700002F1140353E8003F23F00103143242E843
:1032800000310029F3D1202385F8413085F8423000
:10329000002385F84030032000E00020BDE8F883DB
:1032A00060B310B5044690F8413013B3242384F87A
:1032B00041302268D36823F40053D3602046FFF7DF
:1032C00061FF2268136923F49043136122685369F4
:1032D00023F02A0353612268D36843F40053D36078
:1032E00000206064202384F8413084F84230606319
:1032F00010BD80F84030FEF7A9FDD7E701207047E8
:103300002DE9F04182B01E4690F84130DBB2202B0F
:103310004BD104460D46904600294AD00AB90120F7
:1033200044E000234364212380F84130FEF756FE39
:103330000746A4F82480A4F82680A368B3F5805F2C
:1033400002D04FF000080FE02369FBB14FF00008F6
:103350000AE038F8023B2268C3F308035360E28CAA
:1033600092B2013A92B2E284E38C9BB28BB10096A6
:103370003B46002280212046FFF74EFFD8B9002DA2
:10338000E7D015F8012B23685A60E8E7A846002526
:10339000EAE700963B46002240212046FFF73CFF2B
:1033A00058B9202384F8413000E0022002B0BDE883
:1033B000F0810120FAE70320F8E70320F6E72DE982
:1033C000F04182B01E4690F84230DBB2202B53D140
:1033D00004460D469046002952D00AB901204CE01F
:1033E00000234364222280F842200363FEF7F6FDA7
:1033F0000746A4F82C80A4F82E80A368B3F5805F5C
:1034000002D04FF0000817E0236913B14FF0000815
:1034100012E0A84600250FE023685B68C3F30803A9
:1034200028F8023B03E023685B682B700135E28DCE
:1034300092B2013A92B2E285E38D9BB2BBB10096A3
:103440003B46002220212046FFF7E6FED0B9002DA2
:10345000E2D0A368B3F5805FE5D013B92369002BF0
:10346000E1D023685B6803F07F032B70DEE7202345
:1034700084F84230002000E0022002B0BDE8F08174
:103480000120FAE70320F8E7704708B50168CA6829
:1034900022F04002CA60202280F84120FFF7F4FFAA
:1034A000002008BD704708B5406A0023C385C38467
:1034B000FFF7F8FF08BD704790F84230DBB2222BCF
:1034C00069D18368B3F5805F4FD0826AB3F5805FBE
:1034D00004D0002B56D10369002B53D103685B68DD
:1034E0001370836A01338362C38D9BB2013B9BB22D
:1034F000C385002B51D100B583B00268D36823F097
:103500002003D3600268D36823F48073D360026819
:10351000536923F001035361202380F842300023D4
:103520004363036B012B33D100230363026802F171
:103530000C0353E8003F23F010030C3242E8003143
:103540000029F3D103681A6812F0100F06D0002288
:1035500001921A6801925B680193019B818DFFF7CC
:10356000AAFF002003B05DF804FB0269002AACD179
:10357000826A03685B68C3F308031380836A0233BB
:103580008362B1E703685B6803F07F031370A8E709
:10359000FEF770FAE5E70220704700207047000050
:1035A00030B583B0044602681368D068516913F0DF
:1035B0000F0505D113F0200F02D010F0200F19D104
:1035C0002DB111F0010119D110F4907F16D1216BAA
:1035D00001297DD013F0800F03D010F0800F40F050
:1035E000188113F0400F03D010F0400F40F0158108
:1035F00003B030BD2046FFF75FFFF9E713F0010F7E
:1036000006D010F4807F03D0626C42F00102626445
:1036100013F0040F04D019B1626C42F0020262642C
:1036200013F0020F04D019B1626C42F0040262641C
:1036300013F0080F07D010F0200F00D119B1626C01
:1036400042F008026264626C002AD1D013F0200FAD
:1036500002D010F0200F29D123685B6903F04003EA
:10366000626C12F0080F00D163B32046FFF72CFD07
:1036700023685B6913F0400F20D0226802F1140325
:1036800053E8003F23F04003143242E800310029A0
:10369000F3D1E36B73B1634A5A63E06BFEF79AFEB2
:1036A0000028A5D0E06B436B9847A1E72046FFF7C1
:1036B00003FFD1E72046FFF7F5FE99E72046FFF725
:1036C000F1FE95E72046FFF7EDFE002363648FE7E8
:1036D00013F0100F3FF47EAF10F0100F3FF47AAFED
:1036E000002301931368019353680193019B53696D
:1036F00013F0400F51D0E26B13685B689BB2002B54
:103700003FF476AFA18D99427FF672AFE38593695E
:10371000202B37D0226802F10C0353E8003F23F43A
:1037200080730C3242E800310029F3D1226802F1A3
:10373000140353E8003F23F00103143242E8003140
:103740000029F3D1226802F1140353E8003F23F06B
:103750004003143242E800310029F3D1202384F8D9
:10376000423000232363226802F10C0353E8003F38
:1037700023F010030C3242E800310029F3D1E06B52
:10378000FEF704FE02236363A18DE38D9BB2C91A89
:1037900089B22046FFF78FFE2AE7A18DE38D9BB209
:1037A000C91A89B2E38D9BB2002B3FF421AF0029E7
:1037B0003FF41EAF226802F10C0353E8003F23F4EC
:1037C00090730C3242E800300028F3D1226802F1F5
:1037D000140353E8003F23F00103143242E80030A1
:1037E0000028F3D1202384F8423000232363226889
:1037F00002F10C0353E8003F23F010030C3242E8BF
:1038000000300028F3D1022363632046FFF753FE04
:10381000EEE62046FFF786FCEAE62046FFF735FE97
:10382000E6E600BFA734000881628285C2850023D6
:103830004364222380F84230036923B10268D368CD
:1038400043F48073D3600268536943F0010353610A
:103850000268D36843F02003D3600020704708B5A6
:1038600090F84230DBB2202B08D149B10AB90120CF
:1038700008BD00230363FFF7D7FFF9E70220F7E74E
:103880000120F5E738B504460D4603681BB1022355
:103890000373002318E001230373084600F0C2FC01
:1038A0002060C8B100236360A56003E022680021A6
:1038B000D1540133A2689A42F8D80DE022684FF043
:1038C000000C02F803C00133A2689A42F6D8002324
:1038D0006360AA4200D2236038BD10B50446037B62
:1038E000012B05D0002323606360A360237310BD08
:1038F000006800F09FFCF5E70346012004280ADC7D
:1039000003F07F020A70DB0907D062F07F0201F842
:10391000012B0130F2E74FF0FF30704700231360B6
:103920004FF0010C8B421BDA10B5C45C04F07F042D
:10393000D2F800E00CFB04E41460C456002C0ADA50
:103940004FEACC1CBCF5001F07D201338B42ECDBE5
:103950004FF0FF3003E0581C01E06FF0010010BD94
:103960004FF0FF307047000030B583B00478240971
:10397000631EDBB20D2B26D80546032C02D0204651
:1039800003B030BD0023019301AA04210130FFF7E9
:10399000C5FF431CE818019A012A12D9297811F0B1
:1039A000010F0ED1E95C437843EA012302339A42C6
:1039B00007D30649023001F00BFA0028DFD00F24AC
:1039C000DDE7FF24DBE7FF24D9E700BF24CD0008B3
:1039D0002DE9F04F85B001900F46164603939DF8F0
:1039E00038509DF83CB0139C104601F039F8029015
:1039F000002E00F03A810FFA80FA00F111091FFA47
:103A000089F91DBB4FF00008109B8BB148F00408EA
:103A1000184601F025F8C5B2119801F021F80544C7
:103A2000ADB2A9441FFA89F909F104091FFA89F90D
:103A3000BBF1010F0DD0BBF1020F00F0EF80BBF125
:103A4000000F08D0022005B0BDE8F08F4FF002084B
:103A5000DAE748F00C08129B0BB148F024080198F3
:103A6000002800F00481002F00F0038148F0C00B13
:103A700000F0F6FF0546384600F0F2FF0544ADB20F
:103A8000A9441FFA89F909F104091FFA89F949467D
:103A90002046FFF7F7FE2068002800F0EC804A4639
:103AA000002100F07BFE22686368591C61601021D0
:103AB000D154216863681944A9F10500FFF71CFF80
:103AC00000B20028C0F2AD806368184460602368CB
:103AD000421C626000221A54216863685A1C6260AA
:103AE0000422CA5421686368581C60604D20C85481
:103AF00021686368581C60605120C854206863685E
:103B0000591C61605421C154206863685D1C656064
:103B1000C15421686368581C6060CA542268636895
:103B2000591C616002F803B022686368591C616027
:103B30000398010AD15422686368591C6160D0540B
:103B400022686368591C6160CAF30721D154226856
:103B50006368591C61600299D154206863685246B9
:103B60003146184400F0AAFF65685544656018F0B6
:103B7000040F34D0119B002B58D0109800F070FF28
:103B800086B223686A1C6260C0F307225A55226815
:103B90006368591C6160D05420686368324610998C
:103BA000184400F08BFF656835446560119800F09B
:103BB00057FF86B223686A1C6260C0F307225A5519
:103BC00022686368591C6160D0542068636832467B
:103BD0001199184400F072FF6368334463601BF06E
:103BE000800F26D1384600F03BFF85B2226863681B
:103BF000591C6160C0F30721D15422686368591CC5
:103C00006160D054206863682A463946184400F041
:103C100055FF63682B446360002014E748F01408E4
:103C200019E72046FFF759FE05200CE7134B1193C7
:103C3000A3E7019E304600F013FF85B22268636857
:103C4000591C6160C0F30721D15422686368591C74
:103C50006160D054206863682A463146184400F0F9
:103C60002DFF63682B446360BCE70120EBE6032073
:103C7000E9E60320E7E60420E5E600BF58CD0008AA
:103C80004378022B04D18378012B03D8C078704786
:103C900001207047FF2070472DE9F047089D00285C
:103CA0006AD0884616461F4682460024A146BC427A
:103CB00009D256F82400002861D000F0D1FE8144DA
:103CC0000134E4B2F3E707EB470149448C1C0731A8
:103CD0002846FFF7D7FD2B68002B52D06A68511C8D
:103CE00069608221995429686B6819442046FFF75E
:103CF00003FE03B2002B11DB6A6813446B602A6871
:103D0000591C69604FEA1A21D1542A686B68591C02
:103D1000696002F803A04FF0000929E02846FFF788
:103D2000DCFD042029E056F8290000F099FE044645
:103D30002A686B68591C6960C0F30721D1542A684E
:103D40006B68591C6960D05428686B68224656F825
:103D50002910184400F0B2FE686804446C602B68B7
:103D6000621C6A6003F8048009F101095FFA89F9AD
:103D7000B945D8D3002000E00120BDE8F08702203B
:103D8000FBE70320F9E7000008B5402200210348C3
:103D900000F004FD024B00221A8008BDAC0A00208E
:103DA000EC0A0020084B1B885BB1084A128893423A
:103DB00003D0064A1380012070470020024B188070
:103DC00070470120704700BFEC0A0020EE0A002077
:103DD000F0B591B004460E4600F042FE174F80B297
:103DE0000F900E946C4607F110050FCD0FC40FCD48
:103DF0000FC40FCD0FC495E8030084E8030097E8D3
:103E00000F00FEF767F8C82203E00A20FEF7ECF87F
:103E10002246531EDCB27AB1FFF7C4FF05460028E4
:103E2000F3D13146064800F0D3FF0028EDD0FFF76C
:103E3000ABFF284611B0F0BD0125FAE7600A00206B
:103E4000AC0A002070B598B005460C46FFF79CFF01
:103E50002246134910A800F07BFD124910A8FFF775
:103E6000B7FF08B118B070BD0F4E0F940E95EC4619
:103E700006F1100EBEE80F00ACE80F00BEE80F0020
:103E8000ACE80F00BEE80F00ACE80F009EE80300AE
:103E90008CE8030096E80F00FEF71CF8E2E700BF8D
:103EA0002CCD00083CCD0008600A002010B5044667
:103EB00006E00520FEF798F8631E9BB284B11C460D
:103EC000FFF770FF0028F4D10649074800F080FF93
:103ED0000028EED03A2100F05DFD10B1013000E085
:103EE000002010BD40CD0008AC0A002030B583B0E2
:103EF000FFF74AFF4D4800F011FD0C230093042307
:103F0000012200210846FDF7CFFB49494948FFF748
:103F10005FFF0028F9D14FF4FA70FEF765F84648C4
:103F200000F0FCFC0C24009404230222002108462B
:103F3000FDF7BAFB414D29464148FFF749FF4FF4D1
:103F4000FA70FEF751F829463E48FFF741FF00940A
:103F50000423032200210846FDF7A6FB4FF4FA7064
:103F6000FEF742F8384800F0D9FC009404231A46C2
:103F700000210846FDF798FB03E04FF4FA70FEF7C6
:103F800033F82B493148FFF723FF0028F5D130489B
:103F900000F0C4FC0C2300930423052200210846F2
:103FA000FDF782FB03E04FF4FA70FEF71DF820499D
:103FB0002848FFF70DFF0028F5D1274800F0AEFC98
:103FC0000C2300930423062200210846FDF76CFB16
:103FD00003E04FF4FA70FEF707F820492048FFF796
:103FE000F7FE0028F5D11F4800F098FC0C23009341
:103FF0000423072200210846FDF756FB03E04FF497
:10400000FA70FDF7F1FF18491848FFF7E1FE0028A4
:10401000F5D1174800F082FC0C23009304230822FA
:1040200000210846FDF740FB03B030BD48CD000835
:1040300050CD000854CD00085CCD000858CD0008D4
:1040400064CD000870CD000880CD00088CCD00083C
:104050009CCD0008ACCD0008BCCD0008C8CD000840
:10406000D0CD0008F0CD000800CE000808CE000832
:1040700034CE00082DE9F0418AB006AD0024069444
:10408000079408940994DFF8C480314F314E4346B9
:104090003A463146304800F0DFFB0595049403941E
:1040A0000294019400944FF480734246394630469E
:1040B000FFF78EFC002841D1BDF81C100698FFF7D1
:1040C000C1FEFA20FFF7F2FE044690B3FFF74CFC66
:1040D000022801D001242DE02046FFF7D1FD05285C
:1040E00022D8DFE800F003080D12171C1B4800F06F
:1040F00015FC00241EE01A4800F010FC012419E011
:10410000184800F00BFC012414E0174800F006FCEE
:1041100001240FE0154800F001FC01240AE01448D6
:1041200000F0FCFB012405E0124800F0F7FB01243D
:1041300000E0012406A8FFF7D0FB03E00E4800F0E2
:10414000EDFB012420460AB0BDE8F08148CE00080E
:1041500050CE000858CE000860CE000890CE00086F
:10416000A8CE0008D8CE00080CCF000844CF000825
:104170008CCF0008DCCF00080CD0000870B586B0EA
:1041800006460D460024029403940494059406E028
:1041900056F824100D4800F05FFB0134E4B2AC4245
:1041A000F6D302AB00932B46324602211420FFF7D0
:1041B00073FD08B106B070BDBDF80C100298FFF792
:1041C00041FE02A8FFF789FBF4E700BF30D00008EA
:1041D000014B1868704700BF0C00002070B50D4EF1
:1041E0000D4D761BB61006D0002455F8043B013463
:1041F0009847A642F9D1094E094D08F04FF9761BB0
:10420000B61006D0002455F8043B01349847A64266
:10421000F9D170BD6CD400086CD4000874D40008C7
:104220006CD40008024B0146186800F00BB800BFC0
:104230000C000020024B0146186805F0F1BB00BFDE
:104240000C0000202DE9F04F01F10B05162D06465C
:1042500083B025D8102900F2B88000F0F1FA1025BB
:1042600018224FF0020CB54F3A445368A2F10801EE
:104270008B4200F0B7805A68D96822F003021A44D2
:104280009C683046E1608C60516803F1080441F09D
:104290000101516000F0DAFA204603B0BDE8F08F6A
:1042A00035F0070500F19180A94200F28E8000F000
:1042B000C7FAB5F5FC7FC0F094816B0A00F08C80E2
:1042C000042B00F26A81AB0903F1390C03F13804C5
:1042D0004FEACC00994F384443680838984206D1D9
:1042E0000CE0002980F22681DB68984206D05A68EB
:1042F00022F00302511B0F29F3DDA4463C69DFF8CD
:1043000040E274457AD0626822F00302531B0F2BFF
:1043100000F37681002BC7E904EE80F26781B2F5E5
:10432000007F80F019810121D30852090B4491408C
:104330007A6857F833000A4307EBC3010839A060D5
:10434000E1607A6047F83340C46001214FEAAC0372
:104350009940914259D8114206D12CF0030C4900E2
:1043600011420CF1040CFAD007EBCC094846644624
:10437000D0F80C80404508D11CE1002B80F221814F
:10438000D8F80C80404500F01581D8F8042022F0C0
:104390000302531B0F2BF0DD08EB050145F001056F
:1043A000C8F804503046D8E90264F460A66043F0CF
:1043B0000104C7E904114C60C1E902EE48F802307B
:1043C00000F044FA08F1080402E00C2300243360F2
:1043D000204603B0BDE8F08F4FF400704FF0400C62
:1043E0003F2477E7D3689A4208BF0CF1020C7FF4B0
:1043F00042AF3C69DFF848E1744584D101217A6815
:104400004FEAAC0399409142A5D9BC68636823F098
:1044100003094D4503D8A9EB05030F2B7ADCDFF820
:1044200024B1494BDBF800201B6801322B4404EB1C
:10443000090A00F02F8103F580530F3323F47F68BE
:1044400028F00F084146304600F070FA411C024641
:1044500000F0EF80824500F2EA803C4B196841444D
:104460000846196000F04981DBF800100193013122
:104470001BBFA2EB0A0A5044CBF80020186012F0D0
:10448000070B00F01181CBF108010A44CBF58051F4
:1044900090440831A1EB0801C1F30B0A51463046A4
:1044A000009200F043FA421CDDE9002300F04B814A
:1044B000801A00EB0A08196848F001005144BC4218
:1044C000BA601960506000F02481B9F10F0F40F21A
:1044D00022814FF0050E6068A9F10C0C2CF0070C3E
:1044E00000F0010040EA0C006060BCF10F0F04EB2B
:1044F0000C00C0E901EE00F22E8114465068144B06
:104500001A688A4238BF1960124B1A688A4238BF4B
:10451000196090E0621943F0010345F00105656000
:104520003046BA600834536000F090F9204603B07A
:10453000BDE8F08FD9681A44A2E600BF3804002015
:104540004004002040080020240B0020F40A002032
:104550001C0B0020200B0020B2F5206F4FEA5223E5
:104560005FD3142B00F2B18003F15C01C9005B330F
:10457000781879580838884200F08F804B6823F00B
:104580000303934202D989688842F7D1C8687A68E0
:10459000C4E902108460CC60D7E6142B59D9542B9F
:1045A00000F29B802B0B03F16F0C03F16E044FEABA
:1045B000CC008FE60134A30700F108007FF4D8AEE9
:1045C00053E0444642445368D8F80C1043F00103CA
:1045D000536054F8083F3046D9608B6000F036F9DC
:1045E000F6E64FEAD50C05F108023CE62244536892
:1045F000304643F00103536000F028F90834E7E641
:10460000611945F00105656043F00105C7E9041132
:104610003046C1E902EE4D60A35000F017F90834AE
:10462000D6E6930903F13901C9003833A0E7BC424B
:104630005ED0BC68606820F003084545A8EB050320
:1046400002D80F2B3FF766AF304600F0FFF800248A
:10465000BEE603F15C0C03F15B044FEACC0039E6E3
:1046600059F808394B4540F095801CF0030F0CF1C8
:10467000FF3CF5D17B6823EA01037B604900994246
:104680003FF6C3AE11B9C0E6490004341942FBD06D
:10469000A44669E603F11008D4E601229B109A4073
:1046A0007B681A437A6073E702EB08014942C1F361
:1046B0000B0A51463046009200F038F9431CDDE900
:1046C00000237FF4F5AEDA46F5E6542B26D8130B1B
:1046D00003F16F01C9006E334AE7B3F5AA7F26D80C
:1046E000EB0B03F1780C03F177044FEACC00F1E512
:1046F000294B186840441860B6E6CAF30B0CBCF1AD
:10470000000F7FF4B1AEBC68C84448F0010060609F
:10471000F5E61446F3E60123536095E7B3F5AA7F67
:1047200024D8D30B03F17801C900773320E740F296
:104730005452934224D8AB0C03F17D0C03F17C045A
:104740004FEACC00C6E5ABF1080BD8444FF0000AA5
:10475000A8EB0208AFE604F108013046009305F02B
:104760005FF9BC68009B60681968C8E640F2545164
:104770008B420BD8930C03F17D01C9007C33F7E623
:104780004FF47E704FF07F0C7E24A3E54FF47E71D2
:104790007E23EDE67B6871E7F40A0020830730B5DD
:1047A00048D0541E002A3FD00346CAB201E0013C63
:1047B0003AD303F8012B9D07F9D1032C2DD9CDB2A3
:1047C00045EA05250F2C45EA054536D9A4F1100226
:1047D00022F00F0C03F1200EE6444FEA121C03F105
:1047E000100242E9045542E9025510327245F8D1EF
:1047F0000CF1010214F00C0F03EB021204F00F0C89
:1048000013D0ACF1040323F003030433134442F840
:10481000045B9342FBD10CF003042CB1CAB21C44DC
:1048200003F8012B9C42FBD130BD64461346002C9B
:10483000F4D1F9E703461446BFE71A46A446E0E779
:10484000014805F091BB00BF2C0B0020014805F08A
:104850008DBB00BF2C0B00200FB400B5074A83B0FE
:1048600004AB106853F8042B8168019302F0B6F88A
:1048700003B05DF804EB04B0704700BF0C000020EB
:1048800030B5054689B008460C4600F0E9F801212C
:104890000223214A04940692AA6B04AC05900844B2
:1048A00001940791AC680293039022B3636E13F0F6
:1048B000010FB4F90C309AB201D1980525D59104B5
:1048C00006D4626E43F4005322F40052A381626660
:1048D000284601AA214605F0A3F9636E002814BFFB
:1048E0004FF0FF350A25DA0702D4A3899B0506D5C8
:1048F000284609B030BD284604F09AFFD6E7A06DDF
:1049000005F034FB284609B030BDA06D05F02CFB46
:10491000B4F90C309AB2D2E798CD0008024B0146A8
:104920001868FFF7ADBF00BF0C000020002238B5AB
:10493000064D044608462A60FDF7FAF9431C00D0EC
:1049400038BD2B68002BFBD0236038BD380B00200E
:104950000EB430B504466FF000459CB00B4A1FAB57
:104960000B49059253F8042B086802A9CDE90134DC
:1049700007950495069400F0DFFA0022029B1A7056
:104980001CB0BDE8304003B0704700BF0802FFFF15
:104990000C00002011F0FF01034644D0820732D101
:1049A00010B5046841EA012E4EEA0E4E8EEA04026A
:1049B000A2F1013323EA0203A4F1013222EA040244
:1049C000134313F0803F0FD150F8044F84EA0E0CCC
:1049D000A4F10133ACF1013223EA040322EA0C0210
:1049E000134313F0803FEFD0037823B936E010F87B
:1049F000013F002B32D09942F9D110BD8A4211D02B
:104A00009A071846CCD0184613F8012B002AF5D186
:104A1000104670479907184607D0184602780133A8
:104A2000002AF7D170478207F7D10268A2F101335B
:104A300023EA020313F0803F08D150F8042FA2F1BB
:104A4000013323EA020313F0803FF6D00378002BF2
:104A5000E8D010F8013F002BFBD17047184610BD7D
:104A600020F0030110F00300C0F1000051F8043BF6
:104A700000F1040C4FEACC0C6FF000021CBF22FACC
:104A80000CF213434FF0010C4CEA0C2C4CEA0C4C8A
:104A9000A3EB0C0222EA030212EACC1204BF51F883
:104AA000043B0430F4D0C2F1000102EA0102B2FA80
:104AB00082F2C2F11F0200EBD2007047830730B4CC
:104AC00028D10468A4F1013323EA040313F0803FE2
:104AD000034608D153F8045FA5F1013424EA050424
:104AE00014F0803FF6D01C781CB113F8014F002C55
:104AF000FBD19C4601391344634509D011F8012FBD
:104B00000CF8012B22B19C45F6D100238CF8003023
:104B100030BC70470346E6E72DE9F04F012B1D46F8
:104B200081460F469046ADF21C4D40F2478101236D
:104B300000219C464FF0FF341A4606E01946012238
:104B4000A3EB040C8B189D4210D908EB0400805C89
:104B500018F803608642F1D300F081804FF0010C19
:104B600062460C4661448B189D42EED8CDF808C0D1
:104B70004FF0010C00204FF0FF366146634606E01F
:104B800018460121A3EB060C43189D420FD908EBF0
:104B9000010218F803E0925D9645F1D865D04FF018
:104BA000010C61460646604443189D42EFD8013629
:104BB00004F1010BB34502D8B346CDF808C005ABEC
:104BC0000DF2144243F8045F9342FBD1002D00F034
:104BD000FA806C1E06AE08F1FF3208EB0400019665
:104BE00012F8011FD3432B444344904246F821302E
:104BF000F6D1029E5A46404608EB060105F070FACF
:104C0000002840F083800BF1FF3305938246AB1BF5
:104C10000646039309EB060E1EF80430019A52F87B
:104C2000233043B3BAF1000F04D0029A9342039A9F
:104C300038BF13464FF0000A1E447B1BB342E9D233
:104C400009EB070045F4006106F03EF907447B1BC1
:104C5000B342DFD200200DF21C4DBDE8F08F944529
:104C60000ABF0122013261446CE761450ABF401866
:104C70000131012188E7D3455B4638BF5346A34243
:104C800014D2591E9A1941444A4402E00133A34206
:104C90000CD212F8010B11F801CF8445F6D0CBF1FC
:104CA000010216444FF0000A1E44C6E7D345059B97
:104CB0007DD90BEB06024A4408EB0B01CDF810B08E
:104CC00002E0534516D0034612F8010D11F801CD4C
:104CD00003F1010B844503F1FF30F2D05B46DDF8B0
:104CE00010B00AF1010A9A450BD8029BDDF80CA01E
:104CF0001E44A2E753460AF1010A9A45DDF810B0B6
:104D0000F3D970460DF21C4DBDE8F08FA5EB0B03F7
:104D10005B4538BF5B4600260BF1FF320292013340
:104D2000CBF10102039245F4006A049309EB060EED
:104D30001EF80430019A52F823306BB11E447B1BDD
:104D40009E42F3D909EB0700514606F0BDF807442F
:104D50007B1B9E42EAD97DE7A34513D202990BEB58
:104D600006025B464A44414402E00133A34209D2B1
:104D700012F8010B11F801CF8445F6D0039A1644BE
:104D80001E44DCE7BBF1000F13D00BEB06014944D6
:104D900008EB0B0202E0013B43450AD0134611F831
:104DA000010D12F801CD8445F5D0049BC6E75B46A2
:104DB00097E770460DF21C4DBDE8F08F01234FF0D0
:104DC000000B0293FBE606AB4FF0FF34019310E7B4
:104DD0002DE9F0410D460978044690B0002953D0E2
:104DE0006A78002A00F08380AB78002B50D0E878F6
:104DF000002800F083802B79002B57D02846FFF73E
:104E00002FFE0646204646F4007106F05DF8864205
:104E10005CD8FE2E00F28780801B2718402268464F
:104E2000711CFFF7BBFC7EB16A1E5FFA86FC90190D
:104E300012F8013F03F03F034033A91A6B44614469
:104E4000824203F8401CF3D1013CA35D03F03F0311
:104E500040336B4413F8400C0444A74203D23AE0B9
:104E60004444A74237D314F806C020460CF03F0C48
:104E70000CF140030DEB030C324629461CF8408C24
:104E800005F02EF90028EBD1204610B0BDE8F081E6
:104E9000007842EA014200E00C4640EA0343611C0C
:104EA000A0B19A426078F7D1013CEDE722786AB16F
:104EB000296809BA01E099421ED0204642EA03233C
:104EC00014F8012F002AF6D1994215D0002420466B
:104ED00010B0BDE8F081BB5DB819002BF6D04FF4DF
:104EE000006105F0F1FF0744BC42ADD9EEE710B018
:104EF000BDE8F041FFF74EBDC41EC5E7120442EA0B
:104F0000016242EA03230146207800E02C4640EA91
:104F10000102651C11020028D8D0B3EB022F607883
:104F2000F4D1023CB0E7014633462A46204610B091
:104F3000BDE8F041FFF7F0BD2DE9F04FD5B00C46CC
:104F40000C9191460E930A9005F006F803681846F6
:104F50001793FFF785FDA3891690190603D52369DA
:104F6000002B00F08F8700242BAB224698464D463D
:104F7000CDE929442893129400230024CDE9143468
:104F80002B78CDE91922CDE91B2218920892002B2B
:104F900000F0CE81AA4604E01AF8013F002B00F091
:104FA0000981252BF8D1BAEB050640F007819AF864
:104FB0000030002B00F0BC8100234FF0FF324FF097
:104FC0002B0920241F469AF8016007920AF1010A72
:104FD0008DF8833009930AF1010AA6F120035A2BB8
:104FE00000F22081DFE813F0CA021E011E01C50293
:104FF0001E011E011E01A3021E011E016A00F30212
:105000001E014702D9021E01D4025B005B005B0057
:105010005B005B005B005B005B005B001E011E0130
:105020001E011E011E011E011E01B0011E010B0208
:105030007A00B001B001B0011E011E011E011E0167
:105040009E021E011E01B6001E011E011E01190254
:105050001E014C021E011E013F071E011E011E0102
:105060001E011E011E011E011E01B0011E010B02C8
:105070007C00B001B001B00191027C0075001E01FE
:1050800084021E017002B8005E0275001E01190242
:1050900072001C071E011E011F071E017200002264
:1050A000A6F130031AF8016B02EB820203EB420215
:1050B000A6F13003092BF5D909928EE70E9B53F820
:1050C000042B002A09920E93C0F2D2819AF8006054
:1050D00081E79AF8006047F020077CE747F0100767
:1050E000BA060E9B40F17D81073323F007031A4671
:1050F0005B6852F8084B99460E92002BC0F27F85F0
:10510000079B013301F0398054EA090327F0800B33
:1051100000F005850A2C79F1000380F093870123C4
:105120005F4630348DF84F410B930DF24F15079ABF
:105130000B9900238A42B8BF0A4606929DF8832045
:105140000D930F9313931093002A7CD0069B013389
:10515000069378E047F0100717F0200900F032813D
:105160000E9B073323F00703D3F8049053F8084B42
:105170000E93002327F4806B00228DF88320079A7A
:10518000511C00F02A8254EA09012BF0800740F0FC
:105190002382002A41F02B80002B40F0C5841BF0B5
:1051A00001030B9300F0548530230DF24F158DF859
:1051B0004F31BCE7BAEB050600F0BA802A9BC8E97C
:1051C000005633442A93299B0133072B299305DC8E
:1051D00008F10808089B33440893E8E60C990A98FC
:1051E00028AA05F083FE80B90DF1AC08F2E70C990E
:1051F0000A9828AA05F07AFE002800F08A800D9B04
:105200001BB10D990A9804F00BFC0C9B9B8913F0C1
:10521000400F089B18BF4FF0FF330893089855B014
:10522000BDE8F08F002E00F08380012300228DF86E
:10523000EC6006933BAD8DF883200B930D920792A3
:105240000F921392109217F0020302D006990231C6
:10525000069117F0840B07D109990698A1EB000974
:10526000B9F1000F00F336832A9C82B10122C8F8FD
:105270000420299A013401320DF18301072A2A946E
:105280002992C8F8001000F3698308F108087BB17F
:105290000223C8F80430299B0234013321AA072BCA
:1052A0002A942993C8F8002000F36C8308F10808B9
:1052B000BBF1800F00F02E82079B0B9AA3EB020B31
:1052C000BBF1000F00F37182FB0500F1C5810B9B60
:1052D000C8F800501C44C8F80430299B2A940133B4
:1052E000072B299300F3EA8208F108087B0705D50C
:1052F000099B069A9D1A002D00F35083DDE90832C0
:1053000006998A42ACBF9B185B180893002C7FF467
:105310006EAF002329930D9B1BB10D990A9804F0E1
:105320007FFB55460DF1AC082B78002B7FF432AE95
:105330002A9B002B3FF469AF0C9C0A98214628AAAF
:1053400005F0D4FDA38962E70E9B073323F0070223
:10535000F2E80234CDE91434DDE9143424F00044D9
:10536000994618460E9221464FF0FF32B64BFBF796
:1053700011FD002840F09684484621464FF0FF3248
:10538000B14BFBF71DFB002840F08C84DDE91401D4
:1053900000220023FBF70AFB002840F0A6879DF8B7
:1053A000832000210320A94DA94B27F080070D91F0
:1053B0000690472EC8BF1D4607910B900F91139181
:1053C0001091C1E617F0100340F0628417F040021C
:1053D00000F07B870E9A994652F8044B0E92A4B2C5
:1053E000C7E653F8044B0E93FB0600F141847D069B
:1053F00040F13B8444F3C0394B4624B27DE60120A2
:1054000000220E9B069053F8041B3BAD8DF88320C1
:105410008DF8EC100E930B9010E74FF000090E9CE6
:10542000079B54F8045B8DF88390002D00F0EE8606
:105430005A1C00F060851A464946284604F008FECA
:105440000D90002801F09E800D9B9DF883205B1B32
:105450000B9323EAE373CDF81C900E940693CDF8DA
:105460003490CDF83C90CDF84C90CDF840906BE660
:10547000099B5B4209939AF8006047F00407AAE58C
:1054800047F0100B1BF0200900F0AA830E9B073396
:1054900023F007031A4652F8084BD3F804900E92F3
:1054A000012369E6302278260E9B8DF8842053F87C
:1054B000044B684A0E934FF00009022347F0020B99
:1054C0008DF88560189257E6BD0600F1D683FC067C
:1054D00000F19386780600F15D87B90540F18D866D
:1054E0000E9B089953F8042B554611700E931BE739
:1054F0009AF800606C2E03BF9AF8016047F020070D
:105500000AF1010A47F0100765E59AF80060682E75
:1055100003BF9AF8016047F400770AF1010A47F0E7
:10552000400758E59AF8006047F0080753E50A9EDF
:10553000304604F011FD436818461B93FFF790FABC
:10554000034630461C931E4604F006FD83681993FB
:10555000002E3FF4BBAD199B002B3FF4B7AD199B58
:105560001B78002B3FF4B2AD9AF8006047F48067D7
:1055700031E59AF8006047F001072CE59DF883308B
:10558000002B7FF4A3AD9AF800608DF8834022E5EC
:105590009AF8006047F080071DE5524612F8016B4B
:1055A0002A2E01F0EB81A6F13003092B924698BF19
:1055B000002201F203801AF8016B02EB820203EB76
:1055C0004202A6F13003092BF5D9079205E59AF8B6
:1055D00000608DF88390FEE4BB46012B3FF49AAD4A
:1055E000022B54AD12D1189A04F00F03D35C240996
:1055F00044EA09744FEA191905F8013D54EA090310
:10560000F2D154AB5B1B5F460B9390E504F00703AC
:10561000E40844EA49744FEAD909303354EA0901ED
:105620002A4605F8013DF1D11BF0010FE9D0302BDE
:10563000E7D03023023A05F8013C54AB9B1A5F4691
:1056400015460B9373E500BFFFFFEF7F50D10008B5
:1056500054D1000860D10008652E40F3E980DDE9EF
:10566000140100220023FBF797F9002800F0D281F3
:105670000123C8F80430299BBF4A01330134072BAA
:105680002A942993C8F8002000F37A8508F10808C5
:10569000229B129A934280F2D782169B179A1C443F
:1056A000C8E90023299B2A940133072B299300F38F
:1056B000DD8308F10808129B5D1E002D7FF716AEF2
:1056C000102D41F34181DFF8B4922246494610265D
:1056D000B946299B0F46DDF828B00C9C05E008F17F
:1056E0000808103D102D40F3588501331032072B68
:1056F000C8E90076CDE92932F1DD2146584628AACD
:1057000005F0F4FB00287FF47AADDDE929320DF1D4
:10571000AC08E6E7099B069AA3EB020BBBF1000F6E
:105720007FF7CAADBBF1100F41F30580DFF84C9253
:1057300041462046A8464C461023299A0C9DDDF888
:10574000289006E0ABF1100BBBF1100F01F108013E
:1057500019DD01321030072AC1E90043CDE92920C3
:10576000F0DD2946484628AA05F0C0FB00287FF452
:1057700046ADDDE92920ABF1100BBBF1100F4FF066
:1057800010032BA9E5DC4546A146884604460132B4
:105790005C44072ACDE92924C8F80090C8F804B071
:1057A00000F3188508F1080886E5BBF1100F40F3F7
:1057B0009785DFF8C89141462046A8464C461023FD
:1057C000299A0C9DDDF8289006E0ABF1100BBBF197
:1057D000100F01F1080119DD01321030072AC1E96B
:1057E0000043CDE92920F0DD2946484628AA05F0E6
:1057F0007DFB00287FF403ADDDE92920ABF1100B20
:10580000BBF1100F4FF010032BA9E5DC4546A14674
:105810008846044601325C44072ACDE92924C8F8A9
:105820000090C8F804B000F3CE8108F108084BE5F9
:10583000129B012B40F37E810123299E01341E44DB
:10584000072EC8F800502A94C8F80430299600F3AF
:10585000E18108F10808169B0136179A1C44072EAF
:10586000C8E90023CDE9296400F3E18108F10808C3
:105870000022DDE914010023FBF78EF8002840F038
:105880007681129B0136013B01351C44072EC8F876
:1058900000502996C8F804302A9400F35B8108F17F
:1058A00008081A9B01361C44C8F80430072E24ABA4
:1058B000CDE92964C8F800307FF716AD0C990A9835
:1058C00028AA05F013FB00287FF499AC2A9C0DF15F
:1058D000AC080BE5B9F1100F40F35086DDE9292142
:1058E0004046CDE91D36B84610244F460C9EA946C9
:1058F0000A9D04E0103F102F00F1080016DD013270
:105900001F4B1031072AC0E90034CDE92921F1DD10
:105910003146284628AA05F0E9FA00287FF46FAC42
:10592000DDE92921103F102F2BA8E8DC4D46DDE9E9
:105930001D36B9464746804609EB0104013210493D
:10594000072ACDE92924C8F80490C8F8001000F30C
:10595000C3839DF8832008F1080886E40C990A980F
:1059600028AA1D9305F0C2FA00287FF448AC2A9CAF
:105970001D9B0DF1AC088AE490D10008A4D1000869
:1059800094D100080C990A9828AA05F0AFFA0028CB
:105990007FF435AC2A9C0DF1AC0889E4102D40F35E
:1059A000C4861026299B0A9FDDF8309004E0103D44
:1059B000102D08F1080817DD0133B84A1034072B01
:1059C000C8E90026CDE92934F1DD4946384628AA40
:1059D00005F08CFA00287FF412ACDDE92934103D83
:1059E000102D0DF1AC08E7DC0133AC4A2C44072B39
:1059F000CDE92934C8F80450C8F800207FF77EAC00
:105A00000C990A9828AA05F071FA00287FF4F7ABE0
:105A10002A9C73E42299002940F36F83DDF84090BB
:105A2000129B9945A8BF9946B9F1000F0BDD299B40
:105A30004C440133072BC8E900592A94299300F3F9
:105A40001D8508F10808109EB9F1000FA8BFA6EB4C
:105A50000906002E00F32582DDF840B07805AB443E
:105A600000F15F82229B129A934202DBF90740F118
:105A70007684169A17991444C8E90012299A2A9430
:105A80000132072A299200F3138508F10808129AB7
:105A9000AE18A6EB0B06D51AAE42A8BF2E46002EB6
:105AA0000DDD299B34440133072BC8F800B0C8F83A
:105AB00004602A94299300F3718508F10808002EE8
:105AC000A8BFAD1B002D7FF711AC102D40F33C8714
:105AD000DFF8CC91224649461026B946299B0F464D
