:020000040800F2
:100000000050002015250008F5220008F7220008FE
:10001000F9220008FB220008FD2200080000000071
:10002000000000000000000000000000FF220008A7
:100030000123000800000000032300080523000836
:100040005D2500085D2500085D2500085D25000888
:100050005D2500085D2500085D2500085D25000878
:100060005D2500085D2500085D2500085D25000868
:100070005D2500085D2500085D2500085D25000858
:100080005D2500085D2500085D2500085D25000848
:100090005D2500085D2500085D2500085D25000838
:1000A0005D2500085D2500085D2500085D25000828
:1000B0005D2500085D2500085D2500085D25000818
:1000C0005D2500085D2500085D2500085D25000808
:1000D0005D2500085D2500080D2300085D2500084A
:1000E0005D2500085D2500085D2500080000000072
:1000F0000000000000000000000000000000000000
:0C01000000000000000000005FF808F1A3
:1001100010B5054C237833B9044B13B10448AFF341
:1001200000800123237010BDC809002000000000DA
:100130000CD1000808B5034B1BB103490348AFF3CA
:10014000008008BD00000000CC0900200CD1000890
:1001500081F0004102E000BF83F0004330B54FEA78
:1001600041044FEA430594EA050F08BF90EA020FE5
:100170001FBF54EA000C55EA020C7FEA645C7FEA78
:10018000655C00F0E2804FEA5454D4EB5555B8BF9B
:100190006D420CDD2C4480EA020281EA030382EA0C
:1001A000000083EA010180EA020281EA0303362D9E
:1001B00088BF30BD11F0004F4FEA01314FF4801C71
:1001C0004CEA113102D0404261EB410113F0004F83
:1001D0004FEA03334CEA133302D0524263EB43033A
:1001E00094EA050F00F0A780A4F10104D5F1200ED8
:1001F0000DDB02FA0EFC22FA05F2801841F1000133
:1002000003FA0EF2801843FA05F359410EE0A5F106
:1002100020050EF1200E012A03FA0EFC28BF4CF037
:10022000020C43FA05F3C01851EBE37101F00045ED
:1002300007D54FF0000EDCF1000C7EEB00006EEBFA
:100240000101B1F5801F1BD3B1F5001F0CD3490884
:100250005FEA30004FEA3C0C04F101044FEA4452DB
:1002600012F5800F80F09A80BCF1004F08BF5FEA62
:10027000500C50F1000041EB045141EA050130BD42
:100280005FEA4C0C404141EB0101013C28BFB1F554
:10029000801FE9D291F0000F04BF01460020B1FA9F
:1002A00081F308BF2033A3F10B03B3F120020CDA72
:1002B0000C3208DD02F1140CC2F10C0201FA0CF050
:1002C00021FA02F10CE002F11402D8BFC2F1200CB5
:1002D00001FA02F120FA0CFCDCBF41EA0C0190406B
:1002E000E41AA2BF01EB0451294330BD6FEA0404B4
:1002F0001F3C1CDA0C340EDC04F11404C4F120029F
:1003000020FA04F001FA02F340EA030021FA04F3B0
:1003100045EA030130BDC4F10C04C4F1200220FA07
:1003200002F001FA04F340EA0300294630BD21FA45
:1003300004F0294630BD94F0000F83F4801306BF0B
:1003400081F480110134013D4EE77FEA645C18BFFF
:100350007FEA655C29D094EA050F08BF90EA020F96
:1003600005D054EA000C04BF1946104630BD91EA8E
:10037000030F1EBF0021002030BD5FEA545C05D191
:100380004000494128BF41F0004130BD14F58004D0
:100390003CBF01F5801130BD01F0004545F0FE4144
:1003A00041F470014FF0000030BD7FEA645C1ABF79
:1003B000194610467FEA655C1CBF0B46024650EAB0
:1003C000013406BF52EA033591EA030F41F40021DC
:1003D00030BD00BF90F0000F04BF0021704730B562
:1003E0004FF4806404F132044FF000054FF0000137
:1003F00050E700BF90F0000F04BF0021704730B5F8
:100400004FF4806404F1320410F0004548BF4042CC
:100410004FF000013EE700BF42004FEAE2014FEA21
:1004200031014FEA02701FBF12F07F4393F07F4FFC
:1004300081F06051704732F07F4208BF704793F0FF
:100440007F4F04BF41F40021704730B54FF4607412
:1004500001F0004521F000411CE700BF50EA010215
:1004600008BF704730B54FF000050AE050EA0102BE
:1004700008BF704730B511F0004502D5404261EB2E
:1004800041014FF4806404F132045FEA915C3FF46F
:10049000D8AE4FF003025FEADC0C18BF03325FEA0C
:1004A000DC0C18BF033202EBDC02C2F1200300FABD
:1004B00003FC20FA02F001FA03FE40EA0E0021FAE2
:1004C00002F11444BDE600BF70B54FF0FF0C4CF4D0
:1004D000E06C1CEA11541DBF1CEA135594EA0C0F82
:1004E00095EA0C0F00F0DEF82C4481EA030621EABD
:1004F0004C5123EA4C5350EA013518BF52EA0335F8
:1005000041F4801143F4801338D0A0FB02CE4FF0A9
:100510000005E1FB02E506F00042E0FB03E54FF0D9
:100520000006E1FB03569CF0000F18BF4EF0010ED1
:10053000A4F1FF04B6F5007F64F5407404D25FEACD
:100540004E0E6D4146EB060642EAC62141EA555180
:100550004FEAC52040EA5E504FEACE2EB4F1FD0CC2
:1005600088BFBCF5E06F1ED8BEF1004F08BF5FEA40
:10057000500E50F1000041EB045170BD06F00046F2
:1005800046EA010140EA020081EA0301B4EB5C049F
:10059000C2BFD4EB0C0541EA045170BD41F4801197
:1005A0004FF0000E013C00F3AB8014F1360FDEBFBC
:1005B000002001F0004170BDC4F10004203C35DA98
:1005C0000C341BDC04F11404C4F1200500FA05F31B
:1005D00020FA04F001FA05F240EA020001F00042BC
:1005E00021F0004110EBD37021FA04F642EB060132
:1005F0005EEA430E08BF20EAD37070BDC4F10C045C
:10060000C4F1200500FA04F320FA05F001FA04F21F
:1006100040EA020001F0004110EBD37041F100010B
:100620005EEA430E08BF20EAD37070BDC4F1200516
:1006300000FA05F24EEA020E20FA04F301FA05F27E
:1006400043EA020321FA04F001F0004121FA04F226
:1006500020EA020000EBD3705EEA430E08BF20EAF6
:10066000D37070BD94F0000F0FD101F00046400030
:1006700041EB010111F4801F08BF013CF7D041EAB2
:10068000060195F0000F18BF704703F000465200B6
:1006900043EB030313F4801F08BF013DF7D043EA87
:1006A0000603704794EA0C0F0CEA135518BF95EA3D
:1006B0000C0F0CD050EA410618BF52EA4306D1D1C4
:1006C00081EA030101F000414FF0000070BD50EAE3
:1006D000410606BF1046194652EA430619D094EA6D
:1006E0000C0F02D150EA013613D195EA0C0F05D157
:1006F00052EA03361CBF104619460AD181EA0301AB
:1007000001F0004141F0FE4141F470014FF0000062
:1007100070BD41F0FE4141F4780170BD70B54FF0FD
:10072000FF0C4CF4E06C1CEA11541DBF1CEA13557D
:1007300094EA0C0F95EA0C0F00F0A7F8A4EB05045F
:1007400081EA030E52EA03354FEA013100F0888056
:100750004FEA03334FF0805545EA131343EA12631F
:100760004FEA022245EA111545EA10654FEA0026D4
:100770000EF000419D4208BF964244F1FD0404F58D
:10078000407402D25B084FEA3202B61A65EB0305E9
:100790005B084FEA32024FF480104FF4002CB6EBA6
:1007A000020E75EB030E22BFB61A754640EA0C0026
:1007B0005B084FEA3202B6EB020E75EB030E22BF66
:1007C000B61A754640EA5C005B084FEA3202B6EBA7
:1007D000020E75EB030E22BFB61A754640EA9C0066
:1007E0005B084FEA3202B6EB020E75EB030E22BF36
:1007F000B61A754640EADC0055EA060E18D04FEAF4
:10080000051545EA16754FEA06164FEAC30343EA93
:1008100052734FEAC2025FEA1C1CC0D111F4801F60
:100820000BD141EA00014FF000004FF0004CB6E759
:1008300011F4801F04BF01430020B4F1FD0C88BFF8
:10084000BCF5E06F3FF6AFAEB5EB030C04BFB6EB03
:10085000020C5FEA500C50F1000041EB045170BDF6
:100860000EF0004E4EEA113114EB5C04C2BFD4EB23
:100870000C0541EA045170BD41F480114FF0000EA7
:10088000013C90E645EA060E8DE60CEA135594EA23
:100890000C0F08BF95EA0C0F3FF43BAF94EA0C0F26
:1008A0000AD150EA01347FF434AF95EA0C0F7FF49B
:1008B00025AF104619462CE795EA0C0F06D152EAEF
:1008C00003353FF4FDAE1046194622E750EA4106D3
:1008D00018BF52EA43067FF4C5AE50EA41047FF4E4
:1008E0000DAF52EA43057FF4EBAE12E74FF0FF3C49
:1008F00006E000BF4FF0010C02E000BF4FF0010C1A
:100900004DF804CD4FEA410C7FEA6C5C4FEA430C92
:1009100018BF7FEA6C5C1BD001B050EA410C0CBFE1
:1009200052EA430C91EA030F02BF90EA020F002043
:10093000704710F1000F91EA030F58BF994208BFAA
:1009400090422CBFD8176FEAE37040F00100704767
:100950004FEA410C7FEA6C5C02D150EA013C07D1BE
:100960004FEA430C7FEA6C5CD6D152EA033CD3D009
:100970005DF8040B704700BF8446104662468C4603
:100980001946634600E000BF01B5FFF7B7FF002836
:1009900048BF10F1000F01BD4DF808EDFFF7F4FF5F
:1009A0000CBF012000205DF808FB00BF4DF808EDEA
:1009B000FFF7EAFF34BF012000205DF808FB00BF0D
:1009C0004DF808EDFFF7E0FF94BF012000205DF82F
:1009D00008FB00BF4DF808EDFFF7CEFF94BF0120E4
:1009E00000205DF808FB00BF4DF808EDFFF7C4FFDD
:1009F00034BF012000205DF808FB00BF4FEA410230
:100A000012F5001215D211D56FF47873B3EB625260
:100A100012D94FEAC12343F0004343EA505311F087
:100A2000004F23FA02F018BF404270474FF0000019
:100A3000704750EA013005D111F0004008BF6FF057
:100A4000004070474FF00000704700BF4A0011D2CD
:100A500012F5001211D20DD56FF47873B3EB625218
:100A60000ED44FEAC12343F0004343EA505323FA24
:100A700002F070474FF00000704750EA013002D199
:100A80004FF0FF3070474FF00000704780F000409B
:100A900002E000BF81F0004142001FBF5FEA410356
:100AA00092EA030F7FEA226C7FEA236C6AD04FEA56
:100AB0001262D2EB1363C1BFD2184140484041409B
:100AC000B8BF5B42192B88BF704710F0004F40F44D
:100AD000000020F07F4018BF404211F0004F41F469
:100AE000000121F07F4118BF494292EA030F3FD035
:100AF000A2F1010241FA03FC10EB0C00C3F1200348
:100B000001FA03F100F0004302D5494260EB4000D6
:100B1000B0F5000F13D3B0F1807F06D340084FEA41
:100B2000310102F10102FE2A51D2B1F1004F40EB36
:100B3000C25008BF20F0010040EA0300704749009E
:100B400040EB0000013A28BFB0F5000FEDD2B0FA3B
:100B500080FCACF1080CB2EB0C0200FA0CF0AABF5E
:100B600000EBC25052421843BCBFD04018437047FC
:100B700092F0000F81F4000106BF80F40000013202
:100B8000013BB5E74FEA41037FEA226C18BF7FEAD9
:100B9000236C21D092EA030F04D092F0000F08BF1B
:100BA0000846704790EA010F1CBF0020704712F002
:100BB0007F4F04D1400028BF40F00040704712F141
:100BC00000723CBF00F50000704700F0004343F0A6
:100BD000FE4040F4000070477FEA226216BF0846DC
:100BE0007FEA23630146420206BF5FEA412390EA9F
:100BF000010F40F4800070474FF0000304E000BF95
:100C000010F0004348BF40425FEA000C08BF704745
:100C100043F0964301464FF000001CE050EA010209
:100C200008BF70474FF000030AE000BF50EA01021E
:100C300008BF704711F0004302D5404261EB41010B
:100C40005FEA010C02BF84460146002043F0B64330
:100C500008BFA3F18053A3F50003BCFA8CF2083A55
:100C6000A3EBC25310DB01FA02FC634400FA02FC5E
:100C7000C2F12002BCF1004F20FA02F243EB020065
:100C800008BF20F00100704702F1200201FA02FCC7
:100C9000C2F1200250EA4C0021FA02F243EB0200BA
:100CA00008BF20EADC7070474FF0FF3C06E000BF51
:100CB0004FF0010C02E000BF4FF0010C4DF804CDE5
:100CC0004FEA40024FEA41037FEA226C18BF7FEAF5
:100CD000236C11D001B052EA530C18BF90EA010FF7
:100CE00058BFB2EB030088BFC81738BF6FEAE17086
:100CF00018BF40F0010070477FEA226C02D15FEA22
:100D0000402C05D17FEA236CE4D15FEA412CE1D08D
:100D10005DF8040B704700BF844608466146FFE754
:100D20000FB5FFF7C9FF002848BF10F1000F0FBD36
:100D30004DF808EDFFF7F4FF0CBF012000205DF82F
:100D400008FB00BF4DF808EDFFF7EAFF34BF0120B4
:100D500000205DF808FB00BF4DF808EDFFF7E0FF4D
:100D600094BF012000205DF808FB00BF4DF808ED9E
:100D7000FFF7D2FF94BF012000205DF808FB00BF01
:100D80004DF808EDFFF7C8FF34BF012000205DF8E3
:100D900008FB00BF42000ED2B2F1FE4F0BD34FF062
:100DA0009E03B3EB126209D44FEA002343F00043E1
:100DB00023FA02F070474FF00000704712F1610F04
:100DC00001D1420202D14FF0FF3070474FF00000D6
:100DD000704700BF844641EA000313F0030349D182
:100DE000403A23D30B6803604B6843608B68836091
:100DF000CB68C3600B6903614B6943618B69836195
:100E0000CB69C3610B6A03624B6A43628B6A83627C
:100E1000CB6AC3620B6B03634B6B43638B6B836364
:100E2000CB6BC36340304031403ADBD230320BD31E
:100E30000B6803604B6843608B688360CB68C3605A
:100E400010301031103AF3D20C3205D351F8043B74
:100E500040F8043B043AF9D2043208D0D2071CBF50
:100E600011F8013B00F8013B01D30B880380604679
:100E7000704700BF082A13D38B07B1D010F00303CB
:100E8000AED0C3F10403D21ADB071CBF11F8013B3B
:100E900000F8013BA4D331F8023B20F8023B9FE766
:100EA000043AD9D3013A11F8013B00F8013BF9D2D9
:100EB0000B7803704B7843708B7883706046704773
:100EC0004FEA410C7FEA6C5C02D150EA013C0AD146
:100ED0004FEA430C7FEA6C5C02D152EA033C02D138
:100EE0004FF0000070474FF00100704753B94AB906
:100EF000002908BF00281CBF4FF0FF314FF0FF3022
:100F000000F076B9ADF1080C6DE904CE00F006F8FA
:100F1000DDF804E0DDE9022304B070472DE9F04775
:100F2000089E0D4604468846002B4DD18A429446C1
:100F300068D9B2FA82F252B101FA02F3C2F1200189
:100F400020FA01F10CFA02FC41EA030894404FEA4E
:100F50001C41B8FBF1F71FFA8CFE01FB178807FB59
:100F60000EF0230C43EA084398420AD91CEB030312
:100F700007F1FF3580F01E81984240F21B81023F4D
:100F800063441B1AB3FBF1F001FB103300FB0EFEB0
:100F9000A4B244EA0344A6450AD91CEB040400F1B8
:100FA000FF3380F00981A64540F20681644402388F
:100FB0000021A4EB0E0440EA07401EB10023D440F8
:100FC000C6E90043BDE8F0878B4208D9002E00F047
:100FD000EE800021C6E900050846BDE8F087B3FAB7
:100FE00083F100294AD1AB4202D3824200F2FC8055
:100FF000841A65EB030301209846002EE2D0C6E96F
:101000000048DFE702B9FFDEB2FA82F2002A40F0C0
:101010009180A1EB0C0001214FEA1C471FFA8CFEC6
:10102000B0FBF7F307FB1300250C45EA00450EFB68
:1010300003F0A84208D91CEB050503F1FF3802D2E2
:10104000A84200F2CE8043462D1AB5FBF7F007FB0D
:1010500010550EFB00FEA4B244EA0544A64508D98B
:101060001CEB040400F1FF3502D2A64500F2B68065
:101070002846A4EB0E0440EA03409EE7C1F1200796
:101080008B4022FA07FC4CEA030C25FA07FA4FEAD8
:101090001C49BAFBF9F820FA07F309FB18AA8D409E
:1010A0001FFA8CFE1D4300FA01F308FB0EF02C0C16
:1010B00044EA0A44A04202FA01F20BD91CEB0404F0
:1010C00008F1FF3A80F08880A04240F28580A8F1C4
:1010D00002086444241AB4FBF9F009FB104400FB35
:1010E0000EFEADB245EA0444A64508D91CEB040443
:1010F00000F1FF356CD2A6456AD90238644440EA53
:101100000840A0FB0295A4EB0E04AC42C846AE46D4
:1011100056D353D0002E69D0B3EB080264EB0E0413
:1011200022FA01F304FA07F71F43CC40C6E9007422
:10113000002147E70CFA02FCC2F1200125FA01F375
:101140004FEA1C4720FA01F195400D43B3FBF7F13C
:1011500007FB11331FFA8CFE280C40EA034001FB09
:101160000EF3834204FA02F408D91CEB000001F1EB
:10117000FF382FD283422DD902396044C01AB0FB08
:10118000F7F307FB1300ADB245EA004503FB0EF091
:10119000A84208D91CEB050503F1FF3816D2A84276
:1011A00014D9023B6544281A43EA014138E7314625
:1011B000304607E72F46E4E61846F9E64B45A9D244
:1011C000B9EB020865EB0C0E0138A3E74346EAE7EA
:1011D000284694E74146D1E7D0467BE7644402388D
:1011E00047E7023B65442FE7084606E73146E9E654
:1011F000704700BF08B5244B1A68244B1B689A42FD
:1012000024D9234B01221A70224B1A78224B1B68D7
:101210009A421FD9214B01221A70214B1868FFF7FF
:10122000EBFC204B1968FFF78DFDB8B11E4B012276
:101230001A701E4B1A681E4B1B689A4212D91D4B1E
:1012400001221A701C4B1B7883B908BD104B002279
:101250001A70D9E7114B00221A70DEE7124B0022F8
:101260001A70E6E7134B00221A70EBE700F0D8FD86
:1012700041F2883001F0BEF900F0E2FD41F2883021
:1012800001F0B8F9E1E700BF0C0A0020E8090020EE
:10129000E5090020180A0020F0090020ED090020CF
:1012A000000A0020040A0020FC090020140A002083
:1012B000F8090020F6090020E409002008B500F034
:1012C000ABFA00F053FD00F07FFA08BD10B582B014
:1012D0000C234E4A0721052000F07CFC0C234C4ACD
:1012E0000721232000F076FC0C234A4A07214120E5
:1012F00000F070FC0C23484A07215F2000F06AFCD4
:10130000464B1868FFF746FD02460C240094022362
:101310000621052000F016FC00940223404A1268C2
:101320000621232000F00EFC009403233D4A12788E
:101330000621412000F006FC009403233A4A12687B
:1013400006215F2000F0FEFB2346384A00213C20A6
:1013500000F040FC2346364A02213C2000F03AFCD3
:101360002346344A04213C2000F034FC009402233C
:10137000314A12680021642000F0E4FB009402234B
:101380002E4A12681946642000F0DCFB0094022308
:101390002B4A12680421642000F0D4FB2346294A1A
:1013A0000021084600F016FC274B1B78012B27D0A4
:1013B000264A0C2300211E2000F00CFC0C23244A9A
:1013C0000221002000F006FC224B1B78012B19D0D3
:1013D0001E4A0C2302211E2000F0FCFB0C231E4A97
:1013E0000421002000F0F6FB1C4B1B78012B0BD0D6
:1013F000164A0C2304211E2000F0ECFB02B010BDA5
:10140000174AD6E7164AE4E7154AF2E730D1000852
:1014100034D1000838D100083CD10008040A00206B
:101420000C0A0020180A0020140A002040D10008ED
:1014300048D1000850D10008000A0020E809002027
:10144000F009002058D10008F409002028D1000834
:1014500060D10008F509002068D10008EC090020DF
:101460002CD1000838B50446094803685D6A02F0CB
:101470006DFA074B1B685B6AAAB29B1AA342F8D3AA
:10148000034C204602F090FA236800225A6238BDCD
:10149000540A002048E000BF00BF00BF00BF00BFEB
:1014A00000BF00BF00BF00BF00BF00BF00BF00BF44
:1014B00000BF00BF00BF00BF00BF00BF00BF00BF34
:1014C00000BF00BF00BF00BF00BF00BF00BF00BF24
:1014D00000BF00BF00BF00BF00BF00BF00BF00BF14
:1014E00000BF00BF00BF00BF00BF00BF00BF00BF04
:1014F00000BF00BF00BF00BF00BF00BF00BF00BFF4
:1015000000BF00BF00BF00BF00BF00BF00BF00BFE3
:1015100000BF00BF00BF00BF00BF00BF00BF00BFD3
:1015200000BF00BF00BF1846431E9BB20028B2D1C7
:101530007047000010B50E4C01228021204601F0BA
:10154000B4FD01224021204601F0AFFD0520FFF748
:10155000A1FF00228021204601F0A7FD0520FFF712
:1015600099FF00224021204601F09FFD10BD00BFE1
:10157000000C014010B50B4C00228021204601F0E8
:1015800094FD01224021204601F08FFD0520FFF748
:1015900081FF01228021204601F087FD0520FFF711
:1015A00079FF10BD000C014010B584B00446C02383
:1015B000009301230193022303936946114801F02C
:1015C0005BFC012C18D0ACB9002280210D4801F041
:1015D0006CFD0C4C01224021204601F066FD0520E7
:1015E000FFF758FF00224021204601F05EFD052054
:1015F000FFF750FF04B010BD01228021014801F027
:1016000054FDE6E7000C014030B585B0002301939E
:101610000223039380250095164C6946204601F06D
:101620002BFC01224021204601F03FFD0520FFF761
:1016300031FF2946204601F031FD012815D00E4B1F
:1016400000221A700B4C00224021204601F02DFD93
:101650000520FFF71FFF012301936946204601F093
:101660000BFC054B187805B030BD034B01221A70F6
:10167000E8E700BF000C0140100A002070B50446E6
:10168000002519E000228021124801F00EFD6400BF
:10169000E4B2104E01224021304601F006FD052043
:1016A000FFF7F8FE00224021304601F0FEFC052045
:1016B000FFF7F0FE0135EDB2072D08D814F0800FCA
:1016C000E0D001228021034801F0EFFCDFE7FFF7C3
:1016D0009BFF70BD000C014008B5FFF72BFF4620B3
:1016E000FFF7CCFF0120FFF7C9FFFFF743FF08BD5D
:1016F00010B50446FFF71EFF4620FFF7BFFF204648
:10170000FFF7BCFFFFF736FF10BD000070B584B0D7
:101710000025019580260096022303931A4C694602
:10172000204601F0A9FB01223146204601F0BDFC14
:101730002C460BE02043C4B200224021124801F0A5
:10174000B4FC0520FFF7A6FE0135EDB2072D12D837
:101750006400E4B20C4E01224021304601F0A5FCA9
:101760000520FFF797FE8021304601F097FC012805
:10177000E0D00020DEE7012301936946024801F032
:101780007BFB204604B070BD000C014010B5FFF794
:10179000D1FE4720FFF772FF002404E00120FFF78D
:1017A00003FF0134E4B2022C09D8FFF7AFFF054B69
:1017B0001855032CF2D00020FFF7F6FEF1E7FFF7F3
:1017C000D9FE10BD080A002008B50120FFF790FFE0
:1017D0001020FFF78DFFB42000F00CFFFFF7D6FFBD
:1017E0000A4B1A78587800EB022080B2FFF704FA0F
:1017F000FEF712FE4FF03332054BFEF78FFFFFF777
:1018000025F980B2034B186008BD00BF080A00200C
:101810003333F33F0C0A002070B52F4C0122042112
:10182000204601F042FC00220221204601F03DFC4E
:101830000421294801F032FC04460028F8D1012097
:10184000FFF710FE00260AE00421234801F026FCE1
:1018500001281CD00120FFF705FE0134E4B2172C4B
:1018600019D81D4D01220221284601F01EFC01203D
:10187000FFF7F8FD00220221284601F016FC0421A2
:10188000284601F00BFC0028DED17600DCE776006C
:1018900046F00106DEE7104C01220221204601F04D
:1018A00004FC86F400060120FFF7DCFD0022022183
:1018B000204601F0FAFB0120FFF7D4FD074B9B1BEC
:1018C0000748A0FB033080091E380028B8BF4042FB
:1018D000044B186070BD00BF000C0140A0CD870014
:1018E000D34D6210140A002010B50B4C01220821C0
:1018F000204601F0DAFB01221021204601F0D5FB41
:1019000000221021204601F0D0FB002208212046B1
:1019100001F0CBFB10BD00BF000C014010B5084C1E
:1019200001220821204601F0C0FB002210212046A0
:1019300001F0BBFB01221021204601F0B6FB10BDD7
:10194000000C014010B5064C01220821204601F090
:10195000ACFB00220821204601F0A7FB10BD00BF10
:10196000000C014070B5044600220821124801F025
:101970009CFB002513E0002210210F4801F095FB8D
:101980006400E4B20C4E01220821304601F08DFBC8
:1019900000220821304601F088FB0135EDB2072D09
:1019A00008D814F0800FE6D001221021024801F07F
:1019B0007CFBE5E770BD00BF000C014010B504469C
:1019C000FFF792FF7820FFF7CDFFFFF7BBFF002066
:1019D000FFF7C8FFFFF7B6FF2046FFF7C3FFFFF78B
:1019E000B1FFFFF79BFF10BD10B50446FFF77CFF6A
:1019F0007820FFF7B7FFFFF7A5FF4020FFF7B2FF02
:101A0000FFF7A0FF2046FFF7ADFFFFF79BFFFFF7B3
:101A100085FF10BD08B519B1C0B2FFF7E5FF08BDDD
:101A2000C0B2FFF7CBFFFAE710B504460846002125
:101A3000B030FFF7EFFF0234C4F30310002140F091
:101A40001000FFF7E7FF002104F00F00FFF7E2FFAF
:101A500010BD38B500250AE001210020FFF7DAFFAC
:101A60000134E4B214F0800FF6D00135EDB2072D49
:101A70000ED8002105F1B000FFF7CCFF00210220B5
:101A8000FFF7C8FF00211020FFF7C4FF0024E9E79B
:101A900038BD0000F8B507460E46203AD5B210F022
:101AA000800F07D1102B09D031463846FFF7BCFF15
:101AB000002433E00236F6B20027F3E73146384619
:101AC000FFF7B2FF002408E004EB05130121154ADB
:101AD000D05CFFF79FFF0134E4B2072CF4D9711CEE
:101AE000C9B23846FFF7A0FF002409E004EB051354
:101AF000083301210B4AD05CFFF78CFF0134E4B2BC
:101B0000072CF3D90CE005EB4503074A02EB43032E
:101B10000121185DFFF77EFF0134E4B2052CF2D9F4
:101B2000F8BD00BF98D3000870D10008024601201C
:101B300002E002FB00F019464B1EDBB20029F8D18F
:101B4000704700002DE9F0478246894690461D46C1
:101B50009DF8206000273C4619E0700804FB00F067
:101B6000C0B25044334620224946C0B2FFF792FF2C
:101B70000BE0700804FB00F0C0B230325044334632
:101B8000D2B24946C0B2FFF785FF0134E4B2AC429D
:101B90001CD2291BC9B20139C9B20A20FFF7C6FFFE
:101BA000B8FBF0F00A4AA2FB003C4FEADC0C0CEB5D
:101BB0008C0CA0EB4C0C5FFA8CF2002FD9D16B1E71
:101BC0009C42D6DA002AC8D00127D2E7BDE8F087C8
:101BD000CDCCCCCC2DE9F04104460E4617469846B4
:101BE000002501E00135EDB27A5D62B14346314630
:101BF0002046FFF74FFF0834E4B2782CF2D90236C2
:101C0000F6B20024EEE7BDE8F081000070B586B0C2
:101C100000240294039404940594464B9A6942F07C
:101C200008029A619B6903F008030193019B424EED
:101C300022461821304601F038FA18230293012376
:101C4000039304930225059502A9304601F014F987
:101C50000A2000F0CFFC2146AE20FFF7DBFE214634
:101C60002846FFF7D7FE21461020FFF7D3FE214676
:101C70004020FFF7CFFE2146B020FFF7CBFE2146E4
:101C80008120FFF7C7FE2146FF20FFF7C3FE214654
:101C9000A120FFF7BFFE2146A620FFF7BBFE21468D
:101CA000A820FFF7B7FE21463F20FFF7B3FE2146ED
:101CB000C820FFF7AFFE2146D320FFF7ABFE214639
:101CC0002046FFF7A7FE2146D520FFF7A3FE2146B9
:101CD0008020FFF79FFE2146D820FFF79BFE21467C
:101CE0000520FFF797FE2146D920FFF793FE2146F6
:101CF000F120FFF78FFE2146DA20FFF78BFE214609
:101D00001220FFF787FE2146DB20FFF783FE2146E6
:101D10003020FFF77FFE21468D20FFF77BFE214616
:101D20001420FFF777FE2146AF20FFF773FE06B0C1
:101D300070BD00BF00100240000C014010B50A4CFD
:101D4000204600F019FE6421204600F067FC204682
:101D500000F0CCFD10F4007F01D1002010BD204622
:101D600000F01EFD80B2F9E71C0A002008B5044807
:101D700000F026FFFFF7E2FF024B187008BD00BF1E
:101D80001C0A0020180A002070B50446224E0022CA
:101D90004FF48071304601F088F9204D00224FF455
:101DA0000051284601F081F900224FF400713046BD
:101DB00001F07BF900224FF48041284601F075F9CB
:101DC000B4F5807F0CD0B4F5005F10D0B4F5007F7F
:101DD00014D0B4F5804F18D0012000F00BFC70BD7A
:101DE00001224FF48071304601F05FF9F4E70122DF
:101DF0004FF40051094801F058F9EDE701224FF482
:101E00000071054801F051F9E6E701224FF48041E5
:101E1000024801F04AF9DFE700080140000C0140E8
:101E200010B5002406E0054B33F81400FFF7ACFFB3
:101E30000134E4B2032CF6D910BD00BF0800002025
:101E400010B5002406E0054B33F81400FFF79CFFA3
:101E50000134E4B2032CF6D910BD00BF000000200D
:101E600000B585B000230193029303931048114AF3
:101E700002608360037303754FF46022C2614360A4
:101E80000123036100F018FE60B90123019302935E
:101E90000023039301A9064800F086FC28B905B089
:101EA0005DF804FB00F004F9EFE700F001F9F6E754
:101EB0001C0A00200024014000B587B000230293D3
:101EC0000393049305930268114B9A4202D007B022
:101ED0005DF804FB03F56C439A6942F400729A6161
:101EE0009A6902F400720092009A9A6942F0040220
:101EF0009A619B6903F004030193019B02230293FF
:101F00000323039302A9034800F0B6FFDFE700BFF5
:101F100000240140000801402DE9F04389B000246D
:101F200004940594069407944B4B9A6942F010026E
:101F30009A619A6902F010020092009A9A6942F03E
:101F400020029A619A6902F020020192019A9A692C
:101F500042F004029A619A6902F004020292029A23
:101F60009A6942F008029A619B6903F0080303939F
:101F7000039BDFF8E88022464FF40051404601F011
:101F800094F8374F224648F20171384601F08DF837
:101F900001224FF40261384601F087F8314E2246A3
:101FA00046F65A41304601F080F84FF4005304934E
:101FB0000125059506954FF00309CDF81C9004A95D
:101FC000404600F059FF48F22133049305950694EA
:101FD0004FF00208CDF81C8004A9384600F04CFFF1
:101FE0000495214B0593069404A9304600F044FF64
:101FF000CDF8108005950694CDF81C9004A93046C4
:1020000000F03AFF042304930594069504A9304692
:1020100000F032FF46F65843049305950694CDF838
:102020001C8004A9304600F027FF4FF4406304935E
:102030000595CDF81880CDF81C9004A9384600F01D
:102040001BFF802304930594069404A9304600F0F6
:1020500013FF09B0BDE8F0830010024000100140FA
:1020600000080140000C01400000111008B50C4BA5
:102070001B883F2B0CD8591C094A1180094A11783A
:10208000094AD15401220749084802F094F908BDD1
:102090000021034B19804022034803F011F9F1E7B6
:1020A000280B00202C0B0020E80A00209C0A0020AE
:1020B00072B6FEE700B595B0282200210DEB0200B4
:1020C00003F0FEF800230593069307930893099302
:1020D000019302930393049301220A924FF48033F5
:1020E0000B930E920222119212934FF4E01313936A
:1020F0000AA800F0F7FFC8B90F2305930221069143
:10210000002307934FF480620892099305A801F019
:102110001BFA68B9022301934FF40043039301A80B
:1021200001F0EEFA30B915B05DF804FBFFF7C0FF1F
:10213000FFF7BEFFFFF7BCFF30B5ABB025AC264DB7
:102140000FCD0FC42B6824F8023B1B0C237000F04A
:102150002DFAFFF7AFFFFFF7DFFE00F063F9FFF79F
:102160007FFE00F011F9FFF751FDFFF772FCFFF75A
:10217000B3FA00241CE0194B1868FEF74DF902462B
:102180000B461749097802911649096801911649C9
:1021900009780091154905A803F06CF905A925A84F
:1021A00002F072FC02F0BEFB00240EE002F098FC8C
:1021B000FFF78CF8FFF782F8FFF71CF80A2000F011
:1021C00019FA0134A4B2632CD5D8032002F03CFCE8
:1021D0000028EBD1ECE700BFD0D90008040A0020AA
:1021E000F60900200C0A0020180A00209CD90008DB
:1021F000022801D80120704708B502F07BFD0923B1
:102200000360002008BD000010B5013801280AD87D
:1022100014464FF0FF3392B20748006801F01CFEED
:1022200040B9204610BD02F065FD092303604FF060
:10223000FF30F7E70520F5E74C0A0020022801D817
:102240000020704708B502F055FD092303604FF0E8
:10225000FF3008BD08B502F04DFD092303604FF0C3
:10226000FF3008BD08B548B94FF0FF3301220848D8
:10227000006801F050FE40B9012008BD02F03AFDAF
:10228000092303604FF0FF30F7E70520F5E700BFB3
:102290004C0A002008B5022804D84FF400534B60C4
:1022A000002008BD02F026FD09230360F8E70000C6
:1022B00082B00E4B9A6942F001029A619A6902F06B
:1022C00001020092009ADA6942F08052DA61DB6919
:1022D00003F080530193019B054A536823F0E063A8
:1022E00043F00073536002B0704700BF001002401B
:1022F00000000140FEE7FEE7FEE7FEE7FEE770476D
:102300007047704708B500F063F908BD08B502488A
:1023100001F0F2FE08BD00BF9C0A002001207047BA
:1023200008B502F0E7FC162303604FF0FF3008BD4C
:1023300008B54FF0FF31FFF7F3FFFEE710B5034696
:102340000C4A0D490D48006840B10C480068034430
:10235000521A934206D8094A136010BD0748084C28
:102360000460F2E702F0C6FC0C2303604FF0FF307C
:10237000F3E700BF0050002000040000500A0020D6
:10238000780B00207047000000B587B0002302934F
:10239000039304930593009301931548154A026033
:1023A0004722426083604FF6FF72C260036143615F
:1023B000836101F047FB90B94FF48053029302A967
:1023C0000B4801F077FB68B900230093019369463D
:1023D000074801F0EFFB40B907B05DF804FBFFF7D9
:1023E00067FEE9E7FFF764FEEEE7FFF761FEF3E75C
:1023F000540A0020002C01400268094B9A4200D088
:10240000704782B003F564439A6942F400629A61AE
:102410009B6903F400630193019B02B0704700BF06
:10242000002C014008B50A480A4B03604FF4E13321
:10243000436000238360C36003610C2242618361B7
:10244000C36101F0D9FC00B908BDFFF731FEFBE71D
:102450009C0A00200044004030B587B0002302935E
:1024600003930493059302681B4B9A4201D007B073
:1024700030BD03F5E633DA6942F40032DA61DA6935
:1024800002F400320092009A9A6942F004029A61C2
:102490009B6903F004030193019B0423029302232D
:1024A0000393032305930D4D02A9284600F0E4FC95
:1024B000082302930024039404940DEB030128469F
:1024C00000F0DAFC22462146262000F00BFC2620F4
:1024D00000F040FCCBE700BF004400400008014092
:1024E00084B070B504AC84E80F001699BDF85C6048
:1024F000002409E04D1C4FF0FF33012204A801F035
:10250000ABFC0134A4B22946B442F3D3BDE8704019
:1025100004B07047FFF736FF0B480C490C4A002304
:1025200002E0D458C4500433C4188C42F9D3094A89
:10253000094C002301E013600432A242FBD302F0F5
:10254000DFFBFFF7F9FD704700000020C8090020FD
:10255000C0DF0008C8090020780B0020FEE700005B
:1025600010B504460E4B18784FF47A73B3FBF0F3B2
:102570000C4A1068B0FBF3F000F0FAFB68B90F2CBE
:1025800001D901200AE0002221464FF0FF3000F07F
:10259000A9FB054B1C60002000E0012010BD00BF1E
:1025A00014000020100000201800002008B5074A81
:1025B000136843F010031360032000F081FB0F2029
:1025C000FFF7CEFFFFF774FE002008BD0020024099
:1025D000034A1168034B1B780B441360704700BF1C
:1025E000E40A002014000020014B1868704700BF67
:1025F000E40A002038B50446FFF7F6FF0546B4F1BB
:10260000FF3F02D0044B1B781C44FFF7EDFF401B3B
:10261000A042FAD338BD00BF14000020F0B583B04B
:1026200005460C4600230193FFF7DEFF2B689A68EE
:1026300012F4807F23D107465A6812F4807F03D1B9
:10264000DB6A13F4700F29D0504B1E68022001F092
:10265000E3F8B6FBF0F62B6819694D4A114236D102
:10266000D96802F15C42114231D11969494A1142DB
:1026700040D1DA68484B1A423ED0292041E0AB6A8B
:1026800043F02003AB62002385F82430012003B01F
:10269000F0BD2B681B6813F0020F0FD02B681B686E
:1026A00013F0020F4FD1B4F1FF3FF7D0002CF0D060
:1026B000FFF79AFFC31BA342F0D9EAE7AB6A43F0E6
:1026C0000403AB62002385F824300320DFE7196997
:1026D000304A114204D1D96802F16E4211420DD044
:1026E00019692E4A0A405AB9DA682C4B13405BB17B
:1026F000FC2006E0292004E0142002E0542000E041
:10270000FC2000FB06F607E05420FAE7019BB342E9
:1027100010D3019B01330193019BB34213D2B4F157
:10272000FF3FF6D0002CF1D0FFF75EFFC01BA042A8
:10273000EFD9EBE7AB6A43F00403AB62002385F803
:1027400024300320A3E72B686FF012021A60AB6AF3
:1027500043F40073AB622B689B6803F46023B3F50A
:10276000602F01D0002092E7287B60B9AB6A23F488
:102770008073AB62AB6A13F4805F88D1AB6A43F0BD
:102780000103AB6283E7002081E700BF1000002057
:102790002449922492244912922449004992240007
:1027A0000368D86C7047000030B482B000220192F8
:1027B00090F82420012A00F091800346012280F83D
:1027C00024204A68062A2DD80468606B02EB820236
:1027D000053A4FF01F0C0CFA02FC20EA0C000D68C1
:1027E00005FA02F2024362630A68092A3AD91C68B0
:1027F000E06802EB42021E3A4FF0070C0CFA02FCB2
:1028000020EA0C008D6805FA02F20243E2600A68D1
:10281000103A012A36D90020002283F8242002B081
:1028200030BC70470C2A0ED80568286B02EB820278
:10283000233A1F24944020EA04000C6804FA02F2B0
:1028400002432A63D0E70568E86A02EB8202413A54
:102850001F24944020EA04000C6804FA02F20243A8
:10286000EA62C1E71C68206902EB42024FF0070CE4
:102870000CFA02FC20EA0C008D6805FA02F2024311
:102880002261C4E71A681648824205D09A6A42F06B
:1028900020029A620120BFE7906810F4000F1BD15C
:1028A000906840F4000090600A68102A01D000206F
:1028B000B2E70C4A12680C49A1FB0212920C02EB1F
:1028C00082025200019202E0019A013A0192019AB9
:1028D000002AF9D100209FE700209DE702209EE713
:1028E000002401401000002083DE1B43806A7047F3
:1028F00030B583B00023019303689A6812F0010F8A
:1029000033D104469A6842F001029A60184B1B6862
:10291000184AA2FB03239B0C019302E0019B013B9D
:102920000193019B002BF9D1FFF75EFE054623685A
:102930009B6813F0010F16D1FFF756FE431B022BC5
:10294000F5D923689B6813F0010FF0D1A36A43F017
:102950001003A362E36A43F00103E362002384F8F7
:102960002430012002E0002000E0002003B030BD50
:102970001000002083DE1B4390F82430012B68D028
:1029800010B50446012380F82430FFF7B1FF00287A
:102990005BD1A36A23F4407323F0010343F48073F3
:1029A000A36223682C4A934227D0A26A22F48012A1
:1029B000A2625A6812F4806F05D0A26A22F44052D3
:1029C00042F48052A262A26A12F4805F2BD0E26AC3
:1029D00022F00602E262002284F824206FF0020254
:1029E0001A6023689A6802F46022B2F5602F1DD045
:1029F0009A6842F480129A602AE0A2F580625268D6
:102A000012F4702FD1D0A26A42F48012A262134A4B
:102A1000526812F4806FD6D0A26A22F4405242F477
:102A20008052A262CFE70022E262D4E70A4A9342D0
:102A300004D09A6842F4A0029A6009E0A2F580628C
:102A4000526812F4702FD3D1F3E7002384F82430B6
:102A500010BD0220704700BF002801400024014043
:102A600038B503689A6812F0010F01D1002038BD13
:102A700004469A6822F001029A60FFF7B5FD054608
:102A800023689B6813F0010F13D0FFF7ADFD431BC4
:102A9000022BF5D923689B6813F0010FF0D0A36ACD
:102AA00043F01003A362E36A43F00103E3620120F1
:102AB000DDE70020DBE7000000287BD070B504468E
:102AC000836A002B4DD02046FFF7CAFFA36A13F09C
:102AD000100369D1002867D1A26A22F4885222F03B
:102AE000020242F00202A2626268E1690A43217BAB
:102AF00042EA4102A568B5F5807F02D0012D36D0AB
:102B00001D46267D012E35D02668716821F4694165
:102B1000294371602568AE68274931401143A96097
:102B2000A168B1F5807F01D0012902D12369013B61
:102B30001B052568E96A21F470010B43EB622368E9
:102B400099681E4B0B409A4225D0A36A23F01203CA
:102B500043F01003A362E36A43F00103E362012040
:102B600027E0C36280F82430FFF7A6F9ABE74FF403
:102B70008075C6E731B9A169013945EA413141F4AF
:102B80000065C1E7A16A41F02001A162E16A41F05C
:102B90000101E162B8E70023E362A36A23F00303C3
:102BA00043F00103A36204E0A36A43F01003A362AD
:102BB000012070BD01207047FDF7E1FFFE0E1FFFF1
:102BC00070B582B00023019390F82430012B72D0AD
:102BD0000446012380F82430FFF742FF2046FFF728
:102BE00087FE054628B1002384F82430284602B029
:102BF00070BDA36A23F4885323F0020343F0020359
:102C0000A3622E4B1E68022000F006FEB6FBF0F613
:102C10007600019602E0019B013B0193019B002B92
:102C2000F9D12268936843F008039360FFF7DCFC56
:102C3000064623689A6812F0080F14D0FFF7D4FCF8
:102C4000801B0A28F5D923689B6813F0080FF0D081
:102C5000A36A23F0120343F01003A362002384F855
:102C600024300125C2E79A6842F004029A60FFF717
:102C7000BBFC064623689B6813F0040F14D0FFF7D3
:102C8000B3FC801B0A28F5D923689B6813F0040F56
:102C9000F0D0A36A23F0120343F01003A3620023D1
:102CA00084F824300125A1E7A36A23F0030343F04D
:102CB0000103A36297E7022598E700BF10000020F8
:102CC000074AD36823F4E0631B041B0C000200F4E2
:102CD000E060034343F0BF6343F40033D3607047C5
:102CE00000ED00E000B5194BDB68C3F30223C3F12C
:102CF000070CBCF1040F28BF4FF0040C03F1040EC5
:102D0000BEF1060F18D9033B4FF0FF3E0EFA0CFC44
:102D100021EA0C0199400EFA03F322EA0303194356
:102D200000280BDB0901C9B200F1604000F56140E9
:102D300080F800135DF804FB0023E5E700F00F00C6
:102D40000901C9B2024B1954F4E700BF00ED00E0DD
:102D500014ED00E0002807DB00F01F02400901230A
:102D60009340024A42F82030704700BF00E100E083
:102D70000138B0F1807F0BD24FF0E0235861054A53
:102D8000F02182F823100020986107221A61704711
:102D90000120704700ED00E090F82130DBB2022BFB
:102DA00006D004238363002380F82030012070477D
:102DB0000268136823F00E0313600268136823F09F
:102DC00001031360036CC16B012202FA03F34B6031
:102DD00080F82120002380F820301846704700003A
:102DE00008B590F82130DBB2022B03D004238363B3
:102DF000012008BD0268136823F00E031360026807
:102E0000136823F0010313600368194A934214D036
:102E1000143293421FD0143293421ED01432934284
:102E20001ED0143293421ED01432934202D04FF07F
:102E3000807203E04FF4801200E001220D4B5A60D3
:102E4000012380F82130002380F82030436B6BB1E0
:102E500098470020CDE71022F0E74FF48072EDE7AD
:102E60004FF48052EAE74FF48032E7E70020C0E7F2
:102E7000080002400000024070B582B00024A44661
:102E8000A6E0804DAA4210D007D97F4DAA420CD0AF
:102E900005F58035AA4208D013E0A5F58015AA42B1
:102EA00003D005F57025AA4207D18A68002A58D0B8
:102EB000012A51D04361082403E0A5F58015AA42F8
:102EC000F3D0BEF1FF0F4ED80646BEF1FF0F4CD82F
:102ED0004FEA8C0233680F25954023EA050304FA74
:102EE00002F2134333604B6813F0805F6ED0674B80
:102EF0009A6942F001029A619B6903F00103019310
:102F0000019B4FEA9C02951C614B53F825600CF025
:102F100003039D000F23AB4026EA03065D4B984256
:102F200029D003F58063984200F08E8003F580631A
:102F3000984200F08B8003F58063984219D00423F7
:102F40001AE0CC68BDE7CC680434BAE7CC68083432
:102F5000B7E7CC680C34B4E703610824B1E7002478
:102F6000AFE70424ADE7061DAFE7ACF1080292001D
:102F7000B0E7032300E00023AB4033430232444D6B
:102F800045F822304B6813F4801F61D0424A9368A1
:102F900043EA0E0393604B6813F4001F5ED03E4A71
:102FA000D36843EA0E03D3604B6813F4003F5BD051
:102FB000394A536843EA0E0353604B6813F4803F69
:102FC00058D0354A136843EA0E0313600CF1010C24
:102FD0000A6832FA0CF353D0012303FA0CF302EA25
:102FE000030E33EA0202F1D14A68122A3FF649AFD2
:102FF000122A3FF666AF01A555F822F0AB2E000865
:10300000432F00084D2F00085F2F0008C32E000833
:10301000C32E0008C32E0008C32E0008C32E0008CC
:10302000C32E0008C32E0008C32E0008C32E0008BC
:10303000C32E0008C32E0008C32E0008C32E0008AC
:10304000472F0008532F0008012395E7022393E739
:10305000114A936823EA0E0393609CE70E4AD368F3
:1030600023EA0E03D3609FE70B4A536823EA0E035B
:103070005360A2E7084A136823EA0E031360A5E72A
:1030800002B070BD0000221000003110001002409C
:10309000000001400008014000040140836819421B
:1030A00001D001207047002070470AB101617047CC
:1030B000090401617047000082B0084B1B68084A90
:1030C000A2FB03235B0A00FB03F3019300BF019BF8
:1030D0005A1E0192002BF9D102B070471000002057
:1030E000D34D6210002800F0F18170B582B0044623
:1030F000036813F0010F2CD0994B5B6803F00C03AD
:10310000042B1DD0964B5B6803F00C03082B12D0E8
:103110006368B3F5803F41D0002B55D103F1804364
:1031200003F504331A6822F480321A601A6822F414
:1031300080221A6037E08A4B5B6813F4803FE7D047
:10314000874B1B6813F4003F03D06368002B00F02B
:10315000BF81236813F0020F75D0814B5B6813F0B9
:103160000C0F5FD07E4B5B6803F00C03082B54D030
:103170002369002B00F08A807A4B01221A60FFF746
:1031800033FA0546764B1B6813F0020F75D1FFF733
:103190002BFA401B0228F5D903209EE1704A1368E0
:1031A00043F480331360636843B3FFF71DFA0546A9
:1031B0006B4B1B6813F4003FCBD1FFF715FA401B94
:1031C0006428F5D9032088E1B3F5A02F09D0644B1A
:1031D0001A6822F480321A601A6822F480221A6077
:1031E000E1E703F18043A3F53C331A6842F48022FF
:1031F0001A601A6842F480321A60D4E7FFF7F4F9D3
:103200000546574B1B6813F4003FA2D0FFF7ECF9BB
:10321000401B6428F5D903205FE1514B5B6813F430
:10322000803FA5D14E4B1B6813F0020F03D02369DA
:10323000012B40F04F814A4A136823F0F80361697B
:1032400043EAC1031360236813F0080F33D0A36966
:10325000002B5CD0434B0122C3F88024FFF7C4F954
:1032600005463F4B5B6A13F0020F21D1FFF7BCF913
:10327000401B0228F5D903202FE1394A136823F0B7
:10328000F803616943EAC1031360DCE7354B0022B0
:103290001A60FFF7A9F90546314B1B6813F0020FBE
:1032A000D1D0FFF7A1F9401B0228F5D9032014E182
:1032B0000120FFF701FF236813F0040F00F0968050
:1032C000274BDB6913F0805F34D1254BDA6942F07C
:1032D0008052DA61DB6903F080530193019B012581
:1032E000214B1B6813F4807F26D0E368012B3DD06F
:1032F000002B53D103F1804303F504331A6A22F003
:1033000001021A621A6A22F004021A6233E0154BB3
:103310000022C3F88024FFF767F90546104B5B6A6B
:1033200013F0020FC7D0FFF75FF9401B0228F5D951
:103330000320D2E00025D3E70B4A136843F48073DF
:103340001360FFF751F90646074B1B6813F4807FA3
:10335000CBD1FFF749F9801B6428F5D90320BCE0E5
:103360000010024000004242007000405F4A136AB1
:1033700043F001031362E36833B3FFF735F9064600
:103380005A4B1B6A13F0020F2FD1FFF72DF9801B48
:1033900041F288339842F3D903209EE0052B09D0EF
:1033A000524B1A6A22F001021A621A6A22F00402CF
:1033B0001A62E0E74D4B1A6A42F004021A621A6A76
:1033C00042F001021A62D6E7FFF70EF90646474BB4
:1033D0001B6A13F0020F08D0FFF706F9801B41F2B9
:1033E00088339842F3D9032077E0E5B9E369002BED
:1033F00072D03E4A526802F00C02082A56D0022BC4
:1034000017D03B4B00221A66FFF7EEF80446374B05
:103410001B6813F0007F47D0FFF7E6F8001B022877
:10342000F5D9032059E0314AD36923F08053D361A1
:10343000DCE72F4B00221A66FFF7D6F805462B4B28
:103440001B6813F0007F06D0FFF7CEF8401B022860
:10345000F5D9032041E0236AB3F5803F1AD0234910
:103460004B6823F47413226A606A024313434B606F
:103470001F4B01221A66FFF7B7F804461B4B1B6867
:1034800013F0007F0ED1FFF7AFF8001B0228F5D92B
:10349000032022E0154A536823F40033A1680B434C
:1034A0005360DCE7002018E0002016E0012B16D066
:1034B0000E4B5B6803F48031226A914211D103F410
:1034C0007013626A93420ED1002006E0012070471B
:1034D000012002E0012000E0002002B070BD0120C8
:1034E000FBE70120F9E70120F7E700BF00100240E9
:1034F000000042420F4B5B6803F00C02082A01D027
:103500000D487047C3F383420C49885C13F4803F35
:103510000BD0084B5B68C3F34043094AD35C064AAF
:1035200002FB00F0B0FBF3F07047064B03FB00F02A
:10353000704700BF0010024000127A00FCD900085A
:103540000CDA000800093D00002800F0A08070B5EA
:103550000D460446524B1B6803F007038B420BD207
:103560004F4A136823F007030B431360136803F0FB
:1035700007038B4240F08D80236813F0020F17D0B1
:1035800013F0040F04D0474A536843F4E0635360D8
:10359000236813F0080F04D0424A536843F4605381
:1035A0005360404A536823F0F003A1680B43536013
:1035B000236813F0010F31D06368012B20D0022B58
:1035C00025D0384A126812F0020F64D035494A6893
:1035D00022F0030213434B60FFF706F80646314B17
:1035E0005B6803F00C036268B3EB820F16D0FEF742
:1035F000FBFF801B41F288339842F0D9032045E05D
:10360000284A126812F4003FE0D101203EE0254A2A
:10361000126812F0007FD9D1012037E0204B1B68DF
:1036200003F00703AB420AD91D4A136823F00703CE
:103630002B431360136803F00703AB422DD12368BB
:1036400013F0040F06D0174A536823F4E063E168CF
:103650000B435360236813F0080F07D0114A5368D7
:1036600023F46053216943EAC1035360FFF742FF2B
:103670000C4B5B68C3F303130B4AD35CD8400B4B72
:1036800018600B4B1868FEF76BFF002070BD01201F
:1036900070470120FAE70120F8E70120F6E700BFB4
:1036A0000020024000100240E4D900081000002071
:1036B00018000020014B1868704700BF1000002060
:1036C00008B5FFF7F7FF044B5B68C3F30223034A17
:1036D000D35CD84008BD00BF00100240F4D90008F8
:1036E00008B5FFF7E7FF044B5B68C3F3C223034A47
:1036F000D35CD84008BD00BF00100240F4D90008D8
:1037000070B582B00446036813F0010F36D03F4B0A
:10371000DB6913F0805F49D13C4BDA6942F080529B
:10372000DA61DB6903F080530193019B0125384B7B
:103730001B6813F4807F3BD0344B1B6A13F4407337
:1037400013D0626802F440729A420ED02F4A136A74
:1037500023F440702F490126C1F840640026C1F8C7
:103760004064106213F0010F36D1284A136A23F423
:10377000407361680B431362002D3ED1236813F040
:10378000020F06D0214A536823F44043A1680B433B
:103790005360236813F0100F34D01C4A536823F48D
:1037A0008003E1680B43536000202CE00025BEE756
:1037B000174A136843F480731360FEF715FF06463B
:1037C000134B1B6813F4807FB6D1FEF70DFF801BEF
:1037D0006428F5D9032016E0FEF706FF06460B4BDA
:1037E0001B6A13F0020FC0D1FEF7FEFE801B41F2F0
:1037F00088339842F3D9032005E0D36923F080533E
:10380000D361BBE7002002B070BD00BF00100240D2
:10381000007000400000424208B502284ED0102837
:1038200003D0012828D0002008BD2B4B5A68186807
:1038300010F08070F8D0C2F383432849C85C12F4BA
:10384000803F15D0244B5B68C3F34043244AD25CCD
:10385000244BB3FBF2F303FB00F01F4B5B6813F444
:10386000800FE1D14000204BA3FB00304008DBE794
:103870001E4B03FB00F0F0E7174B1B6A40F20232CD
:103880001A40B2F5817F24D003F44073B3F5007F72
:1038900004D0B3F5407F09D00020C5E70E4A526A34
:1038A00012F0020FF5D049F64040BDE70A4B186808
:1038B00010F40030B8D04FF22440B5E7FFF710FF06
:1038C000054B5B68C3F3813301335B00B0FBF3F05E
:1038D000AAE74FF40040A7E70010024010DA000802
:1038E00020DA000800127A00ABAAAAAA00093D005B
:1038F00010B4036A046A24F001040462846924F0A9
:10390000F00C4CEA021223F00A030B4382610362BB
:1039100010BC704710B4036A046A24F010040462F7
:10392000846924F4704C4CEA023223F0A00343EA89
:1039300001138261036210BC7047836823F0700337
:103940000B4343F0070383607047000090F83D305D
:10395000DBB2012B22D1022380F83D300368114AEB
:10396000934210D0B3F1804F0DD0A2F59432934220
:1039700009D002F58062934205D01A6842F0010234
:103980001A60002070479A6802F00702062A07D0E2
:103990001A6842F001021A60002070470120704747
:1039A00000207047002C01400368196A41F211128F
:1039B000114208D1196A40F24442114203D11A68F7
:1039C00022F001021A60012380F83D300020704788
:1039D00003681B4A90420AD0B0F1804F07D0A2F58D
:1039E0009432904203D002F58062904203D123F0DA
:1039F00070034A681343124A90420AD0B0F1804FD4
:103A000007D0A2F59432904203D002F58062904232
:103A100003D123F44073CA68134323F080034A6937
:103A2000134303608B68C3620B688362044B984244
:103A300002D00123436170470B690363F9E700BFBC
:103A4000002C014040B310B5044690F83D30F3B16E
:103A5000022384F83D30214651F8040BFFF7B8FFEC
:103A6000012384F8463084F83E3084F83F3084F8EF
:103A7000403084F8413084F8423084F8433084F890
:103A8000443084F8453084F83D30002010BD80F883
:103A90003C30FEF7B1FCDBE70120704710B48468CE
:103AA00024F47F4C42EA03220A4342EA0C02826079
:103AB00010BC704790F83C30012B78D010B504460C
:103AC000012380F83C30022380F83D30026893687F
:103AD00023F47F4323F0770393600B68602B4CD073
:103AE00029D8402B54D00CD9502B22D1CA68496810
:103AF0000068FFF7FDFE50212068FFF71EFF002041
:103B000005E0202B0DD009D9302B0AD0012001234C
:103B100084F83D30002384F83C3010BD0BB1102BED
:103B200005D119462068FFF708FF0020EFE70120C4
:103B3000EDE70120EBE7B3F5805F34D0B3F5005F2C
:103B40000CD1CB684A6889680068FFF7A7FF226834
:103B5000936843F4804393600020D8E7702B24D10E
:103B6000CB684A6889680068FFF798FF2268936805
:103B700043F0770393600020C9E7CA68496800688A
:103B8000FFF7C8FE60212068FFF7D7FE0020BEE7E0
:103B9000CA6849680068FFF7ABFE40212068FFF75C
:103BA000CCFE0020B3E70020B1E70120AFE7022000
:103BB0007047000090F83C30012B2CD010B401234A
:103BC00080F83C30022380F83D3003685A689C68D6
:103BD00022F0700C0A6842EA0C025A6003680F4A2D
:103BE00093420AD0B3F1804F07D0A2F594329342AA
:103BF00003D002F58062934204D124F080044A6825
:103C000014439C60012380F83D30002380F83C3051
:103C1000184610BC70470220704700BF002C0140BE
:103C2000026802F10C0353E8003F23F490730C3256
:103C300042E800310029F3D1026802F1140353E88D
:103C4000003F23F00103143242E800310029F3D190
:103C5000036B012B05D0202380F84230002303633F
:103C60007047026802F10C0353E8003F23F0100391
:103C70000C3242E800310029F3D1ECE790F84130F2
:103C8000DBB2212B01D0022070478368B3F5805F3F
:103C900017D0036A5A1C02621A7803685A60C38CF0
:103CA0009BB2013B9BB2C3844BB90268D36823F03B
:103CB0008003D3600268D36843F04003D3600020E0
:103CC00070470369002BE4D1036A1B880268C3F3C1
:103CD00008035360036A02330362E0E710B5044649
:103CE0000268136923F44053C1680B43136183686E
:103CF0000269134342691A430168CB6823F4B05345
:103D000023F00C031343CB600268536923F4407320
:103D100081690B4353610268134B9A4220D0FFF72D
:103D2000CFFC024602EB820202EB820263689B0038
:103D3000B2FBF3F20D48A0FB02314909642303FBF7
:103D400011231B013233A0FB03235B0903F0F002B4
:103D500002EB011203F00F03216813448B6010BDC6
:103D6000FFF7BEFC0246DDE7003801401F85EB513E
:103D70002DE9F84305460F4616469946DDF82080A2
:103D80002C68246837EA04030CBF4FF0010C4FF095
:103D9000000CB4452DD1B8F1FF3FF1D0B8F1000FC0
:103DA00005D0FEF721FCA0EB09004045E8D92A68C0
:103DB00002F10C0353E8003F23F4D0730C3242E8C5
:103DC00000310029F3D12A6802F1140353E8003FBF
:103DD00023F00103143242E800310029F3D12023FB
:103DE00085F8413085F84230002385F840300320C3
:103DF00000E00020BDE8F88360B310B5044690F8F9
:103E0000413013B3242384F841302268D36823F46B
:103E10000053D3602046FFF761FF2268136923F443
:103E2000904313612268536923F02A035361226887
:103E3000D36843F40053D36000206064202384F8E7
:103E4000413084F84230606310BD80F84030FEF7A6
:103E500003FBD7E7012070472DE9F04182B01E46F1
:103E600090F84130DBB2202B4BD104460D469046F2
:103E700000294AD00AB9012044E0002343642123E9
:103E800080F84130FEF7B0FB0746A4F82480A4F880
:103E90002680A368B3F5805F02D04FF000080FE0E2
:103EA0002369FBB14FF000080AE038F8023B2268B2
:103EB000C3F308035360E28C92B2013A92B2E284F7
:103EC000E38C9BB28BB100963B46002280212046BA
:103ED000FFF74EFFD8B9002DE7D015F8012B236866
:103EE0005A60E8E7A8460025EAE700963B4600222C
:103EF00040212046FFF73CFF58B9202384F8413089
:103F000000E0022002B0BDE8F0810120FAE70320C2
:103F1000F8E70320F6E72DE9F04182B01E4690F85D
:103F20004230DBB2202B53D104460D469046002987
:103F300052D00AB901204CE000234364222280F8C9
:103F400042200363FEF750FB0746A4F82C80A4F838
:103F50002E80A368B3F5805F02D04FF0000817E011
:103F6000236913B14FF0000812E0A84600250FE0C6
:103F700023685B68C3F3080328F8023B03E0236867
:103F80005B682B700135E28D92B2013A92B2E28504
:103F9000E38D9BB2BBB100963B4600222021204618
:103FA000FFF7E6FED0B9002DE2D0A368B3F5805F3D
:103FB000E5D013B92369002BE1D023685B6803F0D7
:103FC0007F032B70DEE7202384F84230002000E0DE
:103FD000022002B0BDE8F0810120FAE70320F8E7F3
:103FE000704708B50168CA6822F04002CA60202202
:103FF00080F84120FFF7F4FF002008BD704708B5A6
:10400000406A0023C385C384FFF7F8FF08BD7047EB
:1040100090F84230DBB2222B69D18368B3F5805F20
:104020004FD0826AB3F5805F04D0002B56D103696C
:10403000002B53D103685B681370836A013383627A
:10404000C38D9BB2013B9BB2C385002B51D100B500
:1040500083B00268D36823F02003D3600268D3687A
:1040600023F48073D3600268536923F00103536122
:10407000202380F8423000234363036B012B33D1AC
:1040800000230363026802F10C0353E8003F23F0AE
:1040900010030C3242E800310029F3D103681A689A
:1040A00012F0100F06D0002201921A6801925B688C
:1040B0000193019B818DFFF7AAFF002003B05DF8FB
:1040C00004FB0269002AACD1826A03685B68C3F30F
:1040D00008031380836A02338362B1E703685B6875
:1040E00003F07F031370A8E7FDF7C0FFE5E70220A8
:1040F000704700207047000030B583B00446026866
:104100001368D068516913F00F0505D113F0200F23
:1041100002D010F0200F19D12DB111F0010119D1E9
:1041200010F4907F16D1216B01297DD013F0800F00
:1041300003D010F0800F40F0188113F0400F03D02F
:1041400010F0400F40F0158103B030BD2046FFF75E
:104150005FFFF9E713F0010F06D010F4807F03D062
:10416000626C42F00102626413F0040F04D019B1D2
:10417000626C42F00202626413F0020F04D019B1C3
:10418000626C42F00402626413F0080F07D010F072
:10419000200F00D119B1626C42F008026264626CB7
:1041A000002AD1D013F0200F02D010F0200F29D117
:1041B00023685B6903F04003626C12F0080F00D1C2
:1041C00063B32046FFF72CFD23685B6913F0400FB3
:1041D00020D0226802F1140353E8003F23F040038B
:1041E000143242E800310029F3D1E36B73B1634A22
:1041F0005A63E06BFEF7F4FD0028A5D0E06B436B3B
:104200009847A1E72046FFF703FFD1E72046FFF7D5
:10421000F5FE99E72046FFF7F1FE95E72046FFF708
:10422000EDFE002363648FE713F0100F3FF47EAFC1
:1042300010F0100F3FF47AAF00230193136801933D
:1042400053680193019B536913F0400F51D0E26B07
:1042500013685B689BB2002B3FF476AFA18D994247
:104260007FF672AFE3859369202B37D0226802F185
:104270000C0353E8003F23F480730C3242E8003112
:104280000029F3D1226802F1140353E8003F23F020
:104290000103143242E800310029F3D1226802F10F
:1042A000140353E8003F23F04003143242E8003186
:1042B0000029F3D1202384F84230002323632268AD
:1042C00002F10C0353E8003F23F010030C3242E8E4
:1042D00000310029F3D1E06BFEF75EFD022363633A
:1042E000A18DE38D9BB2C91A89B22046FFF78FFEDC
:1042F0002AE7A18DE38D9BB2C91A89B2E38D9BB2E7
:10430000002B3FF421AF00293FF41EAF226802F1D9
:104310000C0353E8003F23F490730C3242E8003062
:104320000028F3D1226802F1140353E8003F23F080
:104330000103143242E800300028F3D1202384F82E
:10434000423000232363226802F10C0353E8003F4C
:1043500023F010030C3242E800300028F3D102238E
:1043600063632046FFF753FEEEE62046FFF786FC28
:10437000EAE62046FFF735FEE6E600BFFF3F00080D
:1043800081628285C28500234364222380F8423003
:10439000036923B10268D36843F48073D360026871
:1043A000536943F0010353610268D36843F020036B
:1043B000D3600020704708B590F84230DBB2202B64
:1043C00008D149B10AB9012008BD00230363FFF7F2
:1043D000D7FFF9E70220F7E70120F5E738B50446F3
:1043E0000D4603681BB102230373002318E0012369
:1043F0000373084600F0A8FC2060C8B10023636086
:10440000A56003E022680021D1540133A2689A42DA
:10441000F8D80DE022684FF0000C02F803C0013319
:10442000A2689A42F6D800236360AA4200D22360B1
:1044300038BD10B50446037B012B05D00023236053
:104440006360A360237310BD006800F085FCF5E78E
:104450000346012004280ADC03F07F020A70DB090E
:1044600007D062F07F0201F8012B0130F2E74FF034
:10447000FF307047002313604FF0010C8B421BDAB2
:1044800010B5C45C04F07F04D2F800E00CFB04E437
:104490001460C456002C0ADA4FEACC1CBCF5001F8D
:1044A00007D201338B42ECDB4FF0FF3003E0581CA6
:1044B00001E06FF0010010BD4FF0FF3070470000C9
:1044C00030B583B004782409631EDBB20D2B26D8E7
:1044D0000546032C02D0204603B030BD00230193D3
:1044E00001AA04210130FFF7C5FF431CE818019A17
:1044F000012A12D9297811F0010F0ED1E95C437815
:1045000043EA012302339A4207D30649023001F0FD
:10451000F1F90028DFD00F24DDE7FF24DBE7FF24DB
:10452000D9E700BF24DA00082DE9F04383B0044640
:104530000F4616461D462F21063000F0BDFF002312
:104540000193002843D0814600F1010801AA04210B
:10455000601CFFF78FFF252000F0F6FB3860002875
:1045600037D02522002100F0ABFE40463C6809F11F
:104570002108D0F800C041688268C368C4F800C050
:104580006160A260E360103010344045F1D10368EF
:10459000236009F1250901982C3880B22880013068
:1045A00000F0D2FB306068B12A880132002100F0AF
:1045B00087FE2A8849463068FCF70CFC002003B0CF
:1045C000BDE8F083386800F0C7FB0320F7E701205F
:1045D000F5E70220F3E70346807858B9DA78142A21
:1045E00001D0FF2070471B79022B06D9802B03D105
:1045F00001207047FF20704702207047837823B95D
:10460000C3781E2B03D00120704701207047002083
:1046100070472DE9F04F85B000939DF83890DDF894
:1046200044800190002800F0E6800E4617460025E1
:1046300000E00135745D34B1232C00F0E1802B2CB7
:10464000F7D10224D8E00F9B8BB930230293009B53
:10465000EB1803F1020AB9F1010F0BD0B9F1020F07
:1046600000F08D80B9F1000F0AD00324C4E031239B
:104670000293ECE7029A42F00202029203F1040A6A
:10468000002F00F093803B78022B7FD100231A4645
:104690000133B95C7D29FAD1531D0393009AA3EB32
:1046A000020BD3440BF1030B59464046FFF796FE2D
:1046B000D8F80000002800F0A5805A46002100F03C
:1046C000FFFDD8F80020D8F80430591CC8F80410B1
:1046D0000299D154D8F80010D8F804301944504643
:1046E000FFF7B6FE002871DBD8F804300344C8F8A1
:1046F0000430D8F80020591CC8F80410C5F307216D
:10470000D154D8F80020D8F80430591CC8F8041047
:10471000D554D8F80000D8F804302A463146184459
:1047200000F05EFFD8F804301D44C8F80450B9F119
:10473000000F0FD0D8F800306A1CC8F80420019888
:10474000020A5A55D8F80020D8F80430591CC8F885
:104750000410D054002F4FD03B78022B3BD0D8F818
:104760000000D8F80430009D2A4639461844FCF76A
:1047700031FBD8F804302B44C8F804303CE0029AEE
:1047800042F00402029203F1040A79E70AF1050BF0
:1047900059464046FFF722FED8F80000A0B35A461B
:1047A000002100F08DFD002303938AE70AF1050B39
:1047B00059464046FFF712FED8F8000030B35A467B
:1047C000002100F07DFD002303937AE74046FFF7C8
:1047D00030FE052410E0D8F80000D8F80430039D1E
:1047E0002A4639461844FCF7F5FAD8F804302B4429
:1047F000C8F8043000E00124204605B0BDE8F08F81
:104800000224F9E70424F7E70424F5E70424F3E796
:104810004378022B06D1837833B9C3780A2B05D0AD
:104820000120704701207047012070470020704729
:104830004378022B06D1837833B9C3780A2B05D08D
:104840000120704701207047012070470020704709
:1048500038B505460C4604212046FFF7BFFD236806
:10486000BBB16268511C616062219954226863681F
:10487000591C61600221D15422686368591C61602F
:10488000290AD15422686368591C6160D5540020FC
:1048900038BD0120FCE74378022B09D18378B3EBC4
:1048A000112F07D1C378C9B28B4205D001207047C0
:1048B00001207047012070470020704738B5054639
:1048C0000C4604212046FFF789FD2368BBB16268CE
:1048D000511C61607021995422686368591C6160A1
:1048E0000221D15422686368591C6160290AD1549D
:1048F00022686368591C6160D554002038BD0120CE
:10490000FCE74378022B06D1837833B9C3780A2BAE
:1049100005D001207047012070470120704700201A
:104920007047000008B540220021034800F0C8FC91
:10493000024B00221A8008BDE80A0020280B002044
:10494000084B1B885BB1084A1288934203D0064A81
:104950001380012070470020024B1880704701200F
:10496000704700BF280B00202A0B0020F0B591B043
:1049700004460E4600F006FE174F80B20F900E94CC
:104980006C4607F110050FCD0FC40FCD0FC40FCD2E
:104990000FC495E8030084E8030097E80F00FDF7D3
:1049A0009FFDC82203E00A20FDF724FE2246531E85
:1049B000DCB27AB1FFF7C4FF05460028F3D13146D7
:1049C000064800F097FF0028EDD0FFF7ABFF284620
:1049D00011B0F0BD0125FAE79C0A0020E80A00208A
:1049E00070B598B005460C46FFF79CFF2246134968
:1049F00010A800F03FFD124910A8FFF7B7FF08B15B
:104A000018B070BD0F4E0F940E95EC4606F1100EC7
:104A1000BEE80F00ACE80F00BEE80F00ACE80F00E6
:104A2000BEE80F00ACE80F009EE803008CE803002E
:104A300096E80F00FDF754FDE2E700BF2CDA00080E
:104A40003CDA00089C0A002010B5044606E0052068
:104A5000FDF7D0FD631E9BB284B11C46FFF770FFCB
:104A60000028F4D10649074800F044FF0028EED0A2
:104A70003A2100F021FD10B1013000E0002010BD0E
:104A800040DA0008E80A0020F0B589B006460C4676
:104A900004AF002504950595069507950A4601463D
:104AA0000E4800F06BFC204600F06CFD03460397B7
:104AB00001220292019502220092224631460A20EA
:104AC000FFF7A7FD08B109B0F0BDBDF814100498B8
:104AD000FFF786FF3846FFF7ACFCF4E748DA00083A
:104AE00030B58BB0054600230693079308930993CE
:104AF00005930493ADF80E30FFF7E2FC0446031F64
:104B00000B2B07D8DFE803F033426283069206A43A
:104B100006060609FFF706FFC9E00DF10E0305AA18
:104B200004A92846FFF700FD05B2ADB1FFF7FAFE74
:104B3000B5F1FF3F00F0BB807D21059800F0BCFC83
:104B40000246002800F0AF80B5F1FF3F00F0AB80D7
:104B500001324FF0000C9DE0BDF80E30059A04992B
:104B6000574800F00BFC06A8FFF763FCDEE7284679
:104B7000FFF74EFE18B1FFF7D5FE0025DCE75148E0
:104B800000F05EFCFFF7CEFE0025D5E72846FFF7D4
:104B90004FFE18B1FFF7C6FE0025CDE74A4800F0EA
:104BA0004FFC06A90A20FFF753FE002866D14748AC
:104BB00000F046FCBDF81C100698FFF711FF06A890
:104BC000FFF737FCFFF7AEFE0025B5E700212846CA
:104BD000FFF761FE18B1FFF7A5FE0025ACE73C48E2
:104BE00000F02EFC06A90A20FFF768FE002841D13C
:104BF000384800F025FCBDF81C100698FFF7F0FEC1
:104C000006A8FFF716FCFFF78DFE002594E728465F
:104C1000FFF777FE18B1FFF785FE00258CE72E48D9
:104C200000F00EFCFFF77EFE002585E72846FFF723
:104C3000D2FC30B9294800F003FCFFF773FE0025D1
:104C40007AE7274800F0FCFBFFF76CFE002573E7CE
:104C50002846FFF7D3FC30B9224800F0F1FBFFF7FC
:104C600061FE002568E7204800F0EAFBFFF75AFEE6
:104C7000002561E7FFF756FE00255DE7FFF752FECE
:104C8000002559E701320CF128036B4403F8241C7A
:104C90000CF1010C1178A1F13003DBB2092BF1D931
:104CA00001A800F023F80F2C03D0032C01D00BB087
:104CB00030BD049800F050F8059800F04DF8F6E784
:104CC00068DA00088CDA0008A8DA0008C0DA000800
:104CD000D8DA0008F0DA000808DB000820DB00085A
:104CE0003CDB000858DB000874DB00080A220021C6
:104CF00000F044BF014B1868704700BF1C00002043
:104D000070B50D4E0D4D761BB61006D0002455F82B
:104D1000043B01349847A642F9D1094E094D08F0E9
:104D2000F5F9761BB61006D0002455F8043B013483
:104D30009847A642F9D170BDB4DF0008B4DF00087F
:104D4000BCDF0008B4DF0008024B0146186800F021
:104D50000BB800BF1C000020024B0146186805F08C
:104D600097BC00BF1C0000202DE9F04F01F10B059E
:104D7000162D064683B025D8102900F2B88000F021
:104D8000F1FA102518224FF0020CB54F3A4453683F
:104D9000A2F108018B4200F0B7805A68D96822F06E
:104DA00003021A449C683046E1608C60516803F14C
:104DB000080441F00101516000F0DAFA204603B026
:104DC000BDE8F08F35F0070500F19180A94200F2AF
:104DD0008E8000F0C7FAB5F5FC7FC0F094816B0AB5
:104DE00000F08C80042B00F26A81AB0903F1390CCE
:104DF00003F138044FEACC00994F3844436808382F
:104E0000984206D10CE0002980F22681DB689842A6
:104E100006D05A6822F00302511B0F29F3DDA44685
:104E20003C69DFF840E274457AD0626822F0030200
:104E3000531B0F2B00F37681002BC7E904EE80F2A1
:104E40006781B2F5007F80F019810121D3085209F2
:104E50000B4491407A6857F833000A4307EBC301CB
:104E60000839A060E1607A6047F83340C4600121EE
:104E70004FEAAC039940914259D8114206D12CF027
:104E8000030C490011420CF1040CFAD007EBCC09D9
:104E900048466446D0F80C80404508D11CE1002B00
:104EA00080F22181D8F80C80404500F01581D8F8B7
:104EB000042022F00302531B0F2BF0DD08EB050149
:104EC00045F00105C8F804503046D8E90264F460A2
:104ED000A66043F00104C7E904114C60C1E902EE89
:104EE00048F8023000F044FA08F1080402E00C230C
:104EF00000243360204603B0BDE8F08F4FF400700B
:104F00004FF0400C3F2477E7D3689A4208BF0CF17A
:104F1000020C7FF442AF3C69DFF848E1744584D16C
:104F200001217A684FEAAC0399409142A5D9BC6847
:104F3000636823F003094D4503D8A9EB05030F2B44
:104F40007ADCDFF824B1494BDBF800201B68013222
:104F50002B4404EB090A00F02F8103F580530F3333
:104F600023F47F6828F00F084146304600F070FABD
:104F7000411C024600F0EF80824500F2EA803C4B83
:104F8000196841440846196000F04981DBF80010B7
:104F9000019301311BBFA2EB0A0A5044CBF8002059
:104FA000186012F0070B00F01181CBF108010A44E0
:104FB000CBF5805190440831A1EB0801C1F30B0AF5
:104FC00051463046009200F043FA421CDDE90023CE
:104FD00000F04B81801A00EB0A08196848F00100C4
:104FE0005144BC42BA601960506000F02481B9F1AC
:104FF0000F0F40F222814FF0050E6068A9F10C0CF2
:105000002CF0070C00F0010040EA0C006060BCF1DD
:105010000F0F04EB0C00C0E901EE00F22E811446E4
:105020005068144B1A688A4238BF1960124B1A68CC
:105030008A4238BF196090E0621943F0010345F0DD
:10504000010565603046BA600834536000F090F99D
:10505000204603B0BDE8F08FD9681A44A2E600BF2D
:10506000480400205004002050080020600B00205D
:10507000300B0020580B00205C0B0020B2F5206F95
:105080004FEA52235FD3142B00F2B18003F15C018D
:10509000C9005B33781879580838884200F08F804F
:1050A0004B6823F00303934202D989688842F7D101
:1050B000C8687A68C4E902108460CC60D7E6142B13
:1050C00059D9542B00F29B802B0B03F16F0C03F189
:1050D0006E044FEACC008FE60134A30700F108000C
:1050E0007FF4D8AE53E0444642445368D8F80C10DD
:1050F00043F00103536054F8083F3046D9608B6099
:1051000000F036F9F6E64FEAD50C05F108023CE668
:1051100022445368304643F00103536000F028F9FD
:105120000834E7E6611945F00105656043F00105C3
:10513000C7E904113046C1E902EE4D60A35000F00A
:1051400017F90834D6E6930903F13901C900383359
:10515000A0E7BC425ED0BC68606820F0030845450B
:10516000A8EB050302D80F2B3FF766AF304600F0DF
:10517000FFF80024BEE603F15C0C03F15B044FEA88
:10518000CC0039E659F808394B4540F095801CF0C1
:10519000030F0CF1FF3CF5D17B6823EA01037B6030
:1051A000490099423FF6C3AE11B9C0E64900043444
:1051B0001942FBD0A44669E603F11008D4E60122A7
:1051C0009B109A407B681A437A6073E702EB0801F0
:1051D0004942C1F30B0A51463046009200F038F9BB
:1051E000431CDDE900237FF4F5AEDA46F5E6542BE7
:1051F00026D8130B03F16F01C9006E334AE7B3F5EC
:10520000AA7F26D8EB0B03F1780C03F177044FEA61
:10521000CC00F1E5294B186840441860B6E6CAF3A3
:105220000B0CBCF1000F7FF4B1AEBC68C84448F071
:1052300001006060F5E61446F3E60123536095E74C
:10524000B3F5AA7F24D8D30B03F17801C9007733D3
:1052500020E740F25452934224D8AB0C03F17D0C6A
:1052600003F17C044FEACC00C6E5ABF1080BD8444F
:105270004FF0000AA8EB0208AFE604F1080130463F
:10528000009305F005FABC68009B60681968C8E6E1
:1052900040F254518B420BD8930C03F17D01C900AD
:1052A0007C33F7E64FF47E704FF07F0C7E24A3E54D
:1052B0004FF47E717E23EDE67B6871E7300B0020B2
:1052C000830730B548D0541E002A3FD00346CAB2E7
:1052D00001E0013C3AD303F8012B9D07F9D1032CDF
:1052E0002DD9CDB245EA05250F2C45EA054536D91D
:1052F000A4F1100222F00F0C03F1200EE6444FEA55
:10530000121C03F1100242E9045542E90255103221
:105310007245F8D10CF1010214F00C0F03EB0212EC
:1053200004F00F0C13D0ACF1040323F00303043397
:10533000134442F8045B9342FBD10CF003042CB1FC
:10534000CAB21C4403F8012B9C42FBD130BD644619
:105350001346002CF4D1F9E703461446BFE71A467A
:10536000A446E0E7014805F037BC00BF680B002009
:10537000014805F033BC00BF680B00200FB400B536
:10538000074A83B004AB106853F8042B816801937B
:1053900002F05CF903B05DF804EB04B0704700BFA5
:1053A0001C00002030B5054689B008460C4600F0C8
:1053B000E9F801210223214A04940692AA6B04AC65
:1053C0000590084401940791AC680293039022B3BE
:1053D000636E13F0010FB4F90C309AB201D1980545
:1053E00025D5910406D4626E43F4005322F4005292
:1053F000A3816266284601AA214605F049FA636E38
:10540000002814BF4FF0FF350A25DA0702D4A3891C
:105410009B0506D5284609B030BD284605F040F862
:10542000D6E7A06D05F0DAFB284609B030BDA06DC7
:1054300005F0D2FBB4F90C309AB2D2E788DA000852
:10544000024B01461868FFF7ADBF00BF1C000020EB
:10545000002238B5064D044608462A60FCF76EFF68
:10546000431C00D038BD2B68002BFBD0236038BD17
:10547000740B00200EB430B504466FF000459CB0AC
:105480000B4A1FAB0B49059253F8042B086802A97D
:10549000CDE9013407950495069400F085FB0022C0
:1054A000029B1A701CB0BDE8304003B0704700BFCB
:1054B0000802FFFF1C00002011F0FF01034644D04A
:1054C000820732D110B5046841EA012E4EEA0E4E31
:1054D0008EEA0402A2F1013323EA0203A4F10132AD
:1054E00022EA0402134313F0803F0FD150F8044F17
:1054F00084EA0E0CA4F10133ACF1013223EA040377
:1055000022EA0C02134313F0803FEFD0037823B953
:1055100036E010F8013F002B32D09942F9D110BD8E
:105520008A4211D09A071846CCD0184613F8012B9E
:10553000002AF5D1104670479907184607D018463B
:1055400002780133002AF7D170478207F7D1026849
:10555000A2F1013323EA020313F0803F08D150F88F
:10556000042FA2F1013323EA020313F0803FF6D0A7
:105570000378002BE8D010F8013F002BFBD17047D7
:10558000184610BD20F0030110F00300C0F1000028
:1055900051F8043B00F1040C4FEACC0C6FF0000210
:1055A0001CBF22FA0CF213434FF0010C4CEA0C2CF6
:1055B0004CEA0C4CA3EB0C0222EA030212EACC12D6
:1055C00004BF51F8043B0430F4D0C2F1000102EAF8
:1055D0000102B2FA82F2C2F11F0200EBD200704760
:1055E000830730B428D10468A4F1013323EA04030B
:1055F00013F0803F034608D153F8045FA5F101344E
:1056000024EA050414F0803FF6D01C781CB113F88E
:10561000014F002CFBD19C4601391344634509D04E
:1056200011F8012F0CF8012B22B19C45F6D1002373
:105630008CF8003030BC70470346E6E72DE9F04FA8
:10564000012B1D4681460F469046ADF21C4D40F29F
:105650004781012300219C464FF0FF341A4606E0A3
:1056600019460122A3EB040C8B189D4210D908EBBC
:105670000400805C18F803608642F1D300F081805A
:105680004FF0010C62460C4661448B189D42EED8E7
:10569000CDF808C04FF0010C00204FF0FF366146F6
:1056A000634606E018460121A3EB060C43189D4211
:1056B0000FD908EB010218F803E0925D9645F1D886
:1056C00065D04FF0010C61460646604443189D4288
:1056D000EFD8013604F1010BB34502D8B346CDF83B
:1056E00008C005AB0DF2144243F8045F9342FBD1AE
:1056F000002D00F0FA806C1E06AE08F1FF3208EBB8
:105700000400019612F8011FD3432B4443449042F6
:1057100046F82130F6D1029E5A46404608EB060173
:1057200005F016FB002840F083800BF1FF33059352
:105730008246AB1B0646039309EB060E1EF80430A7
:10574000019A52F8233043B3BAF1000F04D0029A01
:105750009342039A38BF13464FF0000A1E447B1B46
:10576000B342E9D209EB070045F4006106F0E4F921
:1057700007447B1BB342DFD200200DF21C4DBDE875
:10578000F08F94450ABF0122013261446CE7614504
:105790000ABF40180131012188E7D3455B4638BF75
:1057A0005346A34214D2591E9A1941444A4402E076
:1057B0000133A3420CD212F8010B11F801CF84453A
:1057C000F6D0CBF1010216444FF0000A1E44C6E7A2
:1057D000D345059B7DD90BEB06024A4408EB0B0130
:1057E000CDF810B002E0534516D0034612F8010D73
:1057F00011F801CD03F1010B844503F1FF30F2D024
:105800005B46DDF810B00AF1010A9A450BD8029BFD
:10581000DDF80CA01E44A2E753460AF1010A9A459E
:10582000DDF810B0F3D970460DF21C4DBDE8F08FD5
:10583000A5EB0B035B4538BF5B4600260BF1FF323F
:1058400002920133CBF10102039245F4006A049302
:1058500009EB060E1EF80430019A52F823306BB1A2
:105860001E447B1B9E42F3D909EB0700514606F00C
:1058700063F907447B1B9E42EAD97DE7A34513D217
:1058800002990BEB06025B464A44414402E00133B5
:10589000A34209D212F8010B11F801CF8445F6D0CA
:1058A000039A16441E44DCE7BBF1000F13D00BEB48
:1058B0000601494408EB0B0202E0013B43450AD0D4
:1058C000134611F8010D12F801CD8445F5D0049B63
:1058D000C6E75B4697E770460DF21C4DBDE8F08FBA
:1058E00001234FF0000B0293FBE606AB4FF0FF34B1
:1058F000019310E72DE9F0410D460978044690B078
:10590000002953D06A78002A00F08380AB78002BFE
:1059100050D0E878002800F083802B79002B57D0F6
:105920002846FFF72FFE0646204646F4007106F093
:1059300003F986425CD8FE2E00F28780801B271870
:1059400040226846711CFFF7BBFC7EB16A1E5FFAFD
:1059500086FC901912F8013F03F03F034033A91A67
:105960006B446144824203F8401CF3D1013CA35DC7
:1059700003F03F0340336B4413F8400C0444A74248
:1059800003D23AE04444A74237D314F806C0204675
:105990000CF03F0C0CF140030DEB030C3246294692
:1059A0001CF8408C05F0D4F90028EBD1204610B04B
:1059B000BDE8F081007842EA014200E00C4640EA8E
:1059C0000343611CA0B19A426078F7D1013CEDE736
:1059D00022786AB1296809BA01E099421ED02046AE
:1059E00042EA032314F8012F002AF6D1994215D078
:1059F0000024204610B0BDE8F081BB5DB819002B33
:105A0000F6D04FF4006106F097F80744BC42ADD9D8
:105A1000EEE710B0BDE8F041FFF74EBDC41EC5E78C
:105A2000120442EA016242EA03230146207800E0C0
:105A30002C4640EA0102651C11020028D8D0B3EBC5
:105A4000022F6078F4D1023CB0E7014633462A4683
:105A5000204610B0BDE8F041FFF7F0BD2DE9F04F52
:105A600081468E46444D70461EF801CB15F80C4019
:105A700014F00804F7D1BCF12D0FE34653D06FF0BA
:105A80000048BCF12B0F04BF9EF800B000F1020EDD
:105A90001BB1102B4FD01F4604E0BBF1300F55D087
:105AA0000A231F460025B8FBF7F6284607FB168A8F
:105AB00007E0864215D329D0012507FB00C01EF858
:105AC00001BBABF1300CBCF1090F06D9ABF1410CB5
:105AD000BCF1190F08D8ABF1370C63450DDD002D73
