:020000040800F2
:1000000000500020410B0008E1090008E309000846
:10001000E5090008E7090008E909000800000000F8
:10002000000000000000000000000000EB090008D4
:10003000ED09000800000000EF090008F1090008C0
:10004000890B0008890B0008890B0008890B000840
:10005000890B0008890B0008890B0008890B000830
:10006000890B0008890B0008890B0008890B000820
:10007000890B0008890B0008890B0008890B000810
:10008000890B0008890B0008890B0008890B000800
:10009000890B0008890B0008890B0008890B0008F0
:1000A000890B0008890B0008890B0008890B0008E0
:1000B000890B0008890B0008890B0008890B0008D0
:1000C000890B0008890B0008890B0008890B0008C0
:1000D000890B0008890B0008890B0008890B0008B0
:1000E000890B0008890B0008890B0008000000003C
:1000F0000000000000000000000000000000000000
:0C01000000000000000000005FF808F1A3
:10010C0010B5054C237833B9044B13B10448AFF345
:10011C0000800123237010BD3C040020000000006F
:10012C00481F000808B5034B1BB103490348AFF344
:10013C00008008BD0000000040040020481F00089B
:10014C0038B50446094803685D6A01F02DFC074B7D
:10015C001B685B6AAAB29B1AA342F8D3034C2046D5
:10016C0001F050FC236800225A6238BD880400203C
:10017C0000B585B001230093002301936946034821
:10018C0000F00CFF05B05DF804FB00BF0008014057
:10019C0000B585B0012300930193032303936946B3
:1001AC00024800F0FBFE05B05DF804FB00080140BE
:1001BC0010B5FFF7EDFF094C00220121204601F09C
:1001CC0006F840F2EE20FFF7BBFF01221146204655
:1001DC0000F0FDFF0F20FFF7B3FF10BD000801403A
:1001EC0010B5FFF7C5FF00240121124800F0E8FF0D
:1001FC0038B1C72C05D80134E4B20120FFF7A0FFB9
:10020C00F2E7C72C11D8002404E00134E4B2012039
:10021C00FFF796FF0121074800F0D2FF08B9EF2C39
:10022C00F3D9EF2C03D8002010BD0120FCE70220ED
:10023C00FAE700BF0008014000B585B02023009309
:10024C00012301930293032303936946044800F0AE
:10025C00A5FEFFF7ADFFFFF7C3FF05B05DF804FB8C
:10026C000008014008B509E00C230C4A00211820B5
:10027C0000F03AF94FF4FA7000F0CCFCFFF7DCFF19
:10028C000028F1D10C23064A0221184600F02CF963
:10029C004FF47A7000F0BEFC08BD00BF601F000870
:1002AC00701F000810B50B4C01220821204600F0ED
:1002BC008EFF01221021204600F089FF0022102120
:1002CC00204600F084FF00220821204600F07FFF2A
:1002DC0010BD00BF000C014010B5084C01220821D4
:1002EC00204600F074FF00221021204600F06FFF22
:1002FC0001221021204600F06AFF10BD000C0140C5
:10030C0010B5064C01220821204600F060FF0022A7
:10031C000821204600F05BFF10BD00BF000C01401F
:10032C0070B5044600220821124800F050FF002549
:10033C0013E0002210210F4800F049FF6400E4B2E2
:10034C000C4E01220821304600F041FF002208210A
:10035C00304600F03CFF0135EDB2072D08D814F003
:10036C00800FE6D001221021024800F030FFE5E7B3
:10037C0070BD00BF000C014010B50446FFF792FFA2
:10038C007820FFF7CDFFFFF7BBFF0020FFF7C8FF7A
:10039C00FFF7B6FF2046FFF7C3FFFFF7B1FFFFF7EC
:1003AC009BFF10BD10B50446FFF77CFF7820FFF7CC
:1003BC00B7FFFFF7A5FF4020FFF7B2FFFFF7A0FF45
:1003CC002046FFF7ADFFFFF79BFFFFF785FF10BD42
:1003DC0008B519B1C0B2FFF7E5FF08BDC0B2FFF711
:1003EC00CBFFFAE710B5044608460021B030FFF702
:1003FC00EFFF0234C4F30310002140F01000FFF7AC
:10040C00E7FF002104F00F00FFF7E2FF10BD38B545
:10041C0000250AE001210020FFF7DAFF0134E4B2E5
:10042C0014F0800FF6D00135EDB2072D0ED8002157
:10043C0005F1B000FFF7CCFF00210220FFF7C8FF49
:10044C0000211020FFF7C4FF0024E9E738BD0000AD
:10045C00F8B507460E46203AD5B210F0800F07D1FA
:10046C00102B09D031463846FFF7BCFF002433E08F
:10047C000236F6B20027F3E731463846FFF7B2FFF3
:10048C00002408E004EB05130121154AD05CFFF7AA
:10049C009FFF0134E4B2072CF4D9711CC9B2384661
:1004AC00FFF7A0FF002409E004EB0513083301213A
:1004BC000B4AD05CFFF78CFF0134E4B2072CF3D964
:1004CC000CE005EB4503074A02EB43030121185DE1
:1004DC00FFF77EFF0134E4B2052CF2D9F8BD00BF62
:1004EC00A42100087C1F00082DE9F04104460E46AB
:1004FC0017469846002501E00135EDB27A5D62B1F0
:10050C00434631462046FFF7A3FF0834E4B2782C6B
:10051C00F2D90236F6B20024EEE7BDE8F081000015
:10052C0070B586B000240294039404940594464B51
:10053C009A6942F008029A619B6903F008030193DF
:10054C00019B424E22461821304600F040FE1823F3
:10055C0002930123039304930225059502A93046C7
:10056C0000F01CFD0A2000F055FB2146AE20FFF7E1
:10057C002FFF21462846FFF72BFF21461020FFF7BF
:10058C0027FF21464020FFF723FF2146B020FFF72D
:10059C001FFF21468120FFF71BFF2146FF20FFF79D
:1005AC0017FF2146A120FFF713FF2146A620FFF7D6
:1005BC000FFF2146A820FFF70BFF21463F20FFF736
:1005CC0007FF2146C820FFF703FF2146D320FFF782
:1005DC00FFFE21462046FFF7FBFE2146D520FFF704
:1005EC00F7FE21468020FFF7F3FE2146D820FFF7C7
:1005FC00EFFE21460520FFF7EBFE2146D920FFF741
:10060C00E7FE2146F120FFF7E3FE2146DA20FFF753
:10061C00DFFE21461220FFF7DBFE2146DB20FFF731
:10062C00D7FE21463020FFF7D3FE21468D20FFF761
:10063C00CFFE21461420FFF7CBFE2146AF20FFF75B
:10064C00C7FE06B070BD00BF00100240000C014098
:10065C0000B585B000230193029303931048114A0F
:10066C0002608360037303754FF46022C2614360C0
:10067C000123036100F0B0FB60B9012301930293E5
:10068C000023039301A9064800F0D8FA28B905B055
:10069C005DF804FB00F0D6F8EFE700F0D3F8F6E7CE
:1006AC00580400200024014000B587B000230293B9
:1006BC000393049305930268114B9A4202D007B03E
:1006CC005DF804FB03F56C439A6942F400729A617D
:1006DC009A6902F400720092009A9A6942F004023C
:1006EC009A619B6903F004030193019B022302931B
:1006FC000323039302A9034800F050FCDFE700BF7B
:10070C0000240140000801402DE9F04389B0002489
:10071C000494059406940794454B9A6942F0100290
:10072C009A619A6902F010020092009A9A6942F05A
:10073C0020029A619A6902F020020192019A9A6948
:10074C0042F004029A619A6902F004020292029A3F
:10075C009A6942F008029A619B6903F008030393BB
:10076C00039BDFF8D09022464FF40051484600F02E
:10077C002EFDDFF8C480224648F22171404600F07D
:10078C0026FD2E4F224646F61A41384600F01FFD34
:10079C0001224FF40061404600F019FD4FF4005364
:1007AC0004930125059506940226079604A948464C
:1007BC0000F0F4FB48F22133049305950694079658
:1007CC0004A9404600F0EAFB04951D4B05930694E2
:1007DC0004A9384600F0E2FB0496059506944FF008
:1007EC000309CDF81C9004A9384600F0D7FB04236C
:1007FC0004930594069504A9384600F0CFFB46F601
:10080C001843049305950694079604A9384600F0FE
:10081C00C5FB4FF44063049305950696CDF81C90E8
:10082C0004A9404600F0BAFB09B0BDE8F08300BF54
:10083C00001002400010014000080140000C014073
:10084C000000111072B6FEE700B595B02822002109
:10085C000DEB020001F0B0FA002305930693079309
:10086C0008930993019302930393049301220A9230
:10087C004FF480330B930E920222119212934FF489
:10088C00E01313930AA800F0C7FCC8B90F23059313
:10089C0002210691002307934FF48062089209937A
:1008AC0005A800F0EBFE68B9022301934FF4004356
:1008BC00039301A800F0BEFF30B915B05DF804FB3E
:1008CC00FFF7C0FFFFF7BEFFFFF7BCFF30B587B0E7
:1008DC0001AC2B4D0FCD0FC42B68236000F076F9C3
:1008EC00FFF7B2FFFFF710FF00F0D0F8FFF7B0FEF4
:1008FC0000F07EF8FFF714FEFFF7B4FCFFF787FD5E
:10090C00204D01224FF48071284600F060FC1E4CF3
:10091C0000224FF40051204600F059FC01224FF404
:10092C000071284600F053FC01224FF48041204610
:10093C0000F04DFC134C4FF48061204600F04DFC50
:10094C004FF40051114800F048FC4FF480712046E0
:10095C0000F043FC0C4D4FF40051284600F03DFCD8
:10096C004FF40071204600F038FC4FF480412846CB
:10097C0000F033FC4FF47A7000F04CF9DAE700BF6A
:10098C00A827000800080140000C0140001001409D
:10099C0082B00E4B9A6942F001029A619A6902F098
:1009AC0001020092009ADA6942F08052DA61DB6946
:1009BC0003F080530193019B054A536823F0E063D5
:1009CC0043F00073536002B0704700BF0010024048
:1009DC0000000140FEE7FEE7FEE7FEE7FEE770479A
:1009EC007047704708B500F003F908BD7047000068
:1009FC0000B587B0002302930393049305930093EF
:100A0C0001931548154A02604722426083604FF6F5
:100A1C00FF72C26003614361836101F041F890B9D8
:100A2C004FF48053029302A90B4801F071F868B996
:100A3C000023009301936946074801F0E9F840B997
:100A4C0007B05DF804FBFFF7FDFEE9E7FFF7FAFEE0
:100A5C00EEE7FFF7F7FEF3E788040020002C0140D7
:100A6C000268094B9A4200D0704782B003F5644388
:100A7C009A6942F400629A619B6903F400630193E2
:100A8C00019B02B0704700BF002C014008B50A481A
:100A9C000A4B03604FF4E133436000238360C3606F
:100AAC0003610C2242618361C36101F031F900B929
:100ABC0008BDFFF7C7FEFBE7D00400200044004050
:100ACC0010B586B000230293039304930593026838
:100ADC00164B9A4201D006B010BD03F5E633DA6925
:100AEC0042F40032DA61DA6902F400320092009AC0
:100AFC009A6942F004029A619B6903F00403019322
:100B0C00019B042302930223039303230593084CB4
:100B1C0002A9204600F042FA082302930023039313
:100B2C00049302A9204600F039FAD4E700440040AF
:100B3C0000080140FFF75AFF0B480C490C4A0023F0
:100B4C0002E0D458C4500433C4188C42F9D3094A77
:100B5C00094C002301E013600432A242FBD301F0E4
:100B6C0007F9FFF7B3FE7047000000203C0400209B
:100B7C00F82700083C04002020050020FEE70000B8
:100B8C0010B504460E4B18784FF47A73B3FBF0F3A0
:100B9C000C4A1068B0FBF3F000F0ECF968B90F2CBC
:100BAC0001D901200AE0002221464FF0FF3000F06D
:100BBC00A9F9054B1C60002000E0012010BD00BF0E
:100BCC0004000020000000200800002008B5074A9F
:100BDC00136843F010031360032000F081F90F2019
:100BEC00FFF7CEFFFFF7D4FE002008BD0020024027
:100BFC00034A1168034B1B780B441360704700BF0A
:100C0C001805002004000020014B1868704700BF35
:100C1C001805002038B50446FFF7F6FF0546B4F179
:100C2C00FF3F02D0044B1B781C44FFF7EDFF401B29
:100C3C00A042FAD338BD00BF0400002030B482B00B
:100C4C000022019290F82420012A00F091800346A2
:100C5C00012280F824204A68062A2DD80468606B8B
:100C6C0002EB8202053A4FF01F0C0CFA02FC20EA50
:100C7C000C000D6805FA02F2024362630A68092A45
:100C8C003AD91C68E06802EB42021E3A4FF0070C9E
:100C9C000CFA02FC20EA0C008D6805FA02F2024301
:100CAC00E2600A68103A012A36D90020002283F843
:100CBC00242002B030BC70470C2A0ED80568286B73
:100CCC0002EB8202233A1F24944020EA04000C68B1
:100CDC0004FA02F202432A63D0E70568E86A02EBE1
:100CEC008202413A1F24944020EA04000C6804FA62
:100CFC0002F20243EA62C1E71C68206902EB42027D
:100D0C004FF0070C0CFA02FC20EA0C008D6805FA77
:100D1C0002F202432261C4E71A681648824205D0E7
:100D2C009A6A42F020029A620120BFE7906810F4A0
:100D3C00000F1BD1906840F4000090600A68102AE4
:100D4C0001D00020B2E70C4A12680C49A1FB021238
:100D5C00920C02EB82025200019202E0019A013ADB
:100D6C000192019A002AF9D100209FE700209DE70B
:100D7C0002209EE7002401400000002083DE1B437C
:100D8C0038B503689A6812F0010F01D1002038BD04
:100D9C0004469A6822F001029A60FFF735FF054677
:100DAC0023689B6813F0010F13D0FFF72DFF431B33
:100DBC00022BF5D923689B6813F0010FF0D0A36ABE
:100DCC0043F01003A362E36A43F00103E3620120E2
:100DDC00DDE70020DBE7000000287BD070B504467F
:100DEC00836A002B4DD02046FFF7CAFFA36A13F08D
:100DFC00100369D1002867D1A26A22F4885222F02C
:100E0C00020242F00202A2626268E1690A43217B9B
:100E1C0042EA4102A568B5F5807F02D0012D36D09B
:100E2C001D46267D012E35D02668716821F4694156
:100E3C00294371602568AE68274931401143A96088
:100E4C00A168B1F5807F01D0012902D12369013B52
:100E5C001B052568E96A21F470010B43EB622368DA
:100E6C0099681E4B0B409A4225D0A36A23F01203BB
:100E7C0043F01003A362E36A43F00103E362012031
:100E8C0027E0C36280F82430FFF70EFCABE74FF489
:100E9C008075C6E731B9A169013945EA413141F4A0
:100EAC000065C1E7A16A41F02001A162E16A41F04D
:100EBC000101E162B8E70023E362A36A23F00303B4
:100ECC0043F00103A36204E0A36A43F01003A3629E
:100EDC00012070BD01207047FDF7E1FFFE0E1FFFE2
:100EEC00074AD36823F4E0631B041B0C000200F4D4
:100EFC00E060034343F0BF6343F40033D3607047B7
:100F0C0000ED00E000B5194BDB68C3F30223C3F11D
:100F1C00070CBCF1040F28BF4FF0040C03F1040EB6
:100F2C00BEF1060F18D9033B4FF0FF3E0EFA0CFC36
:100F3C0021EA0C0199400EFA03F322EA0303194348
:100F4C0000280BDB0901C9B200F1604000F56140DB
:100F5C0080F800135DF804FB0023E5E700F00F00B8
:100F6C000901C9B2024B1954F4E700BF00ED00E0CF
:100F7C0014ED00E00138B0F1807F0BD24FF0E0238C
:100F8C005861054AF02182F823100020986107224D
:100F9C001A6170470120704700ED00E070B582B017
:100FAC000024A446A6E0804DAA4210D007D97F4D5C
:100FBC00AA420CD005F58035AA4208D013E0A5F55D
:100FCC008015AA4203D005F57025AA4207D18A687C
:100FDC00002A58D0012A51D04361082403E0A5F51A
:100FEC008015AA42F3D0BEF1FF0F4ED80646BEF1D3
:100FFC00FF0F4CD84FEA8C0233680F25954023EA3B
:10100C00050304FA02F2134333604B6813F0805F5C
:10101C006ED0674B9A6942F001029A619B6903F0AA
:10102C0001030193019B4FEA9C02951C614B53F801
:10103C0025600CF003039D000F23AB4026EA03064A
:10104C005D4B984229D003F58063984200F08E8066
:10105C0003F58063984200F08B8003F5806398421F
:10106C0019D004231AE0CC68BDE7CC680434BAE785
:10107C00CC680834B7E7CC680C34B4E703610824B7
:10108C00B1E70024AFE70424ADE7061DAFE7ACF1F0
:10109C0008029200B0E7032300E00023AB40334387
:1010AC000232444D45F822304B6813F4801F61D056
:1010BC00424A936843EA0E0393604B6813F4001F93
:1010CC005ED03E4AD36843EA0E03D3604B6813F4F8
:1010DC00003F5BD0394A536843EA0E0353604B68B8
:1010EC0013F4803F58D0354A136843EA0E0313605B
:1010FC000CF1010C0A6832FA0CF353D0012303FAF9
:10110C000CF302EA030E33EA0202F1D14A68122A06
:10111C003FF649AF122A3FF666AF01A555F822F00B
:10112C00DB0F0008731000087D1000088F100008FA
:10113C00F30F0008F30F0008F30F0008F30F00087B
:10114C00F30F0008F30F0008F30F0008F30F00086B
:10115C00F30F0008F30F0008F30F0008F30F00085B
:10116C00F30F00087710000883100008012395E79F
:10117C00022393E7114A936823EA0E0393609CE7DA
:10118C000E4AD36823EA0E03D3609FE70B4A5368D9
:10119C0023EA0E035360A2E7084A136823EA0E03FE
:1011AC001360A5E702B070BD0000221000003110E2
:1011BC000010024000000140000801400004014002
:1011CC008368194201D001207047002070470AB192
:1011DC0001617047090401617047C36801EA0302A9
:1011EC0021EA030141EA02410161704782B0084BD8
:1011FC001B68084AA2FB03235B0A00FB03F3019361
:10120C0000BF019B5A1E0192002BF9D102B070470E
:10121C0000000020D34D6210002800F0F18170B561
:10122C0082B00446036813F0010F2CD0994B5B6815
:10123C0003F00C03042B1DD0964B5B6803F00C03DE
:10124C00082B12D06368B3F5803F41D0002B55D1E9
:10125C0003F1804303F504331A6822F480321A60D8
:10126C001A6822F480221A6037E08A4B5B6813F408
:10127C00803FE7D0874B1B6813F4003F03D06368B3
:10128C00002B00F0BF81236813F0020F75D0814B47
:10129C005B6813F00C0F5FD07E4B5B6803F00C03A4
:1012AC00082B54D02369002B00F08A807A4B012242
:1012BC001A60FFF7A9FC0546764B1B6813F0020F6A
:1012CC0075D1FFF7A1FC401B0228F5D903209EE144
:1012DC00704A136843F480331360636843B3FFF7B9
:1012EC0093FC05466B4B1B6813F4003FCBD1FFF707
:1012FC008BFC401B6428F5D9032088E1B3F5A02FA3
:10130C0009D0644B1A6822F480321A601A6822F4ED
:10131C0080221A60E1E703F18043A3F53C331A689D
:10132C0042F480221A601A6842F480321A60D4E7C0
:10133C00FFF76AFC0546574B1B6813F4003FA2D01D
:10134C00FFF762FC401B6428F5D903205FE1514B89
:10135C005B6813F4803FA5D14E4B1B6813F0020F52
:10136C0003D02369012B40F04F814A4A136823F0C4
:10137C00F803616943EAC1031360236813F0080F93
:10138C0033D0A369002B5CD0434B0122C3F88024DB
:10139C00FFF73AFC05463F4B5B6A13F0020F21D175
:1013AC00FFF732FC401B0228F5D903202FE1394A04
:1013BC00136823F0F803616943EAC1031360DCE7A7
:1013CC00354B00221A60FFF71FFC0546314B1B689A
:1013DC0013F0020FD1D0FFF717FC401B0228F5D9F0
:1013EC00032014E10120FFF701FF236813F0040F21
:1013FC0000F09680274BDB6913F0805F34D1254BCE
:10140C00DA6942F08052DA61DB6903F080530193B0
:10141C00019B0125214B1B6813F4807F26D0E368C8
:10142C00012B3DD0002B53D103F1804303F5043342
:10143C001A6A22F001021A621A6A22F004021A6273
:10144C0033E0154B0022C3F88024FFF7DDFB054683
:10145C00104B5B6A13F0020FC7D0FFF7D5FB401B94
:10146C000228F5D90320D2E00025D3E70B4A1368F4
:10147C0043F480731360FFF7C7FB0646074B1B68EA
:10148C0013F4807FCBD1FFF7BFFB801B6428F5D909
:10149C000320BCE0001002400000424200700040FB
:1014AC005F4A136A43F001031362E36833B3FFF737
:1014BC00ABFB06465A4B1B6A13F0020F2FD1FFF7FA
:1014CC00A3FB801B41F288339842F3D903209EE0A2
:1014DC00052B09D0524B1A6A22F001021A621A6AC1
:1014EC0022F004021A62E0E74D4B1A6A42F0040241
:1014FC001A621A6A42F001021A62D6E7FFF784FBFD
:10150C000646474B1B6A13F0020F08D0FFF77CFB13
:10151C00801B41F288339842F3D9032077E0E5B978
:10152C00E369002B72D03E4A526802F00C02082A82
:10153C0056D0022B17D03B4B00221A66FFF764FBE8
:10154C000446374B1B6813F0007F47D0FFF75CFB5A
:10155C00001B0228F5D9032059E0314AD36923F046
:10156C008053D361DCE72F4B00221A66FFF74CFB4C
:10157C0005462B4B1B6813F0007F06D0FFF744FB8E
:10158C00401B0228F5D9032041E0236AB3F5803FC4
:10159C001AD023494B6823F47413226A606A0243FD
:1015AC0013434B601F4B01221A66FFF72DFB0446B9
:1015BC001B4B1B6813F0007F0ED1FFF725FB001BA4
:1015CC000228F5D9032022E0154A536823F400338E
:1015DC00A1680B435360DCE7002018E0002016E004
:1015EC00012B16D00E4B5B6803F48031226A9142BA
:1015FC0011D103F47013626A93420ED1002006E0FD
:10160C0001207047012002E0012000E0002002B020
:10161C0070BD0120FBE70120F9E70120F7E700BFCF
:10162C0000100240000042420F4B5B6803F00C02BA
:10163C00082A01D00D487047C3F383420C49885CDB
:10164C0013F4803F0BD0084B5B68C3F34043094A4B
:10165C00D35C064A02FB00F0B0FBF3F07047064B7C
:10166C0003FB00F0704700BF0010024000127A002C
:10167C00D4270008E427000800093D00002800F0EA
:10168C00A08070B50D460446524B1B6803F007034F
:10169C008B420BD24F4A136823F007030B431360A2
:1016AC00136803F007038B4240F08D80236813F01E
:1016BC00020F17D013F0040F04D0474A536843F4B9
:1016CC00E0635360236813F0080F04D0424A536858
:1016DC0043F460535360404A536823F0F003A1680D
:1016EC000B435360236813F0010F31D06368012B57
:1016FC0020D0022B25D0384A126812F0020F64D089
:10170C0035494A6822F0030213434B60FFF77CFA19
:10171C000646314B5B6803F00C036268B3EB820F37
:10172C0016D0FFF771FA801B41F288339842F0D93A
:10173C00032045E0284A126812F4003FE0D1012052
:10174C003EE0254A126812F0007FD9D1012037E023
:10175C00204B1B6803F00703AB420AD91D4A1368E0
:10176C0023F007032B431360136803F00703AB420A
:10177C002DD1236813F0040F06D0174A536823F4B5
:10178C00E063E1680B435360236813F0080F07D044
:10179C00114A536823F46053216943EAC10353602F
:1017AC00FFF742FF0C4B5B68C3F303130B4AD35C8C
:1017BC00D8400B4B18600B4B1868FFF7E1F9002071
:1017CC0070BD012070470120FAE70120F8E70120E5
:1017DC00F6E700BF0020024000100240BC270008C2
:1017EC000000002008000020014B1868704700BF63
:1017FC000000002008B5FFF7F7FF044B5B68C3F34C
:10180C000223034AD35CD84008BD00BF001002403D
:10181C00CC27000808B5FFF7E7FF044B5B68C3F360
:10182C00C223034AD35CD84008BD00BF001002405D
:10183C00CC27000870B582B00446036813F0010F82
:10184C0036D03F4BDB6913F0805F49D13C4BDA69F2
:10185C0042F08052DA61DB6903F080530193019B03
:10186C000125384B1B6813F4807F3BD0344B1B6A2B
:10187C0013F4407313D0626802F440729A420ED093
:10188C002F4A136A23F440702F490126C1F8406493
:10189C000026C1F84064106213F0010F36D1284ABB
:1018AC00136A23F4407361680B431362002D3ED11D
:1018BC00236813F0020F06D0214A536823F44043E7
:1018CC00A1680B435360236813F0100F34D01C4AEB
:1018DC00536823F48003E1680B43536000202CE031
:1018EC000025BEE7174A136843F480731360FFF7B3
:1018FC008BF90646134B1B6813F4807FB6D1FFF7A8
:10190C0083F9801B6428F5D9032016E0FFF77CF9D6
:10191C0006460B4B1B6A13F0020FC0D1FFF774F98C
:10192C00801B41F288339842F3D9032005E0D36938
:10193C0023F08053D361BBE7002002B070BD00BF21
:10194C0000100240007000400000424210B4036AD4
:10195C00046A24F001040462846924F0F00C4CEA5B
:10196C00021223F00A030B438261036210BC70471E
:10197C0010B4036A046A24F010040462846924F429
:10198C00704C4CEA023223F0A00343EA011382614B
:10199C00036210BC7047836823F070030B4343F061
:1019AC00070383607047000090F83D30DBB2012BD9
:1019BC0022D1022380F83D300368114A934210D0A3
:1019CC00B3F1804F0DD0A2F59432934209D002F5B9
:1019DC008062934205D01A6842F001021A6000201E
:1019EC0070479A6802F00702062A07D01A6842F07C
:1019FC0001021A60002070470120704700207047D8
:101A0C00002C01400368196A41F21112114208D1ED
:101A1C00196A40F24442114203D11A6822F00102C1
:101A2C001A60012380F83D300020704703681B4A80
:101A3C0090420AD0B0F1804F07D0A2F59432904278
:101A4C0003D002F58062904203D123F070034A6800
:101A5C001343124A90420AD0B0F1804F07D0A2F53E
:101A6C009432904203D002F58062904203D123F469
:101A7C004073CA68134323F080034A69134303601D
:101A8C008B68C3620B688362044B984202D00123BB
:101A9C00436170470B690363F9E700BF002C0140F9
:101AAC0040B310B5044690F83D30F3B1022384F8EE
:101ABC003D30214651F8040BFFF7B8FF012384F8A1
:101ACC00463084F83E3084F83F3084F8403084F857
:101ADC00413084F8423084F8433084F8443084F840
:101AEC00453084F83D30002010BD80F83C30FEF7C6
:101AFC00B7FFDBE70120704710B4846824F47F4CF7
:101B0C0042EA03220A4342EA0C02826010BC70478C
:101B1C0090F83C30012B78D010B50446012380F8A6
:101B2C003C30022380F83D300268936823F47F43F5
:101B3C0023F0770393600B68602B4CD029D8402B93
:101B4C0054D00CD9502B22D1CA6849680068FFF7D1
:101B5C00FDFE50212068FFF71EFF002005E0202B22
:101B6C000DD009D9302B0AD00120012384F83D3047
:101B7C00002384F83C3010BD0BB1102B05D1194655
:101B8C002068FFF708FF0020EFE70120EDE70120B8
:101B9C00EBE7B3F5805F34D0B3F5005F0CD1CB68C5
:101BAC004A6889680068FFF7A7FF2268936843F4C6
:101BBC00804393600020D8E7702B24D1CB684A680F
:101BCC0089680068FFF798FF2268936843F07703F1
:101BDC0093600020C9E7CA6849680068FFF7C8FE2F
:101BEC0060212068FFF7D7FE0020BEE7CA6849686D
:101BFC000068FFF7ABFE40212068FFF7CCFE002009
:101C0C00B3E70020B1E70120AFE7022070470000E6
:101C1C0090F83C30012B2CD010B4012380F83C30D0
:101C2C00022380F83D3003685A689C6822F0700CDF
:101C3C000A6842EA0C025A6003680F4A93420AD0BF
:101C4C00B3F1804F07D0A2F59432934203D002F542
:101C5C008062934204D124F080044A6814439C604F
:101C6C00012380F83D30002380F83C30184610BC2E
:101C7C0070470220704700BF002C014010B504468D
:101C8C000268136923F44053C1680B4313618368E2
:101C9C000269134342691A430168CB6823F4B053B9
:101CAC0023F00C031343CB600268536923F4407395
:101CBC0081690B4353610268134B9A4220D0FFF7A2
:101CCC0099FD024602EB820202EB820263689B00E2
:101CDC00B2FBF3F20D48A0FB02314909642303FB6C
:101CEC0011231B013233A0FB03235B0903F0F00229
:101CFC0002EB011203F00F03216813448B6010BD3B
:101D0C00FFF788FD0246DDE7003801401F85EB51E7
:101D1C0060B310B5044690F8413013B3242384F813
:101D2C0041302268D36823F40053D3602046FFF778
:101D3C00A5FF2268136923F4904313612268536949
:101D4C0023F02A0353612268D36843F40053D36011
:101D5C0000206064202384F8413084F842306063B2
:101D6C0010BD80F84030FEF7ABFED7E7012070477E
:101D7C0070B50D4E0D4D761BB61006D0002455F8DF
:101D8C00043B01349847A642F9D1094E094D00F0A5
:101D9C00D5F8761BB61006D0002455F8043B013458
:101DAC009847A642F9D170BDEC270008EC27000833
:101DBC00F4270008EC270008830730B548D0541EE0
:101DCC00002A3FD00346CAB201E0013C3AD303F8E3
:101DDC00012B9D07F9D1032C2DD9CDB245EA052550
:101DEC000F2C45EA054536D9A4F1100222F00F0C50
:101DFC0003F1200EE6444FEA121C03F1100242E9F3
:101E0C00045542E9025510327245F8D10CF1010229
:101E1C0014F00C0F03EB021204F00F0C13D0ACF106
:101E2C00040323F003030433134442F8045B93428A
:101E3C00FBD10CF003042CB1CAB21C4403F8012BE7
:101E4C009C42FBD130BD64461346002CF4D1F9E71B
:101E5C0003461446BFE71A46A446E0E7024B13B10B
:101E6C00024800F005B8704700000000891E000809
:101E7C00002301461A46184600F01AB838B5084B2C
:101E8C00084D5B1B9C1007D0043B1D44013C55F8CE
:101E9C0004399847002CF9D1BDE8384000F054B80B
:101EAC00F8270008F4270008704700BF704700BFF0
:101EBC002DE9F047DFF87CA00646DAF800009846DA
:101ECC000F469146FFF7F0FF1B4B1B68D3F84841B8
:101EDC0024B365681F2D26DC5EB96B1C0235DAF85D
:101EEC000000636044F82570FFF7E0FF0020BDE8B8
:101EFC00F087012304EB8501C1F88890D4F8882180
:101F0C00AB401A43022EC4F88821C1F80881E4D1F1
:101F1C00D4F88C211343C4F88C31DEE703F5A67496
:101F2C00C3F84841D5E7DAF80000FFF7BFFF4FF0E0
:101F3C00FF30DCE738040020E8270008F8B500BFC4
:101F4C00F8BC08BC9E467047F8B500BFF8BC08BC8E
:041F5C009E467047E6
:101F600044533138423230204661696C2100000010
:101F700044533138423230204F4B00000000000003
:101F800000000000002F0000000007000700001400
:101F90007F147F1400242A7F2A120062640813230E
:101FA00000364955225000000503000000001C22A5
:101FB0004100000041221C000014083E08140008E3
:101FC000083E0808000000A0600000080808080893
:101FD000000060600000002010080402003E51492B
:101FE000453E0000427F40000042615149460021C9
:101FF00041454B31001814127F10002745454539E3
:10200000003C4A494930000171090503003649493D
:10201000493600064949291E0000363600000000F6
:102020005636000000081422410000141414141441
:1020300000004122140800020151090600324959EA
:10204000513E007C1211127C007F49494936003E06
:1020500041414122007F4141221C007F49494941C1
:10206000007F09090901003E4149497A007F0808BB
:10207000087F0000417F4100002040413F01007F78
:1020800008142241007F40404040007F020C027F44
:10209000007F0408107F003E4141413E007F090956
:1020A0000906003E4151215E007F0919294600467C
:1020B000494949310001017F0101003F4040403F53
:1020C000001F2040201F003F4038403F006314089D
:1020D0001463000708700807006151494543000078
:1020E0007F41410000552A552A55000041417F009B
:1020F0000004020102040040404040400000010290
:102100000400002054545478007F48444438003878
:102110004444442000384444487F00385454541800
:1021200000087E0901020018A4A4A47C007F080412
:1021300004780000447D4000004080847D00007FE2
:10214000102844000000417F4000007C04180478FF
:10215000007C0804047800384444443800FC2424FB
:1021600024180018242418FC007C080404080048E3
:102170005454542000043F444020003C4040207C04
:10218000001C2040201C003C4030403C00442810F3
:102190002844001CA0A0A07C004464544C441414A7
:1021A00014141414000000000000000000000000DF
:1021B00000000000000000F80000000000000033F4
:1021C0003000000000100C06100C0600000000009B
:1021D0000000000040C07840C0784000043F040484
:1021E0003F040400007088FC08300000001820FF45
:1021F000211E0000F008F000E018000000211C0380
:102200001E211E0000F00888700000001E212324FB
:102210001927211010160E00000000000000000019
:1022200000000000000000E01804020000000007A9
:102230001820400000020418E000000000402018B0
:1022400007000000404080F0804040000202010F83
:1022500001020200000000F0000000000101011F67
:1022600001010100000000000000000080B07000CB
:10227000000000000000000000000000000101015B
:1022800001010101000000000000000000303000EA
:1022900000000000000000008060180400601806C4
:1022A0000100000000E010080810E000000F1020FE
:1022B00020100F00001010F8000000000020203F48
:1022C00020200000007008080888700000302824D2
:1022D0002221300000300888884830000018202073
:1022E00020110E000000C02010F800000007042498
:1022F000243F240000F808888808080000192120DD
:1023000020110E0000E0108888180000000F112036
:1023100020110E0000380808C83808000000003FEF
:10232000000000000070880808887000001C22214E
:1023300021221C0000E010080810E00000003122FB
:1023400022110F00000000C0C0000000000000309B
:1023500030000000000000800000000000008060ED
:10236000000000000000804020100800000102046E
:102370000810200040404040404040000404040455
:102380000404040000081020408000000020100811
:1023900004020100007048080808F0000000003046
:1023A00036010000C030C828E810E00007182724D4
:1023B00023140B000000C038E0000000203C230282
:1023C0000227382008F8888888700000203F2020E5
:1023D00020110E00C0300808080838000718202017
:1023E0002010080008F808080810E000203F20200E
:1023F00020100F0008F88888E8081000203F2020EF
:102400002320180008F88888E8081000203F2000E2
:1024100003000000C030080808380000071820201A
:10242000221E020008F808000008F808203F2101D9
:1024300001213F20000808F8080800000020203F84
:102440002020000000000808F8080800C0808080F4
:102450007F00000008F888C028180800203F2001ED
:102460002638200008F8080000000000203F202047
:102470002020300008F8F800F8F80800203F003F5E
:10248000003F200008F830C00008F808203F200076
:1024900007183F00E01008080810E0000F10202087
:1024A00020100F0008F808080808F000203F21015C
:1024B00001010000E01008080810E0000F182424B3
:1024C00038504F0008F8888888887000203F200026
:1024D000030C3020007088080808380000382021DC
:1024E00021221C00180808F8080818000000203FE6
:1024F0002000000008F808000008F808001F20204D
:1025000020201F000878880000C83808000007381D
:102510000E010000F80800F80008F800033C07006E
:10252000073C0300081868808068180820302C03D6
:10253000032C30200838C800C83808000000203FAD
:102540002000000010080808C8380800203826219C
:1025500020201800000000FE020202000000007FA0
:1025600040404000000C30C00000000000000001AE
:102570000638C00000020202FE0000000040404099
:102580007F000000000004020202040000000000BE
:10259000000000000000000000000000808080803B
:1025A0008080808000020204000000000000000023
:1025B00000000000000080808080000000192422BC
:1025C00022223F2008F8008080000000003F1120F8
:1025D00020110E000000008080800000000E1120FD
:1025E00020201100000000808088F800000E1120DB
:1025F00020103F200000808080800000001F2222E9
:1026000022221300008080F0888888180020203F54
:10261000202000000000808080808000006B949467
:102620009493600008F8008080800000203F210023
:1026300000203F2000809898000000000020203FEC
:1026400020200000000000809898000000C08080DA
:10265000807F000008F8000080808000203F240276
:102660002D302000000808F8000000000020203F66
:10267000202000008080808080808000203F20001B
:102680003F20003F8080008080800000203F2100AC
:1026900000203F200000808080800000001F20205C
:1026A00020201F00808000808000000080FFA1208B
:1026B00020110E000000008080808000000E11209C
:1026C00020A0FF80808080008080800020203F212B
:1026D00020000100000080808080800000332424DE
:1026E00024241900008080E0808000000000001F8A
:1026F000202000008080000000808000001F20203B
:1027000020103F20808080000080808000010E30FB
:102710000806010080800080008080800F300C035C
:102720000C300F0000808000808080000020312E5F
:102730000E312000808080000080808080818E703B
:102740001806010000808080808080000021302CED
:102750002221300000000000807C02020000000006
:10276000003F404000000000FF00000000000000AB
:10277000FF0000000002027C800000000040403F9B
:102780000000000000060101020204040000000035
:10279000000000002F6D79736D6172746B69746352
:1027A00068656E2F737562002F6D79736D61727439
:1027B0006B69746368656E2F7075620000000000BD
:1027C00000000000010203040607080900000000E1
:1027D0000102030402030405060708090A0B0C0D95
:0C27E0000E0F101001020000100000207D
:0827EC00691E0008310100081C
:0427F4000D010008CB
:1027F8000024F400010000001000000000000000A8
:1028080000000000FC02002064030020CC0300202C
:1028180000000000000000000000000000000000B0
:1028280000000000000000000000000000000000A0
:102838000000000000000000000000000000000090
:102848000000000000000000000000000000000080
:102858000000000000000000000000000000000070
:102868000000000000000000000000000000000060
:102878000000000000000000000000000000000050
:102888000000000000000000000000000000000040
:102898000000000000000000000000000000000030
:1028A800000000000000000001000000000000001F
:1028B8000E33CDAB34126DE6ECDE05000B000000E4
:1028C8000000000000000000000000000000000000
:1028D80000000000000000000000000000000000F0
:1028E80000000000000000000000000000000000E0
:1028F80000000000000000000000000000000000D0
:0C2C280000000000000000001C0500205F
:0400000508000B41A3
:00000001FF
