:020000040800F2
:10000000005000202D1C0008A91A0008AB1A000897
:10001000AD1A0008AF1A0008B11A0008000000006D
:10002000000000000000000000000000B31A0008FB
:10003000B51A000800000000B71A0008B91A000835
:10004000751C0008751C0008751C0008751C00084C
:10005000751C0008751C0008751C0008751C00083C
:10006000751C0008751C0008751C0008751C00082C
:10007000751C0008751C0008751C0008751C00081C
:10008000751C0008751C0008751C0008751C00080C
:10009000751C0008751C0008751C0008751C0008FC
:1000A000751C0008751C0008751C0008751C0008EC
:1000B000751C0008751C0008751C0008751C0008DC
:1000C000751C0008751C0008751C0008751C0008CC
:1000D000751C0008751C0008C11A0008751C000872
:1000E000751C0008751C0008751C00080000000045
:1000F0000000000000000000000000000000000000
:0C01000000000000000000005FF808F1A3
:10010C0010B5054C237833B9044B13B10448AFF345
:10011C0000800123237010BD3C040020000000006F
:10012C00C03A000808B5034B1BB103490348AFF3B1
:10013C00008008BD0000000040040020C03A000808
:10014C0081F0004102E000BF83F0004330B54FEA7C
:10015C0041044FEA430594EA050F08BF90EA020FE9
:10016C001FBF54EA000C55EA020C7FEA645C7FEA7C
:10017C00655C00F0E2804FEA5454D4EB5555B8BF9F
:10018C006D420CDD2C4480EA020281EA030382EA10
:10019C00000083EA010180EA020281EA0303362DA2
:1001AC0088BF30BD11F0004F4FEA01314FF4801C75
:1001BC004CEA113102D0404261EB410113F0004F87
:1001CC004FEA03334CEA133302D0524263EB43033E
:1001DC0094EA050F00F0A780A4F10104D5F1200EDC
:1001EC000DDB02FA0EFC22FA05F2801841F1000137
:1001FC0003FA0EF2801843FA05F359410EE0A5F10B
:10020C0020050EF1200E012A03FA0EFC28BF4CF03B
:10021C00020C43FA05F3C01851EBE37101F00045F1
:10022C0007D54FF0000EDCF1000C7EEB00006EEBFE
:10023C000101B1F5801F1BD3B1F5001F0CD3490888
:10024C005FEA30004FEA3C0C04F101044FEA4452DF
:10025C0012F5800F80F09A80BCF1004F08BF5FEA66
:10026C00500C50F1000041EB045141EA050130BD46
:10027C005FEA4C0C404141EB0101013C28BFB1F558
:10028C00801FE9D291F0000F04BF01460020B1FAA3
:10029C0081F308BF2033A3F10B03B3F120020CDA76
:1002AC000C3208DD02F1140CC2F10C0201FA0CF054
:1002BC0021FA02F10CE002F11402D8BFC2F1200CB9
:1002CC0001FA02F120FA0CFCDCBF41EA0C0190406F
:1002DC00E41AA2BF01EB0451294330BD6FEA0404B8
:1002EC001F3C1CDA0C340EDC04F11404C4F12002A3
:1002FC0020FA04F001FA02F340EA030021FA04F3B5
:10030C0045EA030130BDC4F10C04C4F1200220FA0B
:10031C0002F001FA04F340EA0300294630BD21FA49
:10032C0004F0294630BD94F0000F83F4801306BF0F
:10033C0081F480110134013D4EE77FEA645C18BF03
:10034C007FEA655C29D094EA050F08BF90EA020F9A
:10035C0005D054EA000C04BF1946104630BD91EA92
:10036C00030F1EBF0021002030BD5FEA545C05D195
:10037C004000494128BF41F0004130BD14F58004D4
:10038C003CBF01F5801130BD01F0004545F0FE4148
:10039C0041F470014FF0000030BD7FEA645C1ABF7D
:1003AC00194610467FEA655C1CBF0B46024650EAB4
:1003BC00013406BF52EA033591EA030F41F40021E0
:1003CC0030BD00BF90F0000F04BF0021704730B566
:1003DC004FF4806404F132044FF000054FF000013B
:1003EC0050E700BF90F0000F04BF0021704730B5FC
:1003FC004FF4806404F1320410F0004548BF4042D1
:10040C004FF000013EE700BF42004FEAE2014FEA25
:10041C0031014FEA02701FBF12F07F4393F07F4F00
:10042C0081F06051704732F07F4208BF704793F003
:10043C007F4F04BF41F40021704730B54FF4607416
:10044C0001F0004521F000411CE700BF50EA010219
:10045C0008BF704730B54FF000050AE050EA0102C2
:10046C0008BF704730B511F0004502D5404261EB32
:10047C0041014FF4806404F132045FEA915C3FF473
:10048C00D8AE4FF003025FEADC0C18BF03325FEA10
:10049C00DC0C18BF033202EBDC02C2F1200300FAC1
:1004AC0003FC20FA02F001FA03FE40EA0E0021FAE6
:1004BC0002F11444BDE600BF70B54FF0FF0C4CF4D4
:1004CC00E06C1CEA11541DBF1CEA135594EA0C0F86
:1004DC0095EA0C0F00F0DEF82C4481EA030621EAC1
:1004EC004C5123EA4C5350EA013518BF52EA0335FC
:1004FC0041F4801143F4801338D0A0FB02CE4FF0AE
:10050C000005E1FB02E506F00042E0FB03E54FF0DD
:10051C000006E1FB03569CF0000F18BF4EF0010ED5
:10052C00A4F1FF04B6F5007F64F5407404D25FEAD1
:10053C004E0E6D4146EB060642EAC62141EA555184
:10054C004FEAC52040EA5E504FEACE2EB4F1FD0CC6
:10055C0088BFBCF5E06F1ED8BEF1004F08BF5FEA44
:10056C00500E50F1000041EB045170BD06F00046F6
:10057C0046EA010140EA020081EA0301B4EB5C04A3
:10058C00C2BFD4EB0C0541EA045170BD41F480119B
:10059C004FF0000E013C00F3AB8014F1360FDEBFC0
:1005AC00002001F0004170BDC4F10004203C35DA9C
:1005BC000C341BDC04F11404C4F1200500FA05F31F
:1005CC0020FA04F001FA05F240EA020001F00042C0
:1005DC0021F0004110EBD37021FA04F642EB060136
:1005EC005EEA430E08BF20EAD37070BDC4F10C0460
:1005FC00C4F1200500FA04F320FA05F001FA04F224
:10060C0040EA020001F0004110EBD37041F100010F
:10061C005EEA430E08BF20EAD37070BDC4F120051A
:10062C0000FA05F24EEA020E20FA04F301FA05F282
:10063C0043EA020321FA04F001F0004121FA04F22A
:10064C0020EA020000EBD3705EEA430E08BF20EAFA
:10065C00D37070BD94F0000F0FD101F00046400034
:10066C0041EB010111F4801F08BF013CF7D041EAB6
:10067C00060195F0000F18BF704703F000465200BA
:10068C0043EB030313F4801F08BF013DF7D043EA8B
:10069C000603704794EA0C0F0CEA135518BF95EA41
:1006AC000C0F0CD050EA410618BF52EA4306D1D1C8
:1006BC0081EA030101F000414FF0000070BD50EAE7
:1006CC00410606BF1046194652EA430619D094EA71
:1006DC000C0F02D150EA013613D195EA0C0F05D15B
:1006EC0052EA03361CBF104619460AD181EA0301AF
:1006FC0001F0004141F0FE4141F470014FF0000067
:10070C0070BD41F0FE4141F4780170BD70B54FF001
:10071C00FF0C4CF4E06C1CEA11541DBF1CEA135581
:10072C0094EA0C0F95EA0C0F00F0A7F8A4EB050463
:10073C0081EA030E52EA03354FEA013100F088805A
:10074C004FEA03334FF0805545EA131343EA126323
:10075C004FEA022245EA111545EA10654FEA0026D8
:10076C000EF000419D4208BF964244F1FD0404F591
:10077C00407402D25B084FEA3202B61A65EB0305ED
:10078C005B084FEA32024FF480104FF4002CB6EBAA
:10079C00020E75EB030E22BFB61A754640EA0C002A
:1007AC005B084FEA3202B6EB020E75EB030E22BF6A
:1007BC00B61A754640EA5C005B084FEA3202B6EBAB
:1007CC00020E75EB030E22BFB61A754640EA9C006A
:1007DC005B084FEA3202B6EB020E75EB030E22BF3A
:1007EC00B61A754640EADC0055EA060E18D04FEAF8
:1007FC00051545EA16754FEA06164FEAC30343EA98
:10080C0052734FEAC2025FEA1C1CC0D111F4801F64
:10081C000BD141EA00014FF000004FF0004CB6E75D
:10082C0011F4801F04BF01430020B4F1FD0C88BFFC
:10083C00BCF5E06F3FF6AFAEB5EB030C04BFB6EB07
:10084C00020C5FEA500C50F1000041EB045170BDFA
:10085C000EF0004E4EEA113114EB5C04C2BFD4EB27
:10086C000C0541EA045170BD41F480114FF0000EAB
:10087C00013C90E645EA060E8DE60CEA135594EA27
:10088C000C0F08BF95EA0C0F3FF43BAF94EA0C0F2A
:10089C000AD150EA01347FF434AF95EA0C0F7FF49F
:1008AC0025AF104619462CE795EA0C0F06D152EAF3
:1008BC0003353FF4FDAE1046194622E750EA4106D7
:1008CC0018BF52EA43067FF4C5AE50EA41047FF4E8
:1008DC000DAF52EA43057FF4EBAE12E74FEA41024B
:1008EC0012F5001215D211D56FF47873B3EB625276
:1008FC0012D94FEAC12343F0004343EA505311F09D
:10090C00004F23FA02F018BF404270474FF000002E
:10091C00704750EA013005D111F0004008BF6FF06C
:10092C00004070474FF00000704700BF4A0011D2E2
:10093C0012F5001211D20DD56FF47873B3EB62522D
:10094C000ED44FEAC12343F0004343EA505323FA39
:10095C0002F070474FF00000704750EA013002D1AE
:10096C004FF0FF3070474FF00000704780F00040B0
:10097C0002E000BF81F0004142001FBF5FEA41036B
:10098C0092EA030F7FEA226C7FEA236C6AD04FEA6B
:10099C001262D2EB1363C1BFD218414048404140B0
:1009AC00B8BF5B42192B88BF704710F0004F40F462
:1009BC00000020F07F4018BF404211F0004F41F47E
:1009CC00000121F07F4118BF494292EA030F3FD04A
:1009DC00A2F1010241FA03FC10EB0C00C3F120035D
:1009EC0001FA03F100F0004302D5494260EB4000EC
:1009FC00B0F5000F13D3B0F1807F06D340084FEA57
:100A0C00310102F10102FE2A51D2B1F1004F40EB4B
:100A1C00C25008BF20F0010040EA030070474900B3
:100A2C0040EB0000013A28BFB0F5000FEDD2B0FA50
:100A3C0080FCACF1080CB2EB0C0200FA0CF0AABF73
:100A4C0000EBC25052421843BCBFD0401843704711
:100A5C0092F0000F81F4000106BF80F40000013217
:100A6C00013BB5E74FEA41037FEA226C18BF7FEAEE
:100A7C00236C21D092EA030F04D092F0000F08BF30
:100A8C000846704790EA010F1CBF0020704712F017
:100A9C007F4F04D1400028BF40F00040704712F156
:100AAC0000723CBF00F50000704700F0004343F0BB
:100ABC00FE4040F4000070477FEA226216BF0846F1
:100ACC007FEA23630146420206BF5FEA412390EAB4
:100ADC00010F40F4800070474FF0000304E000BFAA
:100AEC0010F0004348BF40425FEA000C08BF70475B
:100AFC0043F0964301464FF000001CE050EA01021F
:100B0C0008BF70474FF000030AE000BF50EA010233
:100B1C0008BF704711F0004302D5404261EB410120
:100B2C005FEA010C02BF84460146002043F0B64345
:100B3C0008BFA3F18053A3F50003BCFA8CF2083A6A
:100B4C00A3EBC25310DB01FA02FC634400FA02FC73
:100B5C00C2F12002BCF1004F20FA02F243EB02007A
:100B6C0008BF20F00100704702F1200201FA02FCDC
:100B7C00C2F1200250EA4C0021FA02F243EB0200CF
:100B8C0008BF20EADC70704742000ED2B2F1FE4F73
:100B9C000BD34FF09E03B3EB126209D44FEA002340
:100BAC0043F0004323FA02F070474FF00000704707
:100BBC0012F1610F01D1420202D14FF0FF307047A8
:100BCC004FF00000704700BF38B504460948036871
:100BDC005D6A02F049FA074B1B685B6AAAB29B1A62
:100BEC00A342F8D3034C204602F06CFA236800228F
:100BFC005A6238BD9804002000B585B001230093DB
:100C0C00002301936946034801F0BCFC05B05DF874
:100C1C0004FB00BF0008014000B585B00123009320
:100C2C000193032303936946024801F0ABFC05B022
:100C3C005DF804FB0008014010B5FFF7EDFF094C0F
:100C4C0000220121204601F0B6FD40F2EE20FFF714
:100C5C00BBFF01221146204601F0ADFD0F20FFF72E
:100C6C00B3FF10BD0008014010B5FFF7C5FF00240D
:100C7C000121124801F098FD38B1C72C05D8013478
:100C8C00E4B20120FFF7A0FFF2E7C72C11D8002433
:100C9C0004E00134E4B20120FFF796FF012107487C
:100CAC0001F082FD08B9EF2CF3D9EF2C03D800200A
:100CBC0010BD0120FCE70220FAE700BF000801404C
:100CCC0070B50546FFF7A8FF012412E0164E00226E
:100CDC000121304601F06FFD3C20FFF775FF01222A
:100CEC001146304601F067FD0220FFF76DFF01341D
:100CFC00E4B2082C16D805F001036D08002BE5D0E2
:100D0C00094E00220121304601F055FD0220FFF76B
:100D1C005BFF01221146304601F04DFD3C20FFF7F0
:100D2C0053FFE4E770BD00BF0008014010B5FFF7AA
:100D3C0073FF0F4C00220121204601F03CFD0220E4
:100D4C00FFF742FF01221146204601F034FDFFF768
:100D5C0053FF0C20FFF738FF0121204601F024FD42
:100D6C00044600B101243220FFF72EFF204610BDAF
:100D7C000008014038B50024012507E0FFF7D6FF35
:100D8C00640844EAC014E4B20135EDB2082DF5D97B
:100D9C00204638BD08B5FFF74FFFFFF765FFCC20A5
:100DAC00FFF78EFF4420FFF78BFF08BD38B5FFF728
:100DBC00F1FFFFF741FFFFF757FFCC20FFF780FF54
:100DCC00BE20FFF77DFFFFF7D5FF0446FFF7D2FFEC
:100DDC00702816D9C043C0B2E443E4B2002504EB3A
:100DEC00002000B2FFF77CFEFFF70EFB0022064B43
:100DFC00FFF762FBFFF772FD00B20DB9404200B283
:100E0C0038BD0125EBE700BF0000E43F48E000BF20
:100E1C0000BF00BF00BF00BF00BF00BF00BF00BFCE
:100E2C0000BF00BF00BF00BF00BF00BF00BF00BFBE
:100E3C0000BF00BF00BF00BF00BF00BF00BF00BFAE
:100E4C0000BF00BF00BF00BF00BF00BF00BF00BF9E
:100E5C0000BF00BF00BF00BF00BF00BF00BF00BF8E
:100E6C0000BF00BF00BF00BF00BF00BF00BF00BF7E
:100E7C0000BF00BF00BF00BF00BF00BF00BF00BF6E
:100E8C0000BF00BF00BF00BF00BF00BF00BF00BF5E
:100E9C0000BF00BF00BF00BF00BF00BF00BF1846AF
:100EAC00431E9BB20028B2D17047000010B50E4C07
:100EBC0001228021204601F07EFC012240212046A7
:100ECC0001F079FC0520FFF7A1FF002280212046CC
:100EDC0001F071FC0520FFF799FF0022402120460C
:100EEC0001F069FC10BD00BF000C014010B50B4CAB
:100EFC0000228021204601F05EFC01224021204688
:100F0C0001F059FC0520FFF781FF012280212046CA
:100F1C0001F051FC0520FFF779FF10BD000C0140DA
:100F2C0010B584B00446C02300930123019302231F
:100F3C0003936946114801F025FB012C18D0ACB97C
:100F4C00002280210D4801F036FC0C4C012240217E
:100F5C00204601F030FC0520FFF758FF002240210D
:100F6C00204601F028FC0520FFF750FF04B010BD0F
:100F7C0001228021014801F01EFCE6E7000C014033
:100F8C0030B585B00023019302230393802500958F
:100F9C00164C6946204601F0F5FA01224021204604
:100FAC0001F009FC0520FFF731FF2946204601F02E
:100FBC00FBFB012815D00E4B00221A700B4C0022A3
:100FCC004021204601F0F7FB0520FFF71FFF01230E
:100FDC0001936946204601F0D5FA054B187805B007
:100FEC0030BD034B01221A70E8E700BF000C014032
:100FFC006404002070B50446002519E0002280210D
:10100C00124801F0D8FB6400E4B2104E01224021DA
:10101C00304601F0D0FB0520FFF7F8FE00224021FE
:10102C00304601F0C8FB0520FFF7F0FE0135EDB2AC
:10103C00072D08D814F0800FE0D00122802103483E
:10104C0001F0B9FBDFE7FFF79BFF70BD000C01401F
:10105C0008B5FFF72BFF4620FFF7CCFF0120FFF769
:10106C00C9FFFFF743FF08BD10B50446FFF71EFF8D
:10107C004620FFF7BFFF2046FFF7BCFFFFF736FF08
:10108C0010BD000070B584B0002501958026009637
:10109C00022303931A4C6946204601F073FA01228D
:1010AC003146204601F087FB2C460BE02043C4B2AE
:1010BC0000224021124801F07EFB0520FFF7A6FE1E
:1010CC000135EDB2072D12D86400E4B20C4E0122AA
:1010DC004021304601F06FFB0520FFF797FE802181
:1010EC00304601F061FB0128E0D00020DEE701234F
:1010FC0001936946024801F045FA204604B070BDE0
:10110C00000C014010B5FFF7D1FE4720FFF772FF2E
:10111C00002404E00120FFF703FF0134E4B2022CA9
:10112C0009D8FFF7AFFF054B1855032CF2D0002060
:10113C00FFF7F6FEF1E7FFF7D9FE10BD5C040020C7
:10114C0008B50120FFF790FF1020FFF78DFFB420AA
:10115C0000F0D6FDFFF7D6FF0A4B1A78587800EB53
:10116C00022080B2FFF7B8FCFFF74EF94FF0333294
:10117C00054BFFF7CBFAFFF7D9FB80B2034B186096
:10118C0008BD00BF5C0400203333F33F6004002033
:10119C0070B52E4C01220421204601F00CFB0022DC
:1011AC000221204601F007FB0421284801F0FCFA3B
:1011BC0004460028F8D10120FFF706FD00260AE0BE
:1011CC000421224801F0F0FA01281CD00120FFF77D
:1011DC00FBFC0134E4B2172C19D81C4D012202215E
:1011EC00284601F0E8FA0120FFF7EEFC002202216C
:1011FC00284601F0E0FA0421284601F0D5FA00282F
:10120C00DED17600DCE7760046F00106DEE70F4C17
:10121C0001220221204601F0CEFA86F400060120BC
:10122C00FFF7D2FC00220221204601F0C4FA012073
:10123C00FFF7CAFC064B9B1B0648A0FB033080093A
:10124C001E380028B8BF404270BD00BF000C0140E2
:10125C00A0CD8700D34D621010B50B4C0122082194
:10126C00204601F0A8FA01221021204601F0A3FA31
:10127C0000221021204601F09EFA0022082120466F
:10128C0001F099FA10BD00BF000C014010B5084CDC
:10129C0001220821204601F08EFA0022102120465E
:1012AC0001F089FA01221021204601F084FA10BDC8
:1012BC00000C014010B5064C01220821204601F01B
:1012CC007AFA00220821204601F075FA10BD00BF01
:1012DC00000C014070B5044600220821124801F0B0
:1012EC006AFA002513E0002210210F4801F063FA7E
:1012FC006400E4B20C4E01220821304601F05BFA86
:10130C0000220821304601F056FA0135EDB2072DC6
:10131C0008D814F0800FE6D001221021024801F009
:10132C004AFAE5E770BD00BF000C014010B5044659
:10133C00FFF792FF7820FFF7CDFFFFF7BBFF0020F0
:10134C00FFF7C8FFFFF7B6FF2046FFF7C3FFFFF715
:10135C00B1FFFFF79BFF10BD10B50446FFF77CFFF4
:10136C007820FFF7B7FFFFF7A5FF4020FFF7B2FF8C
:10137C00FFF7A0FF2046FFF7ADFFFFF79BFFFFF73E
:10138C0085FF10BD08B519B1C0B2FFF7E5FF08BD68
:10139C00C0B2FFF7CBFFFAE710B5044608460021B0
:1013AC00B030FFF7EFFF0234C4F30310002140F01C
:1013BC001000FFF7E7FF002104F00F00FFF7E2FF3A
:1013CC0010BD38B500250AE001210020FFF7DAFF37
:1013DC000134E4B214F0800FF6D00135EDB2072DD4
:1013EC000ED8002105F1B000FFF7CCFF0021022040
:1013FC00FFF7C8FF00211020FFF7C4FF0024E9E726
:10140C0038BD0000F8B507460E46203AD5B210F0AC
:10141C00800F07D1102B09D031463846FFF7BCFF9F
:10142C00002433E00236F6B20027F3E731463846A3
:10143C00FFF7B2FF002408E004EB05130121154A65
:10144C00D05CFFF79FFF0134E4B2072CF4D9711C78
:10145C00C9B23846FFF7A0FF002409E004EB0513DE
:10146C00083301210B4AD05CFFF78CFF0134E4B246
:10147C00072CF3D90CE005EB4503074A02EB4303B9
:10148C000121185DFFF77EFF0134E4B2052CF2D97F
:10149C00F8BD00BF003D0008D83A00080246012004
:1014AC0002E002FB00F019464B1EDBB20029F8D11A
:1014BC00704700002DE9F0478246894690461D464C
:1014CC009DF8206000273C4619E0700804FB00F0F2
:1014DC00C0B25044334620224946C0B2FFF792FFB7
:1014EC000BE0700804FB00F0C0B2303250443346BD
:1014FC00D2B24946C0B2FFF785FF0134E4B2AC4228
:10150C001CD2291BC9B20139C9B20A20FFF7C6FF88
:10151C00B8FBF0F00A4AA2FB003C4FEADC0C0CEBE7
:10152C008C0CA0EB4C0C5FFA8CF2002FD9D16B1EFB
:10153C009C42D6DA002AC8D00127D2E7BDE8F08752
:10154C00CDCCCCCC70B586B000240294039404941A
:10155C000594464B9A6942F008029A619B6903F024
:10156C0008030193019B424E22461821304601F09C
:10157C0022F9182302930123039304930225059562
:10158C0002A9304600F0FEFF0A2000F0B9FB21460C
:10159C00AE20FFF7F7FE21462846FFF7F3FE214663
:1015AC001020FFF7EFFE21464020FFF7EBFE21460F
:1015BC00B020FFF7E7FE21468120FFF7E3FE21462E
:1015CC00FF20FFF7DFFE2146A120FFF7DBFE2146BF
:1015DC00A620FFF7D7FE2146A820FFF7D3FE214611
:1015EC003F20FFF7CFFE2146C820FFF7CBFE214658
:1015FC00D320FFF7C7FE21462046FFF7C3FE214646
:10160C00D520FFF7BFFE21468020FFF7BBFE214609
:10161C00D820FFF7B7FE21460520FFF7B3FE214681
:10162C00D920FFF7AFFE2146F120FFF7ABFE214694
:10163C00DA20FFF7A7FE21461220FFF7A3FE214672
:10164C00DB20FFF79FFE21463020FFF79BFE214653
:10165C008D20FFF797FE21461420FFF793FE2146BD
:10166C00AF20FFF78FFE06B070BD00BF0010024028
:10167C00000C014010B50A4C204600F003FD64211B
:10168C00204600F051FB204600F0B6FC10F4007F21
:10169C0001D1002010BD204600F008FC80B2F9E713
:1016AC006804002008B5044800F010FEFFF7E2FFC4
:1016BC00024B187008BD00BF6804002065040020B0
:1016CC0000B585B000230193029303931048114A8F
:1016DC0002608360037303754FF46022C261436040
:1016EC000123036100F06EFD60B9012301930293A5
:1016FC000023039301A9064800F0DCFB28B905B0D0
:10170C005DF804FB00F004F9EFE700F001F9F6E7EF
:10171C00680400200024014000B587B00023029328
:10172C000393049305930268114B9A4202D007B0BD
:10173C005DF804FB03F56C439A6942F400729A61FC
:10174C009A6902F400720092009A9A6942F00402BB
:10175C009A619B6903F004030193019B022302939A
:10176C000323039302A9034800F00CFFDFE700BF3B
:10177C0000240140000801402DE9F04389B0002409
:10178C0004940594069407944B4B9A6942F010020A
:10179C009A619A6902F010020092009A9A6942F0DA
:1017AC0020029A619A6902F020020192019A9A69C8
:1017BC0042F004029A619A6902F004020292029ABF
:1017CC009A6942F008029A619B6903F0080303933B
:1017DC00039BDFF8E88022464FF40051404600F0AE
:1017EC00EAFF374F224648F20171384600F0E3FF1A
:1017FC0001224FF40261384600F0DDFF314E2246E3
:10180C0046F65A41304600F0D6FF4FF4005304938D
:10181C000125059506954FF00309CDF81C9004A9F8
:10182C00404600F0AFFE48F2213304930595069430
:10183C004FF00208CDF81C8004A9384600F0A2FE37
:10184C000495214B0593069404A9304600F09AFEAA
:10185C00CDF8108005950694CDF81C9004A930465F
:10186C0000F090FE042304930594069504A93046D9
:10187C0000F088FE46F65843049305950694CDF87F
:10188C001C8004A9304600F07DFE4FF440630493A5
:10189C000595CDF81880CDF81C9004A9384600F0B9
:1018AC0071FE802304930594069404A9304600F03D
:1018BC0069FE09B0BDE8F083001002400010014041
:1018CC0000080140000C01400000111008B50C4B41
:1018DC001B883F2B0CD8591C094A1180094A1178D6
:1018EC00094AD15401220749084801F0EAFF08BD12
:1018FC000021034B19804022034802F019F8F1E74C
:10190C006C0500206E0500202C050020E004002052
:10191C0072B6FEE700B595B0282200210DEB02004F
:10192C0002F006F800230593069307930893099396
:10193C00019302930393049301220A924FF4803390
:10194C000B930E920222119212934FF4E013139305
:10195C000AA800F055FFC8B90F2305930221069180
:10196C00002307934FF480620892099305A801F0B5
:10197C0079F968B9022301934FF40043039301A84A
:10198C0001F04CFA30B915B05DF804FBFFF7C0FF5D
:10199C00FFF7BEFFFFF7BCFF30B589B003AC294D94
:1019AC000FCD0FC42B6824F8023B1B0C237000F0E6
:1019BC0083F9FFF7AFFFFFF7DFFE00F0D3F8FFF777
:1019CC007FFE00F081F8FFF7BDFDFFF7FAFCFFF793
:1019DC003FFB4FF480611C4800F0F3FEFFF7B0FBB7
:1019EC000C2400940423194A126800210846FFF7BE
:1019FC0061FDFFF7DBF9FFF773F8154B1860FFF784
:101A0C00C3F802460094042301210020FFF752FD85
:101A1C00FFF748FE009404230E4A1278022100209E
:101A2C00FFF748FDFFF7B4FBFFF7B2FB024600944B
:101A3C00042303210020FFF73DFD0A2000F060F98C
:101A4C00C7E700BF04430008000801406004002001
:101A5C00580400206504002082B00E4B9A6942F0B5
:101A6C0001029A619A6902F001020092009ADA6905
:101A7C0042F08052DA61DB6903F080530193019BE1
:101A8C00054A536823F0E06343F00073536002B0DF
:101A9C00704700BF0010024000000140FEE7FEE767
:101AAC00FEE7FEE7FEE770477047704708B500F0A9
:101ABC0015F908BD08B5024801F0A4FD08BD00BF2A
:101ACC00E00400207047000000B587B000230293AB
:101ADC00039304930593009301931548154A0260F0
:101AEC004722426083604FF6FF72C260036143611C
:101AFC00836101F035FB90B94FF48053029302A936
:101B0C000B4801F065FB68B900230093019369460B
:101B1C00074801F0DDFB40B907B05DF804FBFFF7A7
:101B2C00F7FEE9E7FFF7F4FEEEE7FFF7F1FEF3E768
:101B3C0098040020002C01400268094B9A4200D006
:101B4C00704782B003F564439A6942F400629A616B
:101B5C009B6903F400630193019B02B0704700BFC3
:101B6C00002C014008B50A480A4B03604FF4E133DE
:101B7C00436000238360C36003610C224261836174
:101B8C00C36101F083FC00B908BDFFF7C1FEFBE7A0
:101B9C00E00400200044004030B587B000230293DD
:101BAC0003930493059302681B4B9A4201D007B030
:101BBC0030BD03F5E633DA6942F40032DA61DA69F2
:101BCC0002F400320092009A9A6942F004029A617F
:101BDC009B6903F004030193019B042302930223EA
:101BEC000393032305930D4D02A9284600F0CAFC6C
:101BFC00082302930024039404940DEB030128465C
:101C0C0000F0C0FC22462146262000F0F1FB2620E5
:101C1C0000F026FCCBE700BF004400400008014068
:101C2C00FFF750FF0B480C490C4A002302E0D45834
:101C3C00C4500433C4188C42F9D3094A094C00230C
:101C4C0001E013600432A242FBD301F04DFEFFF71A
:101C5C00A3FE7047000000203C04002068430008ED
:101C6C003C04002074050020FEE7000010B504467B
:101C7C000E4B18784FF47A73B3FBF0F30C4A1068E0
:101C8C00B0FBF3F000F0FAFB68B90F2C01D901207E
:101C9C000AE0002221464FF0FF3000F0A9FB054B73
:101CAC001C60002000E0012010BD00BF04000020DB
:101CBC00000000200800002008B5074A136843F014
:101CCC0010031360032000F081FB0F20FFF7CEFF01
:101CDC00FFF7C2FE002008BD00200240034A116835
:101CEC00034B1B780B441360704700BF2805002082
:101CFC0004000020014B1868704700BF2805002025
:101D0C0038B50446FFF7F6FF0546B4F1FF3F02D0A5
:101D1C00044B1B781C44FFF7EDFF401BA042FAD389
:101D2C0038BD00BF04000020F0B583B005460C465A
:101D3C0000230193FFF7DEFF2B689A6812F4807F73
:101D4C0023D107465A6812F4807F03D1DB6A13F45F
:101D5C00700F29D0504B1E68022001F0EBF8B6FB37
:101D6C00F0F62B6819694D4A114236D1D96802F147
:101D7C005C42114231D11969494A114240D1DA68A9
:101D8C00484B1A423ED0292041E0AB6A43F0200375
:101D9C00AB62002385F82430012003B0F0BD2B6822
:101DAC001B6813F0020F0FD02B681B6813F0020F87
:101DBC004FD1B4F1FF3FF7D0002CF0D0FFF79AFFD2
:101DCC00C31BA342F0D9EAE7AB6A43F00403AB624E
:101DDC00002385F824300320DFE71969304A1142CB
:101DEC0004D1D96802F16E4211420DD019692E4A04
:101DFC000A405AB9DA682C4B13405BB1FC2006E060
:101E0C00292004E0142002E0542000E0FC2000FB18
:101E1C0006F607E05420FAE7019BB34210D3019B6E
:101E2C0001330193019BB34213D2B4F1FF3FF6D0BF
:101E3C00002CF1D0FFF75EFFC01BA042EFD9EBE7FF
:101E4C00AB6A43F00403AB62002385F82430032013
:101E5C00A3E72B686FF012021A60AB6A43F40073AD
:101E6C00AB622B689B6803F46023B3F5602F01D041
:101E7C00002092E7287B60B9AB6A23F48073AB62D5
:101E8C00AB6A13F4805F88D1AB6A43F00103AB6299
:101E9C0083E7002081E700BF000000202449922442
:101EAC009224491292244900499224000368D86C68
:101EBC007047000030B482B00022019290F82420C8
:101ECC00012A00F091800346012280F824204A6800
:101EDC00062A2DD80468606B02EB8202053A4FF09B
:101EEC001F0C0CFA02FC20EA0C000D6805FA02F239
:101EFC00024362630A68092A3AD91C68E06802EB5B
:101F0C0042021E3A4FF0070C0CFA02FC20EA0C00BD
:101F1C008D6805FA02F20243E2600A68103A012A5F
:101F2C0036D90020002283F8242002B030BC704740
:101F3C000C2A0ED80568286B02EB8202233A1F2468
:101F4C00944020EA04000C6804FA02F202432A636B
:101F5C00D0E70568E86A02EB8202413A1F249440FC
:101F6C0020EA04000C6804FA02F20243EA62C1E7B8
:101F7C001C68206902EB42024FF0070C0CFA02FCC1
:101F8C0020EA0C008D6805FA02F202432261C4E7D4
:101F9C001A681648824205D09A6A42F020029A6268
:101FAC000120BFE7906810F4000F1BD1906840F43B
:101FBC00000090600A68102A01D00020B2E70C4A99
:101FCC0012680C49A1FB0212920C02EB8202520025
:101FDC00019202E0019A013A0192019A002AF9D188
:101FEC0000209FE700209DE702209EE7002401408F
:101FFC000000002083DE1B43806A704730B583B03D
:10200C000023019303689A6812F0010F33D1044640
:10201C009A6842F001029A60184B1B68184AA2FB9E
:10202C0003239B0C019302E0019B013B0193019B59
:10203C00002BF9D1FFF75EFE054623689B6813F071
:10204C00010F16D1FFF756FE431B022BF5D923685F
:10205C009B6813F0010FF0D1A36A43F01003A36245
:10206C00E36A43F00103E362002384F82430012087
:10207C0002E0002000E0002003B030BD0000002092
:10208C0083DE1B4390F82430012B68D010B5044636
:10209C00012380F82430FFF7B1FF00285BD1A36A3D
:1020AC0023F4407323F0010343F48073A362236889
:1020BC002C4A934227D0A26A22F48012A2625A6858
:1020CC0012F4806F05D0A26A22F4405242F480527E
:1020DC00A262A26A12F4805F2BD0E26A22F006029E
:1020EC00E262002284F824206FF002021A60236856
:1020FC009A6802F46022B2F5602F1DD09A6842F4FF
:10210C0080129A602AE0A2F58062526812F4702F55
:10211C00D1D0A26A42F48012A262134A526812F41D
:10212C00806FD6D0A26A22F4405242F48052A2624E
:10213C00CFE70022E262D4E70A4A934204D09A68BD
:10214C0042F4A0029A6009E0A2F58062526812F48F
:10215C00702FD3D1F3E7002384F8243010BD022074
:10216C00704700BF002801400024014038B50368C7
:10217C009A6812F0010F01D1002038BD04469A680C
:10218C0022F001029A60FFF7B5FD054623689B68B3
:10219C0013F0010F13D0FFF7ADFD431B022BF5D944
:1021AC0023689B6813F0010FF0D0A36A43F010036F
:1021BC00A362E36A43F00103E3620120DDE7002040
:1021CC00DBE7000000287BD070B50446836A002B47
:1021DC004DD02046FFF7CAFFA36A13F0100369D154
:1021EC00002867D1A26A22F4885222F0020242F03F
:1021FC000202A2626268E1690A43217B42EA41025F
:10220C00A568B5F5807F02D0012D36D01D46267D00
:10221C00012E35D02668716821F46941294371601B
:10222C002568AE68274931401143A960A168B1F512
:10223C00807F01D0012902D12369013B1B05256850
:10224C00E96A21F470010B43EB62236899681E4B19
:10225C000B409A4225D0A36A23F0120343F01003DB
:10226C00A362E36A43F00103E362012027E0C36247
:10227C0080F82430FFF750FAABE74FF48075C6E7CF
:10228C0031B9A169013945EA413141F40065C1E731
:10229C00A16A41F02001A162E16A41F00101E16211
:1022AC00B8E70023E362A36A23F0030343F00103BE
:1022BC00A36204E0A36A43F01003A362012070BD83
:1022CC0001207047FDF7E1FFFE0E1FFF70B582B0D5
:1022DC000023019390F82430012B72D00446012383
:1022EC0080F82430FFF742FF2046FFF787FE0546B3
:1022FC0028B1002384F82430284602B070BDA36AAC
:10230C0023F4885323F0020343F00203A3622E4B01
:10231C001E68022000F00EFEB6FBF0F67600019669
:10232C0002E0019B013B0193019B002BF9D1226838
:10233C00936843F008039360FFF7DCFC06462368C0
:10234C009A6812F0080F14D0FFF7D4FC801B0A28EF
:10235C00F5D923689B6813F0080FF0D0A36A23F01B
:10236C00120343F01003A362002384F824300125E8
:10237C00C2E79A6842F004029A60FFF7BBFC06467B
:10238C0023689B6813F0040F14D0FFF7B3FC801B79
:10239C000A28F5D923689B6813F0040FF0D0A36AC0
:1023AC0023F0120343F01003A362002384F82430BB
:1023BC000125A1E7A36A23F0030343F00103A36201
:1023CC0097E7022598E700BF00000020074AD36872
:1023DC0023F4E0631B041B0C000200F4E0600343D5
:1023EC0043F0BF6343F40033D360704700ED00E06B
:1023FC0000B5194BDB68C3F30223C3F1070CBCF126
:10240C00040F28BF4FF0040C03F1040EBEF1060FAD
:10241C0018D9033B4FF0FF3E0EFA0CFC21EA0C01DD
:10242C0099400EFA03F322EA0303194300280BDB4D
:10243C000901C9B200F1604000F5614080F8001359
:10244C005DF804FB0023E5E700F00F000901C9B2B9
:10245C00024B1954F4E700BF00ED00E014ED00E06E
:10246C00002807DB00F01F02400901239340024AB9
:10247C0042F82030704700BF00E100E00138B0F1B5
:10248C00807F0BD24FF0E0235861054AF02182F88F
:10249C0023100020986107221A61704701207047B1
:1024AC0000ED00E090F82130DBB2022B06D00423C3
:1024BC008363002380F82030012070470268136882
:1024CC0023F00E0313600268136823F001031360FA
:1024DC00036CC16B012202FA03F34B6080F82120DC
:1024EC00002380F8203018467047000008B590F89B
:1024FC002130DBB2022B03D004238363012008BDFF
:10250C000268136823F00E0313600268136823F04B
:10251C00010313600368194A934214D01432934296
:10252C001FD0143293421ED0143293421ED0143258
:10253C0093421ED01432934202D04FF0807203E0CB
:10254C004FF4801200E001220D4B5A60012380F8F9
:10255C002130002380F82030436B6BB1984700206A
:10256C00CDE71022F0E74FF48072EDE74FF4805284
:10257C00EAE74FF48032E7E70020C0E708000240AA
:10258C000000024070B582B00024A446A6E0804D45
:10259C00AA4210D007D97F4DAA420CD005F5803540
:1025AC00AA4208D013E0A5F58015AA4203D005F580
:1025BC007025AA4207D18A68002A58D0012A51D026
:1025CC004361082403E0A5F58015AA42F3D0BEF1BF
:1025DC00FF0F4ED80646BEF1FF0F4CD84FEA8C02C7
:1025EC0033680F25954023EA050304FA02F21343DE
:1025FC0033604B6813F0805F6ED0674B9A6942F082
:10260C0001029A619B6903F001030193019B4FEA5C
:10261C009C02951C614B53F825600CF003039D0044
:10262C000F23AB4026EA03065D4B984229D003F5F5
:10263C008063984200F08E8003F58063984200F02E
:10264C008B8003F58063984219D004231AE0CC6880
:10265C00BDE7CC680434BAE7CC680834B7E7CC687B
:10266C000C34B4E703610824B1E70024AFE7042479
:10267C00ADE7061DAFE7ACF108029200B0E703230B
:10268C0000E00023AB4033430232444D45F8223086
:10269C004B6813F4801F61D0424A936843EA0E03DF
:1026AC0093604B6813F4001F5ED03E4AD36843EA34
:1026BC000E03D3604B6813F4003F5BD0394A536868
:1026CC0043EA0E0353604B6813F4803F58D0354AED
:1026DC00136843EA0E0313600CF1010C0A6832FA1A
:1026EC000CF353D0012303FA0CF302EA030E33EA82
:1026FC000202F1D14A68122A3FF649AF122A3FF67C
:10270C0066AF01A555F822F0C32500085B2600082A
:10271C006526000877260008DB250008DB25000865
:10272C00DB250008DB250008DB250008DB2500087D
:10273C00DB250008DB250008DB250008DB2500086D
:10274C00DB250008DB250008DB2500085F260008D8
:10275C006B260008012395E7022393E7114A93683F
:10276C0023EA0E0393609CE70E4AD36823EA0E0318
:10277C00D3609FE70B4A536823EA0E035360A2E72A
:10278C00084A136823EA0E031360A5E702B070BD74
:10279C000000221000003110001002400000014027
:1027AC0000080140000401408368194201D0012057
:1027BC007047002070470AB101617047090401613C
:1027CC007047C36801EA030221EA030141EA0241AE
:1027DC000161704782B0084B1B68084AA2FB0323B7
:1027EC005B0A00FB03F3019300BF019B5A1E01928D
:1027FC00002BF9D102B0704700000020D34D6210BD
:10280C00002800F0F18170B582B00446036813F023
:10281C00010F2CD0994B5B6803F00C03042B1DD0DB
:10282C00964B5B6803F00C03082B12D06368B3F56E
:10283C00803F41D0002B55D103F1804303F5043385
:10284C001A6822F480321A601A6822F480221A6004
:10285C0037E08A4B5B6813F4803FE7D0874B1B68EB
:10286C0013F4003F03D06368002B00F0BF81236892
:10287C0013F0020F75D0814B5B6813F00C0F5FD017
:10288C007E4B5B6803F00C03082B54D02369002BA0
:10289C0000F08A807A4B01221A60FFF72BFA05466A
:1028AC00764B1B6813F0020F75D1FFF723FA401B10
:1028BC000228F5D903209EE1704A136843F4803353
:1028CC001360636843B3FFF715FA05466B4B1B683F
:1028DC0013F4003FCBD1FFF70DFA401B6428F5D958
:1028EC00032088E1B3F5A02F09D0644B1A6822F4B9
:1028FC0080321A601A6822F480221A60E1E703F130
:10290C008043A3F53C331A6842F480221A601A689B
:10291C0042F480321A60D4E7FFF7ECF90546574BC6
:10292C001B6813F4003FA2D0FFF7E4F9401B6428A6
:10293C00F5D903205FE1514B5B6813F4803FA5D1BF
:10294C004E4B1B6813F0020F03D02369012B40F090
:10295C004F814A4A136823F0F803616943EAC103C3
:10296C001360236813F0080F33D0A369002B5CD0DD
:10297C00434B0122C3F88024FFF7BCF905463F4BBB
:10298C005B6A13F0020F21D1FFF7B4F9401B022848
:10299C00F5D903202FE1394A136823F0F803616954
:1029AC0043EAC1031360DCE7354B00221A60FFF7E2
:1029BC00A1F90546314B1B6813F0020FD1D0FFF77C
:1029CC0099F9401B0228F5D9032014E10120FFF7E7
:1029DC0001FF236813F0040F00F09680274BDB698E
:1029EC0013F0805F34D1254BDA6942F08052DA6102
:1029FC00DB6903F080530193019B0125214B1B687C
:102A0C0013F4807F26D0E368012B3DD0002B53D1EB
:102A1C0003F1804303F504331A6A22F001021A62AF
:102A2C001A6A22F004021A6233E0154B0022C3F832
:102A3C008024FFF75FF90546104B5B6A13F0020F19
:102A4C00C7D0FFF757F9401B0228F5D90320D2E075
:102A5C000025D3E70B4A136843F480731360FFF728
:102A6C0049F90646074B1B6813F4807FCBD1FFF75F
:102A7C0041F9801B6428F5D90320BCE0001002400A
:102A8C0000004242007000405F4A136A43F00103A9
:102A9C001362E36833B3FFF72DF906465A4B1B6AF2
:102AAC0013F0020F2FD1FFF725F9801B41F2883369
:102ABC009842F3D903209EE0052B09D0524B1A6A99
:102ACC0022F001021A621A6A22F004021A62E0E78A
:102ADC004D4B1A6A42F004021A621A6A42F0010261
:102AEC001A62D6E7FFF706F90646474B1B6A13F046
:102AFC00020F08D0FFF7FEF8801B41F28833984292
:102B0C00F3D9032077E0E5B9E369002B72D03E4A94
:102B1C00526802F00C02082A56D0022B17D03B4BFD
:102B2C0000221A66FFF7E6F80446374B1B6813F0D1
:102B3C00007F47D0FFF7DEF8001B0228F5D90320F1
:102B4C0059E0314AD36923F08053D361DCE72F4B32
:102B5C0000221A66FFF7CEF805462B4B1B6813F0C4
:102B6C00007F06D0FFF7C6F8401B0228F5D90320DA
:102B7C0041E0236AB3F5803F1AD023494B6823F414
:102B8C007413226A606A024313434B601F4B012289
:102B9C001A66FFF7AFF804461B4B1B6813F0007F57
:102BAC000ED1FFF7A7F8001B0228F5D9032022E06D
:102BBC00154A536823F40033A1680B435360DCE7D8
:102BCC00002018E0002016E0012B16D00E4B5B689D
:102BDC0003F48031226A914211D103F47013626ABA
:102BEC0093420ED1002006E001207047012002E044
:102BFC00012000E0002002B070BD0120FBE70120A5
:102C0C00F9E70120F7E700BF001002400000424244
:102C1C000F4B5B6803F00C02082A01D00D4870477B
:102C2C00C3F383420C49885C13F4803F0BD0084BF0
:102C3C005B68C3F34043094AD35C064A02FB00F0CD
:102C4C00B0FBF3F07047064B03FB00F0704700BF7E
:102C5C000010024000127A00304300084043000884
:102C6C0000093D00002800F0A08070B50D46044618
:102C7C00524B1B6803F007038B420BD24F4A13686D
:102C8C0023F007030B431360136803F007038B4215
:102C9C0040F08D80236813F0020F17D013F0040F4F
:102CAC0004D0474A536843F4E0635360236813F03D
:102CBC00080F04D0424A536843F460535360404AAF
:102CCC00536823F0F003A1680B435360236813F09F
:102CDC00010F31D06368012B20D0022B25D0384A4C
:102CEC00126812F0020F64D035494A6822F00302D0
:102CFC0013434B60FEF7FEFF0646314B5B6803F057
:102D0C000C036268B3EB820F16D0FEF7F3FF801B47
:102D1C0041F288339842F0D9032045E0284A1268E2
:102D2C0012F4003FE0D101203EE0254A126812F077
:102D3C00007FD9D1012037E0204B1B6803F007033B
:102D4C00AB420AD91D4A136823F007032B431360C7
:102D5C00136803F00703AB422DD1236813F0040F63
:102D6C0006D0174A536823F4E063E1680B435360C1
:102D7C00236813F0080F07D0114A536823F46053EB
:102D8C00216943EAC1035360FFF742FF0C4B5B68B8
:102D9C00C3F303130B4AD35CD8400B4B18600B4B9B
:102DAC001868FEF763FF002070BD012070470120FA
:102DBC00FAE70120F8E70120F6E700BF0020024007
:102DCC0000100240184300080000002008000020FA
:102DDC00014B1868704700BF0000002008B5FFF7D2
:102DEC00F7FF044B5B68C3F30223034AD35CD84060
:102DFC0008BD00BF001002402843000808B5FFF7CB
:102E0C00E7FF044B5B68C3F3C223034AD35CD8408F
:102E1C0008BD00BF001002402843000870B582B006
:102E2C000446036813F0010F36D03F4BDB6913F0F7
:102E3C00805F49D13C4BDA6942F08052DA61DB6940
:102E4C0003F080530193019B0125384B1B6813F44D
:102E5C00807F3BD0344B1B6A13F4407313D06268F1
:102E6C0002F440729A420ED02F4A136A23F4407037
:102E7C002F490126C1F840640026C1F84064106255
:102E8C0013F0010F36D1284A136A23F4407361689A
:102E9C000B431362002D3ED1236813F0020F06D0B2
:102EAC00214A536823F44043A1680B4353602368C1
:102EBC0013F0100F34D01C4A536823F48003E168DC
:102ECC000B43536000202CE00025BEE7174A136823
:102EDC0043F480731360FEF70DFF0646134B1B681B
:102EEC0013F4807FB6D1FEF705FF801B6428F5D95B
:102EFC00032016E0FEF7FEFE06460B4B1B6A13F092
:102F0C00020FC0D1FEF7F6FE801B41F288339842C7
:102F1C00F3D9032005E0D36923F08053D361BBE7D9
:102F2C00002002B070BD00BF0010024000700040D5
:102F3C000000424208B502284ED0102803D00128C8
:102F4C0028D0002008BD2B4B5A68186810F08070F0
:102F5C00F8D0C2F383432849C85C12F4803F15D0E3
:102F6C00244B5B68C3F34043244AD25C244BB3FB31
:102F7C00F2F303FB00F01F4B5B6813F4800FE1D1FD
:102F8C004000204BA3FB00304008DBE71E4B03FB4B
:102F9C0000F0F0E7174B1B6A40F202321A40B2F510
:102FAC00817F24D003F44073B3F5007F04D0B3F5D4
:102FBC00407F09D00020C5E70E4A526A12F0020F7A
:102FCC00F5D049F64040BDE70A4B186810F40030C4
:102FDC00B8D04FF22440B5E7FFF710FF054B5B6804
:102FEC00C3F3813301335B00B0FBF3F0AAE74FF47A
:102FFC000040A7E700100240444300085443000877
:10300C0000127A00ABAAAAAA00093D0010B4036A08
:10301C00046A24F001040462846924F0F00C4CEA84
:10302C00021223F00A030B438261036210BC704747
:10303C0010B4036A046A24F010040462846924F452
:10304C00704C4CEA023223F0A00343EA0113826174
:10305C00036210BC7047836823F070030B4343F08A
:10306C00070383607047000090F83D30DBB2012B02
:10307C0022D1022380F83D300368114A934210D0CC
:10308C00B3F1804F0DD0A2F59432934209D002F5E2
:10309C008062934205D01A6842F001021A60002047
:1030AC0070479A6802F00702062A07D01A6842F0A5
:1030BC0001021A6000207047012070470020704701
:1030CC00002C01400368196A41F21112114208D117
:1030DC00196A40F24442114203D11A6822F00102EB
:1030EC001A60012380F83D300020704703681B4AAA
:1030FC0090420AD0B0F1804F07D0A2F594329042A2
:10310C0003D002F58062904203D123F070034A6829
:10311C001343124A90420AD0B0F1804F07D0A2F567
:10312C009432904203D002F58062904203D123F492
:10313C004073CA68134323F080034A691343036046
:10314C008B68C3620B688362044B984202D00123E4
:10315C00436170470B690363F9E700BF002C014022
:10316C0040B310B5044690F83D30F3B1022384F817
:10317C003D30214651F8040BFFF7B8FF012384F8CA
:10318C00463084F83E3084F83F3084F8403084F880
:10319C00413084F8423084F8433084F8443084F869
:1031AC00453084F83D30002010BD80F83C30FEF7EF
:1031BC00C3FCDBE70120704710B4846824F47F4C17
:1031CC0042EA03220A4342EA0C02826010BC7047B6
:1031DC0090F83C30012B78D010B50446012380F8D0
:1031EC003C30022380F83D300268936823F47F431F
:1031FC0023F0770393600B68602B4CD029D8402BBD
:10320C0054D00CD9502B22D1CA6849680068FFF7FA
:10321C00FDFE50212068FFF71EFF002005E0202B4B
:10322C000DD009D9302B0AD00120012384F83D3070
:10323C00002384F83C3010BD0BB1102B05D119467E
:10324C002068FFF708FF0020EFE70120EDE70120E1
:10325C00EBE7B3F5805F34D0B3F5005F0CD1CB68EE
:10326C004A6889680068FFF7A7FF2268936843F4EF
:10327C00804393600020D8E7702B24D1CB684A6838
:10328C0089680068FFF798FF2268936843F077031A
:10329C0093600020C9E7CA6849680068FFF7C8FE58
:1032AC0060212068FFF7D7FE0020BEE7CA68496896
:1032BC000068FFF7ABFE40212068FFF7CCFE002032
:1032CC00B3E70020B1E70120AFE702207047000010
:1032DC0090F83C30012B2CD010B4012380F83C30FA
:1032EC00022380F83D3003685A689C6822F0700C09
:1032FC000A6842EA0C025A6003680F4A93420AD0E9
:10330C00B3F1804F07D0A2F59432934203D002F56B
:10331C008062934204D124F080044A6814439C6078
:10332C00012380F83D30002380F83C30184610BC57
:10333C0070470220704700BF002C0140026802F168
:10334C000C0353E8003F23F490730C3242E8003135
:10335C000029F3D1026802F1140353E8003F23F073
:10336C000103143242E800310029F3D1036B012B25
:10337C0005D0202380F84230002303637047026895
:10338C0002F10C0353E8003F23F010030C3242E827
:10339C0000310029F3D1ECE790F84130DBB2212B5E
:1033AC0001D0022070478368B3F5805F17D0036AA1
:1033BC005A1C02621A7803685A60C38C9BB2013B98
:1033CC009BB2C3844BB90268D36823F08003D360EB
:1033DC000268D36843F04003D36000207047036950
:1033EC00002BE4D1036A1B880268C3F30803536003
:1033FC00036A02330362E0E710B5044602681369FE
:10340C0023F44053C1680B4313618368026913436F
:10341C0042691A430168CB6823F4B05323F00C03C0
:10342C001343CB600268536923F4407381690B43E7
:10343C0053610268134B9A4220D0FFF7CFFC02462F
:10344C0002EB820202EB820263689B00B2FBF3F296
:10345C000D48A0FB02314909642303FB11231B0116
:10346C003233A0FB03235B0903F0F00202EB0112E1
:10347C0003F00F03216813448B6010BDFFF7BEFCF3
:10348C000246DDE7003801401F85EB5160B310B5F3
:10349C00044690F8413013B3242384F84130226859
:1034AC00D36823F40053D3602046FFF7A5FF2268AE
:1034BC00136923F4904313612268536923F02A03A0
:1034CC0053612268D36843F40053D36000206064D6
:1034DC00202384F8413084F84230606310BD80F8BA
:1034EC004030FEF759FBD7E701207047704708B50D
:1034FC000168CA6822F04002CA60202280F841208C
:10350C00FFF7F4FF002008BD704708B5406A0023A0
:10351C00C385C384FFF7F8FF08BD704790F84230AD
:10352C00DBB2222B69D18368B3F5805F4FD0826AFE
:10353C00B3F5805F04D0002B56D10369002B53D117
:10354C0003685B681370836A01338362C38D9BB21B
:10355C00013B9BB2C385002B51D100B583B00268EF
:10356C00D36823F02003D3600268D36823F48073FC
:10357C00D3600268536923F001035361202380F860
:10358C00423000234363036B012B33D100230363CD
:10359C00026802F10C0353E8003F23F010030C32D5
:1035AC0042E800310029F3D103681A6812F0100FB9
:1035BC0006D0002201921A6801925B680193019B6C
:1035CC00818DFFF7AAFF002003B05DF804FB0269B0
:1035DC00002AACD1826A03685B68C3F308031380CA
:1035EC00836A02338362B1E703685B6803F07F038D
:1035FC001370A8E7FEF76AF9E5E702207047002090
:10360C007047000030B583B0044602681368D06878
:10361C00516913F00F0505D113F0200F02D010F0F3
:10362C00200F19D12DB111F0010119D110F4907F97
:10363C0016D1216B01297DD013F0800F03D010F02F
:10364C00800F40F0188113F0400F03D010F0400FA2
:10365C0040F0158103B030BD2046FFF75FFFF9E75E
:10366C0013F0010F06D010F4807F03D0626C42F08F
:10367C000102626413F0040F04D019B1626C42F0C1
:10368C000202626413F0020F04D019B1626C42F0B2
:10369C000402626413F0080F07D010F0200F00D161
:1036AC0019B1626C42F008026264626C002AD1D0DB
:1036BC0013F0200F02D010F0200F29D123685B6982
:1036CC0003F04003626C12F0080F00D163B3204684
:1036DC00FFF734FE23685B6913F0400F20D022689B
:1036EC0002F1140353E8003F23F04003143242E884
:1036FC0000310029F3D1E36B73B1634A5A63E06B79
:10370C00FEF7F4FE0028A5D0E06B436B9847A1E7C9
:10371C002046FFF703FFD1E72046FFF7F5FE99E7B8
:10372C002046FFF7F1FE95E72046FFF7EDFE00235C
:10373C0063648FE713F0100F3FF47EAF10F0100F9F
:10374C003FF47AAF002301931368019353680193FC
:10375C00019B536913F0400F51D0E26B13685B6807
:10376C009BB2002B3FF476AFA18D99427FF672AFDE
:10377C00E3859369202B37D0226802F10C0353E8C0
:10378C00003F23F480730C3242E800310029F3D15E
:10379C00226802F1140353E8003F23F001031432B2
:1037AC0042E800310029F3D1226802F1140353E8F6
:1037BC00003F23F04003143242E800310029F3D1DA
:1037CC00202384F8423000232363226802F10C0387
:1037DC0053E8003F23F010030C3242E8003100297B
:1037EC00F3D1E06BFEF75EFE02236363A18DE38DE4
:1037FC009BB2C91A89B22046FFF78FFE2AE7A18D2A
:10380C00E38D9BB2C91A89B2E38D9BB2002B3FF4B6
:10381C0021AF00293FF41EAF226802F10C0353E8DC
:10382C00003F23F490730C3242E800300028F3D1AF
:10383C00226802F1140353E8003F23F00103143211
:10384C0042E800300028F3D1202384F842300023D2
:10385C002363226802F10C0353E8003F23F01003AA
:10386C000C3242E800300028F3D102236363204677
:10387C00FFF753FEEEE62046FFF78EFDEAE6204604
:10388C00FFF735FEE6E600BF17350008816282853A
:10389C00C28500234364222380F84230036923B19C
:1038AC000268D36843F48073D3600268536943F0B1
:1038BC00010353610268D36843F02003D3600020F6
:1038CC00704708B590F84230DBB2202B08D149B1D3
:1038DC000AB9012008BD00230363FFF7D7FFF9E7FE
:1038EC000220F7E70120F5E770B50D4E0D4D761B64
:1038FC00B61006D0002455F8043B01349847A64274
:10390C00F9D1094E094D00F0D5F8761BB61006D04A
:10391C00002455F8043B01349847A642F9D170BDF8
:10392C005C4300085C430008644300085C430008E7
:10393C00830730B548D0541E002A3FD00346CAB284
:10394C0001E0013C3AD303F8012B9D07F9D1032C7C
:10395C002DD9CDB245EA05250F2C45EA054536D9BA
:10396C00A4F1100222F00F0C03F1200EE6444FEAF2
:10397C00121C03F1100242E9045542E902551032BF
:10398C007245F8D10CF1010214F00C0F03EB02128A
:10399C0004F00F0C13D0ACF1040323F00303043335
:1039AC00134442F8045B9342FBD10CF003042CB19A
:1039BC00CAB21C4403F8012B9C42FBD130BD6446B7
:1039CC001346002CF4D1F9E703461446BFE71A4618
:1039DC00A446E0E7024B13B1024800F005B870476B
:1039EC0000000000013A0008002301461A46184660
:1039FC0000F01AB838B5084B084D5B1B9C1007D06B
:103A0C00043B1D44013C55F804399847002CF9D16E
:103A1C00BDE8384000F054B868430008644300081F
:103A2C00704700BF704700BF2DE9F047DFF87CA05E
:103A3C000646DAF8000098460F469146FFF7F0FF6D
:103A4C001B4B1B68D3F8484124B365681F2D26DC3B
:103A5C005EB96B1C0235DAF80000636044F825701F
:103A6C00FFF7E0FF0020BDE8F087012304EB8501A0
:103A7C00C1F88890D4F88821AB401A43022EC4F8C0
:103A8C008821C1F80881E4D1D4F88C211343C4F8FF
:103A9C008C31DEE703F5A674C3F84841D5E7DAF8B4
:103AAC000000FFF7BFFF4FF0FF30DCE738040020C9
:103ABC0058430008F8B500BFF8BC08BC9E467047D8
:0C3ACC00F8B500BFF8BC08BC9E4670476F
:103AD8000000000000000000002F000000000700A8
:103AE800070000147F147F1400242A7F2A12006222
:103AF80064081323003649552250000005030000CE
:103B080000001C224100000041221C000014083E55
:103B180008140008083E0808000000A0600000081B
:103B2800080808080000606000000020100804026F
:103B3800003E5149453E0000427F4000004261512D
:103B48004946002141454B31001814127F100027C7
:103B580045454539003C4A4949300001710905038A
:103B680000364949493600064949291E00003636BB
:103B7800000000005636000000081422410000141E
:103B880014141414000041221408000201510906FB
:103B980000324959513E007C1211127C007F49497C
:103BA8004936003E41414122007F4141221C007FAD
:103BB80049494941007F09090901003E4149497ABB
:103BC800007F0808087F0000417F41000020404135
:103BD8003F01007F08142241007F40404040007FA1
:103BE800020C027F007F0408107F003E4141413EE5
:103BF800007F09090906003E4151215E007F09192D
:103C080029460046494949310001017F0101003F29
:103C18004040403F001F2040201F003F4038403FA9
:103C2800006314081463000708700807006151490D
:103C3800454300007F41410000552A552A550000A0
:103C480041417F000004020102040040404040401E
:103C5800000001020400002054545478007F4844B6
:103C6800443800384444442000384444487F0038ED
:103C78005454541800087E0901020018A4A4A47C16
:103C8800007F080404780000447D400000408084E0
:103C98007D00007F102844000000417F4000007C28
:103CA80004180478007C0804047800384444443834
:103CB80000FC242424180018242418FC007C080480
:103CC800040800485454542000043F444020003C59
:103CD8004040207C001C2040201C003C4030403CE0
:103CE800004428102844001CA0A0A07C0044645470
:103CF8004C441414141414140000000000000000B4
:103D08000000000000000000000000F800000000B3
:103D1800000000333000000000100C06100C0600F4
:103D2800000000000000000040C07840C07840005B
:103D3800043F04043F040400007088FC08300000BD
:103D4800001820FF211E0000F008F000E018000015
:103D580000211C031E211E0000F0088870000000CE
:103D68001E2123241927211010160E000000000020
:103D78000000000000000000000000E0180402003D
:103D8800000000071820400000020418E0000000AE
:103D98000040201807000000404080F080404000AC
:103DA8000202010F01020200000000F00000000002
:103DB8000101011F010101000000000000000000D6
:103DC80080B070000000000000000000000000004B
:103DD80000010101010101010000000000000000D4
:103DE800003030000000000000000000806018046F
:103DF800006018060100000000E010080810E0004C
:103E0800000F102020100F00001010F80000000014
:103E18000020203F2020000000700808088870005B
:103E280000302824222130000030088888483000DB
:103E38000018202020110E000000C02010F80000FB
:103E480000070424243F240000F808888808080094
:103E58000019212020110E0000E0108888180000A9
:103E6800000F112020110E0000380808C83808007B
:103E78000000003F000000000070880808887000FB
:103E8800001C222121221C0000E010080810E0007C
:103E98000000312222110F00000000C0C000000005
:103EA800000000303000000000000080000000002A
:103EB8000000806000000000000080402010080022
:103EC80000010204081020004040404040404000EB
:103ED80004040404040404000008102040800000C6
:103EE8000020100804020100007048080808F000CB
:103EF8000000003036010000C030C828E810E0009B
:103F08000718272423140B000000C038E000000025
:103F1800203C23020227382008F88888887000008F
:103F2800203F202020110E00C03008080808380063
:103F3800071820202010080008F808080810E000DA
:103F4800203F202020100F0008F88888E80810007B
:103F5800203F20202320180008F88888E80810004F
:103F6800203F200003000000C03008080838000087
:103F780007182020221E020008F808000008F80888
:103F8800203F210101213F20000808F8080800000F
:103F98000020203F2020000000000808F808080042
:103FA800C08080807F00000008F888C028180800BA
:103FB800203F20012638200008F8080000000000F3
:103FC800203F20202020300008F8F800F8F80800EA
:103FD800203F003F003F200008F830C00008F808E4
:103FE800203F200007183F00E01008080810E000F4
:103FF8000F10202020100F0008F808080808F0000B
:10400800203F210101010000E01008080810E0002D
:104018000F18242438504F0008F8888888887000C2
:10402800203F2000030C3020007088080808380062
:104038000038202121221C00180808F80808180058
:104048000000203F2000000008F808000008F808D9
:10405800001F202020201F000878880000C838088A
:10406800000007380E010000F80800F80008F80002
:10407800033C0700073C030008186880806818089C
:1040880020302C03032C30200838C800C83808001A
:104098000000203F2000000010080808C838080069
:1040A8002038262120201800000000FE020202000D
:1040B8000000007F40404000000C30C000000000BD
:1040C800000000010638C00000020202FE000000E5
:1040D800004040407F00000000000402020204008B
:1040E80000000000000000000000000000000000C8
:1040F80080808080808080800002020400000000B0
:1041080000000000000000000000808080800000A7
:104118000019242222223F2008F800808000000095
:10412800003F112020110E00000000808080000058
:10413800000E112020201100000000808088F80067
:10414800000E112020103F20000080808080000099
:10415800001F222222221300008080F088888818FD
:104168000020203F20200000000080808080800008
:10417800006B94949493600008F80080808000009D
:10418800203F210000203F20008098980000000078
:104198000020203F202000000000008098980000A8
:1041A80000C08080807F000008F8000080808000C8
:1041B800203F24022D302000000808F800000000ED
:1041C8000020203F202000008080808080808000A8
:1041D800203F20003F20003F80800080808000003A
:1041E800203F210000203F200000808080800000C8
:1041F800001F202020201F008080008080000000F9
:1042080080FFA12020110E00000000808080800027
:10421800000E112020A0FF80808080008080800018
:1042280020203F2120000100000080808080800045
:104238000033242424241900008080E080800000BA
:104248000000001F20200000808000000080800007
:10425800001F202020103F20808080000080808068
:1042680000010E30080601008080008000808080F8
:104278000F300C030C300F0000808000808080001D
:104288000020312E0E312000808080000080808048
:1042980080818E70180601000080808080808000F8
:1042A8000021302C2221300000000000807C020216
:1042B80000000000003F404000000000FF00000038
:1042C80000000000FF0000000002027C80000000E7
:1042D8000040403F00000000000601010202040403
:1042E80000000000000000002F6D79736D6172748A
:1042F800747572746C652F73756200002F6D797315
:104308006D617274747572746C652F7075620000DB
:10431800000000000000000001020304060708096D
:10432800000000000102030402030405060708094F
:104338000A0B0C0D0E0F10100102000002030405F9
:10434800060708090A0B0C0D0E0F101001020000D9
:044358001000002031
:08435C00E139000831010008FD
:044364000D0100083F
:104368000024F4000100000010000000000000001C
:1043780000000000FC02002064030020CC030020A1
:104388000000000000000000000000000000000025
:104398000000000000000000000000000000000015
:1043A8000000000000000000000000000000000005
:1043B80000000000000000000000000000000000F5
:1043C80000000000000000000000000000000000E5
:1043D80000000000000000000000000000000000D5
:1043E80000000000000000000000000000000000C5
:1043F80000000000000000000000000000000000B5
:1044080000000000000000000000000000000000A4
:104418000000000000000000010000000000000093
:104428000E33CDAB34126DE6ECDE05000B00000058
:104438000000000000000000000000000000000074
:104448000000000000000000000000000000000064
:104458000000000000000000000000000000000054
:104468000000000000000000000000000000000044
:0C47980000000000000000007005002080
:0400000508001C2DA6
:00000001FF
