:020000040800F2
:10000000005000200D2F0008ED2C0008EF2C0008F8
:10001000F12C0008F32C0008F52C0008000000006B
:10002000000000000000000000000000F72C0008A5
:10003000F92C000800000000FB2C0008FD2C000833
:10004000552F0008552F0008552F0008552F000880
:10005000552F0008552F0008552F0008552F000870
:10006000552F0008552F0008552F0008552F000860
:10007000552F0008552F0008552F0008552F000850
:10008000552F0008552F0008552F0008552F000840
:10009000552F0008552F0008552F0008552F000830
:1000A000552F0008552F0008552F0008552F000820
:1000B000552F0008552F0008552F0008552F000810
:1000C000552F0008552F0008552F0008552F000800
:1000D000552F0008552F0008052D0008552F000842
:1000E000552F0008552F0008552F0008000000006C
:1000F0000000000000000000000000000000000000
:0C01000000000000000000005FF808F1A3
:1001100010B5054C237833B9044B13B10448AFF341
:1001200000800123237010BDE009002000000000C2
:1001300074F4000808B5034B1BB103490348AFF33F
:10014000008008BD00000000E409002074F40008ED
:1001500081F0004102E000BF83F0004330B54FEA78
:1001600041044FEA430594EA050F08BF90EA020FE5
:100170001FBF54EA000C55EA020C7FEA645C7FEA78
:10018000655C00F0E2804FEA5454D4EB5555B8BF9B
:100190006D420CDD2C4480EA020281EA030382EA0C
:1001A000000083EA010180EA020281EA0303362D9E
:1001B00088BF30BD11F0004F4FEA01314FF4801C71
:1001C0004CEA113102D0404261EB410113F0004F83
:1001D0004FEA03334CEA133302D0524263EB43033A
:1001E00094EA050F00F0A780A4F10104D5F1200ED8
:1001F0000DDB02FA0EFC22FA05F2801841F1000133
:1002000003FA0EF2801843FA05F359410EE0A5F106
:1002100020050EF1200E012A03FA0EFC28BF4CF037
:10022000020C43FA05F3C01851EBE37101F00045ED
:1002300007D54FF0000EDCF1000C7EEB00006EEBFA
:100240000101B1F5801F1BD3B1F5001F0CD3490884
:100250005FEA30004FEA3C0C04F101044FEA4452DB
:1002600012F5800F80F09A80BCF1004F08BF5FEA62
:10027000500C50F1000041EB045141EA050130BD42
:100280005FEA4C0C404141EB0101013C28BFB1F554
:10029000801FE9D291F0000F04BF01460020B1FA9F
:1002A00081F308BF2033A3F10B03B3F120020CDA72
:1002B0000C3208DD02F1140CC2F10C0201FA0CF050
:1002C00021FA02F10CE002F11402D8BFC2F1200CB5
:1002D00001FA02F120FA0CFCDCBF41EA0C0190406B
:1002E000E41AA2BF01EB0451294330BD6FEA0404B4
:1002F0001F3C1CDA0C340EDC04F11404C4F120029F
:1003000020FA04F001FA02F340EA030021FA04F3B0
:1003100045EA030130BDC4F10C04C4F1200220FA07
:1003200002F001FA04F340EA0300294630BD21FA45
:1003300004F0294630BD94F0000F83F4801306BF0B
:1003400081F480110134013D4EE77FEA645C18BFFF
:100350007FEA655C29D094EA050F08BF90EA020F96
:1003600005D054EA000C04BF1946104630BD91EA8E
:10037000030F1EBF0021002030BD5FEA545C05D191
:100380004000494128BF41F0004130BD14F58004D0
:100390003CBF01F5801130BD01F0004545F0FE4144
:1003A00041F470014FF0000030BD7FEA645C1ABF79
:1003B000194610467FEA655C1CBF0B46024650EAB0
:1003C000013406BF52EA033591EA030F41F40021DC
:1003D00030BD00BF90F0000F04BF0021704730B562
:1003E0004FF4806404F132044FF000054FF0000137
:1003F00050E700BF90F0000F04BF0021704730B5F8
:100400004FF4806404F1320410F0004548BF4042CC
:100410004FF000013EE700BF42004FEAE2014FEA21
:1004200031014FEA02701FBF12F07F4393F07F4FFC
:1004300081F06051704732F07F4208BF704793F0FF
:100440007F4F04BF41F40021704730B54FF4607412
:1004500001F0004521F000411CE700BF50EA010215
:1004600008BF704730B54FF000050AE050EA0102BE
:1004700008BF704730B511F0004502D5404261EB2E
:1004800041014FF4806404F132045FEA915C3FF46F
:10049000D8AE4FF003025FEADC0C18BF03325FEA0C
:1004A000DC0C18BF033202EBDC02C2F1200300FABD
:1004B00003FC20FA02F001FA03FE40EA0E0021FAE2
:1004C00002F11444BDE600BF70B54FF0FF0C4CF4D0
:1004D000E06C1CEA11541DBF1CEA135594EA0C0F82
:1004E00095EA0C0F00F0DEF82C4481EA030621EABD
:1004F0004C5123EA4C5350EA013518BF52EA0335F8
:1005000041F4801143F4801338D0A0FB02CE4FF0A9
:100510000005E1FB02E506F00042E0FB03E54FF0D9
:100520000006E1FB03569CF0000F18BF4EF0010ED1
:10053000A4F1FF04B6F5007F64F5407404D25FEACD
:100540004E0E6D4146EB060642EAC62141EA555180
:100550004FEAC52040EA5E504FEACE2EB4F1FD0CC2
:1005600088BFBCF5E06F1ED8BEF1004F08BF5FEA40
:10057000500E50F1000041EB045170BD06F00046F2
:1005800046EA010140EA020081EA0301B4EB5C049F
:10059000C2BFD4EB0C0541EA045170BD41F4801197
:1005A0004FF0000E013C00F3AB8014F1360FDEBFBC
:1005B000002001F0004170BDC4F10004203C35DA98
:1005C0000C341BDC04F11404C4F1200500FA05F31B
:1005D00020FA04F001FA05F240EA020001F00042BC
:1005E00021F0004110EBD37021FA04F642EB060132
:1005F0005EEA430E08BF20EAD37070BDC4F10C045C
:10060000C4F1200500FA04F320FA05F001FA04F21F
:1006100040EA020001F0004110EBD37041F100010B
:100620005EEA430E08BF20EAD37070BDC4F1200516
:1006300000FA05F24EEA020E20FA04F301FA05F27E
:1006400043EA020321FA04F001F0004121FA04F226
:1006500020EA020000EBD3705EEA430E08BF20EAF6
:10066000D37070BD94F0000F0FD101F00046400030
:1006700041EB010111F4801F08BF013CF7D041EAB2
:10068000060195F0000F18BF704703F000465200B6
:1006900043EB030313F4801F08BF013DF7D043EA87
:1006A0000603704794EA0C0F0CEA135518BF95EA3D
:1006B0000C0F0CD050EA410618BF52EA4306D1D1C4
:1006C00081EA030101F000414FF0000070BD50EAE3
:1006D000410606BF1046194652EA430619D094EA6D
:1006E0000C0F02D150EA013613D195EA0C0F05D157
:1006F00052EA03361CBF104619460AD181EA0301AB
:1007000001F0004141F0FE4141F470014FF0000062
:1007100070BD41F0FE4141F4780170BD70B54FF0FD
:10072000FF0C4CF4E06C1CEA11541DBF1CEA13557D
:1007300094EA0C0F95EA0C0F00F0A7F8A4EB05045F
:1007400081EA030E52EA03354FEA013100F0888056
:100750004FEA03334FF0805545EA131343EA12631F
:100760004FEA022245EA111545EA10654FEA0026D4
:100770000EF000419D4208BF964244F1FD0404F58D
:10078000407402D25B084FEA3202B61A65EB0305E9
:100790005B084FEA32024FF480104FF4002CB6EBA6
:1007A000020E75EB030E22BFB61A754640EA0C0026
:1007B0005B084FEA3202B6EB020E75EB030E22BF66
:1007C000B61A754640EA5C005B084FEA3202B6EBA7
:1007D000020E75EB030E22BFB61A754640EA9C0066
:1007E0005B084FEA3202B6EB020E75EB030E22BF36
:1007F000B61A754640EADC0055EA060E18D04FEAF4
:10080000051545EA16754FEA06164FEAC30343EA93
:1008100052734FEAC2025FEA1C1CC0D111F4801F60
:100820000BD141EA00014FF000004FF0004CB6E759
:1008300011F4801F04BF01430020B4F1FD0C88BFF8
:10084000BCF5E06F3FF6AFAEB5EB030C04BFB6EB03
:10085000020C5FEA500C50F1000041EB045170BDF6
:100860000EF0004E4EEA113114EB5C04C2BFD4EB23
:100870000C0541EA045170BD41F480114FF0000EA7
:10088000013C90E645EA060E8DE60CEA135594EA23
:100890000C0F08BF95EA0C0F3FF43BAF94EA0C0F26
:1008A0000AD150EA01347FF434AF95EA0C0F7FF49B
:1008B00025AF104619462CE795EA0C0F06D152EAEF
:1008C00003353FF4FDAE1046194622E750EA4106D3
:1008D00018BF52EA43067FF4C5AE50EA41047FF4E4
:1008E0000DAF52EA43057FF4EBAE12E74FF0FF3C49
:1008F00006E000BF4FF0010C02E000BF4FF0010C1A
:100900004DF804CD4FEA410C7FEA6C5C4FEA430C92
:1009100018BF7FEA6C5C1BD001B050EA410C0CBFE1
:1009200052EA430C91EA030F02BF90EA020F002043
:10093000704710F1000F91EA030F58BF994208BFAA
:1009400090422CBFD8176FEAE37040F00100704767
:100950004FEA410C7FEA6C5C02D150EA013C07D1BE
:100960004FEA430C7FEA6C5CD6D152EA033CD3D009
:100970005DF8040B704700BF8446104662468C4603
:100980001946634600E000BF01B5FFF7B7FF002836
:1009900048BF10F1000F01BD4DF808EDFFF7F4FF5F
:1009A0000CBF012000205DF808FB00BF4DF808EDEA
:1009B000FFF7EAFF34BF012000205DF808FB00BF0D
:1009C0004DF808EDFFF7E0FF94BF012000205DF82F
:1009D00008FB00BF4DF808EDFFF7CEFF94BF0120E4
:1009E00000205DF808FB00BF4DF808EDFFF7C4FFDD
:1009F00034BF012000205DF808FB00BF4FEA410230
:100A000012F5001215D211D56FF47873B3EB625260
:100A100012D94FEAC12343F0004343EA505311F087
:100A2000004F23FA02F018BF404270474FF0000019
:100A3000704750EA013005D111F0004008BF6FF057
:100A4000004070474FF00000704700BF4A0011D2CD
:100A500012F5001211D20DD56FF47873B3EB625218
:100A60000ED44FEAC12343F0004343EA505323FA24
:100A700002F070474FF00000704750EA013002D199
:100A80004FF0FF3070474FF00000704780F000409B
:100A900002E000BF81F0004142001FBF5FEA410356
:100AA00092EA030F7FEA226C7FEA236C6AD04FEA56
:100AB0001262D2EB1363C1BFD2184140484041409B
:100AC000B8BF5B42192B88BF704710F0004F40F44D
:100AD000000020F07F4018BF404211F0004F41F469
:100AE000000121F07F4118BF494292EA030F3FD035
:100AF000A2F1010241FA03FC10EB0C00C3F1200348
:100B000001FA03F100F0004302D5494260EB4000D6
:100B1000B0F5000F13D3B0F1807F06D340084FEA41
:100B2000310102F10102FE2A51D2B1F1004F40EB36
:100B3000C25008BF20F0010040EA0300704749009E
:100B400040EB0000013A28BFB0F5000FEDD2B0FA3B
:100B500080FCACF1080CB2EB0C0200FA0CF0AABF5E
:100B600000EBC25052421843BCBFD04018437047FC
:100B700092F0000F81F4000106BF80F40000013202
:100B8000013BB5E74FEA41037FEA226C18BF7FEAD9
:100B9000236C21D092EA030F04D092F0000F08BF1B
:100BA0000846704790EA010F1CBF0020704712F002
:100BB0007F4F04D1400028BF40F00040704712F141
:100BC00000723CBF00F50000704700F0004343F0A6
:100BD000FE4040F4000070477FEA226216BF0846DC
:100BE0007FEA23630146420206BF5FEA412390EA9F
:100BF000010F40F4800070474FF0000304E000BF95
:100C000010F0004348BF40425FEA000C08BF704745
:100C100043F0964301464FF000001CE050EA010209
:100C200008BF70474FF000030AE000BF50EA01021E
:100C300008BF704711F0004302D5404261EB41010B
:100C40005FEA010C02BF84460146002043F0B64330
:100C500008BFA3F18053A3F50003BCFA8CF2083A55
:100C6000A3EBC25310DB01FA02FC634400FA02FC5E
:100C7000C2F12002BCF1004F20FA02F243EB020065
:100C800008BF20F00100704702F1200201FA02FCC7
:100C9000C2F1200250EA4C0021FA02F243EB0200BA
:100CA00008BF20EADC7070474FF0FF3C06E000BF51
:100CB0004FF0010C02E000BF4FF0010C4DF804CDE5
:100CC0004FEA40024FEA41037FEA226C18BF7FEAF5
:100CD000236C11D001B052EA530C18BF90EA010FF7
:100CE00058BFB2EB030088BFC81738BF6FEAE17086
:100CF00018BF40F0010070477FEA226C02D15FEA22
:100D0000402C05D17FEA236CE4D15FEA412CE1D08D
:100D10005DF8040B704700BF844608466146FFE754
:100D20000FB5FFF7C9FF002848BF10F1000F0FBD36
:100D30004DF808EDFFF7F4FF0CBF012000205DF82F
:100D400008FB00BF4DF808EDFFF7EAFF34BF0120B4
:100D500000205DF808FB00BF4DF808EDFFF7E0FF4D
:100D600094BF012000205DF808FB00BF4DF808ED9E
:100D7000FFF7D2FF94BF012000205DF808FB00BF01
:100D80004DF808EDFFF7C8FF34BF012000205DF8E3
:100D900008FB00BF42000ED2B2F1FE4F0BD34FF062
:100DA0009E03B3EB126209D44FEA002343F00043E1
:100DB00023FA02F070474FF00000704712F1610F04
:100DC00001D1420202D14FF0FF3070474FF00000D6
:100DD000704700BF844641EA000313F0030349D182
:100DE000403A23D30B6803604B6843608B68836091
:100DF000CB68C3600B6903614B6943618B69836195
:100E0000CB69C3610B6A03624B6A43628B6A83627C
:100E1000CB6AC3620B6B03634B6B43638B6B836364
:100E2000CB6BC36340304031403ADBD230320BD31E
:100E30000B6803604B6843608B688360CB68C3605A
:100E400010301031103AF3D20C3205D351F8043B74
:100E500040F8043B043AF9D2043208D0D2071CBF50
:100E600011F8013B00F8013B01D30B880380604679
:100E7000704700BF082A13D38B07B1D010F00303CB
:100E8000AED0C3F10403D21ADB071CBF11F8013B3B
:100E900000F8013BA4D331F8023B20F8023B9FE766
:100EA000043AD9D3013A11F8013B00F8013BF9D2D9
:100EB0000B7803704B7843708B7883706046704773
:100EC00080EA010C1CF0030F37D110F0030C20F066
:100ED000030021F0030150F8042B08BF51F8043B34
:100EE0000ED08CF0030C6FF07F434FEACC0C23FA4A
:100EF0000CFC51F8043B42EA0C0243EA0C0300BF2D
:100F0000A2F1013C9A4201BF2CEA020C1CF0803F86
:100F100050F8042B51F8043BF2D04FEA02604FEA3C
:100F20001222012828BFB0EB036F08BF1B0AF4D0C0
:100F300003F0FF03000EC01A704710F0030F0AD031
:100F400010F8012B11F8013B012A28BF9A42F4D076
:100F5000A2EB030070474DF8045D50F8042B01F03C
:100F6000030521F0030151F8043B022D26D04DD892
:100F700022F07F45B5EB132FA2F1013C2CEA020CC5
:100F80000DD11CF0803C08BF51F8043B0AD185EA22
:100F90000205B5EB036F0CD150F8042BE8E74FEADC
:100FA00013235BE03CF07F4C54D10B784FEA126581
:100FB00054E04FEA126503F0FF034FE04FEA0245A9
:100FC000A2F1013C4FEA15452CEA020CB5EB134F98
:100FD00018D11CF0803C08BF51F8043B07D185EACA
:100FE0000205B5EB034F09D150F8042BE6E75FEAA1
:100FF0000C4C2FD10B884FEA12452FE04FEA0343E8
:101000004FEA12454FEA134328E000BF02F0FF0504
:10101000B5EB136FA2F1013C2CEA020C0DD11CF0D0
:10102000803C08BF51F8043B0AD185EA0205B5EBC4
:10103000032F0AD150F8042BE8E74FEA13630DE0C1
:1010400012F0FF0F06D051F8043B4FEA122523F0AF
:101050007F4303E04FF0000020BC704705F0FF0223
:1010600003F0FF00012828BF904204BF2D0A1B0A8D
:10107000F4D0A2EB000020BC704700BF4FEA410C47
:101080007FEA6C5C02D150EA013C0AD14FEA430C82
:101090007FEA6C5C02D152EA033C02D14FF00000BF
:1010A00070474FF00100704753B94AB9002908BF93
:1010B00000281CBF4FF0FF314FF0FF3000F076B931
:1010C000ADF1080C6DE904CE00F006F8DDF804E09F
:1010D000DDE9022304B070472DE9F047089E0D4674
:1010E00004468846002B4DD18A42944668D9B2FA0C
:1010F00082F252B101FA02F3C2F1200120FA01F1A9
:101100000CFA02FC41EA030894404FEA1C41B8FB88
:10111000F1F71FFA8CFE01FB178807FB0EF0230C7A
:1011200043EA084398420AD91CEB030307F1FF3551
:1011300080F01E81984240F21B81023F63441B1ADB
:10114000B3FBF1F001FB103300FB0EFEA4B244EA46
:101150000344A6450AD91CEB040400F1FF3380F0D8
:101160000981A64540F20681644402380021A4EBBF
:101170000E0440EA07401EB10023D440C6E90043F4
:10118000BDE8F0878B4208D9002E00F0EE800021E8
:10119000C6E900050846BDE8F087B3FA83F10029E7
:1011A0004AD1AB4202D3824200F2FC80841A65EB42
:1011B000030301209846002EE2D0C6E90048DFE78D
:1011C00002B9FFDEB2FA82F2002A40F09180A1EB70
:1011D0000C0001214FEA1C471FFA8CFEB0FBF7F30D
:1011E00007FB1300250C45EA00450EFB03F0A8425F
:1011F00008D91CEB050503F1FF3802D2A84200F222
:10120000CE8043462D1AB5FBF7F007FB10550EFBB9
:1012100000FEA4B244EA0544A64508D91CEB040428
:1012200000F1FF3502D2A64500F2B6802846A4EBB5
:101230000E0440EA03409EE7C1F120078B4022FAEA
:1012400007FC4CEA030C25FA07FA4FEA1C49BAFBE3
:10125000F9F820FA07F309FB18AA8D401FFA8CFE53
:101260001D4300FA01F308FB0EF02C0C44EA0A447B
:10127000A04202FA01F20BD91CEB040408F1FF3A78
:1012800080F08880A04240F28580A8F10208644482
:10129000241AB4FBF9F009FB104400FB0EFEADB2BA
:1012A00045EA0444A64508D91CEB040400F1FF35C7
:1012B0006CD2A6456AD90238644440EA0840A0FBD3
:1012C0000295A4EB0E04AC42C846AE4656D353D0AA
:1012D000002E69D0B3EB080264EB0E0422FA01F38E
:1012E00004FA07F71F43CC40C6E90074002147E722
:1012F0000CFA02FCC2F1200125FA01F34FEA1C4767
:1013000020FA01F195400D43B3FBF7F107FB1133D0
:101310001FFA8CFE280C40EA034001FB0EF38342C7
:1013200004FA02F408D91CEB000001F1FF382FD2B7
:1013300083422DD902396044C01AB0FBF7F307FB92
:101340001300ADB245EA004503FB0EF0A84208D9F0
:101350001CEB050503F1FF3816D2A84214D9023B55
:101360006544281A43EA014138E73146304607E729
:101370002F46E4E61846F9E64B45A9D2B9EB020838
:1013800065EB0C0E0138A3E74346EAE7284694E7ED
:101390004146D1E7D0467BE76444023847E7023B49
:1013A00065442FE7084606E73146E9E6704700BF87
:1013B00008B5244B1A68244B1B689A4224D9234B46
:1013C00001221A70224B1A78224B1B689A421FD9AD
:1013D000214B01221A70214B1868FFF70DFC204B9E
:1013E0001968FFF7AFFCB8B11E4B01221A701E4BF3
:1013F0001A681E4B1B689A4212D91D4B01221A70A3
:101400001C4B1B7883B908BD104B00221A70D9E71A
:10141000114B00221A70DEE7124B00221A70E6E729
:10142000134B00221A70EBE700F0E0FD41F2883028
:1014300001F0DCFD00F0EAFD41F2883001F0D6FD5C
:10144000E1E700BF0C0A002000000020FD09002099
:10145000180A002004000020FF0900200C000020D2
:10146000040A0020030A0020140A002008000020BB
:10147000020A0020FC09002008B500F0B3FA00F0D1
:101480005BFD00F087FA024B024A1A6008BD00BFFC
:10149000040A00200000C84110B582B00C234E4A57
:1014A0000721052000F07CFC0C234C4A0721232057
:1014B00000F076FC0C234A4A0721412000F070FC22
:1014C0000C23484A07215F2000F06AFC464B18684D
:1014D000FFF760FC02460C2400940223062105203D
:1014E00000F016FC00940223404A126806212320D3
:1014F00000F00EFC009403233D4A1278062141209F
:1015000000F006FC009403233A4A126806215F208B
:1015100000F0FEFB2346384A00213C2000F040FC4E
:101520002346364A02213C2000F03AFC2346344A46
:1015300004213C2000F034FC00940223314A12685C
:101540000021642000F0E4FB009402232E4A12687C
:101550001946642000F0DCFB009402232B4A126839
:101560000421642000F0D4FB2346294A00210846C8
:1015700000F016FC274B1B78012B27D0264A0C23A2
:1015800000211E2000F00CFC0C23244A0221002024
:1015900000F006FC224B1B78012B19D01E4A0C23AD
:1015A00002211E2000F0FCFB0C231E4A0421002017
:1015B00000F0F6FB1C4B1B78012B0BD0164A0C23BA
:1015C00004211E2000F0ECFB02B010BD174AD6E744
:1015D000164AE4E7154AF2E798F400089CF400087C
:1015E000A0F40008A4F40008040A00200C0A00205B
:1015F000180A0020140A0020A8F40008B0F400081B
:10160000B8F400080C0000200000002004000020B6
:10161000C0F40008000A002090F40008C8F4000894
:10162000010A0020D0F40008FE09002094F400080C
:1016300038B50446094803685D6A02F083FE074B2B
:101640001B685B6AAAB29B1AA342F8D3034C2046DC
:1016500002F0A6FE236800225A6238BD580A002014
:1016600048E000BF00BF00BF00BF00BF00BF00BF19
:1016700000BF00BF00BF00BF00BF00BF00BF00BF72
:1016800000BF00BF00BF00BF00BF00BF00BF00BF62
:1016900000BF00BF00BF00BF00BF00BF00BF00BF52
:1016A00000BF00BF00BF00BF00BF00BF00BF00BF42
:1016B00000BF00BF00BF00BF00BF00BF00BF00BF32
:1016C00000BF00BF00BF00BF00BF00BF00BF00BF22
:1016D00000BF00BF00BF00BF00BF00BF00BF00BF12
:1016E00000BF00BF00BF00BF00BF00BF00BF00BF02
:1016F00000BF1846431E9BB20028B2D170470000BD
:1017000010B50E4C01228021204602F0CAF90122B8
:101710004021204602F0C5F90520FFF7A1FF002275
:101720008021204602F0BDF90520FFF799FF002235
:101730004021204602F0B5F910BD00BF000C014069
:1017400010B50B4C00228021204602F0AAF901229C
:101750004021204602F0A5F90520FFF781FF012274
:101760008021204602F09DF90520FFF779FF10BD8A
:10177000000C014010B584B00446C023009301233F
:101780000193022303936946114802F071F8012C7A
:1017900018D0ACB9002280210D4802F082F90C4C1F
:1017A00001224021204602F07CF90520FFF758FF76
:1017B00000224021204602F074F90520FFF750FF77
:1017C00004B010BD01228021014802F06AF9E6E769
:1017D000000C014030B585B0002301930223039330
:1017E00080250095164C6946204602F041F80122FA
:1017F0004021204602F055F90520FFF731FF294628
:10180000204602F047F9012815D00E4B00221A702D
:101810000B4C00224021204602F043F90520FFF73F
:101820001FFF012301936946204602F021F8054B72
:10183000187805B030BD034B01221A70E8E700BFED
:10184000000C0140100A002070B50446002519E084
:1018500000228021124802F024F96400E4B2104E04
:1018600001224021304602F01CF90520FFF7F8FE66
:1018700000224021304602F014F90520FFF7F0FE67
:101880000135EDB2072D08D814F0800FE0D0012209
:101890008021034802F005F9DFE7FFF79BFF70BDE9
:1018A000000C014008B5FFF72BFF4620FFF7CCFFE7
:1018B0000120FFF7C9FFFFF743FF08BD10B504463D
:1018C000FFF71EFF4620FFF7BFFF2046FFF7BCFFD4
:1018D000FFF736FF10BD000070B584B000250195FC
:1018E00080260096022303931A4C6946204601F095
:1018F000BFFF01223146204602F0D3F82C460BE010
:101900002043C4B200224021124802F0CAF8052048
:10191000FFF7A6FE0135EDB2072D12D86400E4B240
:101920000C4E01224021304602F0BBF80520FFF7A3
:1019300097FE8021304602F0ADF80128E0D000206B
:10194000DEE7012301936946024801F091FF20463A
:1019500004B070BD000C014010B5FFF7D1FE472068
:10196000FFF772FF002404E00120FFF703FF0134BA
:10197000E4B2022C09D8FFF7AFFF054B1855032C32
:10198000F2D00020FFF7F6FEF1E7FFF7D9FE10BD19
:10199000080A002008B50120FFF790FF1020FFF78C
:1019A0008DFFB42001F022FBFFF7D6FF0A4B1A7817
:1019B000587800EB022080B2FFF71EF9FEF72CFDED
:1019C0004FF03332054BFEF7A9FEFFF73FF880B228
:1019D000034B186008BD00BF080A00203333F33FF3
:1019E0000C0A002070B52F4C01220421204602F081
:1019F00058F800220221204602F053F80421294819
:101A000002F048F804460028F8D10120FFF710FE44
:101A100000260AE00421234802F03CF801281CD0EB
:101A20000120FFF705FE0134E4B2172C19D81D4D33
:101A300001220221284602F034F80120FFF7F8FDC8
:101A400000220221284602F02CF80421284602F048
:101A500021F80028DED17600DCE7760046F00106AA
:101A6000DEE7104C01220221204602F01AF886F42B
:101A700000060120FFF7DCFD00220221204602F0D3
:101A800010F80120FFF7D4FD074B9B1B0748A0FB74
:101A9000033080091E380028B8BF4042044B18604C
:101AA00070BD00BF000C0140A0CD8700D34D621077
:101AB000140A002010B50B4C01220821204601F029
:101AC000F0FF01221021204601F0EBFF002210213F
:101AD000204601F0E6FF00220821204601F0E1FF48
:101AE00010BD00BF000C014010B5084C01220821B8
:101AF000204601F0D6FF00221021204601F0D1FF40
:101B000001221021204601F0CCFF10BD000C014045
:101B100010B5064C01220821204601F0C2FF002228
:101B20000821204601F0BDFF10BD00BF000C0140A0
:101B300070B5044600220821124801F0B2FF0025CA
:101B400013E0002210210F4801F0ABFF6400E4B263
:101B50000C4E01220821304601F0A3FF002208218B
:101B6000304601F09EFF0135EDB2072D08D814F084
:101B7000800FE6D001221021024801F092FFE5E734
:101B800070BD00BF000C014010B50446FFF792FF86
:101B90007820FFF7CDFFFFF7BBFF0020FFF7C8FF5E
:101BA000FFF7B6FF2046FFF7C3FFFFF7B1FFFFF7D0
:101BB0009BFF10BD10B50446FFF77CFF7820FFF7B0
:101BC000B7FFFFF7A5FF4020FFF7B2FFFFF7A0FF29
:101BD0002046FFF7ADFFFFF79BFFFFF785FF10BD26
:101BE00008B519B1C0B2FFF7E5FF08BDC0B2FFF7F5
:101BF000CBFFFAE710B5044608460021B030FFF7E6
:101C0000EFFF0234C4F30310002140F01000FFF78F
:101C1000E7FF002104F00F00FFF7E2FF10BD38B529
:101C200000250AE001210020FFF7DAFF0134E4B2C9
:101C300014F0800FF6D00135EDB2072D0ED800213B
:101C400005F1B000FFF7CCFF00210220FFF7C8FF2D
:101C500000211020FFF7C4FF0024E9E738BD000091
:101C6000F8B507460E46203AD5B210F0800F07D1DE
:101C7000102B09D031463846FFF7BCFF002433E073
:101C80000236F6B20027F3E731463846FFF7B2FFD7
:101C9000002408E004EB05130121154AD05CFFF78E
:101CA0009FFF0134E4B2072CF4D9711CC9B2384645
:101CB000FFF7A0FF002409E004EB0513083301211E
:101CC0000B4AD05CFFF78CFF0134E4B2072CF3D948
:101CD0000CE005EB4503074A02EB43030121185DC5
:101CE000FFF77EFF0134E4B2052CF2D9F8BD00BF46
:101CF00000F70008D8F400080246012002E002FBC9
:101D000000F019464B1EDBB20029F8D170470000E5
:101D10002DE9F0478246894690461D469DF8206091
:101D200000273C4619E0700804FB00F0C0B25044A4
:101D3000334620224946C0B2FFF792FF0BE07008FD
:101D400004FB00F0C0B2303250443346D2B24946B0
:101D5000C0B2FFF785FF0134E4B2AC421CD2291BAC
:101D6000C9B20139C9B20A20FFF7C6FFB8FBF0F0CB
:101D70000A4AA2FB003C4FEADC0C0CEB8C0CA0EBFB
:101D80004C0C5FFA8CF2002FD9D16B1E9C42D6DA34
:101D9000002AC8D00127D2E7BDE8F087CDCCCCCC53
:101DA0002DE9F04104460E4617469846002501E00D
:101DB0000135EDB27A5D62B1434631462046FFF708
:101DC0004FFF0834E4B2782CF2D90236F6B2002480
:101DD000EEE7BDE8F081000070B586B00024029403
:101DE000039404940594464B9A6942F008029A6160
:101DF0009B6903F008030193019B424E2246182180
:101E0000304601F04EFE18230293012303930493FE
:101E10000225059502A9304601F02AFD0A2001F0AD
:101E2000E5F82146AE20FFF7DBFE21462846FFF706
:101E3000D7FE21461020FFF7D3FE21464020FFF7B2
:101E4000CFFE2146B020FFF7CBFE21468120FFF7D1
:101E5000C7FE2146FF20FFF7C3FE2146A120FFF762
:101E6000BFFE2146A620FFF7BBFE2146A820FFF7B4
:101E7000B7FE21463F20FFF7B3FE2146C820FFF7FB
:101E8000AFFE2146D320FFF7ABFE21462046FFF7E9
:101E9000A7FE2146D520FFF7A3FE21468020FFF7AD
:101EA0009FFE2146D820FFF79BFE21460520FFF725
:101EB00097FE2146D920FFF793FE2146F120FFF738
:101EC0008FFE2146DA20FFF78BFE21461220FFF716
:101ED00087FE2146DB20FFF783FE21463020FFF7F7
:101EE0007FFE21468D20FFF77BFE21461420FFF761
:101EF00077FE2146AF20FFF773FE06B070BD00BF2E
:101F000000100240000C014010B50A4C204601F0C0
:101F10002FFA6421204601F07DF8204601F0E2F915
:101F200010F4007F01D1002010BD204601F034F9EB
:101F300080B2F9E71C0A002008B5044801F03CFB18
:101F4000FFF7E2FF024B187008BD00BF1C0A00201B
:101F5000180A002070B50446224E00224FF480710A
:101F6000304601F09EFD204D00224FF400512846DE
:101F700001F097FD00224FF40071304601F091FD11
:101F800000224FF48041284601F08BFDB4F5807F9C
:101F90000CD0B4F5005F10D0B4F5007F14D0B4F5C8
:101FA000804F18D0012001F021F870BD01224FF4BC
:101FB0008071304601F075FDF4E701224FF40051C5
:101FC000094801F06EFDEDE701224FF4007105486C
:101FD00001F067FDE6E701224FF48041024801F07D
:101FE00060FDDFE700080140000C014010B500244F
:101FF00006E0054B33F81400FFF7ACFF0134E4B200
:10200000032CF6D910BD00BF1800002010B5002425
:1020100006E0054B33F81400FFF79CFF0134E4B2EF
:10202000032CF6D910BD00BF1000002000B585B00C
:1020300000230193029303931048114A02608360C6
:10204000037303754FF46022C2614360012303618F
:1020500001F02EFA60B90123019302930023039348
:1020600001A9064801F09CF828B905B05DF804FB09
:1020700000F0FCFCEFE700F0F9FCF6E71C0A00209A
:102080000024014000B587B000230293039304931A
:1020900005930268114B9A4202D007B05DF804FB29
:1020A00003F56C439A6942F400729A619A6902F4EA
:1020B00000720092009A9A6942F004029A619B6948
:1020C00003F004030193019B022302930323039370
:1020D00002A9034801F0CCFBDFE700BF0024014068
:1020E00000080140844610B121B300B50DE0401A4C
:1020F00018BF0120704702F1200E0FE02030864506
:1021000014D1CAB10CF1010C01319CF800200B4B29
:10211000D35C03F00303012BEDD096460878074B00
:10212000C35C03F00303012BE9D1E7E7AEEB00004A
:102130005DF804FB012070470020F9E7D102010897
:102140000378A3F13002D2B2092A1DD8303B1A011C
:102150004378A3F13001C9B2092923D81344303B95
:102160001B018278A2F13001C9B209292AD813448F
:10217000303B1B01C078A0F13002D2B2092A31D81D
:102180000344A3F130007047A3F14102D2B2052A03
:1021900001D8373BDBE7A3F16102D2B2052A33D87D
:1021A000573BD4E7A3F14101C9B2052902D8134432
:1021B000373BD5E7A3F16101C9B2052926D81344FD
:1021C000573BCDE7A2F14101C9B2052902D813441A
:1021D000373BCEE7A2F16101C9B2052918D81344F3
:1021E000573BC6E7A0F14102D2B2052A03D8034407
:1021F000A3F137007047A0F16102D2B2052A09D8D5
:102200000344A3F157007047002070470020704737
:1022100000207047002070472DE9F0410C4614F86B
:10222000013B222B03D105462246002004E0684BE7
:1022300019600024C5E062461378222B09D043B10F
:10224000013006D002F1010C5C2BF4D102F1020C3A
:10225000F1E7604B1B68013098470746002800F003
:10226000B580064618E0611C6078A0F16203132B6C
:1022700000F29A80DFE803F00A9898981F989898DF
:1022800098989898259898982B9831373246082333
:1022900002F8013B16464C1C2378222B00F0898063
:1022A000002B00F086805C2BDDD00134324602F832
:1022B000013B1646F0E732460C2302F8013B164676
:1022C000E9E732460A2302F8013B1646E3E73246C5
:1022D0000D2302F8013B1646DDE73246092302F8DA
:1022E000013B1646D7E7A01CFFF72AFF8046611D79
:1022F000A0F55C43B3F5806FCDD30028CBD0A0F51B
:102300005843B3F5806F19D2A3795C2BC3D1E3791D
:10231000752BC0D104F10800FFF712FF04F10B0187
:10232000A0F55C42B2F5806FB5D22B4A02EA88284C
:10233000C0F3090348EA030303F58038B8F17F0FBF
:102340000AD8741C0120254B1B5C621E43EA080856
:1023500004F8018C16189EE7B8F5006F18D3B8F58D
:10236000803F0BD2F31C03205A1E08F03F0444F0B8
:10237000800403F8014C4FEA98180BE0F31C08F0B6
:102380003F0242F08002F2704FEA98180420EBE717
:10239000B21C0220541E08F03F0343F0800302F8F1
:1023A000013C4FEA9818CEE7324602F8010B164678
:1023B00071E7002333702378222B05D02F6104238B
:1023C000EB602046BDE8F0810134F7E70446F8E70A
:1023D0004C0A00202400002000FC0F0008FD00082B
:1023E00000E0013018B103780BB1202BF9D9704708
:1023F00010B5064B1B6828209847044618B12822C0
:10240000002104F063F9204610BD00BF2400002025
:102410002DE9F04F83B005460C460B782D2B28D0C4
:102420000022634BCDE900232378302B27D023787B
:10243000313BDBB2082B24D80026002700225D4B5D
:1024400030463946FEF740F806460F4620783038C9
:10245000FDF7D0FF02460B4630463946FDF77EFEBB
:1024600006460F4614F8013F303BDBB2092BE5D995
:1024700009E001340022504BCDE90023D4E70134B8
:10248000D5E70026002723782E2B0DD04FF000082B
:102490004FF000092378652B3DD0452B3BD0A24659
:1024A0004FF0010B002459E063782F2B29D9392BE9
:1024B0002CD801344FF000084FF0000900223D4BAA
:1024C00030463946FEF700F806460F462078303889
:1024D000FDF790FF02460B4630463946FDF73EFEBB
:1024E00006460F460022324B40464946FDF734FE71
:1024F0008046894614F8013F303BDBB2092BDDD919
:10250000C8E74FF000084FF00009C3E74FF000089C
:102510004FF00009BEE704F1010A63782B2B05D0C8
:102520002D2B08D04FF0010B002410E004F1020A1B
:102530004FF0010BF8E704F1020A4FF0FF3BF3E71D
:1025400004EB84040AF1010A303B03EB44049AF8DB
:102550000030A3F13002D2B2092AF1D9DDE900231B
:1025600030463946FDF7B0FF06460F460BFB04F038
:10257000FDF740FF42464B46FDF7F0FD02460B4695
:1025800000200C490CF006F802460B46304639464E
:10259000FDF79AFF02460B46C5E90623FEF72EFA21
:1025A00068610323EB60504603B0BDE8F08F00BFC5
:1025B0000000F03F000024400000F0BF38B50C469A
:1025C000002945D0054604222249204604F03CFA61
:1025D000E8B105222049204604F036FAD8B1042299
:1025E0001E49204604F030FAC8B12378222B1BD0B4
:1025F0002D2B1ED0A3F13002D2B2092A19D95B2BA0
:102600001CD07B2B1FD0164B1C60002002E0022345
:10261000EB60201D38BD0023EB60601DFAE701234D
:10262000EB606B61201DF5E721462846FFF7F4FDBE
:10263000F0E721462846FFF7EBFEEBE72146284668
:1026400000F010F8E6E72146284600F057F8E1E7E9
:102650000846DFE7F0FC0008F8FC000800FD000871
:102660004C0A002070B50B785B2B2FD10646052352
:10267000C360481CFFF7B4FE044603785D2B2AD0E4
:10268000FFF7B6FE0546B06078B32046FFF7A8FE18
:1026900001462846FFF792FFFFF7A2FE064630B339
:1026A00033782C2B19D1FFF7A3FE044688B128609C
:1026B0004560701CFFF794FE01462046FFF77EFF41
:1026C000FFF78EFE0646A0B12546E9E70A4B1960E2
:1026D0000024204670BD0134FBE75D2B03D0064B80
:1026E0001E600024F5E7741CF3E70446F1E7044696
:1026F000EFE70446EDE700BF4C0A002070B50B7809
:102700007B2B56D105460623C360481CFFF768FEA5
:10271000064603787D2B51D0FFF76AFE0446A86079
:10272000002849D03046FFF75BFE01462046FFF700
:1027300073FDFFF755FE002852D022692262002265
:10274000226102783A2A3BD10130FFF749FE014667
:102750002046FFF733FFFFF743FE0646002841D02F
:1027600033782C2B34D1FFF743FE054600283BD0AD
:1027700020604460701CFFF733FE01462846FFF7D7
:102780004BFDFFF72DFE0446B0B12B692B620023F1
:102790002B6103783A2B17D10130FFF721FE014658
:1027A0002846FFF70BFFFFF71BFE0646F0B12C464D
:1027B000D6E70F4B19600024204670BD441CFBE790
:1027C0000B4A10600024F7E7094B18600024F3E778
:1027D0007D2B03D0064B1E600024EDE7741CEBE755
:1027E0000446E9E70446E7E70446E5E70446E3E78D
:1027F0004C0A0020014B1868704700BF4C0A0020AB
:1028000038B5044616E0E36813F4807F04D12069EC
:1028100010B10F4B1B689847E36813F4007F04D195
:10282000206A10B10A4B1B689847094B1B68204669
:1028300098472C4654B12568E36813F4807FE2D1B1
:10284000A0680028DFD0FFF7DBFFDCE738BD00BF62
:1028500020000020F8B505460C461646FFF7C8FDD7
:10286000114B00221A60074680B12846FFF7B8FDD9
:1028700001463846FFF7A2FE054648B126B1FFF7EC
:10288000AFFD0546037843B904B125603846F8BD6D
:102890003846FFF7B5FF2F46F8E73846FFF7B0FF99
:1028A000014B1D600027F1E74C0A002008B500220B
:1028B0001146FFF7CFFF08BD38B50D46846800E02C
:1028C00024682CB12946206AFFF70CFC0028F7D1B8
:1028D000204638BD2DE9F04389B0002404940594C6
:1028E000069407944B4B9A6942F010029A619A69D8
:1028F00002F010020092009A9A6942F020029A6156
:102900009A6902F020020192019A9A6942F0040247
:102910009A619A6902F004020292029A9A6942F05C
:1029200008029A619B6903F008030393039BDFF895
:10293000E88022464FF40051404601F0B2F8374F8C
:10294000224648F20171384601F0ABF801224FF4FB
:102950000261384601F0A5F8314E224646F65A414A
:10296000304601F09EF84FF400530493012505957D
:1029700006954FF00309CDF81C9004A9404600F0DD
:1029800077FF48F221330493059506944FF002082F
:10299000CDF81C8004A9384600F06AFF0495214B4D
:1029A0000593069404A9304600F062FFCDF810802C
:1029B00005950694CDF81C9004A9304600F058FF08
:1029C000042304930594069504A9304600F050FFB3
:1029D00046F65843049305950694CDF81C8004A947
:1029E000304600F045FF4FF4406304930595CDF861
:1029F0001880CDF81C9004A9384600F039FF8023D8
:102A000004930594069404A9304600F031FF09B000
:102A1000BDE8F083001002400010014000080140B2
:102A2000000C01400000111008B50C4B1B883F2B17
:102A30000CD8591C094A1180094A1178094AD15405
:102A400001220749084802F0B2F908BD0021034BF2
:102A500019804022034803F039FEF1E72C0B0020D7
:102A6000300B0020EC0A0020A00A002072B6FEE71E
:102A700000B595B0282200210DEB020003F026FEE0
:102A800000230593069307930893099301930293F8
:102A90000393049301220A924FF480330B930E9216
:102AA0000222119212934FF4E01313930AA801F03B
:102AB00015F8C8B90F230593022106910023079347
:102AC0004FF480620892099305A801F039FA68B9B9
:102AD000022301934FF40043039301A801F00CFB80
:102AE00030B915B05DF804FBFFF7C0FFFFF7BEFF7C
:102AF000FFF7BCFF30B5ABB0314B299324AC314D5F
:102B00000FCD0FC42B6824F8023B1B0C237000F080
:102B100049FAFFF7ADFFFFF7DDFE00F07FF9FFF7A1
:102B200085FA00F02DF9FFF757F9FFF778F8FEF76F
:102B3000B9FE01222449254802F039F902F054FF78
:102B400001E002F09FFE03F013F80028F9D1012103
:102B500029A803F091F800241EE01D4B1C781D4BA2
:102B60001868FEF717F902461B4B1B6802931B4BB4
:102B70001B7801931A4B1B6800932346194904A83C
:102B800003F07EFE04A924A803F0A0F802F07AFE68
:102B900000240EE003F0C6F8FEF77EFCFEF76CFCA6
:102BA000FEF706FC0A2000F021FA0134A4B2092C39
:102BB000D3D8032002F0F8FE0028EBD1ECE700BFE9
:102BC00010FD000864FD0008300B0020A00A002062
:102BD000180A0020040A0020140A0020020A00201B
:102BE0000C0A002024FD0008022801D801207047AB
:102BF00008B503F085FA09230360002008BD000032
:102C000010B5013801280AD814464FF0FF3392B2AC
:102C10000748006801F01CFE40B9204610BD03F0D3
:102C20006FFA092303604FF0FF30F7E70520F5E75F
:102C3000500A0020022801D80020704708B503F090
:102C40005FFA092303604FF0FF3008BD08B503F0B9
:102C500057FA092303604FF0FF3008BD08B548B9A3
:102C60004FF0FF3301220848006801F050FE40B9E0
:102C7000012008BD03F044FA092303604FF0FF3040
:102C8000F7E70520F5E700BF500A002008B5022845
:102C900004D84FF400534B60002008BD03F030FA15
:102CA00009230360F8E7000082B00E4B9A6942F0F6
:102CB00001029A619A6902F001020092009ADA69AF
:102CC00042F08052DA61DB6903F080530193019B8B
:102CD000054A536823F0E06343F00073536002B089
:102CE000704700BF0010024000000140FEE7FEE711
:102CF000FEE7FEE7FEE770477047704708B500F053
:102D000063F908BD08B5024801F0F2FE08BD00BF36
:102D1000A00A00200120704708B503F0F1F916233E
:102D200003604FF0FF3008BD08B54FF0FF31FFF7EB
:102D3000F3FFFEE710B503460C4A0D490D48006845
:102D400040B10C4800680344521A934206D8094A1D
:102D5000136010BD0748084C0460F2E703F0D0F997
:102D60000C2303604FF0FF30F3E700BF005000205A
:102D700000040000540A0020800B0020704700006F
:102D800000B587B000230293039304930593009347
:102D900001931548154A02604722426083604FF64E
:102DA000FF72C26003614361836101F047FB90B928
:102DB0004FF48053029302A90B4801F077FB68B9E6
:102DC0000023009301936946074801F0EFFB40B9E7
:102DD00007B05DF804FBFFF749FEE9E7FFF746FEA1
:102DE000EEE7FFF743FEF3E7580A0020002C01400E
:102DF0000268094B9A4200D0704782B003F56443E1
:102E00009A6942F400629A619B6903F4006301933A
:102E1000019B02B0704700BF002C014008B50A4872
:102E20000A4B03604FF4E133436000238360C360C7
:102E300003610C2242618361C36101F0D9FC00B9D6
:102E400008BDFFF713FEFBE7A00A00200044004086
:102E500030B587B00023029303930493059302686F
:102E60001B4B9A4201D007B030BD03F5E633DA6957
:102E700042F40032DA61DA6902F400320092009A18
:102E80009A6942F004029A619B6903F0040301937A
:102E9000019B0423029302230393032305930D4D07
:102EA00002A9284600F0E4FC0823029300240394BE
:102EB00004940DEB0301284600F0DAFC224621467B
:102EC000262000F00BFC262000F040FCCBE700BFE2
:102ED000004400400008014084B070B504AC84E8B0
:102EE0000F001699BDF85C60002409E04D1C4FF0FE
:102EF000FF33012204A801F0ABFC0134A4B229463F
:102F0000B442F3D3BDE8704004B07047FFF736FF1A
:102F10000B480C490C4A002302E0D458C450043337
:102F2000C4188C42F9D3094A094C002301E013600C
:102F30000432A242FBD303F0E9F8FFF7DBFD704750
:102F400000000020E009002000070108E00900203F
:102F50007C0B0020FEE7000010B504460E4B1878ED
:102F60004FF47A73B3FBF0F30C4A1068B0FBF3F044
:102F700000F0FAFB68B90F2C01D901200AE0002209
:102F800021464FF0FF3000F0A9FB054B1C600020EC
:102F900000E0012010BD00BF2C0000202800002010
:102FA0003000002008B5074A136843F0100313608F
:102FB000032000F081FB0F20FFF7CEFFFFF774FE28
:102FC000002008BD00200240034A1168034B1B7813
:102FD0000B441360704700BFE80A00202C0000205B
:102FE000014B1868704700BFE80A002038B5044656
:102FF000FFF7F6FF0546B4F1FF3F02D0044B1B7804
:103000001C44FFF7EDFF401BA042FAD338BD00BFC0
:103010002C000020F0B583B005460C460023019338
:10302000FFF7DEFF2B689A6812F4807F23D10746F2
:103030005A6812F4807F03D1DB6A13F4700F29D031
:10304000504B1E68022001F0E3F8B6FBF0F62B6847
:1030500019694D4A114236D1D96802F15C421142D8
:1030600031D11969494A114240D1DA68484B1A42B4
:103070003ED0292041E0AB6A43F02003AB6200233D
:1030800085F82430012003B0F0BD2B681B6813F0D5
:10309000020F0FD02B681B6813F0020F4FD1B4F151
:1030A000FF3FF7D0002CF0D0FFF79AFFC31BA342DD
:1030B000F0D9EAE7AB6A43F00403AB62002385F87A
:1030C00024300320DFE71969304A114204D1D9685E
:1030D00002F16E4211420DD019692E4A0A405AB9C6
:1030E000DA682C4B13405BB1FC2006E0292004E099
:1030F000142002E0542000E0FC2000FB06F607E06C
:103100005420FAE7019BB34210D3019B0133019392
:10311000019BB34213D2B4F1FF3FF6D0002CF1D0A3
:10312000FFF75EFFC01BA042EFD9EBE7AB6A43F0AD
:103130000403AB62002385F824300320A3E72B6847
:103140006FF012021A60AB6A43F40073AB622B6833
:103150009B6803F46023B3F5602F01D0002092E751
:10316000287B60B9AB6A23F48073AB62AB6A13F45B
:10317000805F88D1AB6A43F00103AB6283E7002034
:1031800081E700BF2800002024499224922449129C
:1031900092244900499224000368D86C70470000CB
:1031A00030B482B00022019290F82420012A00F06D
:1031B00091800346012280F824204A68062A2DD8EF
:1031C0000468606B02EB8202053A4FF01F0C0CFAA8
:1031D00002FC20EA0C000D6805FA02F20243626369
:1031E0000A68092A3AD91C68E06802EB42021E3AD2
:1031F0004FF0070C0CFA02FC20EA0C008D6805FA6F
:1032000002F20243E2600A68103A012A36D900202D
:10321000002283F8242002B030BC70470C2A0ED85C
:103220000568286B02EB8202233A1F24944020EAAF
:1032300004000C6804FA02F202432A63D0E705682E
:10324000E86A02EB8202413A1F24944020EA04001B
:103250000C6804FA02F20243EA62C1E71C682069C2
:1032600002EB42024FF0070C0CFA02FC20EA0C00C1
:103270008D6805FA02F202432261C4E71A68164813
:10328000824205D09A6A42F020029A620120BFE78A
:10329000906810F4000F1BD1906840F4000090601B
:1032A0000A68102A01D00020B2E70C4A12680C49C3
:1032B000A1FB0212920C02EB82025200019202E088
:1032C000019A013A0192019A002AF9D100209FE760
:1032D00000209DE702209EE70024014028000020F6
:1032E00083DE1B43806A704730B583B000230193AF
:1032F00003689A6812F0010F33D104469A6842F0CD
:1033000001029A60184B1B68184AA2FB03239B0C0E
:10331000019302E0019B013B0193019B002BF9D13A
:10332000FFF75EFE054623689B6813F0010F16D178
:10333000FFF756FE431B022BF5D923689B6813F059
:10334000010FF0D1A36A43F01003A362E36A43F0D4
:103350000103E362002384F82430012002E000200E
:1033600000E0002003B030BD2800002083DE1B43B6
:1033700090F82430012B68D010B50446012380F862
:103380002430FFF7B1FF00285BD1A36A23F4407318
:1033900023F0010343F48073A36223682C4A934211
:1033A00027D0A26A22F48012A2625A6812F4806FB7
:1033B00005D0A26A22F4405242F48052A262A26A6C
:1033C00012F4805F2BD0E26A22F00602E262002251
:1033D00084F824206FF002021A6023689A6802F4CD
:1033E0006022B2F5602F1DD09A6842F480129A6074
:1033F0002AE0A2F58062526812F4702FD1D0A26A3E
:1034000042F48012A262134A526812F4806FD6D03E
:10341000A26A22F4405242F48052A262CFE7002214
:10342000E262D4E70A4A934204D09A6842F4A002C6
:103430009A6009E0A2F58062526812F4702FD3D12D
:10344000F3E7002384F8243010BD0220704700BF4A
:10345000002801400024014038B503689A6812F042
:10346000010F01D1002038BD04469A6822F0010204
:103470009A60FFF7B5FD054623689B6813F0010FBE
:1034800013D0FFF7ADFD431B022BF5D923689B68D2
:1034900013F0010FF0D0A36A43F01003A362E36AB4
:1034A00043F00103E3620120DDE70020DBE70000D9
:1034B00000287BD070B50446836A002B4DD020468F
:1034C000FFF7CAFFA36A13F0100369D1002867D180
:1034D000A26A22F4885222F0020242F00202A262A0
:1034E0006268E1690A43217B42EA4102A568B5F5B9
:1034F000807F02D0012D36D01D46267D012E35D08D
:103500002668716821F46941294371602568AE68B5
:10351000274931401143A960A168B1F5807F01D0EE
:10352000012902D12369013B1B052568E96A21F4C1
:1035300070010B43EB62236899681E4B0B409A4263
:1035400025D0A36A23F0120343F01003A362E36AB9
:1035500043F00103E362012027E0C36280F82430D6
:10356000FEF790FDABE74FF48075C6E731B9A1696E
:10357000013945EA413141F40065C1E7A16A41F0F2
:103580002001A162E16A41F00101E162B8E7002394
:10359000E362A36A23F0030343F00103A36204E0A0
:1035A000A36A43F01003A362012070BD012070479D
:1035B000FDF7E1FFFE0E1FFF70B582B000230193FF
:1035C00090F82430012B72D00446012380F8243077
:1035D000FFF742FF2046FFF787FE054628B100238C
:1035E00084F82430284602B070BDA36A23F48853BF
:1035F00023F0020343F00203A3622E4B1E68022055
:1036000000F006FEB6FBF0F67600019602E0019BA4
:10361000013B0193019B002BF9D12268936843F091
:1036200008039360FFF7DCFC064623689A6812F0F3
:10363000080F14D0FFF7D4FC801B0A28F5D92368A3
:103640009B6813F0080FF0D0A36A23F0120343F035
:103650001003A362002384F824300125C2E79A688E
:1036600042F004029A60FFF7BBFC064623689B68A1
:1036700013F0040F14D0FFF7B3FC801B0A28F5D910
:1036800023689B6813F0040FF0D0A36A23F01203A1
:1036900043F01003A362002384F824300125A1E73E
:1036A000A36A23F0030343F00103A36297E7022513
:1036B00098E700BF28000020074AD36823F4E0639E
:1036C0001B041B0C000200F4E060034343F0BF63E3
:1036D00043F40033D360704700ED00E000B5194BB0
:1036E000DB68C3F30223C3F1070CBCF1040F28BF4E
:1036F0004FF0040C03F1040EBEF1060F18D9033B82
:103700004FF0FF3E0EFA0CFC21EA0C0199400EFA34
:1037100003F322EA0303194300280BDB0901C9B2B2
:1037200000F1604000F5614080F800135DF804FB93
:103730000023E5E700F00F000901C9B2024B19545C
:10374000F4E700BF00ED00E014ED00E0002807DB27
:1037500000F01F02400901239340024A42F8203042
:10376000704700BF00E100E00138B0F1807F0BD26C
:103770004FF0E0235861054AF02182F82310002021
:10378000986107221A6170470120704700ED00E040
:1037900090F82130DBB2022B06D004238363002390
:1037A00080F82030012070470268136823F00E0370
:1037B00013600268136823F001031360036CC16B8C
:1037C000012202FA03F34B6080F82120002380F8E5
:1037D000203018467047000008B590F82130DBB261
:1037E000022B03D004238363012008BD0268136801
:1037F00023F00E0313600268136823F001031360C3
:103800000368194A934214D0143293421FD01432E1
:1038100093421ED0143293421ED0143293421ED0D3
:103820001432934202D04FF0807203E04FF48012C2
:1038300000E001220D4B5A60012380F82130002363
:1038400080F82030436B6BB198470020CDE7102201
:10385000F0E74FF48072EDE74FF48052EAE74FF45F
:103860008032E7E70020C0E7080002400000024085
:1038700070B582B00024A446A6E0804DAA4210D0C4
:1038800007D97F4DAA420CD005F58035AA4208D051
:1038900013E0A5F58015AA4203D005F57025AA42CC
:1038A00007D18A68002A58D0012A51D043610824E0
:1038B00003E0A5F58015AA42F3D0BEF1FF0F4ED864
:1038C0000646BEF1FF0F4CD84FEA8C0233680F2535
:1038D000954023EA050304FA02F2134333604B6870
:1038E00013F0805F6ED0674B9A6942F001029A61D3
:1038F0009B6903F001030193019B4FEA9C02951C15
:10390000614B53F825600CF003039D000F23AB407F
:1039100026EA03065D4B984229D003F5806398425E
:1039200000F08E8003F58063984200F08B8003F5F1
:103930008063984219D004231AE0CC68BDE7CC68B4
:103940000434BAE7CC680834B7E7CC680C34B4E781
:1039500003610824B1E70024AFE70424ADE7061DA6
:10396000AFE7ACF108029200B0E7032300E00023C8
:10397000AB4033430232444D45F822304B6813F4D8
:10398000801F61D0424A936843EA0E0393604B68FC
:1039900013F4001F5ED03E4AD36843EA0E03D3609F
:1039A0004B6813F4003F5BD0394A536843EA0E0377
:1039B00053604B6813F4803F58D0354A136843EA8C
:1039C0000E0313600CF1010C0A6832FA0CF353D0A9
:1039D000012303FA0CF302EA030E33EA0202F1D1E7
:1039E0004A68122A3FF649AF122A3FF666AF01A590
:1039F00055F822F0A33800083B3900084539000883
:103A000057390008BB380008BB380008BB3800082D
:103A1000BB380008BB380008BB380008BB380008BA
:103A2000BB380008BB380008BB380008BB380008AA
:103A3000BB380008BB3800083F3900084B39000884
:103A4000012395E7022393E7114A936823EA0E03C3
:103A500093609CE70E4AD36823EA0E03D3609FE786
:103A60000B4A536823EA0E035360A2E7084A13681F
:103A700023EA0E031360A5E702B070BD0000221018
:103A80000000311000100240000001400008014019
:103A9000000401408368194201D0012070470020D2
:103AA00070470AB101617047090401617047000065
:103AB00082B0084B1B68084AA2FB03235B0A00FB89
:103AC00003F3019300BF019B5A1E0192002BF9D111
:103AD00002B0704728000020D34D6210002800F08B
:103AE000F18170B582B00446036813F0010F2CD049
:103AF000994B5B6803F00C03042B1DD0964B5B685D
:103B000003F00C03082B12D06368B3F5803F41D05B
:103B1000002B55D103F1804303F504331A6822F4D6
:103B200080321A601A6822F480221A6037E08A4BC9
:103B30005B6813F4803FE7D0874B1B6813F4003FAA
:103B400003D06368002B00F0BF81236813F0020FDD
:103B500075D0814B5B6813F00C0F5FD07E4B5B68B8
:103B600003F00C03082B54D02369002B00F08A804B
:103B70007A4B01221A60FFF733FA0546764B1B6831
:103B800013F0020F75D1FFF72BFA401B0228F5D96D
:103B900003209EE1704A136843F480331360636826
:103BA00043B3FFF71DFA05466B4B1B6813F4003F48
:103BB000CBD1FFF715FA401B6428F5D9032088E123
:103BC000B3F5A02F09D0644B1A6822F480321A6032
:103BD0001A6822F480221A60E1E703F18043A3F51A
:103BE0003C331A6842F480221A601A6842F4803228
:103BF0001A60D4E7FFF7F4F90546574B1B6813F436
:103C0000003FA2D0FFF7ECF9401B6428F5D9032050
:103C10005FE1514B5B6813F4803FA5D14E4B1B68AD
:103C200013F0020F03D02369012B40F04F814A4A61
:103C3000136823F0F803616943EAC1031360236842
:103C400013F0080F33D0A369002B5CD0434B012243
:103C5000C3F88024FFF7C4F905463F4B5B6A13F0B5
:103C6000020F21D1FFF7BCF9401B0228F5D9032030
:103C70002FE1394A136823F0F803616943EAC1036D
:103C80001360DCE7354B00221A60FFF7A9F90546FF
:103C9000314B1B6813F0020FD1D0FFF7A1F9401B85
:103CA0000228F5D9032014E10120FFF701FF236862
:103CB00013F0040F00F09680274BDB6913F0805F50
:103CC00034D1254BDA6942F08052DA61DB6903F0C6
:103CD00080530193019B0125214B1B6813F4807FC6
:103CE00026D0E368012B3DD0002B53D103F1804354
:103CF00003F504331A6A22F001021A621A6A22F0EA
:103D000004021A6233E0154B0022C3F88024FFF747
:103D100067F90546104B5B6A13F0020FC7D0FFF737
:103D20005FF9401B0228F5D90320D2E00025D3E734
:103D30000B4A136843F480731360FFF751F906468A
:103D4000074B1B6813F4807FCBD1FFF749F9801B29
:103D50006428F5D90320BCE0001002400000424274
:103D6000007000405F4A136A43F001031362E36886
:103D700033B3FFF735F906465A4B1B6A13F0020FAF
:103D80002FD1FFF72DF9801B41F288339842F3D9E8
:103D900003209EE0052B09D0524B1A6A22F0010243
:103DA0001A621A6A22F004021A62E0E74D4B1A6A9C
:103DB00042F004021A621A6A42F001021A62D6E75D
:103DC000FFF70EF90646474B1B6A13F0020F08D0A7
:103DD000FFF706F9801B41F288339842F3D903209C
:103DE00077E0E5B9E369002B72D03E4A526802F0F1
:103DF0000C02082A56D0022B17D03B4B00221A6621
:103E0000FFF7EEF80446374B1B6813F0007F47D0EE
:103E1000FFF7E6F8001B0228F5D9032059E0314AE4
:103E2000D36923F08053D361DCE72F4B00221A665D
:103E3000FFF7D6F805462B4B1B6813F0007F06D022
:103E4000FFF7CEF8401B0228F5D9032041E0236A92
:103E5000B3F5803F1AD023494B6823F47413226AC8
:103E6000606A024313434B601F4B01221A66FFF73F
:103E7000B7F804461B4B1B6813F0007F0ED1FFF709
:103E8000AFF8001B0228F5D9032022E0154A536839
:103E900023F40033A1680B435360DCE7002018E0F3
:103EA000002016E0012B16D00E4B5B6803F4803126
:103EB000226A914211D103F47013626A93420ED1C7
:103EC000002006E001207047012002E0012000E010
:103ED000002002B070BD0120FBE70120F9E70120BE
:103EE000F7E700BF00100240000042420F4B5B6842
:103EF00003F00C02082A01D00D487047C3F3834237
:103F00000C49885C13F4803F0BD0084B5B68C3F30B
:103F10004043094AD35C064A02FB00F0B0FBF3F0D1
:103F20007047064B03FB00F0704700BF00100240D3
:103F300000127A0090FD0008A0FD000800093D0075
:103F4000002800F0A08070B50D460446524B1B6857
:103F500003F007038B420BD24F4A136823F0070389
:103F60000B431360136803F007038B4240F08D800E
:103F7000236813F0020F17D013F0040F04D0474A40
:103F8000536843F4E0635360236813F0080F04D0D0
:103F9000424A536843F460535360404A536823F0E5
:103FA000F003A1680B435360236813F0010F31D075
:103FB0006368012B20D0022B25D0384A126812F0FA
:103FC000020F64D035494A6822F0030213434B6064
:103FD000FFF706F80646314B5B6803F00C03626896
:103FE000B3EB820F16D0FEF7FBFF801B41F2883344
:103FF0009842F0D9032045E0284A126812F4003FA5
:10400000E0D101203EE0254A126812F0007FD9D1AC
:10401000012037E0204B1B6803F00703AB420AD9AD
:104020001D4A136823F007032B431360136803F042
:104030000703AB422DD1236813F0040F06D0174AB3
:10404000536823F4E063E1680B435360236813F083
:10405000080F07D0114A536823F46053216943EADB
:10406000C1035360FFF742FF0C4B5B68C3F30313BC
:104070000B4AD35CD8400B4B18600B4B1868FEF70B
:104080006BFF002070BD012070470120FAE701207E
:10409000F8E70120F6E700BF0020024000100240D0
:1040A00078FD00082800002030000020014B18682F
:1040B000704700BF2800002008B5FFF7F7FF044B4A
:1040C0005B68C3F30223034AD35CD84008BD00BF3A
:1040D0000010024088FD000808B5FFF7E7FF044B19
:1040E0005B68C3F3C223034AD35CD84008BD00BF5A
:1040F0000010024088FD000870B582B004460368D5
:1041000013F0010F36D03F4BDB6913F0805F49D1CC
:104110003C4BDA6942F08052DA61DB6903F080538C
:104120000193019B0125384B1B6813F4807F3BD022
:10413000344B1B6A13F4407313D0626802F440726C
:104140009A420ED02F4A136A23F440702F49012659
:10415000C1F840640026C1F84064106213F0010FFA
:1041600036D1284A136A23F4407361680B43136203
:10417000002D3ED1236813F0020F06D0214A536868
:1041800023F44043A1680B435360236813F0100FDE
:1041900034D01C4A536823F48003E1680B43536016
:1041A00000202CE00025BEE7174A136843F4807313
:1041B0001360FEF715FF0646134B1B6813F4807F50
:1041C000B6D1FEF70DFF801B6428F5D9032016E059
:1041D000FEF706FF06460B4B1B6A13F0020FC0D119
:1041E000FEF7FEFE801B41F288339842F3D903208C
:1041F00005E0D36923F08053D361BBE7002002B010
:1042000070BD00BF0010024000700040000042423C
:1042100008B502284ED0102803D0012828D000204D
:1042200008BD2B4B5A68186810F08070F8D0C2F3A4
:1042300083432849C85C12F4803F15D0244B5B6847
:10424000C3F34043244AD25C244BB3FBF2F303FB99
:1042500000F01F4B5B6813F4800FE1D14000204B4E
:10426000A3FB00304008DBE71E4B03FB00F0F0E748
:10427000174B1B6A40F202321A40B2F5817F24D0FC
:1042800003F44073B3F5007F04D0B3F5407F09D049
:104290000020C5E70E4A526A12F0020FF5D049F627
:1042A0004040BDE70A4B186810F40030B8D04FF218
:1042B0002440B5E7FFF710FF054B5B68C3F381337C
:1042C00001335B00B0FBF3F0AAE74FF40040A7E72F
:1042D00000100240A4FD0008B4FD000800127A009E
:1042E000ABAAAAAA00093D0010B4036A046A24F02C
:1042F00001040462846924F0F00C4CEA021223F0F9
:104300000A030B438261036210BC704710B4036A56
:10431000046A24F010040462846924F4704C4CEAAA
:10432000023223F0A00343EA01138261036210BC4E
:104330007047836823F070030B4343F007038360E7
:104340007047000090F83D30DBB2012B22D10223F0
:1043500080F83D300368114A934210D0B3F1804F8A
:104360000DD0A2F59432934209D002F580629342B7
:1043700005D01A6842F001021A60002070479A685E
:1043800002F00702062A07D01A6842F001021A60FA
:10439000002070470120704700207047002C01402A
:1043A0000368196A41F21112114208D1196A40F2E8
:1043B0004442114203D11A6822F001021A6001231B
:1043C00080F83D300020704703681B4A90420AD0B5
:1043D000B0F1804F07D0A2F59432904203D002F59D
:1043E0008062904203D123F070034A681343124A5B
:1043F00090420AD0B0F1804F07D0A2F5943290429B
:1044000003D002F58062904203D123F44073CA685E
:10441000134323F080034A69134303608B68C3622C
:104420000B688362044B984202D0012343617047BA
:104430000B690363F9E700BF002C014040B310B5DE
:10444000044690F83D30F3B1022384F83D30214614
:1044500051F8040BFFF7B8FF012384F8463084F8C5
:104460003E3084F83F3084F8403084F8413084F89E
:10447000423084F8433084F8443084F8453084F87E
:104480003D30002010BD80F83C30FEF7B1FCDBE78A
:104490000120704710B4846824F47F4C42EA032260
:1044A0000A4342EA0C02826010BC704790F83C302C
:1044B000012B78D010B50446012380F83C3002234C
:1044C00080F83D300268936823F47F4323F077033C
:1044D00093600B68602B4CD029D8402B54D00CD95A
:1044E000502B22D1CA6849680068FFF7FDFE5021B1
:1044F0002068FFF71EFF002005E0202B0DD009D912
:10450000302B0AD00120012384F83D30002384F8A9
:104510003C3010BD0BB1102B05D119462068FFF7B8
:1045200008FF0020EFE70120EDE70120EBE7B3F5FE
:10453000805F34D0B3F5005F0CD1CB684A688968DE
:104540000068FFF7A7FF2268936843F480439360F5
:104550000020D8E7702B24D1CB684A6889680068AE
:10456000FFF798FF2268936843F077039360002079
:10457000C9E7CA6849680068FFF7C8FE602120687B
:10458000FFF7D7FE0020BEE7CA6849680068FFF75A
:10459000ABFE40212068FFF7CCFE0020B3E70020EF
:1045A000B1E70120AFE702207047000090F83C30EF
:1045B000012B2CD010B4012380F83C30022380F86A
:1045C0003D3003685A689C6822F0700C0A6842EA21
:1045D0000C025A6003680F4A93420AD0B3F1804F2D
:1045E00007D0A2F59432934203D002F58062934241
:1045F00004D124F080044A6814439C60012380F8AD
:104600003D30002380F83C30184610BC7047022033
:10461000704700BF002C0140026802F10C0353E810
:10462000003F23F490730C3242E800310029F3D1AB
:10463000026802F1140353E8003F23F0010314322F
:1046400042E800310029F3D1036B012B05D0202370
:1046500080F84230002303637047026802F10C03C4
:1046600053E8003F23F010030C3242E800310029E8
:10467000F3D1ECE790F84130DBB2212B01D00220DE
:1046800070478368B3F5805F17D0036A5A1C0262D3
:104690001A7803685A60C38C9BB2013B9BB2C384F7
:1046A0004BB90268D36823F08003D3600268D368F3
:1046B00043F04003D360002070470369002BE4D12E
:1046C000036A1B880268C3F308035360036A02335A
:1046D0000362E0E710B504460268136923F440530F
:1046E000C1680B43136183680269134342691A432B
:1046F0000168CB6823F4B05323F00C031343CB6061
:104700000268536923F4407381690B435361026863
:10471000134B9A4220D0FFF7CFFC024602EB8202F5
:1047200002EB820263689B00B2FBF3F20D48A0FB30
:1047300002314909642303FB11231B013233A0FB1F
:1047400003235B0903F0F00202EB011203F00F03F5
:10475000216813448B6010BDFFF7BEFC0246DDE705
:10476000003801401F85EB512DE9F84305460F46FF
:1047700016469946DDF820802C68246837EA040341
:104780000CBF4FF0010C4FF0000CB4452DD1B8F127
:10479000FF3FF1D0B8F1000F05D0FEF721FCA0EBF0
:1047A00009004045E8D92A6802F10C0353E8003FAC
:1047B00023F4D0730C3242E800310029F3D12A6887
:1047C00002F1140353E8003F23F00103143242E8DE
:1047D00000310029F3D1202385F8413085F842309B
:1047E000002385F84030032000E00020BDE8F88376
:1047F00060B310B5044690F8413013B3242384F815
:1048000041302268D36823F40053D3602046FFF779
:1048100061FF2268136923F490431361226853698E
:1048200023F02A0353612268D36843F40053D36012
:1048300000206064202384F8413084F842306063B3
:1048400010BD80F84030FEF703FBD7E7012070472A
:104850002DE9F04182B01E4690F84130DBB2202BAA
:104860004BD104460D46904600294AD00AB9012092
:1048700044E000234364212380F84130FEF7B0FB7D
:104880000746A4F82480A4F82680A368B3F5805FC7
:1048900002D04FF000080FE02369FBB14FF0000891
:1048A0000AE038F8023B2268C3F308035360E28C45
:1048B00092B2013A92B2E284E38C9BB28BB1009641
:1048C0003B46002280212046FFF74EFFD8B9002D3D
:1048D000E7D015F8012B23685A60E8E7A8460025C1
:1048E000EAE700963B46002240212046FFF73CFFC6
:1048F00058B9202384F8413000E0022002B0BDE81E
:10490000F0810120FAE70320F8E70320F6E72DE91C
:10491000F04182B01E4690F84230DBB2202B53D1DA
:1049200004460D469046002952D00AB901204CE0B9
:1049300000234364222280F842200363FEF750FBE9
:104940000746A4F82C80A4F82E80A368B3F5805FF6
:1049500002D04FF0000817E0236913B14FF00008B0
:1049600012E0A84600250FE023685B68C3F3080344
:1049700028F8023B03E023685B682B700135E28D69
:1049800092B2013A92B2E285E38D9BB2BBB100963E
:104990003B46002220212046FFF7E6FED0B9002D3D
:1049A000E2D0A368B3F5805FE5D013B92369002B8B
:1049B000E1D023685B6803F07F032B70DEE72023E0
:1049C00084F84230002000E0022002B0BDE8F0810F
:1049D0000120FAE70320F8E7704708B50168CA68C4
:1049E00022F04002CA60202280F84120FFF7F4FF45
:1049F000002008BD704708B5406A0023C385C38402
:104A0000FFF7F8FF08BD704790F84230DBB2222B69
:104A100069D18368B3F5805F4FD0826AB3F5805F58
:104A200004D0002B56D10369002B53D103685B6877
:104A30001370836A01338362C38D9BB2013B9BB2C7
:104A4000C385002B51D100B583B00268D36823F031
:104A50002003D3600268D36823F48073D3600268B4
:104A6000536923F001035361202380F8423000236F
:104A70004363036B012B33D100230363026802F10C
:104A80000C0353E8003F23F010030C3242E80031DE
:104A90000029F3D103681A6812F0100F06D0002223
:104AA00001921A6801925B680193019B818DFFF767
:104AB000AAFF002003B05DF804FB0269002AACD114
:104AC000826A03685B68C3F308031380836A023356
:104AD0008362B1E703685B6803F07F031370A8E7A4
:104AE000FDF7A2FFE5E702207047002070470000B5
:104AF00030B583B0044602681368D068516913F07A
:104B00000F0505D113F0200F02D010F0200F19D19E
:104B10002DB111F0010119D110F4907F16D1216B44
:104B200001297DD013F0800F03D010F0800F40F0EA
:104B3000188113F0400F03D010F0400F40F01581A2
:104B400003B030BD2046FFF75FFFF9E713F0010F18
:104B500006D010F4807F03D0626C42F001026264E0
:104B600013F0040F04D019B1626C42F002026264C7
:104B700013F0020F04D019B1626C42F004026264B7
:104B800013F0080F07D010F0200F00D119B1626C9C
:104B900042F008026264626C002AD1D013F0200F48
:104BA00002D010F0200F29D123685B6903F0400385
:104BB000626C12F0080F00D163B32046FFF72CFDA2
:104BC00023685B6913F0400F20D0226802F11403C0
:104BD00053E8003F23F04003143242E8003100293B
:104BE000F3D1E36B73B1634A5A63E06BFEF7F4FDF4
:104BF0000028A5D0E06B436B9847A1E72046FFF75C
:104C000003FFD1E72046FFF7F5FE99E72046FFF7BF
:104C1000F1FE95E72046FFF7EDFE002363648FE782
:104C200013F0100F3FF47EAF10F0100F3FF47AAF87
:104C3000002301931368019353680193019B536907
:104C400013F0400F51D0E26B13685B689BB2002BEE
:104C50003FF476AFA18D99427FF672AFE3859369F9
:104C6000202B37D0226802F10C0353E8003F23F4D5
:104C700080730C3242E800310029F3D1226802F13E
:104C8000140353E8003F23F00103143242E80031DB
:104C90000029F3D1226802F1140353E8003F23F006
:104CA0004003143242E800310029F3D1202384F874
:104CB000423000232363226802F10C0353E8003FD3
:104CC00023F010030C3242E800310029F3D1E06BED
:104CD000FEF75EFD02236363A18DE38D9BB2C91ACB
:104CE00089B22046FFF78FFE2AE7A18DE38D9BB2A4
:104CF000C91A89B2E38D9BB2002B3FF421AF002982
:104D00003FF41EAF226802F10C0353E8003F23F486
:104D100090730C3242E800300028F3D1226802F18F
:104D2000140353E8003F23F00103143242E800303B
:104D30000028F3D1202384F8423000232363226823
:104D400002F10C0353E8003F23F010030C3242E859
:104D500000300028F3D1022363632046FFF753FE9F
:104D6000EEE62046FFF786FCEAE62046FFF735FE32
:104D7000E6E600BFF749000881628285C28500230C
:104D80004364222380F84230036923B10268D36868
:104D900043F48073D3600268536943F001035361A5
:104DA0000268D36843F02003D3600020704708B541
:104DB00090F84230DBB2202B08D149B10AB901206A
:104DC00008BD00230363FFF7D7FFF9E70220F7E7E9
:104DD0000120F5E738B504460D4603681BB10223F0
:104DE0000373002318E001230373084601F0B2F9AE
:104DF0002060C8B100236360A56003E02268002141
:104E0000D1540133A2689A42F8D80DE022684FF0DD
:104E1000000C02F803C00133A2689A42F6D80023BE
:104E20006360AA4200D2236038BD10B50446037BFC
:104E3000012B05D0002323606360A360237310BDA2
:104E4000006801F08FF9F5E70346012004280ADC29
:104E500003F07F020A70DB0907D062F07F0201F8DD
:104E6000012B0130F2E74FF0FF3070470023136051
:104E70004FF0010C8B421BDA10B5C45C04F07F04C8
:104E8000D2F800E00CFB04E41460C456002C0ADAEB
:104E90004FEACC1CBCF5001F07D201338B42ECDB80
:104EA0004FF0FF3003E0581C01E06FF0010010BD2F
:104EB0004FF0FF307047000030B583B0047824090C
:104EC000631EDBB20D2B26D80546032C02D02046EC
:104ED00003B030BD0023019301AA04210130FFF784
:104EE000C5FF431CE818019A012A12D9297811F04C
:104EF000010F0ED1E95C437843EA012302339A4261
:104F000007D30649023001F039FF0028DFD00F2413
:104F1000DDE7FF24DBE7FF24D9E700BFB8FD000889
:104F20002DE9F04F85B001900F46164603939DF88A
:104F300038509DF83CB0139C104601F029FD0290BA
:104F4000002E00F03A810FFA80FA00F111091FFAE1
:104F500089F91DBB4FF00008109B8BB148F0040885
:104F6000184601F015FDC5B2119801F011FD054478
:104F7000ADB2A9441FFA89F909F104091FFA89F9A8
:104F8000BBF1010F0DD0BBF1020F00F0EF80BBF1C0
:104F9000000F08D0022005B0BDE8F08F4FF00208E6
:104FA000DAE748F00C08129B0BB148F0240801988E
:104FB000002800F00481002F00F0038148F0C00BAE
:104FC00001F0E6FC0546384601F0E2FC0544ADB2CE
:104FD000A9441FFA89F909F104091FFA89F9494618
:104FE0002046FFF7F7FE2068002800F0EC804A46D4
:104FF000002101F06BFB22686368591C616010217D
:10500000D154216863681944A9F10500FFF71CFF1A
:1050100000B20028C0F2AD80636818446060236865
:10502000421C626000221A54216863685A1C626044
:105030000422CA5421686368581C60604D20C8541B
:1050400021686368581C60605120C85420686368F8
:10505000591C61605421C154206863685D1C6560FF
:10506000C15421686368581C6060CA542268636830
:10507000591C616002F803B022686368591C6160C2
:105080000398010AD15422686368591C6160D054A6
:1050900022686368591C6160CAF30721D1542268F1
:1050A0006368591C61600299D15420686368524654
:1050B0003146184401F09AFC65685544656018F063
:1050C000040F34D0119B002B58D0109801F060FCD5
:1050D00086B223686A1C6260C0F307225A552268B0
:1050E0006368591C6160D054206863683246109927
:1050F000184401F07BFC656835446560119801F047
:1051000047FC86B223686A1C6260C0F307225A55C6
:1051100022686368591C6160D05420686368324615
:105120001199184401F062FC6368334463601BF01A
:10513000800F26D1384601F02BFC85B222686368C7
:10514000591C6160C0F30721D15422686368591C5F
:105150006160D054206863682A463946184401F0DB
:1051600045FC63682B446360002014E748F0140892
:1051700019E72046FFF759FE05200CE7134B119362
:10518000A3E7019E304601F003FC85B22268636804
:10519000591C6160C0F30721D15422686368591C0F
:1051A0006160D054206863682A463146184401F093
:1051B0001DFC63682B446360BCE70120EBE6032021
:1051C000E9E60320E7E60420E5E600BFECFD000881
:1051D0004378022B04D18378012B03D8C078704721
:1051E00001207047FF2070472DE9F04383B004464B
:1051F0000F4616461D462F21063001F063FB0023A3
:105200000193002843D0814600F1010801AA04213E
:10521000601CFFF72BFE252000F09CFF3860002863
:1052200037D02522002101F051FA40463C6809F1AF
:105230002108D0F800C041688268C368C4F800C083
:105240006160A260E360103010344045F1D1036822
:10525000236009F1250901982C3880B2288001309B
:1052600000F078FF306068B12A880132002101F037
:105270002DFA2A8849463068FBF7ACFD002003B0C0
:10528000BDE8F083386800F06DFF0320F7E70120E8
:10529000F5E70220F3E72DE9F047089D00286AD0E2
:1052A000884616461F4682460024A146BC4209D2C3
:1052B00056F82400002861D001F06AFB81440134D3
:1052C000E4B2F3E707EB470149448C1C0731284659
:1052D000FFF780FD2B68002B52D06A68511C696073
:1052E0008221995429686B6819442046FFF7ACFD68
:1052F00003B2002B11DB6A6813446B602A68591CE7
:1053000069604FEA1A21D1542A686B68591C696098
:1053100002F803A04FF0000929E02846FFF785FDB9
:10532000042029E056F8290001F032FB04462A68DF
:105330006B68591C6960C0F30721D1542A686B68F7
:10534000591C6960D05428686B68224656F82910A9
:10535000184401F04BFB686804446C602B68621CC5
:105360006A6003F8048009F101095FFA89F9B94517
:10537000D8D3002000E00120BDE8F0870220FBE741
:105380000320F9E70346807858B9DA78142A01D067
:10539000FF2070471B79022B06D9802B03D10120F7
:1053A0007047FF20704702207047837823B9C37885
:1053B0001E2B03D00120704701207047002070474A
:1053C0002DE9F04F85B000939DF83890DDF84480CA
:1053D0000190002800F0E6800E461746002500E008
:1053E0000135745D34B1232C00F0E1802B2CF7D112
:1053F0000224D8E00F9B8BB930230293009BEB185B
:1054000003F1020AB9F1010F0BD0B9F1020F00F05C
:105410008D80B9F1000F0AD00324C4E03123029338
:10542000ECE7029A42F00202029203F1040A002F12
:1054300000F093803B78022B7FD100231A46013382
:10544000B95C7D29FAD1531D0393009AA3EB020B9B
:10545000D3440BF1030B59464046FFF7BBFCD8F889
:105460000000002800F0A5805A46002101F02EF926
:10547000D8F80020D8F80430591CC8F80410029954
:10548000D154D8F80010D8F8043019445046FFF72A
:10549000DBFC002871DBD8F804300344C8F8043082
:1054A000D8F80020591CC8F80410C5F30721D154BE
:1054B000D8F80020D8F80430591CC8F80410D55486
:1054C000D8F80000D8F804302A463146184401F0D4
:1054D0008DFAD8F804301D44C8F80450B9F1000F13
:1054E0000FD0D8F800306A1CC8F804200198020ACE
:1054F0005A55D8F80020D8F80430591CC8F80410C0
:10550000D054002F4FD03B78022B3BD0D8F800006E
:10551000D8F80430009D2A4639461844FBF75AFC57
:10552000D8F804302B44C8F804303CE0029A42F02A
:105530000402029203F1040A79E70AF1050B5946C5
:105540004046FFF747FCD8F80000A0B35A460021B8
:1055500001F0BCF8002303938AE70AF1050B5946D2
:105560004046FFF737FCD8F8000030B35A46002118
:1055700001F0ACF8002303937AE74046FFF755FCAF
:10558000052410E0D8F80000D8F80430039D2A461E
:1055900039461844FBF71EFCD8F804302B44C8F8F1
:1055A000043000E00124204605B0BDE8F08F02245D
:1055B000F9E70424F7E70424F5E70424F3E70000FF
:1055C0002DE9F04F83B006460F461546984610F871
:1055D000014B00230193C4F341030D9A137001AAF8
:1055E0000421FFF743FC013006EB0009019B012B6E
:1055F00040F2A48004F0080B14F0010440F0A080F5
:10560000335C99F8016046EA03262E80B21C019BA8
:105610009A4200F2978009F1020A5449504601F07B
:10562000ADFB002840F090800D9B1B78002B4BD0E9
:10563000013BDBB2012B00F28C804E44B278F37850
:1056400043EA02230E9A1380002A00F088802888FB
:10565000013000F07FFD3860002800F082802A8849
:105660000132002101F032F82A8851463868FBF7F0
:10567000B1FB2B880198C01A043880B20C9B1880AB
:10568000013000F067FDC8F80000002851D00C9BE5
:105690001A880132002101F019F8298804310C9B85
:1056A0001A884944D8F80000FBF794FB2B213846B0
:1056B00001F008F9002856D12321384601F002F9FB
:1056C000002842D0FF2440E0BBF1000F43D1701C02
:1056D00000F040FD386000283FD02A8801320021C8
:1056E00000F0F4FF2A8851463868FBF773FB2B88DB
:1056F0000198C01A023880B20C9B1880013000F06B
:1057000029FDC8F8000078B10C9B1A8801320021ED
:1057100000F0DCFF298802310C9B1A884944D8F834
:105720000000FBF757FBC1E7386800F01BFDFF24C2
:105730000BE0386800F016FDFF2406E0FF2404E0CB
:10574000FF2402E0FF2400E00F24204603B0BDE860
:10575000F08FFF24F9E7FF24F7E7FF24F5E7FF24A4
:10576000F3E7FF24F1E7FF24EFE700BFB8FD0008EF
:105770004378022B06D1837833B9C3780A2B05D03E
:1057800001207047012070470120704700207047BA
:105790004378022B06D1837833B9C3780A2B05D01E
:1057A000012070470120704701207047002070479A
:1057B00038B505460C4604212046FFF70BFB23684D
:1057C000BBB16268511C61606221995422686368B0
:1057D000591C61600221D15422686368591C6160C0
:1057E000290AD15422686368591C6160D55400208D
:1057F00038BD0120FCE74378022B09D18378B3EB55
:10580000112F07D1C378C9B28B4205D00120704750
:1058100001207047012070470020704738B50546C9
:105820000C4604212046FFF7D5FA2368BBB1626815
:10583000511C61607021995422686368591C616031
:105840000221D15422686368591C6160290AD1542D
:1058500022686368591C6160D554002038BD01205E
:10586000FCE74378022B06D1837833B9C3780A2B3F
:1058700005D00120704701207047012070470020AB
:105880007047000008B540220021034800F01EFFC9
:10589000024B00221A8008BDEC0A00202C0B0020CD
:1058A000084B1B885BB1084A1288934203D0064A12
:1058B0001380012070470020024B188070470120A0
:1058C000704700BF2C0B00202E0B0020F0B591B0CC
:1058D00004460E4601F05CF8174F80B20F900E940C
:1058E0006C4607F110050FCD0FC40FCD0FC40FCDBF
:1058F0000FC495E8030084E8030097E80F00FDF764
:10590000EBFAC82203E00A20FDF770FB2246531E83
:10591000DCB27AB1FFF7C4FF05460028F3D1314667
:10592000064801F02BFA0028EDD0FFF7ABFF284620
:1059300011B0F0BD0125FAE7A00A0020EC0A002012
:1059400070B598B005460C46FFF79CFF22461349F8
:1059500010A800F095FF124910A8FFF7B7FF08B193
:1059600018B070BD0F4E0F940E95EC4606F1100E58
:10597000BEE80F00ACE80F00BEE80F00ACE80F0077
:10598000BEE80F00ACE80F009EE803008CE80300BF
:1059900096E80F00FDF7A0FAE2E700BFC0FD00089F
:1059A000D0FD0008A00A002010B5044606E005203E
:1059B000FDF71CFB631E9BB284B11C46FFF770FF12
:1059C0000028F4D10649074801F0D8F90028EED0A4
:1059D0003A2100F077FF10B1013000E0002010BD47
:1059E000D4FD0008EC0A002030B583B0FFF74AFF71
:1059F0004D4800F02BFF0C230093042301220021CB
:105A00000846FCF785F949494948FFF75FFF002838
:105A1000F9D14FF4FA70FDF7E9FA464800F016FFA5
:105A20000C2400940423022200210846FCF770F99C
:105A3000414D29464148FFF749FF4FF4FA70FDF701
:105A4000D5FA29463E48FFF741FF0094042303227C
:105A500000210846FCF75CF94FF4FA70FDF7C6FA2E
:105A6000384800F0F3FE009404231A46002108464B
:105A7000FCF74EF903E04FF4FA70FDF7B7FA2B4943
:105A80003148FFF723FF0028F5D1304800F0DEFE53
:105A90000C2300930423052200210846FCF738F963
:105AA00003E04FF4FA70FDF7A1FA20492848FFF708
:105AB0000DFF0028F5D1274800F0C8FE0C23009305
:105AC0000423062200210846FCF722F903E04FF4E4
:105AD000FA70FDF78BFA20492048FFF7F7FE0028FF
